:100000000C9492000C94BA000C94BA000C94BA00B0
:100010000C94BA000C94BA000C94BA000C94BA0078
:100020000C94BA000C94BA000C949E050C943A04FB
:100030000C94BA000C94BA000C94BA000C94BA0058
:100040000C94BA000C94BA000C94BA000C94BA0048
:100050000C94BA000C94BA000C94BA000C943206BA
:100060000C94BA000C94BA000C94BA000C94BA0028
:100070000C94BA000C94BA000C94BA000C94BA0018
:100080000C94BA000C94BA000C94BA000C94BA0008
:100090000C94BA000C94BA000C94BA000C94BA00F8
:1000A0000C94BA000C94BA000C94BA00080B00022D
:1000B0000202010009040000010202000005240000
:1000C0001001052401010104240206052406000193
:1000D0000705810310004009040100020A00000026
:1000E00007050202400000070583024000001201DC
:1000F0000002EF02014041233680000101020301AA
:1001000041726475696E6F204C4C43004172647596
:10011000696E6F204C656F6E6172646F0004030935
:100120000400D00111241FBECFEFDAE0DEBFCDBF47
:1001300011E0A0E0B1E0EAEAFFE002C005900D9214
:10014000A632B107D9F721E0A6E2B1E001C01D92C5
:10015000A639B207E1F710E0C2E9D0E004C0219768
:10016000FE010E94CD07C139D107C9F70E94E601FF
:100170000C94D3070C94000040E855E260E070E076
:1001800086E291E00C94CA010895CF93DF931F9209
:10019000CDB7DEB76983DC01ED91FC910280F3817C
:1001A000E02D41E050E0BE016F5F7F4F09950F9059
:1001B000DF91CF910895CF93DF93EC018C859D85DE
:1001C00097FF05C082E00E94FF029D878C878C8587
:1001D0009D85DF91CF91089583E00E94160390E002
:1001E000089583E00C949405FC018485958597FD22
:1001F00006C082E00E94AA0290E00196089582E083
:100200000E94AA0290E00895FC018485958597FDDF
:1002100005C02FEF3FEF35872487089582E00C94C7
:10022000FF02CF93DF93EC0180910B01882331F023
:1002300083E00E9430031816190634F081E090E044
:100240009B838A8380E090E0DF91CF910895EEEF69
:10025000FFE72591349181E02B3F3C4D09F080E090
:100260000895FC0190819E5F908342E450E06CEA27
:1002700070E080E80C94E003FC0181819081913A68
:1002800059F4813209F065C047E050E064E071E064
:1002900080E00E94E0035BC0913209F05AC08332D3
:1002A00069F482819381A0E0B0E080930001909393
:1002B0000101A0930201B093030149C0803239F4D7
:1002C00067E070E084E091E00E94070440C0823261
:1002D00009F03DC0828180930B010E942701882391
:1002E00019F0EEEFFAE002C0E0E0F8E080910401DE
:1002F00090910501A0910601B0910701803B9440C7
:10030000A105B10541F580910B0180FD24C0EE3FB0
:100310008AE0F80751F080819181873727E79207BB
:1003200021F09093FF0A8093FE0A87E797E7918375
:10033000808380916000809376019BE088E10FB616
:10034000F894A895809360000FBE9093600081E0C0
:10035000089580E008958081918187379747B9F7A4
:10036000A8958091600088618093600080917601FB
:1003700080936000EE3F8AE0F80739F08091FE0A32
:100380009091FF0A91838083E2CF1092FF0A10922E
:10039000FE0ADDCF2FEF3FEFFC013587248708955C
:1003A000E6E2F1E01382128288EE93E0A0E0B0E092
:1003B00084839583A683B78387E191E091838083CB
:1003C0008FEF9FEF95878487089508950E94DD063B
:1003D0000E94E50187E791E00E941F060E94BC0091
:1003E000C0E0D0E00E94C4002097E1F30E9400002A
:1003F000F9CF615030F02091F100FC01208301968B
:10040000F8CF289884E680937F01089540917A017F
:1004100050917B0120917801309179014217530767
:10042000B4F49091E8009570E1F39091E80092FDAA
:1004300019C08093F10080917A0190917B0101961F
:100440008F739927892B19F48EEF8093E8008091A0
:100450007A0190917B01019690937B0180937A01C0
:1004600081E0089580E00895DF92EF92FF920F936C
:100470001F93CF93DF93D82EF92EE42E062F10E092
:10048000C8010196880F0E94060283E00E940602BE
:10049000CD2DDF2D0C0F1D1FC017D10789F0E7FEF2
:1004A00003C0FE01849101C088810E940602F82EDB
:1004B00080E00E9406028F2121968111EDCF01C0BC
:1004C00081E0DF91CF911F910F91FF90EF90DF902E
:1004D00008958091D70081608093D70080EA80934F
:1004E000D80089B5806189BD89B5826089BD09B4AC
:1004F00000FEFDCF61E070E080E090E00E94A10688
:100500008091D8008F7C80618093D8008091E0003A
:10051000807F8093E0000895CF93DF931F92CDB743
:10052000DEB71982CE0101960E9431010E94B907FF
:10053000BE016F5F7F4F0E94340789810F90DF916A
:10054000CF9108952FB7FC012083F89467706093D2
:10055000E9000895CF93DF931F92CDB7DEB7682FE0
:10056000CE0101960E94A2028091F20099819FBF64
:100570000F90DF91CF910895EF92FF920F931F9309
:10058000CF93DF931F92CDB7DEB790917E01992371
:1005900011F057FF03C08FEF9FEF29C08A017B0145
:1005A000682FCE0101960E94A2022091F20030E055
:1005B000021713070CF49801822FF70194E681507B
:1005C00038F0289890937F014091F1004193F7CF44
:1005D0002115310521F08091F200882321F08981D5
:1005E0008FBFC90104C08BE68093E800F8CF0F905D
:1005F000DF91CF911F910F91FF90EF900895CF93CE
:10060000DF931F92CDB7DEB741E050E0BE016F5FD0
:100610007F4F0E94BC02019719F4898190E002C0CB
:100620008FEF9FEF0F90DF91CF910895CF93DF93DE
:100630001F92CDB7DEB7682FCE0101960E94A202AD
:100640009091E800892F807295FF04C09091F2008C
:1006500080E4891B99819FBF0F90DF91CF9108950E
:100660005F926F927F928F929F92AF92BF92CF9242
:10067000DF92EF92FF920F931F93CF93DF931F921E
:10068000CDB7DEB7982E6B01B42E052F80917E0179
:10069000811103C08FEF9FEF77C080917C0180FFB5
:1006A00005C08091E00082608093E000EB2CF02E8A
:1006B000A12C8AEF882E892D8072682E892D807456
:1006C000582E9AE3792EE114F10419F4AA2009F4C2
:1006D00055C0892D0E941603182F81110AC08A94D3
:1006E0008820C1F261E070E080E090E00E94A10605
:1006F000EACF90E0E816F9060CF41E2D692DCE0124
:1007000001960E94A2028091E80085FF34C0812FEB
:1007100090E0E81AF90A662029F01150A0F0109232
:10072000F100FBCFF60197FE0AC0115050F0249162
:100730002093F1003196F9CF21912093F1001150CF
:10074000D8F7C80ED91EAA2019F07092E8000BC085
:100750008091E80085FD09C07092E800AA24A39466
:10076000E114F10441F0A12C06C0E114F10419F4E4
:1007700051107092E80089818FBFA5CF5D9884E603
:10078000809380018B2D902F0F90DF91CF911F913F
:100790000F91FF90EF90DF90CF90BF90AF909F9020
:1007A0008F907F906F905F9008951092E900109263
:1007B0007B0110927A0190937901809378010895DA
:1007C000DF92EF92FF920F931F93CF93DF93D82E78
:1007D0008A017B01E40EF51EEB01CE15DF0571F0F9
:1007E000D7FE03C0FE01849101C088810E940602E9
:1007F00021968111F2CF8FEF9FEF01C0C801DF91E9
:10080000CF911F910F91FF90EF90DF900895AF92DD
:10081000BF92DF92EF92FF920F931F93CF93DF93DC
:100820005C018B01EB019BEFD92E2097C1F07E017B
:10083000C134D1051CF080E4E82EF12C8091E80051
:1008400082FFFCCFC8018C1B9D0B6E2D8A0D9B1D5A
:100850000E94F901D092E800CE19DF09E6CFC80165
:10086000DF91CF911F910F91FF90EF90DF90BF909C
:10087000AF9008951F920F920FB60F921124CF924E
:10088000DF92EF92FF920F931F932F933F934F931B
:100890005F936F937F938F939F93AF93BF93EF93E8
:1008A000FF93CF93DF93CDB7DEB76C97DEBFCDBF9D
:1008B0001092E9008091E80083FF17C168E0CE0143
:1008C00045960E94F90182EF8093E8008D8987FFA9
:1008D00005C09091E80090FFFCCF03C09EEF90937D
:1008E000E800982F907609F0D8C09E894F89588DDE
:1008F0002F89188D91110CC0803829F480917D01C9
:100900008093F10002C01092F1001092F100E6C055
:10091000913051F48111E2C04130510509F0DEC03F
:1009200080917D018D7F0BC0933061F48111D6C021
:100930004130510509F0D2C080917D0182608093E1
:100940007D01CCC0953049F48091E80080FFFCCF58
:10095000822F80688093E300C1C0963009F070C098
:10096000EB8CFC8C123069F580E090E00E94D5039E
:100970000E948C0299E09E012F5F3F4F6901F901AF
:10098000292F11922A95E9F799831A8391E09E8382
:1009900090EA98879AEF998720917A0130917B01AC
:1009A000275F3F4F3C832B838D83C7010E94D50374
:1009B00049E050E0B60180E00E94E0030E948C0212
:1009C0008DC0C7010E94D5030E94B907BE016B5EAE
:1009D0007F4F0E945D07009719F00CF07FC082C026
:1009E000113009F470C0133009F07CC08F8988235E
:1009F00009F46CC0823029F440E860E18CE091E0B9
:100A000006C0813039F440E86BE080E091E00E945C
:100A1000340256C0833009F065C00E94B9078E01C8
:100A20000F5F1F4FB8010E947C07F8010190002062
:100A3000E9F73197BF01601B710B40E0C801E7CFB8
:100A4000973009F44FC0983021F481E08093F10091
:100A500045C0993009F042C0837009F043C0EDE011
:100A6000F1E081E031E096E32081211109C08EE7B9
:100A70008093EA001092EA008F8980937E012EC055
:100A80008093E9003093EB0021912093EC00909348
:100A9000ED008F5F873041F7EACF8B8D9C8D0E94F0
:100AA000D503898D811105C0CE0145960E943C0178
:100AB00007C00E94B907BE016B5E7F4F0E949B0773
:100AC000882381F00BC06EEE70E002C06DE171E032
:100AD000FB01449150E080E80E94E0038EEF809398
:100AE000E80003C081E28093EB006C960FB6F894A7
:100AF000DEBF0FBECDBFDF91CF91FF91EF91BF91D0
:100B0000AF919F918F917F916F915F914F913F91A5
:100B10002F911F910F91FF90EF90DF90CF900F904A
:100B20000FBE0F901F9018958093E9008091F200FE
:100B3000882319F08AE38093E80008951F920F92AA
:100B40000FB60F9211242F933F934F935F936F93A0
:100B50007F938F939F93AF93BF93CF93EF93FF9325
:100B6000C091E1008091E100837F8093E100C3FFA9
:100B70000FC01092E90081E08093EB001092EC002E
:100B800082E38093ED0010927E0188E08093F00074
:100B9000C2FF19C083E00E949405809180018823E0
:100BA00039F080918001815080938001882389F100
:100BB00080917F01882339F080917F01815080935B
:100BC0007F01882341F1C4FF10C08091E2008E7E36
:100BD00081608093E2008091E1008F7E8093E1004C
:100BE00080917C018E7E806111C0C0FF16C0809113
:100BF000E2008E7E80618093E2008091E1008E7E33
:100C00008093E10080917C018E7E816080937C01E5
:100C100004C05D9ACDCF289AD6CFFF91EF91CF91A6
:100C2000BF91AF919F918F917F916F915F914F9104
:100C30003F912F910F900FBE0F901F90189510921B
:100C40007E0110927D0110927C010E946902E1EE0A
:100C5000F0E080818E7E80838DE08093E200559A63
:100C6000209A08951F920F920FB60F9211242F937E
:100C70003F938F939F93AF93BF9380918201909105
:100C80008301A0918401B09185013091810123E01D
:100C9000230F2D3720F40196A11DB11D05C026E8B4
:100CA000230F0296A11DB11D209381018093820123
:100CB00090938301A0938401B09385018091860174
:100CC00090918701A0918801B09189010196A11DA1
:100CD000B11D8093860190938701A0938801B09302
:100CE0008901BF91AF919F918F913F912F910F906B
:100CF0000FBE0F901F9018953FB7F8948091860112
:100D000090918701A0918801B091890126B5A89B97
:100D100005C02F3F19F00196A11DB11D3FBFBA2F8D
:100D2000A92F982F8827820F911DA11DB11DBC01ED
:100D3000CD0142E0660F771F881F991F4A95D1F7B2
:100D400008958F929F92AF92BF92CF92DF92EF92CF
:100D5000FF926B017C010E947C064B015C01C11477
:100D6000D104E104F10401F10E9433070E947C06E2
:100D7000DC01CB0188199909AA09BB09883E934077
:100D8000A105B10560F321E0C21AD108E108F1081C
:100D900088EE880E83E0981EA11CB11CC114D104FA
:100DA000E104F10419F7DBCFFF90EF90DF90CF90D3
:100DB000BF90AF909F908F900895789484B5826093
:100DC00084BD84B5816084BD85B5826085BD85B5EF
:100DD000816085BDEEE6F0E0808181608083E1E89E
:100DE000F0E01082808182608083808181608083D6
:100DF000E0E8F0E0808181608083E1E9F0E08081DB
:100E000082608083808181608083E0E9F0E080817E
:100E100081608083E1ECF0E0808184608083808168
:100E200082608083808181608083E3ECF0E0808158
:100E300081608083E0ECF0E0808182608083E2EC7E
:100E4000F0E0808181608083EAE7F0E08081846067
:100E500080838081826080838081816080838081C3
:100E60008068808308950895EF92FF920F931F93F7
:100E7000CF93DF937B01FC01C281D38100E010E0BE
:100E8000209781F0E881F9810280F381E02DB7019C
:100E9000CE01099597FD08C0080F191F0884D98550
:100EA000C02DEECFC80102C08FEF9FEFDF91CF9131
:100EB0001F910F91FF90EF9008950F931F93CF9381
:100EC000DF938B01FC01C281D381209771F0E8810F
:100ED000F9810480F581E02DB801CE0109950097D4
:100EE00031F40884D985C02DF0CF80E090E0DF9107
:100EF000CF911F910F9108950F931F93CF93DF937D
:100F00008B01FC01C281D381209771F0E881F981C6
:100F10000680F781E02DB801CE010995080F111D5B
:100F20000884D985C02DF0CFF8011082DF91CF91D0
:100F30001F910F9108950F931F93CF93DF938B0110
:100F4000FC01C281D381209771F0E881F981019081
:100F5000F081E02DB801CE010995811105C008840A
:100F6000D985C02DF0CF80E0DF91CF911F910F91F7
:100F7000089580918E0181110DC082E080938A01D5
:100F800084E080938B0110928D0110928C0181E09E
:100F900080938E018AE891E00895EE0FFF1F05907F
:0A0FA000F491E02D0994F894FFCFBE
:100FAA00FFFFFFFF00E100000000000000C1808198
:100FBA0000000000000000C5001101EC00F100F47F
:060FCA00000401DB000041
:00000001FF
