:100000000C94FD000C949C250C94C3250C94EA25BB
:100010000C9411260C9425010C9425010C9438267F
:100020000C9425010C9425010C94B7240C945323B3
:100030000C9425010C9425010C9425010C942501A8
:100040000C9425010C9425010C9425010C94250198
:100050000C9425010C9425010C9425010C945F2629
:100060000C9425010C94911E0C94C31E0C94250134
:100070000C9425010C9425010C9425010C94250168
:100080000C9425010C9425010C9425010C94250158
:100090000C945A170C9425010C9425010C942501FD
:1000A0000C9425010C9425010C942501CF27D4270D
:1000B000D927E327ED27372837283728F7270128BE
:1000C0000B281528222837282A2858285B284A2850
:1000D0004E2854287C287C287C285F2863286728A1
:1000E0006D2871287C287728080B00020202010085
:1000F000090400000102020000052400100105248B
:1001000001010104240206052406000107058103FC
:1001100010004009040100020A0000000705020265
:100120004000000705830240000012010002EF02B8
:1001300001404123368000010102030141726475D0
:10014000696E6F204C4C430041726475696E6F207C
:100150004C656F6E6172646F000403090407060545
:10016000040100080A0B0C0D090000000200090F31
:100170000000030401000C0000000000000000006B
:100180000000000000000000040802011040804050
:1001900010204080408008020401804020100201AD
:1001A00010801020404020040404040403040502CD
:1001B0000202020403020202020606060606060402
:1001C00004020202040400000000230026002900AB
:1001D0002C002F0000000000250028002B002E001E
:1001E000310000000000240027002A002D0030000C
:1001F0003C06EE193D1DF31EB70711241FBECFEFBD
:10020000DAE0DEBFCDBF13E0A0E0B1E0E0E7FAE561
:1002100002C005900D92A434B107D9F726E0A4E4FA
:10022000B3E001C01D92AD3FB207E1F710E0CCEFA3
:10023000D0E004C02197FE010E94882AC83FD10760
:10024000C9F70E94211F0C942B2D0C94000080E014
:100250000E9477278D3F23E0920720F1809144038D
:10026000909145030196909345038093440303972F
:100270000CF46AC0E4E4F3E020E030E080E090E0D9
:1002800040815181443051052CF0C901493C510550
:100290000CF00596119211922F5F3F4F26303105D9
:1002A00079F708958934910570F48091460390910F
:1002B000470381152DE792074CF40196909347036D
:1002C0008093460341C08E3E910570F480914803AF
:1002D0009091490381152DE7920754F4019690936C
:1002E00049038093480330C0823A21E0920770F4BA
:1002F00080914A0390914B0381152DE792074CF4AE
:10030000019690934B0380934A031EC0803792401E
:1003100070F480914C0390914D0381152DE7920765
:1003200034F4019690934D0380934C030DC080915B
:100330004E0390914F0381152DE792072CF40196FF
:1003400090934F0380934E0380E090E0089580E007
:1003500090E0089508958DEF9FEF089590913604F1
:1003600081E089278093360480E090E008959091A1
:10037000350481E089278093350480E090E008957A
:100380009091700381E089278093700380E090E072
:10039000089520E030E040E85FE36091310470911F
:1003A000320480913304909134040E94F3196093D5
:1003B000310470933204809333049093340408958D
:1003C000CF93DF93EC0140E060E08BEF94E00E947C
:1003D0003B1566E371E08BEF94E00E94811FCE0134
:1003E000DF91CF9108950F931F93CF93DF93182F31
:1003F000D0E0C0E26C2F86E995E00E94671986E99B
:1004000095E00E94EB19082F61E070E080E090E039
:100410000E94DA26011103C01D17F9F0DF5FCF5FDC
:10042000C83241F7C8E36C2F86E995E00E9467194E
:1004300086E995E00E94EB19082F61E070E080E00A
:1004400090E00E94DA26011103C01D1731F0DF5F32
:10045000CF5FC03441F780E001C08C2FDF91CF9196
:100460001F910F910895DC01ED91FC910190F081B5
:10047000E02D0994FC018481958101962CE330E004
:10048000B9010E94332A95838483892B19F080E077
:1004900090E00895828193810196B9010E94332AE8
:1004A00093838283892B99F780819181019668E1FA
:1004B00070E00E94332AAC019183808321E090E0B8
:1004C000452B09F020E0822F0895FC012281338121
:1004D00026303105D9F03CF42230310569F0243062
:1004E000310539F413C02930310581F02B30310545
:1004F00069F08FE190E00895FC0180819181837023
:100500009927892B31F48DE190E008958EE190E0F8
:1005100008958CE190E008950F931F93CF93DF939C
:10052000EC010C811D810F5F1F4F1D830C830E9406
:10053000650280179107A4F421E030E03D832C830D
:100540008A819B8101968D3091051CF49B838A835F
:1005500007C03B832A838881998101969983888388
:10056000DF91CF911F910F9108950F931F930E94D8
:10057000A9260091060110910701209108013091F0
:100580000901061717072807390770F5D901C801AF
:1005900088519C4FAF4FBF4F809306019093070146
:1005A000A0930801B093090189E893E00E943A0200
:1005B000892B21F086E693E00E948C0281E893E08B
:1005C0000E943A02892B21F08EE593E00E948C0272
:1005D00089E793E00E943A02892B31F086E593E0A7
:1005E0001F910F910C948C021F910F910895FC01A3
:1005F000CB0126813781215031092230310558F055
:1006000021E030E0378326836230710569F0643081
:10061000710539F014C06230710531F06430710534
:1006200049F482E090E002C081E090E09783868305
:100630008AE090E02681378121303105D1F4813084
:10064000910521F08330910549F0089580819181D1
:10065000019668E170E00E94332A08C08081918190
:10066000009719F487E190E001C00197918380839E
:1006700013C022303105F1F48130910521F083302F
:10068000910579F008958281938101966CE370E081
:100690000E94332A93838283158214828AE090E039
:1006A000089582819381009719F48BE390E0F2CF53
:1006B0000197F0CF08950F931F93CF93DF938C0191
:1006C00080913504F801C081D181882389F0CD3033
:1006D000D1050CF02C97CA30D10534F461E471E0F7
:1006E0008BEF94E00E94811F4AE050E0BE010DC0F4
:1006F0002A9734F461E471E08BEF94E00E94811F4B
:10070000F801608171814AE050E08BEF94E00E9433
:100710002E20F801828193810A971CF460E471E035
:1007200002C063E471E08BEF94E00E94811FF80146
:10073000628173814AE050E08BEF94E00E942E20AA
:10074000F801848195810A971CF460E471E002C08D
:1007500063E471E08BEF94E00E94811FF8016481F3
:1007600075814AE050E08BEF94E00E942E2080914A
:100770003504882391F0F801808191810D971CF058
:1007800065E471E002C069E471E08BEF94E0DF9111
:10079000CF911F910F910C94811FDF91CF911F91E9
:1007A0000F910895CF93DF93EC0140E060E08BEF71
:1007B00094E00E943B156DE471E08BEF94E00E94A1
:1007C000811F80917003882319F066E571E002C0F3
:1007D0006AE571E08BEF94E00E94811F41E060E0E8
:1007E0008BEF94E00E943B1581E793E00E945B034E
:1007F000CE01DF91CF910895CF93DF93EC0140E0DC
:1008000060E08BEF94E00E943B156EE571E08BEFAA
:1008100094E00E94811FBE0181E793E00E94F702ED
:10082000EC0141E060E08BEF94E00E943B1581E732
:1008300093E00E945B03CE01DF91CF910895CF93A7
:10084000DF93EC018C819D810A9734F46EE771E0AF
:100850008BEF94E00E94811F6C817D814AE050E023
:100860008BEF94E00E942E208A819B810A971CF4D2
:1008700068E671E002C06BE671E08BEF94E00E94E5
:10088000811F6A817B814AE050E08BEF94E00E94F7
:100890002E206BE671E08BEF94E00E94811F68814F
:1008A00079814AE050E08BEF94E0DF91CF910C9496
:1008B0002E20CF93DF93EC0140E060E08BEF94E0DB
:1008C0000E943B1580913604882319F181E893E05A
:1008D0000E945B0340E06DE08BEF94E00E943B15CB
:1008E00080915104909152042EE0289FB001299FDD
:1008F000700D1124655A7B4F8BEF94E00E94731F9B
:1009000041E060E08BEF94E00E943B158EE593E0C0
:100910000CC089E793E00E945B0341E060E08BEF4D
:1009200094E00E943B1586E593E00E941F04CE01EF
:10093000DF91CF910895CF92DF92EF92FF9241E045
:1009400060E08BEF94E00E943B15C0903B04D09098
:100950003C04E0903D04F0903E0420E030E0A9012A
:10096000C701B6010E945F1A811103C06DE671E0F4
:1009700023C022E030E0B701A6018BEF94E00E9493
:1009800010216FED8BEF94E00E94831F6BE771E005
:100990008BEF94E00E94811F4091370450913804FE
:1009A0006091390470913A0422E030E08BEF94E0DA
:1009B0000E94102160E871E08BEF94E0FF90EF90CF
:1009C000DF90CF900C94811F0F931F93CF93DF93F1
:1009D000EC010E94A92600913F041091400420914F
:1009E0004104309142040617170728073907B8F564
:1009F00066E183E494E00E944E1480914704909154
:100A00004804A0914904B0914A0480933B04909318
:100A10003C04A0933D04B0933E0480914304909124
:100A20004404A0914504B091460480933704909308
:100A30003804A0933904B0933A040E949B040E94A6
:100A4000A926DC01CB0188579C4EAF4FBF4F809346
:100A50003F0490934004A0934104B09342040E9449
:100A60009B0440E060E08BEF94E00E943B15809196
:100A700036048823D9F081E893E00E945B0340E0CC
:100A80006DE08BEF94E00E943B15809151049091B2
:100A900052042EE0289FB001299F700D1124655A41
:100AA0007B4F8BEF94E00E94731F04C089E793E0B3
:100AB0000E945B03CE01DF91CF911F910F910895AA
:100AC00088E0E9E8F3E0A1E8B3E001900D928A95AF
:100AD000E1F780915104909152042EE0289FF0019B
:100AE000299FF00D1124ED5AFB4F2681378180910B
:100AF000890390918A03820F931F909382038093BE
:100B0000810328E0E6E6F3E0AEE5B3E001900D9264
:100B10002A95E1F7883191054CF04897909382032C
:100B2000809381038EE593E00E948C028091810383
:100B30009091820397FF2FC04896909382038093F1
:100B40008103809162039091630301979093630303
:100B500080936203892BF9F4809160039091610383
:100B600001979093610380936003892B29F08EE5B0
:100B700093E00E9465020BC080915E0390915F0339
:100B8000019790935F0380935E038FE190E09093D1
:100B900063038093620308958330910539F08A30AE
:100BA000910521F08130910551F517C08BEF94E04C
:100BB0000E9435158091510490915204009719F4C8
:100BC0008BE090E001C00197909352048093510410
:100BD0000E9460058AE090E008958BEF94E00E9407
:100BE000351580915104909152048B30910529F470
:100BF0001092520410925104EBCF0196E5CF089564
:100C0000CF93DF930E94CC05EC0140E060E08BEFD6
:100C100094E00E943B1580915104909152042EE083
:100C2000289FB001299F700D11246D5A7B4F8BEFC7
:100C300094E00E94731F41E060E08BEF94E00E941B
:100C40003B1581E893E00E945B03CE01DF91CF91D9
:100C5000089560E0809114010E94B92860912804F1
:100C60007091290480912A0490912B040E94D61A35
:100C7000809116010C94A8276F927F928F929F9279
:100C8000AF92BF92CF92DF92EF92FF920F931F939A
:100C9000CF93DF938BEF94E00E94C114EBEFF4E06D
:100CA00087E792E09183808310A211A265E971E049
:100CB00083E594E00E947F29C3E5D4E01F821E8271
:100CC0006CE971E08BE594E00E947F2960EA71E0B5
:100CD00081E694E00E947F298BEFE82EFF24FA94AE
:100CE000FD8AEC8A69EA71E089E694E00E947F2936
:100CF0006DEA71E08FE694E00E947F296624639498
:100D0000712C7BA26AA263EB71E087E794E00E94FA
:100D10007F2967EB71E08DE794E00E947F2929E04D
:100D2000822E912C99AA88AA6DEB71E085E894E057
:100D30000E947F2961EC71E08BE894E00E947F299A
:100D400008E010E01FAF0EAF6AEC71E083E994E0B9
:100D50000E947F296EEC71E089E994E00E947F296E
:100D600088EF9FEF9093A00480939F046AED71E059
:100D700081EA94E00E947F296EED71E087EA94E0B9
:100D80000E947F298AEF9FEF9093AE048093AD0479
:100D900066EE71E08FEA94E00E947F296AEE71E0CE
:100DA00085EB94E00E947F299092BC048092BB0462
:100DB00060EF71E08DEB94E00E947F2964EF71E0B9
:100DC00083EC94E00E947F297092CA046092C90467
:100DD0006DEF71E08BEC94E00E947F2961E072E09E
:100DE00081ED94E00E947F29F092D804E092D7042C
:100DF0006CE072E089ED94E00E947F2960E172E08E
:100E00008FED94E00E947F291093E6040093E5049F
:100E100069E172E087EE94E00E947F296DE172E063
:100E20008DEE94E00E947F298BE090E09093F40493
:100E30008093F30464E272E085EF94E00E947F29DE
:100E400010925004A0900C01B0900D01C0900E01C2
:100E5000D0900F01E0901001F0901101009112016B
:100E6000109113011F921F92809123048F93809100
:100E700022048F93809121048F93809120048F937B
:100E800024E234E048E254E06DE274E084EE93E062
:100E90000E945A13E9E8F3E080E190E091838083B7
:100EA0002BE330E0338322838DE290E095838483CB
:100EB00017821682E1E8F3E0118210821382128217
:100EC0001582148217821682E9E7F3E041E150E0CF
:100ED00051834083338322839583848317821682D0
:100EE000E1E7F3E082E190E0918380831382128254
:100EF0001582148217821682E6E6F3E04EE050E097
:100F0000558344832CE030E03383228383EE97E0E3
:100F10009183808317821682EEE5F3E07582648206
:100F20009382828260ED77E07183608317821682FC
:100F3000E6E5F3E055834483338322839183808302
:100F4000178216820F900F900F900F900F900F90B6
:100F5000DF91CF911F910F91FF90EF90DF90CF9095
:100F6000BF90AF909F908F907F906F900895CF9398
:100F7000DF93CBEFD4E02E97CE0108960E94112983
:100F8000CE010E94112984E0C335D807A1F7DF9173
:100F9000CF910895CF93DF93FC0181A5882371F150
:100FA00092A5662319F0913029F402C0911102C074
:100FB00083A701C013A6EF0160A186E995E00E9416
:100FC000671989A1823031F469E070E086E995E023
:100FD0000E9433026BA586E995E00E94161986E906
:100FE00095E00E94EB1921E030E0811102C020E081
:100FF00030E088279927821B930B02C08DEF9FEF6B
:10100000DF91CF910895CF93FC01C3A560FF02C08B
:1010100085A1C82B61FF02C086A1C82B62FF02C058
:1010200087A1C82B63FF02C080A5C82B413011F4F3
:1010300082A1C82B64A16C2B70E086E995E00E9428
:1010400033026C2F86E995E0CF910C9416198F929C
:101050009F92AF92BF92CF92DF92EF92FF920F9347
:101060001F93CF93DF93EC0188A1882309F450C02C
:1010700089A1882309F44CC0142F062F8C8C9D8CD9
:10108000AE8CBF8CC88CD98CEA8CFB8C8DE2C81AD4
:10109000D108E108F1080E94B526DC01CB018C19CA
:1010A0009D09AE09BF0988159905AA05BB0598F3E6
:1010B00068A186E995E00E94671989A1823031F420
:1010C00069E070E086E995E00E943302612F70E0EC
:1010D00084E0759567958A95E1F7402FCE010E94CF
:1010E0000308023031F0612F6F70402FCE010E9453
:1010F000030886E995E00E94EB1921E030E08111B8
:1011000002C020E030E088279927821B930B02C0A1
:101110008CEF9FEFDF91CF911F910F91FF90EF9098
:10112000DF90CF90BF90AF909F908F9008958F9257
:101130009F92AF92BF92CF92DF92EF92FF920F9366
:101140001F93CF93DF93EC011BA588A1882309F49B
:10115000F6C089A1882309F4F2C0823009F4F1C0F5
:101160008BA1882309F4EDC0062F8C8C9D8CAE8C4E
:10117000BF8CC88CD98CEA8CFB8C8DE2C81AD10844
:10118000E108F1080E94B526DC01CB018C199D090C
:10119000AE09BF0988159905AA05BB0598F38DA16D
:1011A000182B8EA1182B8FA1182B88A5182B013076
:1011B00011F48AA1182B8BA1182B68A186E995E060
:1011C0000E946719612F86E995E00E94161986E949
:1011D00095E00E94EB19882319F00FEF1FEF9DC0D7
:1011E00068A186E995E00E9467196CA1612B70E007
:1011F00086E995E00E94330286E995E00E94EB19AA
:101200008111EBCF68A170E041E050E086E995E004
:101210000E94E81986E995E00E948F187C0197FDED
:10122000DCCF68A186E995E00E946719612F86E905
:1012300095E00E94161986E995E00E94EB1981114C
:10124000CCCF8DA190E08E219F21892B11F400E05D
:1012500001C000E18EA190E08E219F21892B09F031
:1012600000628FA190E08E219F21892B09F00064FC
:1012700088A590E0E822F922EF2809F0006868A12B
:1012800086E995E00E9467196CA1612B70E086E900
:1012900095E00E94330286E995E00E94EB198111E6
:1012A0009CCF68A170E041E050E086E995E00E94A3
:1012B000E81986E995E00E948F187C0197FD8DCF93
:1012C00068A186E995E00E946719612F86E995E09B
:1012D0000E94161986E995E00E94EB1981117DCFD5
:1012E0008DA190E08E219F21892B09F001608EA1B4
:1012F00090E08E219F21892B09F002608FA190E060
:101300008E219F21892B09F0046088A590E0E822B6
:10131000F922EF2809F0086010E068A186E995E05D
:101320000E9467196BA586E995E00E94161986E967
:1013300095E00E94EB19882339F08FEF03C08CEF02
:1013400001C08DEF9FEF01C0C801DF91CF911F91C8
:101350000F91FF90EF90DF90CF90BF90AF909F9054
:101360008F9008950F931F93CF93DF93EC0168A1A3
:1013700086E995E00E9467196FEF86E995E00E9483
:10138000161986E995E00E94EB1968A170E041E02A
:1013900050E086E995E00E94E81986E995E00E9410
:1013A0008F188C0168A186E995E00E9467196BEFA0
:1013B00086E995E00E94161986E995E00E94EB19EE
:1013C00068A170E041E050E086E995E00E94E819EC
:1013D00086E995E00E948F189801277033272730FF
:1013E0003105B1F4807F9927803F910589F483E02E
:1013F000169507958A95E1F781E00827017043E08B
:1014000057E066E075E0E4E022E0F1E030E034C06F
:10141000C801807799278037910509F068C068A1D5
:1014200086E995E00E9467196FEE86E995E00E94D3
:10143000161986E995E00E94EB1968A170E041E079
:1014400050E086E995E00E94E81986E995E00E945F
:101450008F188F7099270F9719F026E034E002C09B
:1014600024E036E00095001F0027001F47E053E00E
:1014700062E071E0E0E0F5E081E090E0DC0101C0D5
:10148000AA0F3A95EAF7AAA3DC0101C0AA0FFA95C0
:10149000EAF7ABA3DC0102C0AA0FBB1F2A95E2F753
:1014A000ACA39C0101C0220FEA95EAF72DA39C0191
:1014B00001C0220F7A95EAF72EA39C0101C0220FEA
:1014C0006A95EAF72FA39C0101C0220F5A95EAF70B
:1014D00028A701C0880F4A95EAF789A70AA7013013
:1014E00011F48BA701C01BA680E090E002C08DEF35
:1014F0009FEFDF91CF911F910F910895CF93DF93CD
:10150000EC0168A186E995E00E94671960E086E930
:1015100095E00E9416196FEF70E086E995E00E9451
:10152000330286E995E00E94EB1968A186E995E00F
:101530000E94671966E070E086E995E00E94330238
:101540006FEF70E086E995E00E94330286E995E04E
:101550000E94EB1968A186E995E00E94671969E08D
:1015600070E086E995E00E94330286E995E00E94EA
:10157000EB1968A170E041E050E086E995E00E9437
:10158000E81986E995E00E948F188F3761F086FF91
:1015900012C081FD4CC021E032E043E054E065E040
:1015A00076E0E7E00FC027E036E045E054E063E096
:1015B00072E0E1E007C026E033E042E051E060E0A5
:1015C00077E0E4E081E090E0DC0102C0AA0FBB1FFD
:1015D000EA95E2F7AAA31BA2FC0101C0EE0F7A95DF
:1015E000EAF7ECA3FC0102C0EE0FFF1F6A95E2F7D9
:1015F000EDA3BC0101C0660F5A95EAF76EA3BC01CA
:1016000002C0660F771F4A95E2F76FA3AC0101C0D5
:10161000440F3A95EAF748A701C0880F2A95EAF7E0
:1016200089A791E09AA78BA780E090E002C08DEF98
:101630009FEFDF91CF9108951F93CF93DF93EC013C
:1016400086E995E00E94551968A161110AC0809150
:10165000270591E0980F909327050E94F30188A336
:101660000DC086E995E00E94671986E995E00E9421
:10167000EB19882319F08CEF9FEFA7C088A1811187
:1016800009C08091270591E0980F909327050E944B
:10169000F30188A318A1112371F389A18823C1F153
:1016A00068A186E995E00E94671989A1823009F056
:1016B00076C065E070E086E995E00E94330260E262
:1016C00070E086E995E00E94330286E995E00E9489
:1016D000EB1968A186E995E00E94671960E086E948
:1016E00095E00E94161960E086E995E00E941619BF
:1016F00086E995E00E94EB1968A186E995E00E94D1
:10170000671969E070E086E995E00E94330247C0FE
:10171000612F86E995E00E94671960E086E995E00F
:101720000E9416196FEF86E995E00E94161986E966
:1017300095E00E94EB19612F86E995E00E946719F8
:1017400060E086E995E00E94161986E995E00E941E
:10175000EB19612F70E041E050E086E995E00E94CE
:10176000E81986E995E00E948F189C018F3F91054A
:1017700029F091E0232B19F090E001C092E099A3A9
:10178000992309F1913021F4CE010E94B20903C0DE
:10179000CE010E947E0A009709F482CF16C060E055
:1017A00086E995E00E94161986E995E00E94EB19FA
:1017B00021E030E0811102C020E030E08827992745
:1017C000821B930B02C08FEF9FEFDF91CF911F9190
:1017D00008958F929F92AF92BF92CF92DF92EF9235
:1017E000FF920F931F93CF93DF93CDB7DEB72C9764
:1017F0000FB6F894DEBF0FBECDBF9CE9C92E93E0B3
:10180000D92EEE24E39424E2B22E8DE396E00E94DA
:10181000521D892BD1F100919B0310E08DE396E0DE
:101820000E946C1DF82EF801E456FC4F8083682F4F
:101830008CEE95E00E94321C80919B038F3318F44C
:101840008F5F80939B0384E2F81219C0D0929A03B1
:10185000C0929903E0919903F0919A0383E0EC3DE3
:10186000F80740F4CF01019690939A03809399036F
:101870001082F0CFE0929B03B0929C03C6CF8AE225
:10188000F812C3CF81E0809398038091980381116F
:1018900002C010E08EC01092980368E272E08CE9FA
:1018A00093E00E94C52C8C01009729F410929A03B2
:1018B00010929903EECF069690939A038093990322
:1018C0000E948E2C6B017C016093940370939503AE
:1018D000809396039093970384E6882E912CA12CF5
:1018E000B12CC701B601A50194010E94692A709329
:1018F0007E0360937D03CA01B901A50194010E9492
:10190000692A70937C0360937B03C701B60120E1D1
:1019100037E240E050E00E94692ACA01B9016F5FD6
:101920007F4F8F4F9F4F28E130E040E050E00E9412
:10193000692A70937A0360937903005F1F4F1093B5
:101940009A030093990367E373E0CE0107960E9420
:101950007F298091990390919A03099690939A0315
:101960008093990367E373E0CE0101960E947F297B
:101970008CE993E090939A0380939903E091990303
:10198000F0919A0383E0EC3DF80740F4CF01019613
:1019900090939A03809399031082F0CF10929B0347
:1019A000CE0101960E941129CE0107960E941129AD
:1019B00011E08CEE95E00E94611C892B49F08CEEC1
:1019C00095E00E94711C682F8DE396E00E94BE1D79
:1019D00088E0E9E7F3E0A9E8B3E001900D928A9589
:1019E000E1F78091890390918A03019790938A038C
:1019F00080938903812F2C960FB6F894DEBF0FBE1B
:101A0000CDBFDF91CF911F910F91FF90EF90DF90AD
:101A1000CF90BF90AF909F908F900895CF92DF921C
:101A2000EF92FF9226E040E855E260E070E08DE33F
:101A300096E00E942C1E40E855E260E070E08CEEDB
:101A400095E00E94371D20E042E060E18BEF94E0DA
:101A50000E9461158BEF94E00E94F6148BEF94E0E6
:101A60000E94FB158BEF94E00E9438156FE272E044
:101A70008BEF94E00E94811F41E060E08BEF94E0E7
:101A80000E943B1560E472E08BEF94E00E94811F9E
:101A90000E94A926683B7B4081059105C8F38BEF26
:101AA00094E00E94351560E088E00E947D2860E0A7
:101AB00086E10E947D2861E0809114010E947D28CA
:101AC00061E0809116010E947D2860E087E00E941D
:101AD0007D2880E090E0A0EAB1E480932404909314
:101AE0002504A0932604B093270461E070E084EEFF
:101AF00093E00E94961264E670E084EE93E00E9408
:101B0000021241E050E069EC71E084E00E944C2553
:101B10000E94A9266093E0037093E1038093E2039F
:101B20009093E3030E94A9266037774181059105D0
:101B300058F540E060E08BEF94E00E943B156EE4C6
:101B400072E08BEF94E00E94811F0E94E90B8823D2
:101B5000A1F08BEF94E00E94351567E572E08BEF02
:101B600094E00E94811F81E0809393030E94A92644
:101B7000709392036093910307C00E94A92670930B
:101B8000920360939103CECF8091930381110AC099
:101B90008BEF94E00E94351565E672E08BEF94E0E0
:101BA0000E94811F88E0E9E8F3E0A1E8B3E001903A
:101BB0000D928A95E1F7C0909103D090920380E353
:101BC000C81A88EFD80A0D2C000CEE08FF080E94F6
:101BD000A9266C157D058E059F0568F38BEF94E0B3
:101BE000FF90EF90DF90CF900C943515CF92DF925D
:101BF000EF92FF920F931F9380919303882309F430
:101C0000ABC1C0909103D090920380ECC81A88E8D1
:101C1000D80A0D2C000CEE08FF080E94A926C61653
:101C2000D706E806F90608F497C188E00E94E8287C
:101C3000019749F41092240410922504109226046E
:101C4000109227049BC180917D0390917E03892B84
:101C500061F480E090E0A0EAB1E4809324049093E2
:101C60002504A0932604B09327040E9429060E940D
:101C7000A9266093DC037093DD038093DE039093C9
:101C8000DF030091E0031091E1032091E203309122
:101C9000E3036B017C01C01AD10AE20AF30A97013F
:101CA0008601C0900A01D0900B010D2C000CEE08AB
:101CB000FF08C016D106E206F306A4F56093E00320
:101CC0007093E1038093E2039093E30320E030E01C
:101CD00040E752E460913104709132048091330402
:101CE000909134040E94C31B20E030E040EF54E4A4
:101CF0000E94641A60932D0470932E0480932F0425
:101D00009093300484EE93E00E94C50F80932C04DE
:101D1000882341F01092310410923204109233045F
:101D2000109234040E94B50280917003882311F14F
:101D30002091790330917A0380917103909172031D
:101D400028173907B9F420917B0330917C038091E7
:101D50007303909174032817390761F420917D0370
:101D600030917E038091750390917603281739078F
:101D700009F4FDC00E942701909351038093500302
:101D800020916E0330916F03232BC1F0892B49F012
:101D90008BEF94E00E94F61410926F0310926E0382
:101DA0000DC080917D0380FF05C08BEF94E00E9401
:101DB000EE1404C08BEF94E00E94F614E0915403FB
:101DC000F091550374E0EE0FFF1F7A95E1F7E757A6
:101DD000FD4F0284F385E02D309749F08091500348
:101DE00090915103099590935103809350038091F2
:101DF00050039091510383309105D9F134F481302F
:101E0000910579F0029719F109C08530910509F41F
:101E100065C00CF440C0069709F483C08FEF9FEFB4
:101E200011C08BEF94E00E943515E0915403F091BE
:101E3000550364E0EE0FFF1F6A95E1F7E757FD4F8A
:101E40008081918190935303809352037AC08BEFEA
:101E500094E00E943515E0915403F091550354E04D
:101E6000EE0FFF1F5A95E1F7E757FD4F82819381EF
:101E7000E9CF8BEF94E00E943515E0915403F09187
:101E8000550344E0EE0FFF1F4A95E1F7E757FD4F7A
:101E900084819581D7CF8BEF94E00E943515E09136
:101EA0005403F091550334E0EE0FFF1F3A95E1F72C
:101EB000E757FD4F0484F585E02D309709F009952B
:101EC000E0915403F091550324E0EE0FFF1F2A9593
:101ED000E1F7E757FD4F86819781B4CF8BEF94E010
:101EE0000E943515E0915403F091550394E0EE0FF4
:101EF000FF1F9A95E1F7E757FD4F0684F785E02D20
:101F0000309709F00995E0915403F091550384E06E
:101F1000EE0FFF1F8A95E1F7E757FD4F808591850A
:101F200091CF8BEF94E00E9435158BEF94E00E94E7
:101F3000FB158BEF94E00E9402161092530310924F
:101F40005203809152039091530397FD17C09093D1
:101F500055038093540312C00E94E90B80939303AE
:101F60000E94A92670939203609391035ECE81E054
:101F700090E090936F0380936E03FCCE1F910F91BE
:101F8000FF90EF90DF90CF9008952F923F924F9265
:101F90005F926F927F928F929F92AF92BF92CF92F9
:101FA000DF92EF92FF920F931F93CF93DF93CDB702
:101FB000DEB760970FB6F894DEBF0FBECDBFDC0171
:101FC000DA96BC91B983B11102C019822BC1988BEA
:101FD0008F870E94A9266E837F8388879987EF85E4
:101FE000F88982A193A1A4A1B5A14E815F816885E2
:101FF0007985481B590B6A0B7B0B86A597A5A0A971
:10200000B1A9481759076A077B07F8F2048CF58DC8
:10201000E02D80819181A281B3818A839B83AC83EF
:10202000BD83AF85B8899096ED91FC9191972A81F7
:102030003B814C815D8160817181828193810E94AD
:10204000F2194B015C01EF85F88922A533A544A55F
:1020500055A56A817B818C819D810E94F2196B015B
:102060007C01AF85B88950962D913D914D915C9141
:102070005397C501B4010E94C31BEF85F88926A1BF
:1020800037A140A551A50E94F3192B013C01AF8552
:10209000B88996966D937D938D939C939997DB96D3
:1020A000BC91BA87B11118C0EF85F88924853585B0
:1020B00046855785C701B6010E94C31B9B01AC0131
:1020C000C301B2010E94F219AF85B88996966D934B
:1020D0007D938D939C939997EF85F88946A057A09F
:1020E00060A471A416A907A930AC21AC212F302F10
:1020F000432D522DC301B2010E94BE1B18162CF4B1
:10210000812F902FA32DB22D18C0AF85B889D296FC
:102110008D919D910D90BC91A02D8B879C87AD8753
:10212000BE879C01AD01C301B2010E945F1A87FF07
:102130000AC08B859C85AD85BE85EF85F88986A311
:1021400097A3A0A7B1A7FA85FF2379F0AF85B88937
:102150001C962D913D914D915C911F97C501B40145
:102160000E94C31B4B015C0103C0812C912C5401C4
:10217000EF85F8892489358946895789C701B601D1
:102180000E94C31B9B01AC01AF85B88996966D91E7
:102190007D918D919C9199970E94F219A5019401CE
:1021A0000E94F3196B017C019B01AC01612F702F20
:1021B000832D922D0E945F1A87FD14C0EF85F88948
:1021C00012A903A934A825A8212F302F432D522D61
:1021D000B601C7010E945F1A87FD04C01C2D0D2D9A
:1021E0003E2C2F2CAF85B8895E96ED91FC915F97C0
:1021F000812F902FA32DB22D80839183A283B3834F
:102200008A819B81AC81BD81EF85F88982A793A7E4
:10221000A4A7B5A78E819F81A885B98582A393A322
:10222000A4A3B5A3898160960FB6F894DEBF0FBE54
:10223000CDBFDF91CF911F910F91FF90EF90DF9075
:10224000CF90BF90AF909F908F907F906F905F9056
:102250004F903F902F9008954F925F926F927F9290
:102260008F929F92AF92BF92CF92DF92EF92FF92A6
:102270000F931F93CF93DF9300D000D000D0CDB742
:10228000DEB79E838D8349835A836B837C832801C9
:10229000390120E030E0A90169817A818B819C813C
:1022A0000E945F1A87FD97C020E030E0A901C301BA
:1022B000B2010E945F1A87FD8EC020E030E0A901C4
:1022C000C701B6010E945F1A87FD85C0AD81BE813E
:1022D0005B96BC92AE925A9781E0AA94AB2809F023
:1022E00080E0ED81FE8183AF89819A81AB81BC81E1
:1022F00080839183A283B3834482558266827782EE
:10230000C086D186E286F38666A577A580A991A9C5
:102310000E940C1B20E030E04AE754E40E94641A5B
:102320004B015C0189819A81AB81BC81ED81FE8189
:1023300084879587A687B787A5019401C301B20159
:102340000E94C31B2B013C01AD81BE8150966D9351
:102350007D938D939C935397A5019401C701B6017A
:102360000E94641A6B017C01ED81FE81648B758B88
:10237000868B978B808D918D019769F529813A81A4
:102380004B815C8160E070E0CB010E94F219AD816D
:10239000BE811C966D937D938D939C931F97A30193
:1023A000920160E070E0CB010E94F219ED81FE81A4
:1023B000608B718B828B938BA701960160E070E03C
:1023C000CB010E94F219AD81BE8154966D937D932D
:1023D0008D939C93579726960FB6F894DEBF0FBE49
:1023E000CDBFDF91CF911F910F91FF90EF90DF90C4
:1023F000CF90BF90AF909F908F907F906F905F90A5
:102400004F9008958F929F92AF92BF92CF92DF929A
:10241000EF92FF92CF93DF9316161706B4F56B0178
:10242000EC010D2C000CEE08FF08C701B6010E945C
:102430000E1B4B015C016EA57FA588A999A90E947E
:102440000C1B9B01AC01C501B4010E94641A4B0135
:102450005C019B01AC01688979898A899B890E940A
:10246000C31B688B798B8A8B9B8BA50194016C892C
:102470007D898E899F890E94641A6C8B7D8B8E8BDF
:102480009F8BCEA6DFA6E8AAF9AADF91CF91FF9095
:10249000EF90DF90CF90BF90AF909F908F90089576
:1024A0008F929F92AF92BF92CF92DF92EF92FF9264
:1024B000CF93DF93EC01EE8DFF8DC080D180E28061
:1024C000F380CEA2DFA2E8A6F9A6EC8DFD8D808177
:1024D0009181A281B3818AA79BA7ACA7BDA78EA833
:1024E0009FA8A8ACB9ACA5019401C701B6010E9490
:1024F000BE1B181664F08AA89BA8ACA8BDA8A501AD
:102500009401C701B6010E945F1A87FF04C08EA222
:102510009FA2A8A6B9A6DF91CF91FF90EF90DF9080
:10252000CF90BF90AF909F908F9008951F93CF93BF
:10253000DF93EC0111E06130710509F010E06130CA
:10254000710531F48AAD811103C0CE010E94501291
:102550001AAFDF91CF911F9108950F931F93CF93DF
:10256000DF93EC018B018AAD882361F1888D998D11
:102570008617970739F12C853D854E855F8560E08C
:1025800070E0CB010E94F2196C877D878E879F8750
:10259000288939894A895B8960E070E0CB010E9413
:1025A000F219688B798B8A8B9B8B2C893D894E899C
:1025B0005F8960E070E0CB010E94F2196C8B7D8B2B
:1025C0008E8B9F8B198F088FDF91CF911F910F9169
:1025D00008954F925F926F927F928F929F92AF92E7
:1025E000BF92CF92DF92EF92FF920F931F93CF9300
:1025F000DF9300D000D0CDB7DEB74C012701380102
:10260000A982BA82CB82DC82FC01578F468F758FFC
:10261000648F31A320A312AE12AA13AA14AA15AA7A
:1026200080E090E0AFE7B3E486AB97ABA0AFB1AF8B
:1026300084E690E0A0E0B0E086A797A7A0ABB1AB9E
:102640006D8D7E8DC4010E94AD12AB8CBC8CCF8889
:10265000D88CE98CFA8C09811A812B813C81B301D9
:10266000A201C4010E942C110E94A926F40146A4D3
:1026700057A460A871A8DC01CB0184199509A609AB
:10268000B70982A393A3A4A3B5A30F900F900F90B3
:102690000F90DF91CF911F910F91FF90EF90DF90FE
:1026A000CF90BF90AF909F908F907F906F905F90F2
:1026B0004F9008958F929F92AF92BF92CF92DF92E8
:1026C000EF92FF920F931F93CF93DF93CDB7DEB7B7
:1026D000EF85F889A989BA899B888C888F929F9207
:1026E0001F92992493949F92BF93AF93FF93EF937C
:1026F0000E94E9120FB6F894DEBF0FBECDBFDF9186
:10270000CF911F910F91FF90EF90DF90CF90BF90EE
:10271000AF909F908F9008952F923F924F925F922B
:102720006F927F928F929F92AF92BF92CF92DF92E1
:10273000EF92FF920F931F93CF93DF93EC01F62E4E
:10274000042FE22E862F90E0FC01E857FE4F1491F3
:10275000FC01E955FE4FE491F0E0EE0FFF1FEA5354
:10276000FE4FC590D49061E08F2D0E947D2860E0DF
:102770008F2D0E94B928093038F0602F70E080E07A
:1027800090E00E94DA260AC088EE93E09C01029F46
:10279000C001039F900D11240E94162760E08F2D29
:1027A0000E947D2880E293E0D6012C91212321F024
:1027B0000197D1F78DEF5FC080E991E0F6012081AC
:1027C000212321F40197D1F78CEF55C080E991E0E6
:1027D000D6012C91212321F00197D1F78BEF4BC02B
:1027E00058E280E991E020E030E0E0E9F1E000E04B
:1027F00060E0312C40E8252E2E1870E9872E9924B0
:102800009394A12CB12CD6017C91712361F5002306
:1028100051F1251698F48E179F0708F4FC01240146
:1028200035014E1A5F0A6108710882E07594679459
:10283000579447948A95D1F7920107C07F01E21A15
:10284000F30AE816F90608F0642B469549F4CE0120
:10285000830D911DDC0118966C93339460E040E881
:10286000515080E991E0019729F0072F5111CBCF0A
:1028700080E001C08EEFDF91CF911F910F91FF900B
:10288000EF90DF90CF90BF90AF909F908F907F9010
:102890006F905F904F903F902F900895CF92DF926E
:1028A000EF92FF920F931F93CF93DF93EC018D85EF
:1028B000882309F0F89426E041E0CE010E948C13B1
:1028C000E82E8D85882309F07894088503700887A1
:1028D0001A85812F8378F82E8A87C984602F70E04B
:1028E000762F66276C0D711D072E000C880B990B37
:1028F0000E940E1B2DEC3CEC4CEC5DE30E94C31BD4
:10290000688379838A839B83DB841370612F70E0F3
:10291000762F66276D0D711D072E000C880B990B05
:102920000E940E1B2DEC3CEC4CEC5DE30E94C31BA3
:10293000F7FC05C06C837D838E839F8307C0DC0119
:10294000CB01B0588C839D83AE83BF83DC0C0D0D0F
:10295000F00E8C85F81202C08E2D01C08FEFDF9132
:10296000CF911F910F91FF90EF90DF90CF9008953E
:1029700080E090E008958DEF9FEF08958DEF9FEF39
:102980000895CF93DF93EC011B821A828DEE92E0C3
:10299000998388831F82188680ED97E0A0E0B0E0DD
:1029A000888B998BAA8BBB8B86E290E0A0E0B0E08D
:1029B0008C8B9D8BAE8BBF8B1C861D861E861F86C7
:1029C0001B860E94B526688F798F8A8F9B8F1C8EFD
:1029D0001D8E1E8E1F8EDF91CF910895DC01ED912B
:1029E000FC910684F785E02D6FEF0994DC01ED91F1
:1029F000FC910684F785E02D60E009948F929F9208
:102A0000AF92BF92EF92FF921F93CF93DF93EC01AF
:102A1000162FE881F9810484F585E02D462F60E0CA
:102A200009957C011150123038F419861A8688886D
:102A30009988AA88BB8804C08C889D88AE88BF8886
:102A40000E94B526688F798F8A8F9B8F8C8E9D8E82
:102A5000AE8EBF8EC701DF91CF911F91FF90EF9097
:102A6000BF90AF909F908F90089561E00C94FE14FA
:102A700062E00C94FE14FC018085481710F04FEFC3
:102A8000480F9385992359F09781691730F0691B96
:102A90004F5F4817D0F340E0F8CF61874287DF01EE
:102AA000A40FB11D1C968C91680F6068CF010C9427
:102AB000FE14FC016581262F246025836C600C9434
:102AC000FE140F931F93CF93DF93EC01022F142F6B
:102AD000453008F014E08C85811109C08D85811185
:102AE00006C08E85811103C08F85882329F08F81D0
:102AF000882359F0861749F01C8680E48D876E87FD
:102B0000862F90E0805C9F4F8F8718876F8364E6E5
:102B100070E080E090E00E94DA261C82E881F98172
:102B20000084F185E02DCE010995009709F05EC083
:102B30008885823018F08C8188608C83002329F08E
:102B4000113019F48C8184608C83E881F9810484CC
:102B5000F585E02D40E362E0CE01099565E070E087
:102B600080E090E00E94DA26E881F9810484F5850E
:102B7000E02D40E362E0CE01099561E070E080E085
:102B800090E00E94DA26E881F9810484F585E02D41
:102B900040E362E0CE01099561E070E080E090E002
:102BA0000E94DA268C8184FD09C0E881F9810484C1
:102BB000F585E02D40E262E0CE0109956C8160620E
:102BC000CE010E94FE1484E08D83CE010E9459152F
:102BD000CE010E94351582E08E8366E0CE010E9410
:102BE000FE148C01CE010E94EE14C801DF91CF913A
:102BF0001F910F910895FC0165816D7F6583686069
:102C00000C94FE14FC0165816E7F658368600C94F2
:102C1000FE14CF92DF92EF92FF920F931F93CF9308
:102C2000DF93EC01462FE881F9810484F585E02DDE
:102C300061E009958C01CC88DD88EE88FF880E94D0
:102C4000B526688F798F8A8F9B8FCC8EDD8EEE8E26
:102C5000FF8E81E090E0012B11F080E090E0DF91A9
:102C6000CF911F910F91FF90EF90DF90CF9008953B
:102C70000F931F93CF93DF93EC010E9409168C01F1
:102C80008B85882399F089858F5F89879F81891734
:102C900068F019868A858F5F8A879885891708F07A
:102CA0001A864A8560E0CE010E943B15C801DF917B
:102CB000CF911F910F9108951092950581E0809317
:102CC00093051092920561E082E00E94B92861E0CC
:102CD00083E00E94B928E9EBF0E080818E7F808359
:102CE00080818D7F808388E48093B80085E4809321
:102CF000BC000895413208F043C0909195059111B0
:102D0000FCCF91E090939505209393052FEF2093AE
:102D1000280510926D05240F20936C05909394055F
:102D200090919405880F892B80939405809192054A
:102D3000813061F410929205809194058093BB00DC
:102D40008091BC0083FDF8CF85EC01C085EE8093B7
:102D5000BC00809195058130E1F380916D05841769
:102D600010F440916D05AEE6B5E0962FFB018E2F75
:102D7000891B841718F48D918193F9CF842F0895BE
:102D800080E008950F93413208F04AC09091950574
:102D90009111FCCF32E030939505009393053FEFFE
:102DA0003093280510926D0540936C05562FAEE6C2
:102DB000B5E0FB013E2F351B341718F431913D93DC
:102DC000F9CF1092940530919405880F832B80934E
:102DD000940580919205813061F410929205809162
:102DE00094058093BB008091BC0083FDF8CF85ECF7
:102DF00001C085EE8093BC00222321F080919505CF
:102E00008230D1F3809128058F3F79F08091280599
:102E1000803241F080912805803331F094E005C084
:102E200091E003C092E001C093E0892F0F910895D3
:102E300040914A05262F30E0240F311D2132310503
:102E4000DCF4209195052430C9F4FC0180E090E089
:102E5000861758F430914A052191DC01A45BBA4FE2
:102E6000A30FB11D2C930196F3CF80914A05680FF3
:102E700060934A0580E0089581E0089582E0089516
:102E800090938F0580938E0508959093910580937C
:102E90009005089585ED8093BC008091BC0084FD71
:102EA000FCCF10929505089585EC8093BC0010929C
:102EB000950508951F920F920FB60F9211242F932C
:102EC0003F934F935F936F937F938F939F93AF93B2
:102ED000BF93EF93FF938091B900887F803609F408
:102EE0009EC078F5883209F45DC090F4803109F411
:102EF00056C038F4882309F4F5C0883009F44FC06F
:102F0000F5C0883109F44EC0803209F45FC0EEC0CC
:102F1000803409F46AC058F4803309F457C0883308
:102F200009F0E4C0809328050E945417DFC0803563
:102F300009F44FC0883509F45DC0883409F0D6C063
:102F4000D3C0883909F4C4C0A8F4883709F467C02D
:102F500038F4883609F463C0803709F460C0C6C00D
:102F6000883809F4B5C0803909F45FC0803809F0A9
:102F7000BDC05BC0803B09F483C038F4803A09F4DB
:102F800066C0883A09F47CC0B1C0803C09F4A4C092
:102F9000883C09F4A1C0883B09F487C0A7C0809190
:102FA000940510C090916D0580916C05981770F58F
:102FB000E0916D0581E08E0F80936D05F0E0E259A0
:102FC000FA4F80818093BB0085EC83C080932805F5
:102FD0008BC0E0916D0581E08E0F80936D0580912F
:102FE000BB00F0E0E259FA4F808390916D0580912B
:102FF0006C056BC0E0916D0581E08E0F80936D05CF
:103000008091BB00F0E0E259FA4F808380919305F4
:1030100081116AC081E08093920584EA5EC083E0FA
:103020008093950510922905CFCF80912905803294
:1030300008F04EC0E091290581E08E0F80932905AC
:103040008091BB00F0E0E65DFA4F8083BDCF0E9427
:10305000541780912905803230F4E0912905F0E081
:10306000E65DFA4F10826091290570E0E0918E05CF
:10307000F0918F058AE295E009951092290536C0F6
:1030800084E08093950510924B0510924A05E091DB
:103090009005F0919105099580914A05811105C02F
:1030A00081E080934A0510924C05E0914B0581E048
:1030B0008E0F80934B05F0E0E45BFA4F80818093A4
:1030C000BB0090914B0580914A05981708F47CCF7E
:1030D00085E88093BC000AC085EC8093BC00109208
:1030E000950504C0109228050E944A17FF91EF91A0
:1030F000BF91AF919F918F917F916F915F914F9110
:103100003F912F910F900FBE0F901F9018958091B7
:10311000CA0590E02091CB05821B910908959091FA
:10312000CB058091CA05981750F4E92FF0E0E453DD
:10313000FA4F208130E09F5F9093CB0502C02FEFC4
:103140003FEFC9010895E091CB058091CA05E817CA
:1031500030F4F0E0E453FA4F808190E008958FEF6F
:103160009FEF08950895CF93DF93EC01E091A205BE
:10317000F091A3053097F1F09091CB058091CA05AD
:103180009817C0F090E0292F30E02617370754F445
:10319000DE01A20FB31F4C91D901A453BA4F4C9337
:1031A0009F5FF1CF1092CB056093CA05CB01DF91F1
:1031B000CF910994DF91CF910895E091A405F0910A
:1031C000A505309729F01092A8051092A70509943B
:1031D0000895CF92DF92EF92FF920F931F93CF93B8
:1031E000DF937C01CB018A012091A605222389F07F
:1031F000EB016B01C40ED51ECC15DD0569F069919C
:10320000D701ED91FC910190F081E02DC701099566
:10321000F3CF642F0E941817C801DF91CF911F913F
:103220000F91FF90EF90DF90CF900895CF93DF93B1
:103230001F92CDB7DEB769832091A6052223D1F076
:103240002091A705203240F021E030E0FC013383DB
:10325000228380E090E015C08091A805E82FF0E07F
:10326000E755FA4F998190838F5F8093A8058093EB
:10327000A70505C061E0CE0101960E94181781E004
:1032800090E00F90DF91CF910895FC01138212829C
:1032900088EE93E0A0E0B0E084839583A683B783B3
:1032A00083E093E09183808308951092CB05109280
:1032B000CA051092A8051092A7050E945C168DED14
:1032C00098E10E94451783EB98E10C94401781E048
:1032D0008093A6056093C9051092A8051092A705D2
:1032E00008950F93062F21E04091A70569EA75E044
:1032F0008091C9050E94C2161092A8051092A705D8
:103300001092A6050F9108954F925F926F927F924F
:10331000AF92BF92CF92EF92FF920F931F93CF93F2
:10332000DF935C01F62ED42F28013901EE2021F124
:103330000E946719CE2DC43008F0C3E0C150C0F020
:1033400028E0C29FC0011124A301920104C0569538
:103350004795379527958A95D2F7CA01B901D501C6
:10336000ED91FC910190F081E02DC5010995E6CF2A
:1033700060E0C5010E9471194D2FD13208F040E282
:103380002C2D6CEC75E08F2D0E947A161092CB05D7
:103390008093CA05DF91CF911F910F91FF90EF901D
:1033A000CF90BF90AF907F906F905F904F900895B7
:1033B000CF92EF920F931F93C22EE12C00E010E00A
:1033C00098010E9484191F910F91EF90CF9008955A
:1033D00021E00C94D81961E00C94711986E995E00C
:1033E0000C9445195058BB27AA270E940A1A0C941E
:1033F000841B0E94761B38F00E947D1B20F039F45C
:103400009F3F19F426F40C94731B0EF4E095E7FB30
:103410000C946D1BE92F0E94951B58F3BA17620795
:1034200073078407950720F079F4A6F50C94B71B71
:103430000EF4E0950B2EBA2FA02D0B01B9019001CF
:103440000C01CA01A0011124FF27591B99F0593F13
:1034500050F4503E68F11A16F040A22F232F342F5B
:103460004427585FF3CF469537952795A795F040A9
:103470005395C9F77EF41F16BA0B620B730B840BBE
:10348000BAF09150A1F0FF0FBB1F661F771F881F76
:10349000C2F70EC0BA0F621F731F841F48F48795CE
:1034A00077956795B795F7959E3F08F0B0CF9395C0
:1034B000880F08F09927EE0F9795879508950E9439
:1034C000491B08F481E008950E94781A0C94841B2B
:1034D0000E947D1B58F00E94761B40F029F45F3F4C
:1034E00029F00C946D1B51110C94B81B0C94731B98
:1034F0000E94951B68F39923B1F3552391F3951B13
:10350000550BBB27AA2762177307840738F09F5F04
:103510005F4F220F331F441FAA1FA9F335D00E2E71
:103520003AF0E0E832D091505040E695001CCAF7DE
:103530002BD0FE2F29D0660F771F881FBB1F2617A1
:1035400037074807AB07B0E809F0BB0B802DBF0178
:10355000FF2793585F4F3AF09E3F510578F00C9447
:103560006D1B0C94B81B5F3FE4F3983ED4F3869533
:1035700077956795B795F7959F5FC9F7880F911D68
:103580009695879597F90895E1E0660F771F881F54
:10359000BB1F621773078407BA0720F0621B730B07
:1035A000840BBA0BEE1F88F7E09508950E94DD1A90
:1035B0006894B1110C94B81B08950E949D1B88F06B
:1035C0009F5798F0B92F9927B751B0F0E1F0660FE7
:1035D000771F881F991F1AF0BA95C9F714C0B13028
:1035E00091F00E94B71BB1E008950C94B71B672FB0
:1035F000782F8827B85F39F0B93FCCF38695779557
:103600006795B395D9F73EF490958095709561953F
:103610007F4F8F4F9F4F0895E89409C097FB3EF46A
:1036200090958095709561957F4F8F4F9F4F99230F
:10363000A9F0F92F96E9BB279395F695879577958D
:103640006795B795F111F8CFFAF4BB0F11F460FF4D
:103650001BC06F5F7F4F8F4F9F4F16C0882311F0A5
:1036600096E911C0772321F09EE8872F762F05C0B9
:10367000662371F096E8862F70E060E02AF09A9554
:10368000660F771F881FDAF7880F9695879597F949
:103690000895990F0008550FAA0BE0E8FEEF1616E3
:1036A0001706E807F907C0F012161306E407F50736
:1036B00098F0621B730B840B950B39F40A2661F0AA
:1036C000232B242B252B21F408950A2609F4A1404D
:1036D000A6958FEF811D811D089597F99F6780E85A
:1036E00070E060E008959FEF80EC089500240A9454
:1036F0001616170618060906089500240A941216CD
:103700001306140605060895092E0394000C11F4FF
:10371000882352F0BB0F40F4BF2B11F460FF04C0AC
:103720006F5F7F4F8F4F9F4F089557FD9058440F05
:10373000551F59F05F3F71F04795880F97FB991F10
:1037400061F09F3F79F087950895121613061406CD
:10375000551FF2CF4695F1DF08C01616170618065A
:10376000991FF1CF86957105610508940895E89435
:10377000BB2766277727CB0197F908950E94491B3D
:1037800008F48FEF08950E94D61B0C94841B0E94AE
:10379000761B38F00E947D1B20F0952311F00C94CD
:1037A0006D1B0C94731B11240C94B81B0E94951B69
:1037B00070F3959FC1F3950F50E0551F629FF00184
:1037C000729FBB27F00DB11D639FAA27F00DB11D9D
:1037D000AA1F649F6627B00DA11D661F829F222726
:1037E000B00DA11D621F739FB00DA11D621F839FAD
:1037F000A00D611D221F749F3327A00D611D231F83
:10380000849F600D211D822F762F6A2F11249F57D0
:1038100050409AF0F1F088234AF0EE0FFF1FBB1FD3
:10382000661F771F881F91505040A9F79E3F510592
:1038300080F00C946D1B0C94B81B5F3FE4F3983E32
:10384000D4F3869577956795B795F795E7959F5F3C
:10385000C1F7FE2B880F911D9695879597F90895CE
:103860000E94892CCF93DF931F92CDB7DEB7698377
:10387000DC01ED91FC910280F381E02D41E050E00C
:10388000BE016F5F7F4F09950F90DF91CF91089533
:10389000CF93DF93EC018C859D8597FF05C082E077
:1038A0000E9418229D878C878C859D85DF91CF9102
:1038B000089583E00E942F2290E0089583E00C9405
:1038C000AD24FC018485958597FD06C082E00E94A9
:1038D000C32190E00196089582E00E94C32190E008
:1038E0000895FC018485958597FD05C02FEF3FEF76
:1038F00035872487089582E00C941822CF93DF93B4
:10390000EC0180912301882331F083E00E94492259
:103910001816190634F081E090E09B838A8380E0DA
:1039200090E0DF91CF910895EEEFFFE7259134917C
:1039300081E02B3F3C4D09F080E00895FC0190812F
:103940009E5F908342E450E068EE70E080E80C9463
:10395000F922FC0181819081913A59F4813209F078
:1039600065C047E050E06CE171E080E00E94F92220
:103970005BC0913209F05AC0833269F4828193812D
:10398000A0E0B0E08093180190931901A0931A0170
:10399000B0931B0149C0803239F467E070E08CE1DC
:1039A00091E00E94202340C0823209F03DC0828114
:1039B000809323010E94941C882319F0EEEFFAE013
:1039C00002C0E0E0F8E080911C0190911D01A091FF
:1039D0001E01B0911F01803B9440A105B10541F546
:1039E0008091230180FD24C0EE3F8AE0F80751F06A
:1039F00080819181873727E7920721F09093FF0A12
:103A00008093FE0A87E797E7918380838091600027
:103A100080933C069BE088E10FB6F894A8958093CC
:103A200060000FBE9093600081E0089580E00895EB
:103A30008081918187379747B9F7A8958091600079
:103A400088618093600080913C0680936000EE3F27
:103A50008AE0F80739F08091FE0A9091FF0A91837D
:103A60008083E2CF1092FF0A1092FE0ADDCF2FEF83
:103A70003FEFFC01358724870895ECEEF5E01382D3
:103A8000128288EE93E0A0E0B0E084839583A68361
:103A9000B78385E193E0918380838FEF9FEF9587D4
:103AA00084870895FC01918D228D892F90E0805CA0
:103AB0009F4F821B91098F7399270895FC01918D67
:103AC000828D981731F0828DE80FF11D858D90E081
:103AD00008958FEF9FEF0895FC01918D828D9817C7
:103AE00061F0828DDF01A80FB11D5D968C91928DE2
:103AF0009F5F9F73928F90E008958FEF9FEF0895DF
:103B0000FC01538D448D252F30E0842F90E0821BE3
:103B1000930B541710F0CF9608950197089589EEEE
:103B20009EE1892B49F080E090E0892B29F00E94EA
:103B3000E91E81110C9400000895FC01848DDF01C1
:103B4000A80FB11DA35ABF4F2C91848D90E0019610
:103B50008F739927848FA689B7892C93A089B189FF
:103B60008C9182748C93938D848D981306C00288F7
:103B7000F389E02D80818F7D80830895EF92FF92FD
:103B80000F931F93CF93DF93EC0181E0888F9B8D80
:103B90008C8D981305C0E889F989808185FD26C040
:103BA000F62E0B8D10E00F5F1F4F0F731127E02EC5
:103BB0008C8DE8120CC00FB607FCFACFE889F989A2
:103BC000808185FFF5CFCE010E949D1DF1CF8B8DA9
:103BD000FE01E80FF11DE35AFF4FF0829FB7F89402
:103BE0000B8FEA89FB898081806209C09FB7F894B6
:103BF000EE89FF896083E889F989808182748083F6
:103C00009FBF81E090E0DF91CF911F910F91FF90D6
:103C1000EF900895CF93DF93EC01888D8823C9F04E
:103C2000EA89FB89808185FD05C0A889B9898C91C5
:103C300086FD0FC00FB607FCF5CF808185FFF2CF60
:103C4000A889B9898C9185FFEDCFCE010E949D1D79
:103C5000E7CFDF91CF910895CF92DF92EF92FF925D
:103C60001F93CF93DF93EC016A017B01122FE88948
:103C7000F98982E080834115514E61057105B1F0EB
:103C800060E079E08DE390E0A70196010E94472A69
:103C9000DA01C9010197A109B109B695A7959795D0
:103CA00087959C01211580E13807A8F0E889F989FA
:103CB000108260E874E88EE190E0A70196010E940E
:103CC000472ADA01C9010197A109B109B695A7955B
:103CD000979587959C01EC85FD853083EE85FF8562
:103CE0002083188EEC89FD891083EA89FB89808105
:103CF00080618083EA89FB89808188608083EA898A
:103D0000FB89808180688083EA89FB8980818F7D3F
:103D10008083DF91CF911F91FF90EF90DF90CF9044
:103D200008951F920F920FB60F9211242F938F9325
:103D30009F93EF93FF93E0914D06F0914E068081A3
:103D4000E0915306F091540682FD12C0908180915B
:103D500056068F5F8F7320915706821751F0E091BE
:103D60005606F0E0E35CF94F958F8093560601C04C
:103D70008081FF91EF919F918F912F910F900FBEB6
:103D80000F901F9018951F920F920FB60F9211244B
:103D90002F933F934F935F936F937F938F939F9353
:103DA000AF93BF93EF93FF938DE396E00E949D1D29
:103DB000FF91EF91BF91AF919F918F917F916F9103
:103DC0005F914F913F912F910F900FBE0F901F90D9
:103DD00018958DE396E00E94521D21E0892B09F48D
:103DE00020E0822F0895EDE3F6E01382128288EE40
:103DF00093E0A0E0B0E084839583A683B78387E255
:103E000093E0918380838DEC90E0958784878CECA0
:103E100090E09787868788EC90E0918B808B89EC87
:103E200090E0938B828B8AEC90E0958B848B8EEC68
:103E300090E0978B868B118E128E138E148E0895C0
:103E400008950E9421270E94201F8AED96E00E947B
:103E500038250E940E0DCFE8DDE10E94F60D209777
:103E6000E1F30E948F1DF9CFCF92DF92EF92FF9284
:103E70000F931F93CF93DF936C017A018B01C0E006
:103E8000D0E0CE15DF0581F0D8016D918D01D6010E
:103E9000ED91FC910190F081E02DC6010995892BEF
:103EA00011F02196EECF7E01C701DF91CF911F91D6
:103EB0000F91FF90EF90DF90CF90089561157105FD
:103EC00079F0FB0101900020E9F73197AF01461B23
:103ED000570BDC01ED91FC910280F381E02D0994F8
:103EE00080E090E00895DB0114964D915C91159768
:103EF0006D917C91DC01ED91FC910280F381E02DCC
:103F000009940C945E1FDC01ED91FC910190F0810D
:103F1000E02D09948F929F92AF92BF92EF92FF9201
:103F20000F931F93CF93DF93CDB7DEB7A1970FB653
:103F3000F894DEBF0FBECDBF7C01FA01CB0119A200
:103F4000223008F42AE08E010F5D1F4F822E912C43
:103F5000A12CB12CBF01A50194010E94472AF901AF
:103F6000CA01015011096A3010F4605D01C0695C3A
:103F7000D8016C93232B242B252B61F7B801C701A3
:103F80000E945E1FA1960FB6F894DEBF0FBECDBF94
:103F9000DF91CF911F910F91FF90EF90BF90AF9065
:103FA0009F908F9008952115310541F4DC01ED912A
:103FB000FC910190F081E02D642F09940C948A1FEC
:103FC0009A01AB0160E070E00C94D31FCF92DF92B6
:103FD000EF92FF920F931F93CF93DF93211531053B
:103FE00081F4DC01ED91FC910190F081E02D642FD2
:103FF000DF91CF911F910F91FF90EF90DF90CF90C5
:1040000009942A30310501F577FF1DC06A017B0153
:10401000EC016DE20E94831F8C0144275527BA01F1
:104020004C195D096E097F092AE0CE010E948A1FA2
:10403000800F911FDF91CF911F910F91FF90EF9013
:10404000DF90CF9008952AE0DF91CF911F910F91DB
:10405000FF90EF90DF90CF900C948A1F9A01AB01F4
:10406000770F660B770B0C94E61F7F928F929F92CF
:10407000AF92BF92CF92DF92EF92FF920F931F9376
:10408000CF93DF938C016A017B01722E9A01AB0101
:10409000C701B6010E942E2A882319F068E373E055
:1040A00027C046015701E894B7F82FEF3FEF4FE7DD
:1040B0005FE7C501B4010E942E2A81110DC02FEFC8
:1040C0003FEF4FE75FE7C501B4010E945F1A181682
:1040D0001CF46CE373E00CC02FEF3FEF4FE75FE49D
:1040E000C701B6010E94BE1B181694F460E473E089
:1040F000C801DF91CF911F910F91FF90EF90DF905A
:10410000CF90BF90AF909F908F907F900C945E1F48
:104110002FEF3FEF4FE75FECC701B6010E945F1A38
:1041200087FDE4CF20E030E0A901C701B6010E947D
:104130005F1A87FF0AC06DE2C8010E94831FEC016D
:10414000F7FAF094F7F8F09402C0C0E0D0E0B12C98
:1041500060E070E080E09FE37B1441F020E030E01D
:1041600040E251E40E94641AB394F6CFA70196018D
:104170000E94F3196B017C010E94DD1A4B015C0166
:104180002AE0AB01BC01C8010E948A1FC80FD91FD9
:104190007720B9F1C501B4010E940C1B9B01AC0151
:1041A000C701B6010E94F2196B017C016EE2C801E1
:1041B0000E94831FC80FD91F20E030E040E251E485
:1041C000C701B6010E94C31B4B015C010E94DD1AAE
:1041D0006B017C014AE050E0C8010E94E01FC80F5B
:1041E000D91FB60180E090E00E940C1B9B01AC013E
:1041F000C501B4010E94F2196B017C017A9471101F
:10420000DBCFCE01DF91CF911F910F91FF90EF9007
:10421000DF90CF90BF90AF909F908F907F90089548
:104220000C943520615030F02091F100FC01208386
:104230000196F8CF289884E68093E206089540918D
:10424000DD065091DE062091DB063091DC06421738
:104250005307B4F49091E8009570E1F39091E80071
:1042600092FD19C08093F1008091DD069091DE06E9
:1042700001968F739927892B19F48EEF8093E800AC
:104280008091DD069091DE0601969093DE06809384
:10429000DD0681E0089580E00895DF92EF92FF92BD
:1042A0000F931F93CF93DF93D82EF92EE42E062F72
:1042B00010E0C8010196880F0E941F2183E00E9430
:1042C0001F21CD2DDF2D0C0F1D1FC017D10789F029
:1042D000E7FE03C0FE01849101C088810E941F2176
:1042E000F82E80E00E941F218F2121968111EDCFB1
:1042F00001C081E0DF91CF911F910F91FF90EF906E
:10430000DF9008958091D70081608093D70080EA84
:104310008093D80089B5806189BD89B5826089BDE7
:1043200009B400FEFDCF61E070E080E090E00E9403
:10433000DA268091D8008F7C80618093D8008091AC
:10434000E000807F8093E0000895CF93DF931F9279
:10435000CDB7DEB71982CE0101960E949E1C0E9445
:104360001A2ABE016F5F7F4F0E94952989810F90A5
:10437000DF91CF9108952FB7FC012083F8946770E7
:104380006093E9000895CF93DF931F92CDB7DEB716
:10439000682FCE0101960E94BB218091F200998185
:1043A0009FBF0F90DF91CF910895EF92FF920F93EF
:1043B0001F93CF93DF931F92CDB7DEB79091E106A5
:1043C000992311F057FF03C08FEF9FEF29C08A0197
:1043D0007B01682FCE0101960E94BB212091F20043
:1043E00030E0021713070CF49801822FF70194E6CE
:1043F000815038F028989093E2064091F100419363
:10440000F7CF2115310521F08091F200882321F0AA
:1044100089818FBFC90104C08BE68093E800F8CF83
:104420000F90DF91CF911F910F91FF90EF90089522
:10443000CF93DF931F92CDB7DEB741E050E0BE01CE
:104440006F5F7F4F0E94D521019719F4898190E019
:1044500002C08FEF9FEF0F90DF91CF910895CF9320
:10446000DF931F92CDB7DEB7682FCE0101960E9471
:10447000BB219091E800892F807295FF04C0909134
:10448000F20080E4891B99819FBF0F90DF91CF914B
:1044900008955F926F927F928F929F92AF92BF9298
:1044A000CF92DF92EF92FF920F931F93CF93DF9300
:1044B0001F92CDB7DEB7982E6B01B42E052F8091D9
:1044C000E106811103C08FEF9FEF77C08091DF0677
:1044D00080FF05C08091E00082608093E000EB2CBB
:1044E000F02EA12C8AEF882E892D8072682E892DBE
:1044F0008074582E9AE3792EE114F10419F4AA205D
:1045000009F455C0892D0E942F22182F81110AC04D
:104510008A948820C1F261E070E080E090E00E941F
:10452000DA26EACF90E0E816F9060CF41E2D692D84
:10453000CE0101960E94BB218091E80085FF34C026
:10454000812F90E0E81AF90A662029F01150A0F0B6
:104550001092F100FBCFF60197FE0AC0115050F007
:1045600024912093F1003196F9CF21912093F1000D
:104570001150D8F7C80ED91EAA2019F07092E80081
:104580000BC08091E80085FD09C07092E800AA2464
:10459000A394E114F10441F0A12C06C0E114F1044C
:1045A00019F451107092E80089818FBFA5CF5D98F2
:1045B00084E68093E3068B2D902F0F90DF91CF91AF
:1045C0001F910F91FF90EF90DF90CF90BF90AF9031
:1045D0009F908F907F906F905F9008951092E90068
:1045E0001092DE061092DD069093DC068093DB06C7
:1045F0000895DF92EF92FF920F931F93CF93DF9373
:10460000D82E8A017B01E40EF51EEB01CE15DF05E5
:1046100071F0D7FE03C0FE01849101C088810E9421
:104620001F2121968111F2CF8FEF9FEF01C0C801AA
:10463000DF91CF911F910F91FF90EF90DF90089540
:10464000AF92BF92DF92EF92FF920F931F93CF939F
:10465000DF935C018B01EB019BEFD92E2097C1F01A
:104660007E01C134D1051CF080E4E82EF12C80914C
:10467000E80082FFFCCFC8018C1B9D0B6E2D8A0DBC
:104680009B1D0E941221D092E800CE19DF09E6CFCF
:10469000C801DF91CF911F910F91FF90EF90DF90B4
:1046A000BF90AF9008951F920F920FB60F921124F2
:1046B000CF92DF92EF92FF920F931F932F933F932E
:1046C0004F935F936F937F938F939F93AF93BF931A
:1046D000EF93FF93CF93DF93CDB7DEB76C97DEBF39
:1046E000CDBF1092E9008091E80083FF17C168E018
:1046F000CE0145960E94122182EF8093E8008D89B9
:1047000087FF05C09091E80090FFFCCF03C09EEFAB
:104710009093E800982F907609F0D8C09E894F8931
:10472000588D2F89188D91110CC0803829F48091F3
:10473000E0068093F10002C01092F1001092F100A7
:10474000E6C0913051F48111E2C04130510509F0C9
:10475000DEC08091E0068D7F0BC0933061F4811143
:10476000D6C04130510509F0D2C08091E006826088
:104770008093E006CCC0953049F48091E80080FF3A
:10478000FCCF822F80688093E300C1C0963009F08F
:1047900070C0EB8CFC8C123069F580E090E00E94D8
:1047A000EE220E94A52199E09E012F5F3F4F6901F3
:1047B000F901292F11922A95E9F799831A8391E03B
:1047C0009E8390EA98879AEF99872091DD06309131
:1047D000DE06275F3F4F3C832B838D83C7010E94FA
:1047E000EE2249E050E0B60180E00E94F9220E94EA
:1047F000A5218DC0C7010E94EE220E941A2ABE0187
:104800006B5E7F4F0E94BE29009719F00CF07FC0AD
:1048100082C0113009F470C0133009F07CC08F8958
:10482000882309F46CC0823029F440E860E188E410
:1048300091E006C0813039F440E86BE08CE391E010
:104840000E944D2156C0833009F065C00E941A2A8B
:104850008E010F5F1F4FB8010E94DD29F801019002
:104860000020E9F73197BF01601B710B40E0C801E0
:10487000E7CF973009F44FC0983021F481E080935E
:10488000F10045C0993009F042C0837009F043C07F
:10489000E5E2F1E081E031E096E32081211109C0F9
:1048A0008EE78093EA001092EA008F898093E106F8
:1048B0002EC08093E9003093EB0021912093EC000F
:1048C0009093ED008F5F873041F7EACF8B8D9C8D01
:1048D0000E94EE22898D811105C0CE0145960E946D
:1048E000A91C07C00E941A2ABE016B5E7F4F0E945E
:1048F000FC29882381F00BC06AE271E002C069E5FF
:1049000071E0FB01449150E080E80E94F9228EEFB3
:104910008093E80003C081E28093EB006C960FB6B1
:10492000F894DEBF0FBECDBFDF91CF91FF91EF9125
:10493000BF91AF919F918F917F916F915F914F91B7
:104940003F912F911F910F91FF90EF90DF90CF90AB
:104950000F900FBE0F901F9018958093E9008091E3
:10496000F200882319F08AE38093E80008951F92EB
:104970000F920FB60F9211242F933F934F935F9393
:104980006F937F938F939F93AF93BF93CF93EF9347
:10499000FF93C091E1008091E100837F8093E1006B
:1049A000C3FF0FC01092E90081E08093EB001092EA
:1049B000EC0082E38093ED001092E10688E08093A2
:1049C000F000C2FF19C083E00E94AD248091E3068D
:1049D000882339F08091E30681508093E306882391
:1049E00089F18091E206882339F08091E2068150B6
:1049F0008093E206882341F1C4FF10C08091E20059
:104A00008E7E81608093E2008091E1008F7E8093B2
:104A1000E1008091DF068E7E806111C0C0FF16C06C
:104A20008091E2008E7E80618093E2008091E100BF
:104A30008E7E8093E1008091DF068E7E8160809380
:104A4000DF0604C05D9ACDCF289AD6CFFF91EF91B3
:104A5000CF91BF91AF919F918F917F916F915F9116
:104A60004F913F912F910F900FBE0F901F9018956F
:104A70001092E1061092E0061092DF060E94822159
:104A8000E1EEF0E080818E7E80838DE08093E20015
:104A9000559A209A08950895853008F04CC0E82F63
:104AA000F0E0EE0FFF1FE55DFE4F71836083823003
:104AB000E1F018F4813069F004C0833019F18430DA
:104AC00071F1809169008C7F482B40936900E89ACE
:104AD000089580916900837F440F551F440F551F2F
:104AE000482B40936900E99A0895809169008F7C72
:104AF00034E0440F551F3A95E1F7482B4093690085
:104B0000EA9A0895809169008F7326E0440F551F3B
:104B10002A95E1F7482B40936900EB9A089580911C
:104B20006A008F7C94E0440F551F9A95E1F7482B5B
:104B300040936A00EE9A08951F920F920FB60F925B
:104B400011242F933F934F935F936F937F938F9392
:104B50009F93AF93BF93EF93FF93E0912B01F0915D
:104B60002C010995FF91EF91BF91AF919F918F918A
:104B70007F916F915F914F913F912F910F900FBE59
:104B80000F901F9018951F920F920FB60F9211243D
:104B90002F933F934F935F936F937F938F939F9345
:104BA000AF93BF93EF93FF93E0912D01F0912E010E
:104BB0000995FF91EF91BF91AF919F918F917F9157
:104BC0006F915F914F913F912F910F900FBE0F907A
:104BD0001F9018951F920F920FB60F9211242F93CA
:104BE0003F934F935F936F937F938F939F93AF9375
:104BF000BF93EF93FF93E0912F01F091300109955E
:104C0000FF91EF91BF91AF919F918F917F916F91A4
:104C10005F914F913F912F910F900FBE0F901F907A
:104C200018951F920F920FB60F9211242F933F9356
:104C30004F935F936F937F938F939F93AF93BF93A4
:104C4000EF93FF93E0913101F09132010995FF91CB
:104C5000EF91BF91AF919F918F917F916F915F91F4
:104C60004F913F912F910F900FBE0F901F9018956D
:104C70001F920F920FB60F9211242F933F934F93D1
:104C80005F936F937F938F939F93AF93BF93EF93B4
:104C9000FF93E0913301F09134010995FF91EF9179
:104CA000BF91AF919F918F917F916F915F914F9144
:104CB0003F912F910F900FBE0F901F9018951F924C
:104CC0000F920FB60F9211242F933F938F939F93C0
:104CD000AF93BF938091E5069091E606A091E70619
:104CE000B091E8063091E40623E0230F2D3720F43D
:104CF0000196A11DB11D05C026E8230F0296A11D36
:104D0000B11D2093E4068093E5069093E606A093F8
:104D1000E706B093E8068091E9069091EA06A09133
:104D2000EB06B091EC060196A11DB11D8093E9063A
:104D30009093EA06A093EB06B093EC06BF91AF9177
:104D40009F918F913F912F910F900FBE0F901F90C9
:104D500018952FB7F8946091E5067091E60680915A
:104D6000E7069091E8062FBF08953FB7F894809129
:104D7000E9069091EA06A091EB06B091EC0626B503
:104D8000A89B05C02F3F19F00196A11DB11D3FBF83
:104D9000BA2FA92F982F8827820F911DA11DB11D11
:104DA000BC01CD0142E0660F771F881F991F4A950D
:104DB000D1F708958F929F92AF92BF92CF92DF92D8
:104DC000EF92FF926B017C010E94B5264B015C01C2
:104DD000C114D104E104F10401F10E9494290E945C
:104DE000B526DC01CB0188199909AA09BB09883EBF
:104DF0009340A105B10560F321E0C21AD108E10892
:104E0000F10888EE880E83E0981EA11CB11CC11425
:104E1000D104E104F10419F7DBCFFF90EF90DF90AC
:104E2000CF90BF90AF909F908F9008958230910562
:104E300038F0880F991F880F991F05970197F1F790
:104E40000895789484B5826084BD84B5816084BD02
:104E500085B5826085BD85B5816085BDEEE6F0E0F3
:104E6000808181608083E1E8F0E01082808182604F
:104E70008083808181608083E0E8F0E080818160D0
:104E80008083E1E9F0E080818260808380818160BD
:104E90008083E0E9F0E0808181608083E1ECF0E0F4
:104EA0008081846080838081826080838081816052
:104EB0008083E3ECF0E0808181608083E0ECF0E0CF
:104EC000808182608083E2ECF0E080818160808379
:104ED000EAE7F0E080818460808380818260808363
:104EE00080818160808380818068808308958231A1
:104EF00008F08251E82FF0E0E35AFE4FE4918091F0
:104F00007B00E3FB222720F930E095E0220F331FDE
:104F10009A95E1F78F7D282B20937B0080913501B6
:104F200020E4829FC0011124E770E82BE0937C000D
:104F300080917A00806480937A0080917A0086FD67
:104F4000FCCF809178002091790090E0922B089519
:104F50001F93CF93DF93182FEB0161E00E947D2810
:104F6000209711F460E004C0CF3FD10539F461E02F
:104F7000812FDF91CF911F910C94B928E12FF0E0A0
:104F8000E759FE4FE4918E2F90E0FC013197EF300E
:104F9000F10508F06CC0EA5AFF4F0C94882A84B5DA
:104FA000806884BDC7BD68C084B5806284BDC8BD4B
:104FB00063C080918000806880938000D0938900D6
:104FC000C093880059C080918000806280938000E7
:104FD000D0938B00C0938A004FC08091800088607E
:104FE00080938000D0938D00C0938C0045C0809149
:104FF0009000806880939000D0939900C0939800AF
:105000003BC080919000806280939000D0939B0081
:10501000C0939A0031C08091900088608093900086
:10502000D0939D00C0939C0027C08091C0008068F1
:105030008093C0008091C0008F7B8093C000C0939C
:10504000CF001AC08091C00080628093C000C093DE
:10505000D00012C08091C20088608093C20080910D
:10506000C2008B7F8093C200C093D20005C0C038BD
:10507000D1050CF07CCF76CFDF91CF911F910895B1
:1050800090E0FC013197EF30F105B0F5EB59FF4F9F
:105090000C94882A809180008F7703C080918000D3
:1050A0008F7D80938000089580918000877FF9CF65
:1050B00084B58F7702C084B58F7D84BD08958091BB
:1050C00090008F7707C0809190008F7D03C0809102
:1050D0009000877F8093900008958091C0008F7723
:1050E00003C08091C0008F7D8093C000089580919F
:1050F000C200877F8093C2000895CF93DF9390E032
:10510000FC01E857FE4F2491FC01E955FE4F8491C4
:10511000882361F190E0880F991FFC01EE51FE4F4A
:10512000C591D491FC01EC52FE4FA591B49161114F
:1051300009C09FB7F8948881209582238883EC91D9
:105140002E230BC0623061F49FB7F8948881322F10
:10515000309583238883EC912E2B2C939FBF06C020
:105160008FB7F894E8812E2B28838FBFDF91CF91E2
:1051700008951F93CF93DF93282F30E0F901E7596B
:10518000FE4F8491F901E857FE4FD491F901E9559A
:10519000FE4FC491CC23C1F0162F81110E944028EC
:1051A000EC2FF0E0EE0FFF1FEC52FE4FA591B491F3
:1051B0009FB7F894111104C08C91D095D82302C0E8
:1051C000EC91DE2BDC939FBFDF91CF911F9108956F
:1051D000CF93DF93282F30E0F901E759FE4F8491F8
:1051E000F901E857FE4FD491F901E955FE4FC491FA
:1051F000CC2391F081110E944028EC2FF0E0EE0FBB
:10520000FF1FEA53FE4FA591B491EC91ED2381E08D
:1052100090E021F480E002C080E090E0DF91CF9147
:105220000895FC01808191810C943A2BCF93DF93F8
:10523000EC0188819981009711F00E943A2B198224
:1052400018821D821C821B821A82DF91CF910895E1
:105250000F931F93CF93DF93EC018B016F5F7F4F11
:10526000888199810E94C32B009731F099838883AC
:105270001B830A8381E001C080E0DF91CF911F9101
:105280000F910895CF93DF93EC0188819981892B49
:1052900029F08A819B818617970760F4CE010E94CE
:1052A0002829882341F08C819D81892B19F4E8817C
:1052B000F981108281E0DF91CF910895EF92FF9202
:1052C0000F931F93CF93DF93EC017B018A01BA0107
:1052D0000E944229811104C0CE010E94162907C0F4
:1052E0001D830C83B701888199810E94BE2CCE0159
:1052F000DF91CF911F910F91FF90EF900895FC01E6
:105300001182108213821282158214826115710536
:1053100051F0FB0101900020E9F73197AF01461BE6
:10532000570B0C945E2908950895EF92FF920F9306
:105330001F93CF93DF937B01FC01C281D38100E0F7
:1053400010E0209781F0E881F9810280F381E02D5F
:10535000B701CE01099597FD08C0080F191F0884F1
:10536000D985C02DEECFC80102C08FEF9FEFDF912E
:10537000CF911F910F91FF90EF9008950F931F937E
:10538000CF93DF938B01FC01C281D381209771F011
:10539000E881F9810480F581E02DB801CE010995FD
:1053A000009731F40884D985C02DF0CF80E090E0DB
:1053B000DF91CF911F910F9108950F931F93CF937A
:1053C000DF938B01FC01C281D381209771F0E881CA
:1053D000F9810680F781E02DB801CE010995080F0B
:1053E000111D0884D985C02DF0CFF8011082DF91FE
:1053F000CF911F910F9108950F931F93CF93DF9338
:105400008B01FC01C281D381209771F0E881F98181
:105410000190F081E02DB801CE010995811105C000
:105420000884D985C02DF0CF80E0DF91CF911F9106
:105430000F9108958091F10681110DC082E0809353
:10544000ED0684E08093EE061092F0061092EF06CF
:1054500081E08093F1068DEE96E008950E94491B4D
:10546000880B990B089597FB072E16F4009407D02C
:1054700077FD09D00E948E2A07FC05D03EF4909556
:1054800081959F4F0895709561957F4F0895A1E292
:105490001A2EAA1BBB1BFD010DC0AA1FBB1FEE1FAE
:1054A000FF1FA217B307E407F50720F0A21BB30BF9
:1054B000E40BF50B661F771F881F991F1A9469F775
:1054C00060957095809590959B01AC01BD01CF01D1
:1054D0000895052E97FB1EF400940E94802A57FD24
:1054E00007D00E94472A07FC03D04EF40C94802A70
:1054F00050954095309521953F4F4F4F5F4F089500
:1055000090958095709561957F4F8F4F9F4F08952F
:10551000EE0FFF1F0590F491E02D0994AA1BBB1B11
:1055200051E107C0AA1FBB1FA617B70710F0A61BA3
:10553000B70B881F991F5A95A9F780959095BC01C4
:10554000CD0108950F931F93CF93DF938230910580
:1055500010F482E090E0E091FB06F091FC0620E080
:1055600030E0A0E0B0E0309719F140815181028134
:10557000138148175907C8F08417950769F41097E5
:1055800031F012960C93129713961C9327C0009338
:10559000FB061093FC0622C02115310519F04217B5
:1055A000530718F49A01BD01EF01DF01F801DBCFC9
:1055B00021153105F9F0281B390B2430310580F411
:1055C0008A819B816115710521F0FB0193838283A0
:1055D00004C09093FC068093FB06FE01329644C003
:1055E000FE01E20FF31F8193919322503109398319
:1055F00028833AC02091F9063091FA06232B41F412
:1056000020910201309103013093FA062093F906AC
:1056100020910001309101012115310541F42DB790
:105620003EB74091040150910501241B350BE091D8
:10563000F906F091FA06E217F307A0F42E1B3F0BD0
:105640002817390778F0AC014E5F5F4F24173507F4
:1056500048F04E0F5F1F5093FA064093F90681936E
:10566000919302C0E0E0F0E0CF01DF91CF911F9174
:105670000F910895CF93DF93009709F481C0FC0147
:10568000329713821282A091FB06B091FC0610970C
:1056900081F420813181820F931F2091F90630918E
:1056A000FA062817390751F5F093FA06E093F90640
:1056B00067C0ED0120E030E0CE17DF0740F44A81FB
:1056C0005B819E0141155105F1F0EA01F5CFD383CD
:1056D000C28340815181840F951FC817D90759F49F
:1056E00088819981840F951F0296918380838A8196
:1056F0009B81938382832115310529F4F093FC0665
:10570000E093FB063DC0E901FB83EA83499159918F
:10571000C40FD51FEC17FD0761F480819181840FC0
:10572000951F0296E90199838883828193819B83E7
:105730008A83E0E0F0E012968D919C911397009798
:1057400019F0FD01DC01F7CF8D919C9111979D011E
:105750002E5F3F4F820F931F2091F9063091FA067A
:105760002817390769F4309729F41092FC06109233
:10577000FB0602C013821282B093FA06A093F906C8
:10578000DF91CF910895A0E0B0E0E9ECFBE20C944A
:10579000F82CEC01009721F4CB010E94A22AB4C09E
:1057A000FC01E60FF71F9C0122503109E217F307B5
:1057B00008F4A8C0D9010D911C911197061717077D
:1057C000B0F00530110508F49BC0C8010497861796
:1057D000970708F495C002501109061B170B019397
:1057E00011936D937C93CF010E943A2B89C05B018A
:1057F000A01AB10A4C01800E911EA091FB06B09137
:10580000FC06612C712CE12CF12C109709F446C098
:105810008D919C911197A815B905B1F56C0142E0E5
:10582000C40ED11CCA14DB0478F14C018A189B0801
:10583000640142E0C40ED11C1296BC9012971396DC
:10584000AC91B5E0CB16D10440F0B282A383918233
:105850008082D9016D937C9309C00E5F1F4F800F2A
:10586000911FF90191838083EB2DFA2FE114F1044C
:1058700031F0D7011396FC93EE93129741C0F09349
:10588000FC06E093FB063CC06816790608F43C0170
:105890007D0112960D90BC91A02DB7CF8091F90695
:1058A0009091FA0688169906E1F466167706C8F410
:1058B0008091000190910101009741F48DB79EB74E
:1058C0004091040150910501841B950BE817F907DD
:1058D000C8F4F093FA06E093F906F9017183608346
:1058E0000FC0CB010E94A22A7C01009759F0A801A9
:1058F000BE010E94B52CCE010E943A2BC70104C004
:10590000CE0102C080E090E0CDB7DEB7EEE00C94AF
:10591000142D81E090E0F8940C942B2D1F93FC0142
:1059200099278827BC01E89411911032E9F31930C6
:1059300010F01E30C8F31B3251F01D3249F4689448
:1059400006C00E94DF2C610F711D811D911D1191F8
:1059500010531A30B0F33EF4909580957095619590
:105960007F4F8F4F9F4F1F910895FB01DC0102C0B5
:1059700001900D9241505040D8F70895FB01DC0191
:1059800001900D920020E1F70895FB0151915523FC
:10599000A9F0BF01DC014D9145174111E1F759F420
:1059A000CD010190002049F04D9140154111C9F3FE
:1059B000FB014111EFCF81E090E001970895592F4D
:1059C000482F372F262F660F771F881F991F660FC6
:1059D000771F881F991F620F731F841F951F660F03
:1059E000771F881F991F08952F923F924F925F92C1
:1059F0006F927F928F929F92AF92BF92CF92DF92DF
:105A0000EF92FF920F931F93CF93DF93CDB7DEB743
:105A1000CA1BDB0B0FB6F894DEBF0FBECDBF0994D7
:105A20002A88398848885F846E847D848C849B842E
:105A3000AA84B984C884DF80EE80FD800C811B813C
:105A4000AA81B981CE0FD11D0FB6F894DEBF0FBE6B
:105A5000CDBFED01089510E0CCEFD0E004C0FE0111
:105A60000E94882A2196CD3FD107C9F7F894FFCF2D
:105A70000000FD062000E8030000E8030000A0404D
:105A80000000404004000500FFFFFFFF00E10000B0
:105A90000000000000C180810000004B254B254B19
:105AA000254B254B250147505320446174656E00FA
:105AB0003A30003A0020504D0020414D00576563B8
:105AC0006B65723A200045696E0041757300576539
:105AD000636B7A6569743F002E20002E0053656E5B
