:100000000C94EE000C9416010C9416010C9416013D
:100010000C9416010C9416010C9416010C94160104
:100020000C9416010C9416010C941D160C94B91422
:100030000C9416010C9416010C9416010C941601E4
:100040000C9416010C9416010C9416010C941601D4
:100050000C9416010C9416010C9416010C94B11614
:100060000C9416010C9416010C9416010C941601B4
:100070000C9416010C9416010C9416010C941601A4
:100080000C9416010C9416010C9416010C94160194
:100090000C94560C0C9416010C9416010C94160139
:1000A0000C9416010C9416010C94160107180A18EA
:1000B000F917FD1703182B182B182B180E181218E8
:1000C00016181C1820182B1826180012010002EF11
:1000D00002014041233680000101020301417264A4
:1000E00075696E6F204C4C430041726475696E6F88
:1000F000204C656F6E6172646F000403090407068B
:1001000005040100080A0B0C0D090000000200099B
:100110000F0000030401000C0000000000000000BC
:1001200000000000000000000004080201104080F0
:1001300040102040804080080204018040201002CE
:10014000011080102040402004040404040304052E
:100150000202020204030202020206060606060664
:100160000404020202040400000000230026002907
:10017000002C002F0000000000250028002B002E7E
:1001800000310000000000240027002A002D00306C
:1001900000080B0002020201000904000001020233
:1001A00000000524001001052401010104240206B9
:1001B0000524060001070581031000400904010021
:1001C000020A000000070502024000000705830242
:1001D00040000000C304EA0E481A860511241FBE21
:1001E000CFEFDAE0DEBFCDBF12E0A0E0B1E0E8E69D
:1001F000FCE302C005900D92AE34B107D9F724E0BC
:10020000AEE4B2E001C01D92A335B207E1F710E001
:10021000CDEED0E004C02197FE010E94D31BCA3E60
:10022000D107C9F70E9487100C94271E0C94000078
:1002300080E00E94BE178D3F23E0920720F180915D
:100240004E0290914F02019690934F0280934E027E
:1002500003970CF46AC0EEE4F2E020E030E080E0C6
:1002600090E040815181443051052CF0C901493C56
:1002700051050CF00596119211922F5F3F4F2630D9
:10028000310579F708958934910570F48091500211
:100290009091510281152DE792074CF401969093AD
:1002A00051028093500241C08E3E910570F48091BE
:1002B00052029091530281152DE7920754F4019652
:1002C000909353028093520230C0823A21E0920709
:1002D00070F4809154029091550281152DE7920798
:1002E0004CF4019690935502809354021EC08037BF
:1002F000924070F4809156029091570281152DE73B
:10030000920734F4019690935702809356020DC0E1
:10031000809158029091590281152DE792072CF493
:100320000196909359028093580280E090E00895DE
:1003300080E090E0089508958DEF9FEF08950F936A
:100340001F93CF93DF93182FD0E0C0E26C2F89E882
:1003500093E00E94630E89E893E00E94E70E082F65
:1003600061E070E080E090E00E942C17011103C072
:100370001D17F9F0DF5FCF5FC83241F7C8E36C2F7C
:1003800089E893E00E94630E89E893E00E94E70EFB
:10039000082F61E070E080E090E00E942C170111CE
:1003A00003C01D1731F0DF5FCF5FC03441F780E03D
:1003B00001C08C2FDF91CF911F910F910895DC0127
:1003C000ED91FC910190F081E02D0994FC01848174
:1003D000958101962CE330E0B9010E949D1B958325
:1003E0008483892B19F080E090E0089582819381C5
:1003F0000196B9010E949D1B93838283892B99F7F3
:1004000080819181019668E170E00E949D1BAC01A2
:100410009183808321E090E0452B09F020E0822F3A
:1004200008950F931F930E94FB16009106011091EF
:1004300007012091080130910901061717072807C5
:100440003907E0F4D901C80188519C4FAF4FBF4F25
:100450008093060190930701A0930801B0930901CE
:1004600084E892E00E94E6018CE792E00E94E601B7
:1004700084E792E01F910F910C94E6011F910F9178
:100480000895CF93DF93EC01888199810A9734F422
:100490006FE171E08EEE92E00E94E7106881798151
:1004A0004AE050E08EEE92E00E9494118A819B8196
:1004B0000A971CF46EE171E002C061E271E08EEE19
:1004C00092E00E94E7106A817B814AE050E08EEE64
:1004D00092E00E9494118C819D810A971CF46EE138
:1004E00071E002C061E271E08EEE92E00E94E710DE
:1004F0006C817D814AE050E08EEE92E0DF91CF91F9
:100500000C949411CF92DF92EF92FF9286E10E94B9
:10051000BE17BC01990F880B990B0E94620F20E057
:1005200030E04AEF53E40E94F30F20E030EC4FE755
:1005300054E40E94EE0E6B017C0141E060E08EEE1F
:1005400092E00E94370A20E030E048EC52E4C70114
:10055000B6010E94EE0F18161CF463E271E015C09C
:1005600022E030E0B701A6018EEE92E00E94761202
:1005700061E371E08EEE92E00E94E7106FED8EEE87
:1005800092E00E94E91063E371E08EEE92E0FF904A
:10059000EF90DF90CF900C94E710CF93DF93EC01B6
:1005A000809178029091790265E070E00E949D1B35
:1005B000892B11F40E94820240E060E08EEE92E00E
:1005C0000E94370A84E792E00E944102CE01DF9147
:1005D000CF910895E0918C02F0918D0283E0EE0FAF
:1005E000FF1F8A95E1F7E257FD4F26813781809101
:1005F000840290918502820F931F883191050CF03F
:10060000489790937D0280937C0220917C023091E8
:100610007D0237FF08C088E190E0821B930B909326
:100620007D0280937C0208958330910539F08A30F1
:10063000910521F08130910551F517C08EEE92E0C1
:100640000E94310A80918C0290918D02009719F4DA
:100650008BE090E001C0019790938D0280938C0213
:100660000E94EA028AE090E008958EEE92E00E94F5
:10067000310A80918C0290918D028B30910529F482
:1006800010928D0210928C02EBCF0196E5CF089567
:10069000CF93DF930E941403EC0140E060E08EEE04
:1006A00092E00E94370A60918C0270918D0283E083
:1006B000660F771F8A95E1F762577D4F8EEE92E0C5
:1006C0000E94D91041E060E08EEE92E00E94370A6D
:1006D0008CE792E00E944102CE01DF91CF91089514
:1006E0008EEE92E00E94310A65E371E08EEE92E0B8
:1006F0000E94E71068EE73E080E090E00E942C1703
:100700008EEE92E00C94310A20E042E060E18EEE41
:1007100092E00E945D0A8EEE92E00E94F2098EEE57
:1007200092E00E94F70A8EEE92E00E94340A68E49A
:1007300071E08EEE92E00E94E71041E060E08EEE04
:1007400092E00E94370A69E571E08EEE92E00E9425
:10075000E7100E94FB16683B7B4081059105C8F3BA
:100760008EEE92E00E94310A88E0E4E8F2E0ACE725
:10077000B2E001900D928A95E1F760E081E00E947D
:100780002C1860E086E10C942C1881E00E949718E8
:10079000019711F40C9470030E9411020E94180139
:1007A00090936F0280936E022091720230917302D7
:1007B00042E1429FF001439FF00D1124E052FE4FB1
:1007C0000484F585E02D309729F0099590936F0208
:1007D00080936E0280916E0290916F02833091053A
:1007E000E9F134F48130910579F0029721F109C0E3
:1007F0008530910509F46AC00CF443C0069709F4EA
:100800008AC08FEF9FEF12C08EEE92E00E94310AF5
:10081000809172029091730222E1289FF001299F3A
:10082000F00D1124E052FE4F82819381909371026A
:100830008093700280C08EEE92E00E94310A809117
:1008400072029091730222E1289FF001299FF00D1E
:100850001124E052FE4F84819581E8CF8EEE92E024
:100860000E94310A809172029091730222E1289FC6
:10087000F001299FF00D1124E052FE4F86819781EF
:10088000D5CF8EEE92E00E94310A80917202909153
:10089000730222E1289FF001299FF00D1124E052FC
:1008A000FE4F0684F785E02D309709F00995809179
:1008B00072029091730222E1289FF001299FF00DAE
:1008C0001124E052FE4F80859185B0CF8EEE92E0EC
:1008D0000E94310A809172029091730222E1289F56
:1008E000F001299FF00D1124E052FE4F0088F1899C
:1008F000E02D309709F00995809172029091730272
:1009000022E1289FF001299FF00D1124E052FE4FB3
:10091000828593858BCF8EEE92E00E94310A8EEE17
:1009200092E00E94F70A8EEE92E00E94FE0A109278
:10093000710210927002809170029091710297FD85
:1009400021C0909373028093720240E060E08EEECB
:1009500092E00E94370A809172029091730222E124
:10096000289FF001299FF00D1124E052FE4F608175
:1009700071818AE592E00E94D91DBC018EEE92E061
:100980000C94E7100895AF92BF92CF92DF92EF924E
:10099000FF920F931F93CF93DF938EEE92E00E940E
:1009A000BD09EEEEF2E08EEC91E09183808310A21F
:1009B00011A267E671E08EE892E00E942E19CEE85F
:1009C000D2E01F821E826EE671E086E992E00E940C
:1009D0002E198BEFE82EFF24FA94FF86EE8667E748
:1009E00071E08EE992E00E942E19CC24C394D12CA0
:1009F000DF8ACE8A6DE771E086EA92E00E942E19C6
:100A000029E0A22EB12CBF8EAE8E63E871E08EEA93
:100A100092E00E942E1908E010E01FA30EA36CE8DC
:100A200071E086EB92E00E942E1988EF9FEF9FA75E
:100A30008EA768E971E08EEB92E00E942E198AEF92
:100A40009FEF9FAB8EAB60EA71E086EC92E00E9474
:100A50002E19BFAEAEAE66EA71E08EEC92E00E9457
:100A60002E19D092D502C092D4026FEA71E086EDC1
:100A700092E00E942E19F092DD02E092DC026AEB15
:100A800071E08EED92E00E942E191093E502009322
:100A9000E40263EC71E086EE92E00E942E198BE096
:100AA00090E09093ED028093EC02E4E8F2E085E1BF
:100AB00090E0918380838FE190E09383828315821D
:100AC000148217821682ECE7F2E02CE030E03183EA
:100AD0002083138212821582148217821682E4E721
:100AE000F2E026E130E03183208393838283158214
:100AF000148217821682DF91CF911F910F91FF9080
:100B0000EF90DF90CF90BF90AF900895CF93DF9399
:100B1000CEEED2E02897CE010E94C01882E0CE38F7
:100B2000D807C1F7DF91CF910895CF93DF93FC01F0
:100B300081A5882371F192A5662319F0913029F4DB
:100B400002C0911102C083A701C013A6EF0160A1EA
:100B500089E893E00E94630E89A1823031F469E054
:100B600070E089E893E00E94DF016BA589E893E0DB
:100B70000E94120E89E893E00E94E70E21E030E027
:100B8000811102C020E030E088279927821B930B57
:100B900002C08DEF9FEFDF91CF910895CF93FC01BD
:100BA000C3A560FF02C085A1C82B61FF02C086A15A
:100BB000C82B62FF02C087A1C82B63FF02C080A5BB
:100BC000C82B413011F482A1C82B64A16C2B70E0BA
:100BD00089E893E00E94DF016C2F89E893E0CF91D0
:100BE0000C94120E8F929F92AF92BF92CF92DF928F
:100BF000EF92FF920F931F93CF93DF93EC0188A1A5
:100C0000882309F450C089A1882309F44CC0142F0B
:100C1000062F8C8C9D8CAE8CBF8CC88CD98CEA8CAA
:100C2000FB8C8DE2C81AD108E108F1080E94071771
:100C3000DC01CB018C199D09AE09BF098815990506
:100C4000AA05BB0598F368A189E893E00E94630EAA
:100C500089A1823031F469E070E089E893E00E9474
:100C6000DF01612F70E084E0759567958A95E1F763
:100C7000402FCE010E94CE05023031F0612F6F70FF
:100C8000402FCE010E94CE0589E893E00E94E70E36
:100C900021E030E0811102C020E030E08827992770
:100CA000821B930B02C08CEF9FEFDF91CF911F91BE
:100CB0000F91FF90EF90DF90CF90BF90AF909F90FB
:100CC0008F9008958F929F92AF92BF92CF92DF92B2
:100CD000EF92FF920F931F93CF93DF93EC011BA52D
:100CE00088A1882309F4F6C089A1882309F4F2C0F9
:100CF000823009F4F1C08BA1882309F4EDC0062FDE
:100D00008C8C9D8CAE8CBF8CC88CD98CEA8CFB8C67
:100D10008DE2C81AD108E108F1080E940717DC012A
:100D2000CB018C199D09AE09BF0988159905AA0543
:100D3000BB0598F38DA1182B8EA1182B8FA1182B12
:100D400088A5182B013011F48AA1182B8BA1182B20
:100D500068A189E893E00E94630E612F89E893E01F
:100D60000E94120E89E893E00E94E70E882319F092
:100D70000FEF1FEF9DC068A189E893E00E94630E0A
:100D80006CA1612B70E089E893E00E94DF0189E8A3
:100D900093E00E94E70E8111EBCF68A170E041E083
:100DA00050E089E893E00E94E40E89E893E00E9415
:100DB0008B0D7C0197FDDCCF68A189E893E00E9450
:100DC000630E612F89E893E00E94120E89E893E098
:100DD0000E94E70E8111CCCF8DA190E08E219F2142
:100DE000892B11F400E001C000E18EA190E08E217A
:100DF0009F21892B09F000628FA190E08E219F2115
:100E0000892B09F0006488A590E0E822F922EF28F8
:100E100009F0006868A189E893E00E94630E6CA164
:100E2000612B70E089E893E00E94DF0189E893E09C
:100E30000E94E70E81119CCF68A170E041E050E074
:100E400089E893E00E94E40E89E893E00E948B0D0C
:100E50007C0197FD8DCF68A189E893E00E94630E25
:100E6000612F89E893E00E94120E89E893E00E94C6
:100E7000E70E81117DCF8DA190E08E219F21892BDE
:100E800009F001608EA190E08E219F21892B09F04D
:100E900002608FA190E08E219F21892B09F00460D0
:100EA00088A590E0E822F922EF2809F0086010E018
:100EB00068A189E893E00E94630E6BA589E893E03E
:100EC0000E94120E89E893E00E94E70E882339F011
:100ED0008FEF03C08CEF01C08DEF9FEF01C0C80101
:100EE000DF91CF911F910F91FF90EF90DF90CF9006
:100EF000BF90AF909F908F9008950F931F93CF93C3
:100F0000DF93EC0168A189E893E00E94630E6FEF24
:100F100089E893E00E94120E89E893E00E94E70EB0
:100F200068A170E041E050E089E893E00E94E40E9F
:100F300089E893E00E948B0D8C0168A189E893E019
:100F40000E94630E6BEF89E893E00E94120E89E81D
:100F500093E00E94E70E68A170E041E050E089E86C
:100F600093E00E94E40E89E893E00E948B0D9801C3
:100F70002770332727303105B1F4807F9927803FD0
:100F8000910589F483E0169507958A95E1F781E04C
:100F90000827017043E057E066E075E0E4E022E0F6
:100FA000F1E030E034C0C80180779927803791059F
:100FB00009F068C068A189E893E00E94630E6FEEB3
:100FC00089E893E00E94120E89E893E00E94E70E00
:100FD00068A170E041E050E089E893E00E94E40EEF
:100FE00089E893E00E948B0D8F7099270F9719F075
:100FF00026E034E002C024E036E00095001F002720
:10100000001F47E053E062E071E0E0E0F5E081E0DE
:1010100090E0DC0101C0AA0F3A95EAF7AAA3DC012F
:1010200001C0AA0FFA95EAF7ABA3DC0102C0AA0F30
:10103000BB1F2A95E2F7ACA39C0101C0220FEA95E1
:10104000EAF72DA39C0101C0220F7A95EAF72EA39F
:101050009C0101C0220F6A95EAF72FA39C0101C0F1
:10106000220F5A95EAF728A701C0880F4A95EAF798
:1010700089A70AA7013011F48BA701C01BA680E045
:1010800090E002C08DEF9FEFDF91CF911F910F9104
:101090000895CF93DF93EC0168A189E893E00E9463
:1010A000630E60E089E893E00E94120E6FEF70E03B
:1010B00089E893E00E94DF0189E893E00E94E70E4F
:1010C00068A189E893E00E94630E66E070E089E819
:1010D00093E00E94DF016FEF70E089E893E00E94E7
:1010E000DF0189E893E00E94E70E68A189E893E0B8
:1010F0000E94630E69E070E089E893E00E94DF01DE
:1011000089E893E00E94E70E68A170E041E050E0BA
:1011100089E893E00E94E40E89E893E00E948B0D39
:101120008F3761F086FF12C081FD4CC021E032E0B4
:1011300043E054E065E076E0E7E00FC027E036E00A
:1011400045E054E063E072E0E1E007C026E033E010
:1011500042E051E060E077E0E4E081E090E0DC0133
:1011600002C0AA0FBB1FEA95E2F7AAA31BA2FC01CB
:1011700001C0EE0F7A95EAF7ECA3FC0102C0EE0F76
:10118000FF1F6A95E2F7EDA3BC0101C0660F5A95F7
:10119000EAF76EA3BC0102C0660F771F4A95E2F71B
:1011A0006FA3AC0101C0440F3A95EAF748A701C00C
:1011B000880F2A95EAF789A791E09AA78BA780E084
:1011C00090E002C08DEF9FEFDF91CF9108951F93C4
:1011D000CF93DF93EC0189E893E00E94510E68A160
:1011E00061110AC080911A0391E0980F90931A033D
:1011F0000E949F0188A30DC089E893E00E94630EBE
:1012000089E893E00E94E70E882319F08CEF9FEFA6
:10121000A7C088A1811109C080911A0391E0980F9D
:1012200090931A030E949F0188A318A1112371F3C0
:1012300089A18823C1F168A189E893E00E94630E27
:1012400089A1823009F076C065E070E089E893E01A
:101250000E94DF0160E270E089E893E00E94DF0114
:1012600089E893E00E94E70E68A189E893E00E9474
:10127000630E60E089E893E00E94120E60E089E866
:1012800093E00E94120E89E893E00E94E70E68A1A5
:1012900089E893E00E94630E69E070E089E893E0DA
:1012A0000E94DF0147C0612F89E893E00E94630E2E
:1012B00060E089E893E00E94120E6FEF89E893E006
:1012C0000E94120E89E893E00E94E70E612F89E8E0
:1012D00093E00E94630E60E089E893E00E94120EA2
:1012E00089E893E00E94E70E612F70E041E050E052
:1012F00089E893E00E94E40E89E893E00E948B0D58
:101300009C018F3F910529F091E0232B19F090E08B
:1013100001C092E099A3992309F1913021F4CE0103
:101320000E947D0703C0CE010E944908009709F47E
:1013300082CF16C060E089E893E00E94120E89E82F
:1013400093E00E94E70E21E030E0811102C020E02E
:1013500030E088279927821B930B02C08FEF9FEF05
:10136000DF91CF911F91089580E090E008958DEF77
:101370009FEF08958DEF9FEF0895CF93DF93EC01DA
:101380001B821A8288E092E0998388831F821886E4
:1013900080ED97E0A0E0B0E0888B998BAA8BBB8BA7
:1013A00086E290E0A0E0B0E08C8B9D8BAE8BBF8B93
:1013B0001C861D861E861F861B860E940717688F47
:1013C000798F8A8F9B8F1C8E1D8E1E8E1F8EDF91B4
:1013D000CF910895DC01ED91FC910684F785E02D15
:1013E0006FEF0994DC01ED91FC910684F785E02D07
:1013F00060E009948F929F92AF92BF92EF92FF921A
:101400001F93CF93DF93EC01162FE881F9810484B9
:10141000F585E02D462F60E009957C0111501230D2
:1014200038F419861A8688889988AA88BB8804C0E7
:101430008C889D88AE88BF880E940717688F798F37
:101440008A8F9B8F8C8E9D8EAE8EBF8EC701DF9153
:10145000CF911F91FF90EF90BF90AF909F908F9092
:10146000089561E00C94FA0962E00C94FA09FC0119
:101470008085481710F04FEF480F9385992359F056
:101480009781691730F0691B4F5F4817D0F340E030
:10149000F8CF61874287DF01A40FB11D1C968C91A4
:1014A000680F6068CF010C94FA09FC016581262F52
:1014B000246025836C600C94FA090F931F93CF93DB
:1014C000DF93EC01022F142F453008F014E08C85D7
:1014D000811109C08D85811106C08E85811103C0DF
:1014E0008F85882329F08F81882359F0861749F04A
:1014F0001C8680E48D876E87862F90E0805C9F4FEE
:101500008F8718876F8364E670E080E090E00E9428
:101510002C171C82E881F9810084F185E02DCE0131
:101520000995009709F05EC08885823018F08C819B
:1015300088608C83002329F0113019F48C81846039
:101540008C83E881F9810484F585E02D40E362E035
:10155000CE01099565E070E080E090E00E942C17D4
:10156000E881F9810484F585E02D40E362E0CE0155
:10157000099561E070E080E090E00E942C17E8811E
:10158000F9810484F585E02D40E362E0CE01099500
:1015900061E070E080E090E00E942C178C8184FD77
:1015A00009C0E881F9810484F585E02D40E262E01C
:1015B000CE0109956C816062CE010E94FA0984E037
:1015C0008D83CE010E94550ACE010E94310A82E02D
:1015D0008E8366E0CE010E94FA098C01CE010E9442
:1015E000EA09C801DF91CF911F910F910895FC0185
:1015F00065816D7F658368600C94FA09FC016581E3
:101600006E7F658368600C94FA09CF92DF92EF9247
:10161000FF920F931F93CF93DF93EC01462FE88146
:10162000F9810484F585E02D61E009958C01CC8871
:10163000DD88EE88FF880E940717688F798F8A8F70
:101640009B8FCC8EDD8EEE8EFF8E81E090E0012BA5
:1016500011F080E090E0DF91CF911F910F91FF900A
:10166000EF90DF90CF9008950F931F93CF93DF9368
:10167000EC010E94050B8C018B85882399F08985EC
:101680008F5F89879F81891768F019868A858F5FA8
:101690008A879885891708F01A864A8560E0CE0106
:1016A0000E94370AC801DF91CF911F910F910895D1
:1016B0001092880381E0809386031092850361E095
:1016C00082E00E94681861E083E00E946818E9EBFC
:1016D000F0E080818E7F808380818D7F808388E4AD
:1016E0008093B80085E48093BC000895413208F0EF
:1016F00043C0909188039111FCCF91E090938803AF
:10170000209386032FEF20931B0310926003240F76
:1017100020935F039093870390918703880F892B11
:101720008093870380918503813061F41092850353
:10173000809187038093BB008091BC0083FDF8CF2C
:1017400085EC01C085EE8093BC00809188038130D8
:10175000E1F380916003841710F440916003A1E6E7
:10176000B3E0962FFB018E2F891B841718F48D91FF
:101770008193F9CF842F089580E008950F9341322B
:1017800008F04AC0909188039111FCCF32E0309369
:101790008803009386033FEF30931B03109260038E
:1017A00040935F03562FA1E6B3E0FB013E2F351BAC
:1017B000341718F431913D93F9CF1092870330918B
:1017C0008703880F832B8093870380918503813063
:1017D00061F410928503809187038093BB00809110
:1017E000BC0083FDF8CF85EC01C085EE8093BC0082
:1017F000222321F0809188038230D1F380911B0352
:101800008F3F79F080911B03803241F080911B0360
:10181000803331F094E005C091E003C092E001C054
:1018200093E0892F0F91089540913D03262F30E0DA
:10183000240F311D21323105DCF42091880324303E
:10184000C9F4FC0180E090E0861758F430913D0324
:101850002191DC01A15CBC4FA30FB11D2C9301961B
:10186000F3CF80913D03680F60933D0380E00895BE
:1018700081E0089582E0089590938203809381032C
:1018800008959093840380938303089585ED809356
:10189000BC008091BC0084FDFCCF109288030895A9
:1018A00085EC8093BC001092880308951F920F92DC
:1018B0000FB60F9211242F933F934F935F936F9323
:1018C0007F938F939F93AF93BF93EF93FF938091F9
:1018D000B900887F803609F49EC078F5883209F413
:1018E0005DC090F4803109F456C038F4882309F4BF
:1018F000F5C0883009F44FC0F5C0883109F44EC0F6
:10190000803209F45FC0EEC0803409F46AC058F434
:10191000803309F457C0883309F0E4C080931B0377
:101920000E94500CDFC0803509F44FC0883509F49F
:101930005DC0883409F0D6C0D3C0883909F4C4C06A
:10194000A8F4883709F467C038F4883609F463C00E
:10195000803709F460C0C6C0883809F4B5C0803942
:1019600009F45FC0803809F0BDC05BC0803B09F45A
:1019700083C038F4803A09F466C0883A09F47CC020
:10198000B1C0803C09F4A4C0883C09F4A1C0883BE4
:1019900009F487C0A7C08091870310C090916003AD
:1019A00080915F03981770F5E091600381E08E0FDE
:1019B00080936003F0E0EF59FC4F80818093BB007F
:1019C00085EC83C080931B038BC0E091600381E0B2
:1019D0008E0F809360038091BB00F0E0EF59FC4FC5
:1019E00080839091600380915F036BC0E0916003FE
:1019F00081E08E0F809360038091BB00F0E0EF598F
:101A0000FC4F80838091860381116AC081E08093BE
:101A1000850384EA5EC083E08093880310921C03F0
:101A2000CFCF80911C03803208F04EC0E0911C03A0
:101A300081E08E0F80931C038091BB00F0E0E35E99
:101A4000FC4F8083BDCF0E94500C80911C038032DC
:101A500030F4E0911C03F0E0E35EFC4F10826091F3
:101A60001C0370E0E0918103F09182038DE193E02B
:101A7000099510921C0336C084E08093880310926D
:101A80003E0310923D03E0918303F0918403099596
:101A900080913D03811105C081E080933D03109248
:101AA0003F03E0913E0381E08E0F80933E03F0E020
:101AB000E15CFC4F80818093BB0090913E0380915C
:101AC0003D03981708F47CCF85E88093BC000AC0DA
:101AD00085EC8093BC001092880304C010921B0315
:101AE0000E94460CFF91EF91BF91AF919F918F9112
:101AF0007F916F915F914F913F912F910F900FBE0A
:101B00000F901F9018958091BD0390E02091BE0327
:101B1000821B910908959091BE038091BD0398178F
:101B200050F4E92FF0E0E154FC4F208130E09F5F5A
:101B30009093BE0302C02FEF3FEFC9010895E091DB
:101B4000BE038091BD03E81730F4F0E0E154FC4F90
:101B5000808190E008958FEF9FEF08950895CF93CF
:101B6000DF93EC01E0919503F09196033097F1F04B
:101B70009091BE038091BD039817C0F090E0292F8B
:101B800030E02617370754F4DE01A20FB31F4C9143
:101B9000D901A154BC4F4C939F5FF1CF1092BE036B
:101BA0006093BD03CB01DF91CF910994DF91CF9179
:101BB0000895E0919703F0919803309729F01092DF
:101BC0009B0310929A0309940895CF92DF92EF92AB
:101BD000FF920F931F93CF93DF937C01CB018A0178
:101BE00020919903222389F0EB016B01C40ED51ECD
:101BF000CC15DD0569F06991D701ED91FC9101905B
:101C0000F081E02DC7010995F3CF642F0E94140CD9
:101C1000C801DF91CF911F910F91FF90EF90DF905E
:101C2000CF900895CF93DF931F92CDB7DEB769832E
:101C3000209199032223D1F020919A03203240F081
:101C400021E030E0FC013383228380E090E015C086
:101C500080919B03E82FF0E0E456FC4F998190833C
:101C60008F5F80939B0380939A0305C061E0CE0150
:101C700001960E94140C81E090E00F90DF91CF91CB
:101C80000895FC011382128288EE93E0A0E0B0E098
:101C900084839583A683B7838EE192E091838083CA
:101CA00008951092BE031092BD0310929B031092F0
:101CB0009A030E94580B89ED9DE00E94410C8FEA27
:101CC0009DE00C943C0C81E0809399036093BC03ED
:101CD00010929B0310929A0308950F93062F21E010
:101CE00040919A036CE973E08091BC030E94BE0BA3
:101CF00010929B0310929A03109299030F910895EA
:101D00004F925F926F927F92AF92BF92CF92EF927B
:101D1000FF920F931F93CF93DF935C01F62ED42F86
:101D200028013901EE2021F10E94630ECE2DC4302E
:101D300008F0C3E0C150C0F028E0C29FC0011124E8
:101D4000A301920104C056954795379527958A952A
:101D5000D2F7CA01B901D501ED91FC910190F08152
:101D6000E02DC5010995E6CF60E0C5010E946D0E2A
:101D70004D2FD13208F040E22C2D6FEB73E08F2D08
:101D80000E94760B1092BE038093BD03DF91CF912A
:101D90001F910F91FF90EF90CF90BF90AF907F90E9
:101DA0006F905F904F900895CF92EF920F931F9393
:101DB000C22EE12C00E010E098010E94800E1F91DD
:101DC0000F91EF90CF90089521E00C94D40E61E034
:101DD0000C946D0E89E893E00C94410E0E94020F62
:101DE0000C94B40F0E94AD0F58F00E94A60F40F063
:101DF00029F45F3F29F00C949D0F51110C94E80FCA
:101E00000C94A30F0E94C50F68F39923B1F35523D7
:101E100091F3951B550BBB27AA27621773078407FD
:101E200038F09F5F5F4F220F331F441FAA1FA9F393
:101E300035D00E2E3AF0E0E832D091505040E69581
:101E4000001CCAF72BD0FE2F29D0660F771F881FE2
:101E5000BB1F261737074807AB07B0E809F0BB0BD5
:101E6000802DBF01FF2793585F4F3AF09E3F5105E9
:101E700078F00C949D0F0C94E80F5F3FE4F3983ECC
:101E8000D4F3869577956795B795F7959F5FC9F7D2
:101E9000880F911D9695879597F90895E1E0660F53
:101EA000771F881FBB1F621773078407BA0720F0CC
:101EB000621B730B840BBA0BEE1F88F7E095089535
:101EC000E89409C097FB3EF49095809570956195D4
:101ED0007F4F8F4F9F4F9923A9F0F92F96E9BB278A
:101EE0009395F695879577956795B795F111F8CF06
:101EF000FAF4BB0F11F460FF1BC06F5F7F4F8F4F71
:101F00009F4F16C0882311F096E911C0772321F066
:101F10009EE8872F762F05C0662371F096E8862FFE
:101F200070E060E02AF09A95660F771F881FDAF755
:101F3000880F9695879597F9089597F99F6780E898
:101F400070E060E008959FEF80EC089500240A940B
:101F50001616170618060906089500240A94121684
:101F60001306140605060895092E0394000C11F4B7
:101F7000882352F0BB0F40F4BF2B11F460FF04C064
:101F80006F5F7F4F8F4F9F4F089557FD9058440FBD
:101F9000551F59F05F3F71F04795880F97FB991FC8
:101FA00061F09F3F79F08795089512161306140685
:101FB000551FF2CF4695F1DF08C016161706180612
:101FC000991FF1CF86957105610508940895E894ED
:101FD000BB2766277727CB0197F908950E946010E9
:101FE00008F48FEF08950E9406100C94B40F0E941D
:101FF000A60F38F00E94AD0F20F0952311F00C943D
:102000009D0F0C94A30F11240C94E80F0E94C50F90
:1020100070F3959FC1F3950F50E0551F629FF0013B
:10202000729FBB27F00DB11D639FAA27F00DB11D54
:10203000AA1F649F6627B00DA11D661F829F2227DD
:10204000B00DA11D621F739FB00DA11D621F839F64
:10205000A00D611D221F749F3327A00D611D231F3A
:10206000849F600D211D822F762F6A2F11249F5788
:1020700050409AF0F1F088234AF0EE0FFF1FBB1F8B
:10208000661F771F881F91505040A9F79E3F51054A
:1020900080F00C949D0F0C94E80F5F3FE4F3983EA2
:1020A000D4F3869577956795B795F795E7959F5FF4
:1020B000C1F7FE2B880F911D9695879597F9089586
:1020C000990F0008550FAA0BE0E8FEEF1616170649
:1020D000E807F907C0F012161306E407F50798F0B1
:1020E000621B730B840B950B39F40A2661F0232BCA
:1020F000242B252B21F408950A2609F4A140A69546
:102100008FEF811D811D08950E94D41D08950E94A6
:1021100068170E9486108FED93E00E949E160E9421
:102120008403C0E0D0E00E94C5032097E1F30E9441
:102130000000F9CFCF92DF92EF92FF920F931F939F
:10214000CF93DF936C017A018B01C0E0D0E0CE1514
:10215000DF0581F0D8016D918D01D601ED91FC91E3
:102160000190F081E02DC6010995892B11F021968F
:10217000EECF7E01C701DF91CF911F910F91FF90AC
:10218000EF90DF90CF9008956115710579F0FB0114
:1021900001900020E9F73197AF01461B570BDC0196
:1021A000ED91FC910280F381E02D099480E090E0B4
:1021B0000895DB0114964D915C9115976D917C917A
:1021C000DC01ED91FC910280F381E02D09940C94E7
:1021D000C410DC01ED91FC910190F081E02D099497
:1021E0008F929F92AF92BF92EF92FF920F931F93A5
:1021F000CF93DF93CDB7DEB7A1970FB6F894DEBFCC
:102200000FBECDBF7C01FA01CB0119A2223008F428
:102210002AE08E010F5D1F4F822E912CA12CB12C34
:10222000BF01A50194010E94B11BF901CA0101502F
:1022300011096A3010F4605D01C0695CD8016C93CB
:10224000232B242B252B61F7B801C7010E94C41052
:10225000A1960FB6F894DEBF0FBECDBFDF91CF9130
:102260001F910F91FF90EF90BF90AF909F908F9034
:1022700008952115310541F4DC01ED91FC910190A7
:10228000F081E02D642F09940C94F0109A01AB01B9
:1022900060E070E00C943911CF92DF92EF92FF92E0
:1022A0000F931F93CF93DF932115310581F4DC0148
:1022B000ED91FC910190F081E02D642FDF91CF91A1
:1022C0001F910F91FF90EF90DF90CF9009942A30EB
:1022D000310501F577FF1DC06A017B01EC016DE25C
:1022E0000E94E9108C0144275527BA014C195D0959
:1022F0006E097F092AE0CE010E94F010800F911F25
:10230000DF91CF911F910F91FF90EF90DF90CF90D1
:1023100008952AE0DF91CF911F910F91FF90EF90E8
:10232000DF90CF900C94F0109A01AB01770F660B01
:10233000770B0C944C117F928F929F92AF92BF9229
:10234000CF92DF92EF92FF920F931F93CF93DF9381
:102350008C016A017B01722E9A01AB01C701B601A3
:102360000E94981B882319F06FE272E027C0460193
:102370005701E894B7F82FEF3FEF4FE75FE7C5014C
:10238000B4010E94981B81110DC02FEF3FEF4FE762
:102390005FE7C501B4010E94641B18161CF463E3D7
:1023A00072E00CC02FEF3FEF4FE75FE4C701B601CB
:1023B0000E94EE0F181694F467E372E0C801DF91F3
:1023C000CF911F910F91FF90EF90DF90CF90BF9032
:1023D000AF909F908F907F900C94C4102FEF3FEFA1
:1023E0004FE75FECC701B6010E94641B87FDE4CF95
:1023F00020E030E0A901C701B6010E94641B87FFFD
:102400000AC06DE2C8010E94E910EC01F7FAF094ED
:10241000F7F8F09402C0C0E0D0E0B12C60E070E0CA
:1024200080E09FE37B1441F020E030E040E251E4A3
:102430000E94EE0EB394F6CFA70196010E94F81AFF
:102440006B017C010E94691B4B015C012AE0AB011E
:10245000BC01C8010E94F010C80FD91F7720B9F144
:10246000C501B4010E94600F9B01AC01C701B60118
:102470000E94F71A6B017C016EE2C8010E94E9100C
:10248000C80FD91F20E030E040E251E4C701B60197
:102490000E94F30F4B015C010E94691B6B017C01E0
:1024A0004AE050E0C8010E944611C80FD91FB6018A
:1024B00080E090E00E94600F9B01AC01C501B40177
:1024C0000E94F71A6B017C017A947110DBCFCE0168
:1024D000DF91CF911F910F91FF90EF90DF90CF9000
:1024E000BF90AF909F908F907F9008950C949B1118
:1024F000615030F02091F100FC0120830196F8CF6B
:10250000289884E68093E70308954091E203509170
:10251000E3032091E0033091E10342175307B4F441
:102520009091E8009570E1F39091E80092FD19C058
:102530008093F1008091E2039091E30301968F7301
:102540009927892B19F48EEF8093E8008091E2039C
:102550009091E30301969093E3038093E20381E07B
:10256000089580E00895DF92EF92FF920F931F93FA
:10257000CF93DF93D82EF92EE42E062F10E0C8015A
:102580000196880F0E94851283E00E948512CD2D4E
:10259000DF2D0C0F1D1FC017D10789F0E7FE03C008
:1025A000FE01849101C088810E948512F82E80E08E
:1025B0000E9485128F2121968111EDCF01C081E00B
:1025C000DF91CF911F910F91FF90EF90DF900895D1
:1025D0008091D70081608093D70080EA8093D800F3
:1025E00089B5806189BD89B5826089BD09B400FE65
:1025F000FDCF61E070E080E090E00E942C178091B8
:10260000D8008F7C80618093D8008091E000807F2B
:102610008093E0000895CF93DF931F92CDB7DEB78C
:102620001982CE0101960E94AF190E94E31ABE01E1
:102630006F5F7F4F0E945E1A89810F90DF91CF916B
:1026400008952FB7FC012083F89467706093E90028
:102650000895CF93DF931F92CDB7DEB7682FCE01D9
:1026600001960E9421138091F20099819FBF0F90E3
:10267000DF91CF910895EF92FF920F931F93CF9325
:10268000DF931F92CDB7DEB79091E603992311F047
:1026900057FF03C08FEF9FEF29C08A017B01682F8E
:1026A000CE0101960E9421132091F20030E0021722
:1026B00013070CF49801822FF70194E6815038F04B
:1026C00028989093E7034091F1004193F7CF2115AB
:1026D000310521F08091F200882321F089818FBF9C
:1026E000C90104C08BE68093E800F8CF0F90DF911A
:1026F000CF911F910F91FF90EF900895CF93DF93AB
:102700001F92CDB7DEB741E050E0BE016F5F7F4F53
:102710000E943B13019719F4898190E002C08FEF6A
:102720009FEF0F90DF91CF910895CF93DF931F928A
:10273000CDB7DEB7682FCE0101960E94211390918C
:10274000E800892F807295FF04C09091F20080E428
:10275000891B99819FBF0F90DF91CF9108955F9260
:102760006F927F928F929F92AF92BF92CF92DF92A1
:10277000EF92FF920F931F93CF93DF931F92CDB7EA
:10278000DEB7982E6B01B42E052F8091E6038111E0
:1027900003C08FEF9FEF77C08091E40380FF05C0F7
:1027A0008091E00082608093E000EB2CF02EA12C61
:1027B0008AEF882E892D8072682E892D8074582E7C
:1027C0009AE3792EE114F10419F4AA2009F455C012
:1027D000892D0E949513182F81110AC08A94882090
:1027E000C1F261E070E080E090E00E942C17EACF37
:1027F00090E0E816F9060CF41E2D692DCE01019625
:102800000E9421138091E80085FF34C0812F90E061
:10281000E81AF90A662029F01150A0F01092F10090
:10282000FBCFF60197FE0AC0115050F0249120937F
:10283000F1003196F9CF21912093F1001150D8F792
:10284000C80ED91EAA2019F07092E8000BC0809122
:10285000E80085FD09C07092E800AA24A394E11461
:10286000F10441F0A12C06C0E114F10419F4511057
:102870007092E80089818FBFA5CF5D9884E6809330
:10288000E8038B2D902F0F90DF91CF911F910F9127
:10289000FF90EF90DF90CF90BF90AF909F908F9080
:1028A0007F906F905F9008951092E9001092E3037B
:1028B0001092E2039093E1038093E0030895DF9286
:1028C000EF92FF920F931F93CF93DF93D82E8A013D
:1028D0007B01E40EF51EEB01CE15DF0571F0D7FE8E
:1028E00003C0FE01849101C088810E948512219657
:1028F0008111F2CF8FEF9FEF01C0C801DF91CF911F
:102900001F910F91FF90EF90DF900895AF92BF92CB
:10291000DF92EF92FF920F931F93CF93DF935C01AF
:102920008B01EB019BEFD92E2097C1F07E01C134C2
:10293000D1051CF080E4E82EF12C8091E80082FFA4
:10294000FCCFC8018C1B9D0B6E2D8A0D9B1D0E9418
:102950007812D092E800CE19DF09E6CFC801DF91E6
:10296000CF911F910F91FF90EF90DF90BF90AF90AC
:1029700008951F920F920FB60F921124CF92DF92FB
:10298000EF92FF920F931F932F933F934F935F9379
:102990006F937F938F939F93AF93BF93EF93FF9327
:1029A000CF93DF93CDB7DEB76C97DEBFCDBF10926C
:1029B000E9008091E80083FF17C168E0CE014596E9
:1029C0000E94781282EF8093E8008D8987FF05C00E
:1029D0009091E80090FFFCCF03C09EEF9093E80039
:1029E000982F907609F0D8C09E894F89588D2F89ED
:1029F000188D91110CC0803829F48091E5038093E3
:102A0000F10002C01092F1001092F100E6C0913086
:102A100051F48111E2C04130510509F0DEC08091CE
:102A2000E5038D7F0BC0933061F48111D6C0413036
:102A3000510509F0D2C08091E50382608093E503DF
:102A4000CCC0953049F48091E80080FFFCCF822F04
:102A500080688093E300C1C0963009F070C0EB8CB1
:102A6000FC8C123069F580E090E00E9454140E94C2
:102A70000B1399E09E012F5F3F4F6901F901292F48
:102A800011922A95E9F799831A8391E09E8390EA3F
:102A900098879AEF99872091E2033091E303275FAB
:102AA0003F4F3C832B838D83C7010E94541449E020
:102AB00050E0B60180E00E945F140E940B138DC0AD
:102AC000C7010E9454140E94E31ABE016B5E7F4F3F
:102AD0000E94871A009719F00CF07FC082C0113055
:102AE00009F470C0133009F07CC08F89882309F481
:102AF0006CC0823029F440E860E189EE90E006C0C5
:102B0000813039F440E86BE08DED90E00E94B31223
:102B100056C0833009F065C00E94E31A8E010F5F32
:102B20001F4FB8010E94A61AF80101900020E9F792
:102B30003197BF01601B710B40E0C801E7CF9730B0
:102B400009F44FC0983021F481E08093F10045C032
:102B5000993009F042C0837009F043C0EBE0F1E026
:102B600081E031E096E32081211109C08EE7809356
:102B7000EA001092EA008F898093E6032EC08093CA
:102B8000E9003093EB0021912093EC009093ED004D
:102B90008F5F873041F7EACF8B8D9C8D0E94541454
:102BA000898D811105C0CE0145960E94BA1907C0D2
:102BB0000E94E31ABE016B5E7F4F0E94C51A8823F4
:102BC00081F00BC06BEC70E002C06AEF70E0FB01BB
:102BD000449150E080E80E945F148EEF8093E800FB
:102BE00003C081E28093EB006C960FB6F894DEBFD1
:102BF0000FBECDBFDF91CF91FF91EF91BF91AF910C
:102C00009F918F917F916F915F914F913F912F9104
:102C10001F910F91FF90EF90DF90CF900F900FBE1C
:102C20000F901F9018958093E9008091F2008823FF
:102C300019F08AE38093E80008951F920F920FB66F
:102C40000F9211242F933F934F935F936F937F9332
:102C50008F939F93AF93BF93CF93EF93FF93C091C5
:102C6000E1008091E100837F8093E100C3FF0FC00A
:102C70001092E90081E08093EB001092EC0082E377
:102C80008093ED001092E60388E08093F000C2FF8D
:102C900019C083E00E9413168091E803882339F05D
:102CA0008091E80381508093E803882389F1809123
:102CB000E703882339F08091E70381508093E7038D
:102CC000882341F1C4FF10C08091E2008E7E8160B4
:102CD0008093E2008091E1008F7E8093E1008091FB
:102CE000E4038E7E806111C0C0FF16C08091E200B7
:102CF0008E7E80618093E2008091E1008E7E8093E1
:102D0000E1008091E4038E7E81608093E40304C03F
:102D10005D9ACDCF289AD6CFFF91EF91CF91BF91F9
:102D2000AF919F918F917F916F915F914F913F9163
:102D30002F910F900FBE0F901F9018951092E603E1
:102D40001092E5031092E4030E94E812E1EEF0E035
:102D500080818E7E80838DE08093E200559A209A58
:102D600008951F920F920FB60F9211242F933F9345
:102D70008F939F93AF93BF938091EA039091EB035E
:102D8000A091EC03B091ED033091E90323E0230F10
:102D90002D3720F40196A11DB11D05C026E8230F93
:102DA0000296A11DB11D2093E9038093EA0390933D
:102DB000EB03A093EC03B093ED038091EE039091AD
:102DC000EF03A091F003B091F1030196A11DB11D95
:102DD0008093EE039093EF03A093F003B093F1037D
:102DE000BF91AF919F918F913F912F910F900FBE07
:102DF0000F901F9018952FB7F8946091EA03709187
:102E0000EB038091EC039091ED032FBF08953FB742
:102E1000F8948091EE039091EF03A091F003B091AC
:102E2000F10326B5A89B05C02F3F19F00196A11DFF
:102E3000B11D3FBFBA2FA92F982F8827820F911D50
:102E4000A11DB11DBC01CD0142E0660F771F881F97
:102E5000991F4A95D1F708958F929F92AF92BF9292
:102E6000CF92DF92EF92FF926B017C010E940717D5
:102E70004B015C01C114D104E104F10401F10E9491
:102E80005D1A0E940717DC01CB0188199909AA096C
:102E9000BB09883E9340A105B10560F321E0C21A49
:102EA000D108E108F10888EE880E83E0981EA11C85
:102EB000B11CC114D104E104F10419F7DBCFFF9078
:102EC000EF90DF90CF90BF90AF909F908F9008953C
:102ED000789484B5826084BD84B5816084BD85B5F5
:102EE000826085BD85B5816085BDEEE6F0E08081BC
:102EF00081608083E1E8F0E01082808182608083DD
:102F0000808181608083E0E8F0E08081816080835F
:102F1000E1E9F0E08081826080838081816080834C
:102F2000E0E9F0E0808181608083E1ECF0E0808185
:102F300084608083808182608083808181608083DF
:102F4000E3ECF0E0808181608083E0ECF0E0808160
:102F500082608083E2ECF0E0808181608083EAE738
:102F6000F0E08081846080838081826080838081C2
:102F7000816080838081806880830895823108F039
:102F80008251E82FF0E0E250FF4FE49180917B0006
:102F9000E3FB222720F930E095E0220F331F9A95BA
:102FA000E1F78F7D282B20937B008091110120E495
:102FB000829FC0011124E770E82BE0937C00809190
:102FC0007A00806480937A0080917A0086FDFCCF3D
:102FD000809178002091790090E0922B089590E004
:102FE000FC013197EF30F105B0F5EA5AFF4F0C9430
:102FF000D31B809180008F7703C0809180008F7DEC
:1030000080938000089580918000877FF9CF84B5F8
:103010008F7702C084B58F7D84BD08958091900024
:103020008F7707C0809190008F7D03C080919000C2
:10303000877F8093900008958091C0008F7703C0B0
:103040008091C0008F7D8093C00008958091C20060
:10305000877F8093C2000895CF93DF9390E0FC01B7
:10306000E75DFE4F2491FC01E85BFE4F84918823CD
:1030700061F190E0880F991FFC01ED57FE4FC5915B
:10308000D491FC01EB58FE4FA591B491611109C098
:103090009FB7F8948881209582238883EC912E2312
:1030A0000BC0623061F49FB7F8948881322F30955D
:1030B00083238883EC912E2B2C939FBF06C08FB760
:1030C000F894E8812E2B28838FBFDF91CF9108954C
:1030D0001F93CF93DF93282F30E0F901E65FFE4F77
:1030E0008491F901E75DFE4FD491F901E85BFE4F51
:1030F000C491CC23C1F0162F81110E94EF17EC2F41
:10310000F0E0EE0FFF1FEB58FE4FA591B4919FB773
:10311000F894111104C08C91D095D82302C0EC9181
:10312000DE2BDC939FBFDF91CF911F910895CF934A
:10313000DF93282F30E0F901E65FFE4F8491F9011B
:10314000E75DFE4FD491F901E85BFE4FC491CC23BB
:1031500091F081110E94EF17EC2FF0E0EE0FFF1FAE
:10316000E959FE4FA591B491EC91ED2381E090E0F7
:1031700021F480E002C080E090E0DF91CF910895DB
:10318000FC01808191810C94851CCF93DF93EC012D
:1031900088819981009711F00E94851C19821882FC
:1031A0001D821C821B821A82DF91CF9108950F939A
:1031B0001F93CF93DF93EC018B016F5F7F4F88816B
:1031C00099810E940E1D009731F0998388831B839B
:1031D0000A8381E001C080E0DF91CF911F910F91C0
:1031E0000895CF93DF93EC0188819981892B29F091
:1031F0008A819B818617970760F4CE010E94D718B9
:10320000882341F08C819D81892B19F4E881F98113
:10321000108281E0DF91CF910895EF92FF920F939A
:103220001F93CF93DF93EC017B018A01BA010E94C7
:10323000F118811104C0CE010E94C51807C01D837A
:103240000C83B701888199810E94E91DCE01DF912D
:10325000CF911F910F91FF90EF900895FC01118283
:10326000108213821282158214826115710551F049
:10327000FB0101900020E9F73197AF01461B570B86
:103280000C940D190895CF93DF931F92CDB7DEB73D
:103290006983DC01ED91FC910280F381E02D41E036
:1032A00050E0BE016F5F7F4F09950F90DF91CF9186
:1032B0000895CF93DF93EC018C859D8597FF05C022
:1032C00082E00E947E139D878C878C859D85DF918F
:1032D000CF91089583E00E94951390E0089583E0D4
:1032E0000C941316FC018485958597FD06C082E039
:1032F0000E94291390E00196089582E00E9429130C
:1033000090E00895FC018485958597FD05C02FEF19
:103310003FEF35872487089582E00C947E13CF9386
:10332000DF93EC0180911D01882331F083E00E943E
:10333000AF131816190634F081E090E09B838A835E
:1033400080E090E0DF91CF910895EEEFFFE72591C7
:10335000349181E02B3F3C4D09F080E00895FC0161
:1033600090819E5F908342E450E061E971E080E8E3
:103370000C945F14FC0181819081913A59F481325F
:1033800009F065C047E050E066E171E080E00E942E
:103390005F145BC0913209F05AC0833269F48281B4
:1033A0009381A0E0B0E08093120190931301A09369
:1033B0001401B093150149C0803239F467E070E020
:1033C00086E191E00E94861440C0823209F03DC03F
:1033D000828180931D010E94A519882319F0EEEFC8
:1033E000FAE002C0E0E0F8E0809116019091170148
:1033F000A0911801B0911901803B9440A105B1053D
:1034000041F580911D0180FD24C0EE3F8AE0F80760
:1034100051F080819181873727E7920721F09093BF
:10342000FF0A8093FE0A87E797E791838083809164
:103430006000809342049BE088E10FB6F894A89561
:10344000809360000FBE9093600081E0089580E05B
:1034500008958081918187379747B9F7A895809122
:1034600060008861809360008091420480936000D6
:10347000EE3F8AE0F80739F08091FE0A9091FF0A4A
:1034800091838083E2CF1092FF0A1092FE0ADDCF73
:10349000E2EFF3E01382128288EE93E0A0E0B0E066
:1034A00084839583A683B7838FE392E0918380839F
:1034B0008FEF9FEF9587848708950895EF92FF928D
:1034C0000F931F93CF93DF937B01FC01C281D381C4
:1034D00000E010E0209781F0E881F9810280F3811B
:1034E000E02DB701CE01099597FD08C0080F191FFF
:1034F0000884D985C02DEECFC80102C08FEF9FEFA1
:10350000DF91CF911F910F91FF90EF9008950F934E
:103510001F93CF93DF938B01FC01C281D38120974E
:1035200071F0E881F9810480F581E02DB801CE01C8
:103530000995009731F40884D985C02DF0CF80E03B
:1035400090E0DF91CF911F910F9108950F931F93FA
:10355000CF93DF938B01FC01C281D381209771F05F
:10356000E881F9810680F781E02DB801CE01099547
:10357000080F111D0884D985C02DF0CFF8011082E5
:10358000DF91CF911F910F9108950F931F93CF93C8
:10359000DF938B01FC01C281D381209771F0E88118
:1035A000F9810190F081E02DB801CE0109958111DA
:1035B00005C00884D985C02DF0CF80E0DF91CF9180
:1035C0001F910F9108958091470481110DC082E0F1
:1035D0008093430484E08093440410924604109244
:1035E000450481E08093470483E494E008955058B3
:1035F000BB27AA270E940F1B0C94B40F0E94A60F92
:1036000038F00E94AD0F20F039F49F3F19F426F4F2
:103610000C94A30F0EF4E095E7FB0C949D0FE92F9B
:103620000E94C50F58F3BA176207730784079507FE
:1036300020F079F4A6F50C94E70F0EF4E0950B2E2C
:10364000BA2FA02D0B01B90190010C01CA01A001F4
:103650001124FF27591B99F0593F50F4503E68F14F
:103660001A16F040A22F232F342F4427585FF3CF90
:10367000469537952795A795F0405395C9F77EF461
:103680001F16BA0B620B730B840BBAF09150A1F0AA
:10369000FF0FBB1F661F771F881FC2F70EC0BA0F30
:1036A000621F731F841F48F4879577956795B795B8
:1036B000F7959E3F08F0B0CF9395880F08F09927B3
:1036C000EE0F9795879508950E94601008F481E0A9
:1036D00008950E94CD0F88F09F5798F0B92F992731
:1036E000B751B0F0E1F0660F771F881F991F1AF0ED
:1036F000BA95C9F714C0B13091F00E94E70FB1E05C
:1037000008950C94E70F672F782F8827B85F39F05A
:10371000B93FCCF3869577956795B395D9F73EF485
:1037200090958095709561957F4F8F4F9F4F08952D
:103730000E946010880B990B089597FB072E16F4D2
:10374000009407D077FD09D00E94D91B07FC05D053
:103750003EF4909581959F4F0895709561957F4FA8
:103760000895A1E21A2EAA1BBB1BFD010DC0AA1FC2
:10377000BB1FEE1FFF1FA217B307E407F50720F0DA
:10378000A21BB30BE40BF50B661F771F881F991F55
:103790001A9469F760957095809590959B01AC019E
:1037A000BD01CF010895EE0FFF1F0590F491E02DAC
:1037B0000994AA1BBB1B51E107C0AA1FBB1FA61778
:1037C000B70710F0A61BB70B881F991F5A95A9F7CA
:1037D00080959095BC01CD0108950F931F93CF93D1
:1037E000DF938230910510F482E090E0E091510483
:1037F000F091520420E030E0A0E0B0E0309719F101
:10380000408151810281138148175907C8F08417FC
:10381000950769F4109731F012960C93129713964E
:103820001C9327C0009351041093520422C0211509
:10383000310519F04217530718F49A01BD01EF0141
:10384000DF01F801DBCF21153105F9F0281B390B19
:103850002430310580F48A819B816115710521F046
:10386000FB019383828304C090935204809351049C
:10387000FE01329644C0FE01E20FF31F8193919343
:1038800022503109398328833AC020914F04309166
:103890005004232B41F42091020130910301309315
:1038A000500420934F042091000130910101211513
:1038B000310541F42DB73EB7409104015091050107
:1038C000241B350BE0914F04F0915004E217F307ED
:1038D000A0F42E1B3F0B2817390778F0AC014E5F80
:1038E0005F4F2417350748F04E0F5F1F5093500469
:1038F00040934F048193919302C0E0E0F0E0CF0148
:10390000DF91CF911F910F910895CF93DF9300978F
:1039100009F481C0FC01329713821282A0915104F4
:10392000B0915204109781F420813181820F931F4E
:1039300020914F04309150042817390751F5F09326
:103940005004E0934F0467C0ED0120E030E0CE1753
:10395000DF0740F44A815B819E0141155105F1F07A
:10396000EA01F5CFD383C28340815181840F951F33
:10397000C817D90759F488819981840F951F029639
:10398000918380838A819B81938382832115310572
:1039900029F4F0935204E09351043DC0E901FB8304
:1039A000EA8349915991C40FD51FEC17FD0761F4C3
:1039B00080819181840F951F0296E9019983888304
:1039C000828193819B838A83E0E0F0E012968D915F
:1039D0009C911397009719F0FD01DC01F7CF8D91B1
:1039E0009C9111979D012E5F3F4F820F931F209155
:1039F0004F04309150042817390769F4309729F49F
:103A0000109252041092510402C013821282B09399
:103A10005004A0934F04DF91CF910895A0E0B0E04F
:103A2000E4E1FDE10C94F41DEC01009721F4CB01DD
:103A30000E94ED1BB4C0FC01E60FF71F9C01225051
:103A40003109E217F30708F4A8C0D9010D911C91C0
:103A5000119706171707B0F00530110508F49BC041
:103A6000C80104978617970708F495C002501109FA
:103A7000061B170B019311936D937C93CF010E944A
:103A8000851C89C05B01A01AB10A4C01800E911EF1
:103A9000A0915104B0915204612C712CE12CF12CB5
:103AA000109709F446C08D919C911197A815B905FE
:103AB000B1F56C0142E0C40ED11CCA14DB0478F1EC
:103AC0004C018A189B08640142E0C40ED11C129676
:103AD000BC9012971396AC91B5E0CB16D10440F090
:103AE000B282A38391828082D9016D937C9309C0B5
:103AF0000E5F1F4F800F911FF90191838083EB2D83
:103B0000FA2FE114F10431F0D7011396FC93EE93F0
:103B1000129741C0F0935204E09351043CC06816E0
:103B2000790608F43C017D0112960D90BC91A02D00
:103B3000B7CF80914F049091500488169906E1F414
:103B400066167706C8F480910001909101010097F4
:103B500041F48DB79EB74091040150910501841B3B
:103B6000950BE817F907C8F4F0935004E0934F045D
:103B7000F901718360830FC0CB010E94ED1B7C01B2
:103B8000009759F0A801BE010E94E01DCE010E94DD
:103B9000851CC70104C0CE0102C080E090E0CDB713
:103BA000DEB7EEE00C94101E81E090E0F8940C94E7
:103BB000271EFB01DC0105900D920020E1F708951E
:103BC000FB01DC0102C001900D9241505040D8F73A
:103BD0000895FB01DC0101900D920020E1F70895AA
:103BE0002F923F924F925F926F927F928F929F920D
:103BF000AF92BF92CF92DF92EF92FF920F931F93FB
:103C0000CF93DF93CDB7DEB7CA1BDB0B0FB6F894AB
:103C1000DEBF0FBECDBF09942A88398848885F84EB
:103C20006E847D848C849B84AA84B984C884DF805C
:103C3000EE80FD800C811B81AA81B981CE0FD11D40
:103C40000FB6F894DEBF0FBECDBFED01089510E0B2
:103C5000CDEED0E004C0FE010E94D31B2196CE3EE3
:083C6000D107C9F7F894FFCF6A
:103C6800000053042000E803000000C18081000028
:103C78000001FFFFFFFF00E10000000000003A30F4
:103C8800003A0053656E736F7220646566656B74E5
:103C980000200043005A6569676572206B616C6992
:103CA8006272696572656E00526F6D656F2056327B
:103CB8002E3220576174636800436F726179202F38
:103CC800204272756E6F004C6F6E646F6E004E65A9
:103CD800772D596F726B00506172697300546F6B66
:103CE800796F00486F6E676B6F6E67004C6F73205B
:103CF800416E67656C6573004368696361676F004F
:103D080053656F756C004272C3BC7373656C005762
:103D1800617368696E67746F6E0053696E6761706E
:103D28007572005379646E65790000000000340BE9
:103D38009A1098019B01E7086206F20595059C0117
:103D4800CA00FFFFFFFFFFFF0100FFFFCD020000D9
:103D58000000CA00FFFF0000FFFFFFFFFFFF48034E
:103D68000000000000000000340B9A1098019B012D
:103D7800B409B7098410BA099C0100000000120EAA
:103D8800E50D9801AE0D830D8B0D9F0D0D0A006E8C
:103D9800616E00696E66006F766600000000004381
:0E3DA800198F196A196F1972198219591900A9
:00000001FF
