:100000000C94FD000C94B1260C94D8260C94FF2679
:100010000C9426270C9425010C9425010C944D2753
:100020000C9425010C9425010C94CC250C94682487
:100030000C9425010C9425010C9425010C942501A8
:100040000C9425010C9425010C9425010C94250198
:100050000C9425010C9425010C9425010C94742713
:100060000C9425010C94A61F0C94D81F0C94250108
:100070000C9425010C9425010C9425010C94250168
:100080000C9425010C9425010C9425010C94250158
:100090000C946F180C9425010C9425010C942501E7
:1000A0000C9425010C9425010C942501E428E928E1
:1000B000EE28F82802294C294C294C290C2916290C
:1000C00020292A2937294C293F296D2970295F29A0
:1000D00063296929912991299129742978297C29F1
:1000E0008229862991298C29080B0002020201002D
:1000F000090400000102020000052400100105248B
:1001000001010104240206052406000107058103FC
:1001100010004009040100020A0000000705020265
:100120004000000705830240000012010002EF02B8
:1001300001404123368000010102030141726475D0
:10014000696E6F204C4C430041726475696E6F207C
:100150004C656F6E6172646F000403090407060545
:10016000040100080A0B0C0D090000000200090F31
:100170000000030401000C0000000000000000006B
:100180000000000000000000040802011040804050
:1001900010204080408008020401804020100201AD
:1001A00010801020404020040404040403040502CD
:1001B0000202020403020202020606060606060402
:1001C00004020202040400000000230026002900AB
:1001D0002C002F0000000000250028002B002E001E
:1001E000310000000000240027002A002D0030000C
:1001F0009A06031B521E0820210811241FBECFEFB0
:10020000DAE0DEBFCDBF13E0A0E0B1E0E0E9FEE55B
:1002100002C005900D92A834B107D9F727E0A8E4F1
:10022000B3E001C01D92A531B207E1F710E0CCEFB9
:10023000D0E004C02197FE010E944C2CC83FD1079A
:10024000C9F70E9436200C943B2F0C94000080E0EC
:100250000E948C288D3F23E0920720F18091480373
:100260009091490301969093490380934803039723
:100270000CF46AC0E8E4F3E020E030E080E090E0D5
:1002800040815181443051052CF0C901493C510550
:100290000CF00596119211922F5F3F4F26303105D9
:1002A00079F708958934910570F480914A0390910B
:1002B0004B0381152DE792074CF4019690934B0365
:1002C00080934A0341C08E3E910570F480914C03A7
:1002D00090914D0381152DE7920754F40196909368
:1002E0004D0380934C0330C0823A21E0920770F4B2
:1002F00080914E0390914F0381152DE792074CF4A6
:10030000019690934F0380934E031EC08037924016
:1003100070F4809150039091510381152DE792075D
:1003200034F4019690935103809350030DC0809153
:1003300052039091530381152DE792072CF40196F7
:10034000909353038093520380E090E0089580E0FF
:1003500090E0089508958DEF9FEF089590914E04D9
:1003600081E0892780934E0480E090E00895909189
:100370004D0481E0892780934D0480E090E008954A
:100380009091740381E089278093740380E090E06A
:10039000089520E030E040E85FE360914904709107
:1003A0004A0480914B0490914C040E94081B609376
:1003B000490470934A0480934B0490934C0408952D
:1003C000CF93DF93EC018091A90340E060E08823A4
:1003D00009F44DC083E195E00E9450166CE973E08A
:1003E00083E195E00E9488206FED83E195E00E9413
:1003F000982066E973E083E195E00E94882066E337
:1004000071E083E195E00E9496206091950383E17D
:1004100095E00E94982041E060E083E195E00E9431
:1004200050166091A5037091A6034AE050E083E165
:1004300095E00E9443216FED83E195E00E949820B2
:100440006091A3037091A4034AE050E083E195E03A
:100450000E94432166E371E083E195E00E949620CB
:100460006091A20383E195E00E94982016C083E189
:1004700095E00E94501669E371E083E195E00E94E7
:10048000962041E060E083E195E00E9450166FE61F
:1004900072E083E195E00E949620CE01DF91CF913A
:1004A00008950F931F93CF93DF93182FD0E0C0E2EE
:1004B0006C2F8EEA95E00E947C1A8EEA95E00E94ED
:1004C000001B082F61E070E080E090E00E94EF27C1
:1004D000011103C01D17F9F0DF5FCF5FC83241F78C
:1004E000C8E36C2F8EEA95E00E947C1A8EEA95E0B4
:1004F0000E94001B082F61E070E080E090E00E9405
:10050000EF27011103C01D1731F0DF5FCF5FC0344B
:1005100041F780E001C08C2FDF91CF911F910F91A7
:100520000895DC01ED91FC910190F081E02D09949A
:10053000FC018481958101962CE330E0B9010E9491
:10054000F72B95838483892B19F080E090E0089540
:10055000828193810196B9010E94F72B9383828354
:10056000892B99F780819181019668E170E00E9462
:10057000F72BAC019183808321E090E0452B09F0BB
:1005800020E0822F0895FC0122813381263031053D
:10059000D9F03CF42230310569F02430310539F4CA
:1005A00013C02930310581F02B30310569F08FE11E
:1005B00090E00895FC018081918183709927892BB7
:1005C00031F48DE190E008958EE190E008958CE1A2
:1005D00090E008950F931F93CF93DF93EC010C816C
:1005E0001D810F5F1F4F1D830C830E94C302801764
:1005F0009107A4F421E030E03D832C838A819B8124
:1006000001968D3091051CF49B838A8307C03B8340
:100610002A8388819981019699838883DF91CF917C
:100620001F910F9108950F931F930E94BE27009171
:100630000601109107012091080130910901061768
:1006400017072807390770F5D901C80188519C4F51
:10065000AF4FBF4F8093060190930701A09308010D
:10066000B09309018DE893E00E949802892B21F054
:100670008AE693E00E94EA0285E893E00E949802ED
:10068000892B21F082E693E00E94EA028DE793E055
:100690000E949802892B31F08AE593E01F910F9117
:1006A0000C94EA021F910F910895FC01CB01268161
:1006B0003781215031092230310558F021E030E0F6
:1006C000378326836230710569F06430710539F033
:1006D00014C06230710531F06430710549F482E074
:1006E00090E002C081E090E0978386838AE090E00A
:1006F0002681378121303105D1F48130910521F0F7
:100700008330910549F0089580819181019668E1D7
:1007100070E00E94F72B08C080819181009719F446
:1007200087E190E001C001979183808313C022305C
:100730003105F1F48130910521F08330910579F094
:1007400008958281938101966CE370E00E94F72BFB
:1007500093838283158214828AE090E008958281D7
:100760009381009719F48BE390E0F2CF0197F0CFDB
:1007700008950F931F93CF93DF938C0180914D04C5
:10078000F801C081D181882389F0CD30D1050CF0EA
:100790002C97CA30D10534F469E671E083E195E025
:1007A0000E9496204AE050E0BE010DC02A9734F422
:1007B00069E671E083E195E00E949620F80160818E
:1007C00071814AE050E083E195E00E944321F80105
:1007D000828193810A971CF460E471E002C063E4B3
:1007E00071E083E195E00E949620F80162817381B7
:1007F0004AE050E083E195E00E944321F8018481C2
:1008000095810A971CF460E471E002C063E471E032
:1008100083E195E00E949620F801648175814AE0A9
:1008200050E083E195E00E94432180914D048823AC
:1008300091F0F801808191810D971CF065E471E0E1
:1008400002C069E471E083E195E0DF91CF911F91EF
:100850000F910C949620DF91CF911F910F910895E5
:10086000CF93DF93EC0140E060E083E195E00E94EC
:1008700050166DE471E083E195E00E94962080912E
:100880007403882319F066E571E002C06AE571E03F
:1008900083E195E00E94962041E060E083E195E0ED
:1008A0000E94501685E793E00E94B903CE01DF91C4
:1008B000CF910895CF93DF93EC0140E060E083E1B6
:1008C00095E00E9450166EE571E083E195E00E948C
:1008D0009620BE0185E793E00E945503EC0141E0BC
:1008E00060E083E195E00E94501685E793E00E9466
:1008F000B903CE01DF91CF910895CF93DF93EC013F
:100900008C819D810A9734F469E671E083E195E07A
:100910000E9496206C817D814AE050E083E195E061
:100920000E9443218A819B810A971CF468E671E04A
:1009300002C06BE671E083E195E00E9496206A8137
:100940007B814AE050E083E195E00E9443216BE621
:1009500071E083E195E00E949620688179814AE008
:1009600050E083E195E0DF91CF910C944321CF9348
:10097000DF93EC0140E060E083E195E00E945016D7
:1009800080914E04882319F185E893E00E94B90311
:1009900040E06DE083E195E00E945016809169048B
:1009A00090916A042EE0289FB001299F700D1124B8
:1009B0006D587B4F83E195E00E94882041E060E024
:1009C00083E195E00E94501682E693E00CC08DE72B
:1009D00093E00E94B90341E060E083E195E00E946A
:1009E00050168AE593E00E947D04CE01DF91CF91FD
:1009F0000895CF92DF92EF92FF9241E060E083E1B1
:100A000095E00E945016C0905304D0905404E0909A
:100A10005504F090560420E030E0A901C701B6016A
:100A20000E94741B811103C06DE671E023C022E0B7
:100A300030E0B701A60183E195E00E9425226FED29
:100A400083E195E00E9498206BE771E083E195E0F7
:100A50000E94962040914F0450915004609151049F
:100A60007091520422E030E083E195E00E9425225B
:100A700060E871E083E195E0FF90EF90DF90CF9028
:100A80000C9496200F931F93CF93DF93EC010E9459
:100A9000BE270091570410915804209159043091B9
:100AA0005A040617170728073907B8F566E18BE5DA
:100AB00094E00E94631580915F0490916004A0917E
:100AC0006104B09162048093530490935404A09302
:100AD0005504B093560480915B0490915C04A091FE
:100AE0005D04B0915E0480934F0490935004A093F2
:100AF0005104B09352040E94F9040E94BE27DC0105
:100B0000CB0188579C4EAF4FBF4F809357049093B3
:100B10005804A0935904B0935A040E94F90440E089
:100B200060E083E195E00E94501680914E04882396
:100B3000D9F085E893E00E94B90340E06DE083E1DD
:100B400095E00E9450168091690490916A042EE00D
:100B5000289FB001299F700D11246D587B4F83E1B0
:100B600095E00E94882004C08DE793E00E94B903BD
:100B7000CE01DF91CF911F910F91089588E0EDE8AC
:100B8000F3E0A5E8B3E001900D928A95E1F780913A
:100B9000690490916A042EE0289FF001299FF00DCE
:100BA0001124E559FB4F2681378180918D03909167
:100BB0008E03820F931F909386038093850328E012
:100BC000EAE6F3E0A2E6B3E001900D922A95E1F7A0
:100BD000883191054CF04897909386038093850364
:100BE00082E693E00E94EA02809185039091860359
:100BF00097FF2FC04896909386038093850380913A
:100C0000660390916703019790936703809366034F
:100C1000892BF9F480916403909165030197909377
:100C2000650380936403892B29F082E693E00E9498
:100C3000C3020BC08091620390916303019790936C
:100C40006303809362038FE190E090936703809346
:100C5000660308958330910539F08A30910521F0BB
:100C60008130910551F517C083E195E00E944A1645
:100C70008091690490916A04009719F48BE090E0E8
:100C800001C0019790936A04809369040E94BE0595
:100C90008AE090E0089583E195E00E944A168091F1
:100CA000690490916A048B30910529F410926A04CA
:100CB00010926904EBCF0196E5CF0895CF93DF93AF
:100CC0000E942A06EC0140E060E083E195E00E948A
:100CD00050168091690490916A042EE0289FB0011B
:100CE000299F700D112465597B4F83E195E00E9487
:100CF000882041E060E083E195E00E94501685E89D
:100D000093E00E94B903CE01DF91CF91089560E096
:100D1000809114010E94CE29609140047091410499
:100D200080914204909143040E94EB1B8091160134
:100D30000C94BD286F927F928F929F92AF92BF9238
:100D4000CF92DF92EF92FF920F931F93CF93DF9397
:100D500083E195E00E94D615E3E1F5E08AE792E0B1
:100D60009183808310A211A265E971E08BE694E083
:100D70000E94952ACBE6D4E01F821E826CE971E0C6
:100D800083E794E00E94952A60EA71E089E794E0A5
:100D90000E94952A8BEFE82EFF24FA94FD8AEC8AB4
:100DA00069EA71E081E894E00E94952A6DEA71E0B9
:100DB00087E894E00E94952A66246394712C7BA2B4
:100DC0006AA263EB71E08FE894E00E94952A67EBDA
:100DD00071E085E994E00E94952A29E0822E912C09
:100DE00099AA88AA6DEB71E08DE994E00E94952A9A
:100DF00061EC71E083EA94E00E94952A08E010E03B
:100E00001FAF0EAF6AEC71E08BEA94E00E94952A66
:100E10006EEC71E081EB94E00E94952A88EF9FEFE1
:100E20009093B8048093B7046AED71E089EB94E085
:100E30000E94952A6EED71E08FEB94E00E94952A56
:100E40008AEF9FEF9093C6048093C50466EE71E02D
:100E500087EC94E00E94952A6AEE71E08DEC94E0B4
:100E60000E94952A9092D4048092D30460EF71E09E
:100E700085ED94E00E94952A64EF71E08BED94E09B
:100E80000E94952A7092E2046092E1046DEF71E095
:100E900083EE94E00E94952A61E072E089EE94E08E
:100EA0000E94952AF092F004E092EF046CE072E068
:100EB00081EF94E00E94952A60E172E087EF94E070
:100EC0000E94952A1093FE040093FD0469E172E0EC
:100ED0008FEF94E00E94952A6DE172E085E095E045
:100EE0000E94952A8BE090E090930C0580930B056F
:100EF00064E272E08DE095E00E94952A1092680409
:100F0000A0900C01B0900D01C0900E01D0900F0187
:100F1000E0901001F0901101009112011091130165
:100F20001F921F9280913B048F9380913A048F937C
:100F3000809139048F93809138048F932CE334E0AF
:100F400040E454E065E474E08CEF93E00E946F1499
:100F50006AE373E08CE993E00E94952A6AE373E008
:100F600086E993E00E94952AEDE8F3E080E190E0C5
:100F7000918380832BE330E0338322838DE290E002
:100F80009583848317821682E5E8F3E0118210824C
:100F9000138212821582148217821682EDE7F3E023
:100FA00041E150E0518340833383228395838483DE
:100FB00017821682E5E7F3E082E190E09183808377
:100FC000138212821582148217821682EAE6F3E0F7
:100FD0004EE050E0558344832CE030E0338322839D
:100FE00083EE97E09183808317821682E2E6F3E036
:100FF000758264829382828260ED77E07183608380
:1010000017821682EAE5F3E0558344833383228313
:1010100091838083178216820F900F900F900F900C
:101020000F900F90DF91CF911F910F91FF90EF9054
:10103000DF90CF90BF90AF909F908F907F906F90F8
:101040000895CF93DF9386E993E00E94272A8CE9E5
:1010500093E00E94272AC3E1D5E02E97CE0108969F
:101060000E94272ACE010E94272A84E0CB36D80787
:10107000A1F7DF91CF910895CF93DF93FC0181A574
:10108000882371F192A5662319F0913029F402C0EA
:10109000911102C083A701C013A6EF0160A18EEADF
:1010A00095E00E947C1A89A1823031F469E070E0F9
:1010B0008EEA95E00E9491026BA58EEA95E00E946F
:1010C0002B1A8EEA95E00E94001B21E030E081118E
:1010D00002C020E030E088279927821B930B02C0D2
:1010E0008DEF9FEFDF91CF910895CF93FC01C3A5C2
:1010F00060FF02C085A1C82B61FF02C086A1C82B7A
:1011000062FF02C087A1C82B63FF02C080A5C82B65
:10111000413011F482A1C82B64A16C2B70E08EEADF
:1011200095E00E9491026C2F8EEA95E0CF910C948D
:101130002B1A8F929F92AF92BF92CF92DF92EF9233
:10114000FF920F931F93CF93DF93EC0188A1882325
:1011500009F450C089A1882309F44CC0142F062F2C
:101160008C8C9D8CAE8CBF8CC88CD98CEA8CFB8C03
:101170008DE2C81AD108E108F1080E94CA27DC01F3
:10118000CB018C199D09AE09BF0988159905AA05DF
:10119000BB0598F368A18EEA95E00E947C1A89A1AC
:1011A000823031F469E070E08EEA95E00E949102AD
:1011B000612F70E084E0759567958A95E1F7402F7F
:1011C000CE010E947508023031F0612F6F70402F00
:1011D000CE010E9475088EEA95E00E94001B21E076
:1011E00030E0811102C020E030E088279927821B7F
:1011F000930B02C08CEF9FEFDF91CF911F910F9166
:10120000FF90EF90DF90CF90BF90AF909F908F9026
:1012100008958F929F92AF92BF92CF92DF92EF92FA
:10122000FF920F931F93CF93DF93EC011BA588A12F
:10123000882309F4F6C089A1882309F4F2C082301A
:1012400009F4F1C08BA1882309F4EDC0062F8C8C22
:101250009D8CAE8CBF8CC88CD98CEA8CFB8C8DE2BB
:10126000C81AD108E108F1080E94CA27DC01CB01A5
:101270008C199D09AE09BF0988159905AA05BB05FA
:1012800098F38DA1182B8EA1182B8FA1182B88A550
:10129000182B013011F48AA1182B8BA1182B68A1EF
:1012A0008EEA95E00E947C1A612F8EEA95E00E94FA
:1012B0002B1A8EEA95E00E94001B882319F00FEF8D
:1012C0001FEF9DC068A18EEA95E00E947C1A6CA178
:1012D000612B70E08EEA95E00E9491028EEA95E023
:1012E0000E94001B8111EBCF68A170E041E050E04B
:1012F0008EEA95E00E94FD1A8EEA95E00E94A419FC
:101300007C0197FDDCCF68A18EEA95E00E947C1AF3
:10131000612F8EEA95E00E942B1A8EEA95E00E94DA
:10132000001B8111CCCF8DA190E08E219F21892BB4
:1013300011F400E001C000E18EA190E08E219F2118
:10134000892B09F000628FA190E08E219F21892BCB
:1013500009F0006488A590E0E822F922EF2809F05E
:10136000006868A18EEA95E00E947C1A6CA1612B4E
:1013700070E08EEA95E00E9491028EEA95E00E946C
:10138000001B81119CCF68A170E041E050E08EEA23
:1013900095E00E94FD1A8EEA95E00E94A4197C0156
:1013A00097FD8DCF68A18EEA95E00E947C1A612F8F
:1013B0008EEA95E00E942B1A8EEA95E00E94001BAF
:1013C00081117DCF8DA190E08E219F21892B09F085
:1013D00001608EA190E08E219F21892B09F002608F
:1013E0008FA190E08E219F21892B09F0046088A5B0
:1013F00090E0E822F922EF2809F0086010E068A1E7
:101400008EEA95E00E947C1A6BA58EEA95E00E9418
:101410002B1A8EEA95E00E94001B882339F08FEF8B
:1014200003C08CEF01C08DEF9FEF01C0C801DF91B9
:10143000CF911F910F91FF90EF90DF90CF90BF90D1
:10144000AF909F908F9008950F931F93CF93DF934A
:10145000EC0168A18EEA95E00E947C1A6FEF8EEA9B
:1014600095E00E942B1A8EEA95E00E94001B68A16D
:1014700070E041E050E08EEA95E00E94FD1A8EEAAD
:1014800095E00E94A4198C0168A18EEA95E00E9463
:101490007C1A6BEF8EEA95E00E942B1A8EEA95E09B
:1014A0000E94001B68A170E041E050E08EEA95E0E8
:1014B0000E94FD1A8EEA95E00E94A41998012770F7
:1014C000332727303105B1F4807F9927803F91057C
:1014D00089F483E0169507958A95E1F781E008275E
:1014E000017043E057E066E075E0E4E022E0F1E0FF
:1014F00030E034C0C801807799278037910509F022
:1015000068C068A18EEA95E00E947C1A6FEE8EEAB0
:1015100095E00E942B1A8EEA95E00E94001B68A1BC
:1015200070E041E050E08EEA95E00E94FD1A8EEAFC
:1015300095E00E94A4198F7099270F9719F026E063
:1015400034E002C024E036E00095001F0027001FB1
:1015500047E053E062E071E0E0E0F5E081E090E038
:10156000DC0101C0AA0F3A95EAF7AAA3DC0101C089
:10157000AA0FFA95EAF7ABA3DC0102C0AA0FBB1FC2
:101580002A95E2F7ACA39C0101C0220FEA95EAF785
:101590002DA39C0101C0220F7A95EAF72EA39C018E
:1015A00001C0220F6A95EAF72FA39C0101C0220F08
:1015B0005A95EAF728A701C0880F4A95EAF789A744
:1015C0000AA7013011F48BA701C01BA680E090E0B0
:1015D00002C08DEF9FEFDF91CF911F910F91089582
:1015E000CF93DF93EC0168A18EEA95E00E947C1A0C
:1015F00060E08EEA95E00E942B1A6FEF70E08EEAB1
:1016000095E00E9491028EEA95E00E94001B68A17D
:101610008EEA95E00E947C1A66E070E08EEA95E022
:101620000E9491026FEF70E08EEA95E00E949102B5
:101630008EEA95E00E94001B68A18EEA95E00E9468
:101640007C1A69E070E08EEA95E00E9491028EEAD1
:1016500095E00E94001B68A170E041E050E08EEA36
:1016600095E00E94FD1A8EEA95E00E94A4198F373A
:1016700061F086FF12C081FD4CC021E032E043E002
:1016800054E065E076E0E7E00FC027E036E045E0B3
:1016900054E063E072E0E1E007C026E033E042E0BE
:1016A00051E060E077E0E4E081E090E0DC0102C03E
:1016B000AA0FBB1FEA95E2F7AAA31BA2FC0101C077
:1016C000EE0F7A95EAF7ECA3FC0102C0EE0FFF1FC4
:1016D0006A95E2F7EDA3BC0101C0660F5A95EAF7DF
:1016E0006EA3BC0102C0660F771F4A95E2F76FA395
:1016F000AC0101C0440F3A95EAF748A701C0880F32
:101700002A95EAF789A791E09AA78BA780E090E055
:1017100002C08DEF9FEFDF91CF9108951F93CF937C
:10172000DF93EC018EEA95E00E946A1A68A16111CC
:101730000AC080913F0591E0980F90933F050E9469
:10174000510288A30DC08EEA95E00E947C1A8EEAB1
:1017500095E00E94001B882319F08CEF9FEFA7C033
:1017600088A1811109C080913F0591E0980F909365
:101770003F050E94510288A318A1112371F389A18A
:101780008823C1F168A18EEA95E00E947C1A89A1A4
:10179000823009F076C065E070E08EEA95E00E9444
:1017A000910260E270E08EEA95E00E9491028EEA7A
:1017B00095E00E94001B68A18EEA95E00E947C1AC9
:1017C00060E08EEA95E00E942B1A60E08EEA95E0D8
:1017D0000E942B1A8EEA95E00E94001B68A18EEAF7
:1017E00095E00E947C1A69E070E08EEA95E00E9424
:1017F000910247C0612F8EEA95E00E947C1A60E05A
:101800008EEA95E00E942B1A6FEF8EEA95E00E9417
:101810002B1A8EEA95E00E94001B612F8EEA95E05C
:101820000E947C1A60E08EEA95E00E942B1A8EEAF4
:1018300095E00E94001B612F70E041E050E08EEACD
:1018400095E00E94FD1A8EEA95E00E94A4199C0181
:101850008F3F910529F091E0232B19F090E001C012
:1018600092E099A3992309F1913021F4CE010E94CD
:10187000240A03C0CE010E94F00A009709F482CF27
:1018800016C060E08EEA95E00E942B1A8EEA95E081
:101890000E94001B21E030E0811102C020E030E016
:1018A00088279927821B930B02C08FEF9FEFDF9150
:1018B000CF911F9108954F925F926F927F928F9276
:1018C0009F92AF92BF92CF92DF92EF92FF920F93CF
:1018D0001F93CF93DF93CDB7DEB72C970FB6F89455
:1018E000DEBF0FBECDBF2EEAC22E23E0D22EEE24E5
:1018F000E39434E2B32E85E596E00E94671E892BBF
:10190000D1F10091AD0310E085E596E00E94811EC3
:10191000F82EF801E255FC4F8083682F84E096E0B2
:101920000E94471D8091AD03853418F48F5F80932A
:10193000AD0384E2F81219C0D092AC03C092AB039D
:10194000E091AB03F091AC0383E0E43FF80740F48F
:10195000CF0101969093AC038093AB031082F0CF3C
:10196000E092AD03B092AE03C6CFEAE2FE12C3CF5F
:1019700081E08093AA038091AA03811102C010E044
:101980000DC11092AA0368E272E08EEA93E00E9411
:10199000892E009729F41092AC031092AB03EFCF7D
:1019A0008C010A5F1F4F1093AC030093AB03C80177
:1019B0000E94522E2B013C0184E6C82ED12CE12C32
:1019C000F12CC301B201A70196010E942D2C709346
:1019D000820360938103CA01B901A70196010E94A5
:1019E0002D2C7093800360937F0390E1892E97E202
:1019F000992EA12CB12CC301B201A50194010E9422
:101A00002D2CCA01B9016F5F7F4F8F4F9F4F28E187
:101A100030E040E050E00E942D2C70937E036093F4
:101A20007D03B801CE0107960E94952A6FE272E00D
:101A3000CE0101960E94952ABE016F5F7F4FCE01B5
:101A400007960E94542B8C01CE0101960E94272AF2
:101A50000F3F1F4F09F485C08091AB039091AC03F9
:101A60000D960E94522EA70196010E942D2C29014D
:101A70003A01AB01BC012AE0CE0101960E940A2B7B
:101A8000BE016F5F7F4F86E993E00E94E72ACE0197
:101A900001960E94272AC301B201A70196010E9464
:101AA0002D2CAB01BC012AE0CE0101960E940A2B2D
:101AB000BE016F5F7F4F8CE993E00E94E72ACE0161
:101AC00001960E94272A0091AB031091AC03F80104
:101AD000878980939503C80149960E94522EA701D9
:101AE00096010E942D2C7093A4036093A303CA0156
:101AF000B901A70196010E942D2C7093A603609353
:101B0000A503F80184A18093A203C801C2960E9494
:101B1000522E2B013C01A70196010E942D2C6053EF
:101B2000784F70935B0360935A03CA01B901A70110
:101B300096010E942D2C70935D0360935C03C3019A
:101B4000B201A50194010E942D2CCA01B901A7017F
:101B500096010E942D2C70935F0360935E0311E049
:101B600001C010E08EEA93E09093AC038093AB0346
:101B7000E091AB03F091AC0383E0E43FF80740F45D
:101B8000CF0101969093AC038093AB031082F0CF0A
:101B90001092AD03CE0107960E94272A84E096E0BA
:101BA0000E94761D892B49F084E096E00E94861DF4
:101BB000682F85E596E00E94D31E88E0EDE7F3E00C
:101BC000ADE8B3E001900D928A95E1F780918D0325
:101BD00090918E03019790938E0380938D0388E0FC
:101BE000EAE5F3E0AAE6B3E001900D928A95E1F709
:101BF000812F2C960FB6F894DEBF0FBECDBFDF91BC
:101C0000CF911F910F91FF90EF90DF90CF90BF90F9
:101C1000AF909F908F907F906F905F904F900895BE
:101C2000CF92DF92EF92FF9226E040E855E260E02B
:101C300070E085E596E00E94411F40E855E260E0D3
:101C400070E084E096E00E944C1E20E042E060E1FB
:101C500083E195E00E94761683E195E00E940B16E1
:101C600083E195E00E94101783E195E00E944D16F4
:101C700062E372E083E195E00E94962041E060E03B
:101C800083E195E00E94501663E472E083E195E001
:101C90000E9496200E94BE27683B7B4081059105EB
:101CA000C8F383E195E00E944A1660E088E00E9454
:101CB000922960E086E10E94922961E080911401FE
:101CC0000E94922961E0809116010E94922960E0B1
:101CD00087E00E94922980E090E0A0EAB1E480933E
:101CE0003C0490933D04A0933E04B0933F0461E014
:101CF00070E08CEF93E00E94AB1364E670E08CEF31
:101D000093E00E94171341E050E069EC71E084E039
:101D10000E9461260E94BE276093F8037093F90326
:101D20008093FA039093FB030E94BE2760377741AC
:101D30008105910558F540E060E083E195E00E945F
:101D4000501661E572E083E195E00E9496200E94C2
:101D50005B0C8823A1F083E195E00E944A166AE5B6
:101D600072E083E195E00E94962081E08093A903D0
:101D70000E94BE277093A8036093A70307C00E9428
:101D8000BE277093A8036093A703CECF8091A903C9
:101D900081110AC083E195E00E944A1668E672E06C
:101DA00083E195E00E94962088E0EDE8F3E0A5E865
:101DB000B3E001900D928A95E1F7C090A703D0900F
:101DC000A80380E3C81A88EFD80A0D2C000CEE088F
:101DD000FF080E94BE276C157D058E059F0568F3E0
:101DE00083E195E0FF90EF90DF90CF900C944A163E
:101DF000CF92DF92EF92FF920F931F938091A903EE
:101E0000882309F4BEC1C090A703D090A80380EC3A
:101E1000C81A88E8D80A0D2C000CEE08FF080E94AA
:101E2000BE27C616D706E806F90608F4AAC188E058
:101E30000E94FD290197E1F410923C0410923D04A8
:101E400010923E0410923F041092490410924A04EA
:101E500010924B0410924C0460E070E080911601E7
:101E60001F910F91FF90EF90DF90CF900C94BD28C1
:101E70008091810390918203892B61F480E090E04E
:101E8000A0EAB1E480933C0490933D04A0933E0407
:101E9000B0933F040E9487060E94BE276093F4031C
:101EA0007093F5038093F6039093F7030091F80382
:101EB0001091F9032091FA033091FB036B017C012F
:101EC000C01AD10AE20AF30A97018601C0900A01FA
:101ED000D0900B010D2C000CEE08FF08C016D106A7
:101EE000E206F306A4F56093F8037093F903809378
:101EF000FA039093FB0320E030E040E752E4609166
:101F0000490470914A0480914B0490914C040E94C2
:101F1000D81C20E030E040EF54E40E94791B60932D
:101F200045047093460480934704909348048CEFD3
:101F300093E00E94DA1080934404882341F01092C9
:101F4000490410924A0410924B0410924C040E94CF
:101F5000130380917403882311F120917D03309144
:101F60007E03809175039091760328173907B9F4A1
:101F700020917F03309180038091770390917803C3
:101F80002817390761F420918103309182038091F1
:101F9000790390917A032817390709F4FDC00E944C
:101FA000270190935503809354032091720330913D
:101FB0007303232BC1F0892B49F083E195E00E9444
:101FC0000B1610927303109272030DC0809181035F
:101FD00080FF05C083E195E00E94031604C083E101
:101FE00095E00E940B16E0915803F091590374E0BC
:101FF000EE0FFF1F7A95E1F7E457FD4F0284F3855A
:10200000E02D309749F08091540390915503099544
:1020100090935503809354038091540390915503FA
:1020200083309105D9F134F48130910579F002972C
:1020300019F109C08530910509F465C00CF440C060
:10204000069709F483C08FEF9FEF11C083E195E0FD
:102050000E944A16E0915803F091590364E0EE0F94
:10206000FF1F6A95E1F7E457FD4F808191819093BE
:102070005703809356037AC083E195E00E944A1685
:10208000E0915803F091590354E0EE0FFF1F5A9569
:10209000E1F7E457FD4F82819381E9CF83E195E039
:1020A0000E944A16E0915803F091590344E0EE0F64
:1020B000FF1F4A95E1F7E457FD4F84819581D7CF03
:1020C00083E195E00E944A16E0915803F09159038C
:1020D00034E0EE0FFF1F3A95E1F7E457FD4F04841B
:1020E000F585E02D309709F00995E0915803F091BE
:1020F000590324E0EE0FFF1F2A95E1F7E457FD4F47
:1021000086819781B4CF83E195E00E944A16E091E1
:102110005803F091590394E0EE0FFF1F9A95E1F7F1
:10212000E457FD4F0684F785E02D309709F00995B7
:10213000E0915803F091590384E0EE0FFF1F8A9558
:10214000E1F7E457FD4F8085918591CF83E195E0DC
:102150000E944A1683E195E00E94101783E195E002
:102160000E9417171092570310925603809156033E
:102170009091570397FD17C090935903809358038C
:1021800012C00E945B0C8093A9030E94BE2770932B
:10219000A8036093A7034BCE81E090E09093730374
:1021A00080937203FCCE1F910F91FF90EF90DF9010
:1021B000CF9008952F923F924F925F926F927F92AD
:1021C0008F929F92AF92BF92CF92DF92EF92FF9247
:1021D0000F931F93CF93DF93CDB7DEB760970FB602
:1021E000F894DEBF0FBECDBFDC01DA96BC91B98397
:1021F000B11102C019822BC1988B8F870E94BE2714
:102200006E837F8388879987EF85F88982A193A160
:10221000A4A1B5A14E815F8168857985481B590BC2
:102220006A0B7B0B86A597A5A0A9B1A948175907EA
:102230006A077B07F8F2048CF58DE02D808191818F
:10224000A281B3818A839B83AC83BD83AF85B88928
:102250009096ED91FC9191972A813B814C815D8113
:1022600060817181828193810E94071B4B015C0117
:10227000EF85F88922A533A544A555A56A817B8100
:102280008C819D810E94071B6B017C01AF85B88901
:1022900050962D913D914D915C915397C501B4019C
:1022A0000E94D81CEF85F88926A137A140A551A529
:1022B0000E94081B2B013C01AF85B88996966D934F
:1022C0007D938D939C939997DB96BC91BA87B111BE
:1022D00018C0EF85F8892485358546855785C7015F
:1022E000B6010E94D81C9B01AC01C301B2010E943F
:1022F000071BAF85B88996966D937D938D939C93BC
:102300009997EF85F88946A057A060A471A416A9F3
:1023100007A930AC21AC212F302F432D522DC30102
:10232000B2010E94D31C18162CF4812F902FA32DDC
:10233000B22D18C0AF85B889D2968D919D910D9020
:10234000BC91A02D8B879C87AD87BE879C01AD017A
:10235000C301B2010E94741B87FF0AC08B859C8554
:10236000AD85BE85EF85F88986A397A3A0A7B1A701
:10237000FA85FF2379F0AF85B8891C962D913D91A0
:102380004D915C911F97C501B4010E94D81C4B016F
:102390005C0103C0812C912C5401EF85F8892489BC
:1023A000358946895789C701B6010E94D81C9B010F
:1023B000AC01AF85B88996966D917D918D919C9178
:1023C00099970E94071BA50194010E94081B6B01AD
:1023D0007C019B01AC01612F702F832D922D0E94F7
:1023E000741B87FD14C0EF85F88912A903A934A8CE
:1023F00025A8212F302F432D522DB601C7010E9451
:10240000741B87FD04C01C2D0D2D3E2C2F2CAF8579
:10241000B8895E96ED91FC915F97812F902FA32D47
:10242000B22D80839183A283B3838A819B81AC8107
:10243000BD81EF85F88982A793A7A4A7B5A78E8150
:102440009F81A885B98582A393A3A4A3B5A38981FD
:1024500060960FB6F894DEBF0FBECDBFDF91CF916F
:102460001F910F91FF90EF90DF90CF90BF90AF90B2
:102470009F908F907F906F905F904F903F902F90A4
:1024800008954F925F926F927F928F929F92AF9238
:10249000BF92CF92DF92EF92FF920F931F93CF9351
:1024A000DF9300D000D000D0CDB7DEB79E838D8300
:1024B00049835A836B837C832801390120E030E013
:1024C000A90169817A818B819C810E94741B87FD9F
:1024D00097C020E030E0A901C301B2010E94741B43
:1024E00087FD8EC020E030E0A901C701B6010E943F
:1024F000741B87FD85C0AD81BE815B96BC92AE9298
:102500005A9781E0AA94AB2809F080E0ED81FE8122
:1025100083AF89819A81AB81BC8180839183A283BF
:10252000B3834482558266827782C086D186E286F2
:10253000F38666A577A580A991A90E94211C20E0B9
:1025400030E04AE754E40E94791B4B015C01898129
:102550009A81AB81BC81ED81FE8184879587A687B6
:10256000B787A5019401C301B2010E94D81C2B01B9
:102570003C01AD81BE8150966D937D938D939C936C
:102580005397A5019401C701B6010E94791B6B0105
:102590007C01ED81FE81648B758B868B978B808DA2
:1025A000918D019769F529813A814B815C8160E0C9
:1025B00070E0CB010E94071BAD81BE811C966D931C
:1025C0007D938D939C931F97A301920160E070E02F
:1025D000CB010E94071BED81FE81608B718B828B8A
:1025E000938BA701960160E070E0CB010E94071B6E
:1025F000AD81BE8154966D937D938D939C93579737
:1026000026960FB6F894DEBF0FBECDBFDF91CF91F7
:102610001F910F91FF90EF90DF90CF90BF90AF9000
:102620009F908F907F906F905F904F9008958F92C2
:102630009F92AF92BF92CF92DF92EF92FF92CF9391
:10264000DF9316161706B4F56B01EC010D2C000C88
:10265000EE08FF08C701B6010E94231C4B015C0174
:102660006EA57FA588A999A90E94211C9B01AC0198
:10267000C501B4010E94791B4B015C019B01AC01B7
:10268000688979898A899B890E94D81C688B798B93
:102690008A8B9B8BA50194016C897D898E899F898A
:1026A0000E94791B6C8B7D8B8E8B9F8BCEA6DFA6B9
:1026B000E8AAF9AADF91CF91FF90EF90DF90CF9039
:1026C000BF90AF909F908F9008958F929F92AF92FE
:1026D000BF92CF92DF92EF92FF92CF93DF93EC0104
:1026E000EE8DFF8DC080D180E280F380CEA2DFA28C
:1026F000E8A6F9A6EC8DFD8D80819181A281B38140
:102700008AA79BA7ACA7BDA78EA89FA8A8ACB9AC69
:10271000A5019401C701B6010E94D31C181664F0EC
:102720008AA89BA8ACA8BDA8A5019401C701B601C1
:102730000E94741B87FF04C08EA29FA2A8A6B9A600
:10274000DF91CF91FF90EF90DF90CF90BF90AF904F
:102750009F908F9008951F93CF93DF93EC0111E02A
:102760006130710509F010E06130710531F48AAD16
:10277000811103C0CE010E9465131AAFDF91CF9182
:102780001F9108950F931F93CF93DF93EC018B015B
:102790008AAD882361F1888D998D8617970739F165
:1027A0002C853D854E855F8560E070E0CB010E9401
:1027B000071B6C877D878E879F87288939894A897F
:1027C0005B8960E070E0CB010E94071B688B798B0E
:1027D0008A8B9B8B2C893D894E895F8960E070E0F4
:1027E000CB010E94071B6C8B7D8B8E8B9F8B198F6F
:1027F000088FDF91CF911F910F9108954F925F92B3
:102800006F927F928F929F92AF92BF92CF92DF9200
:10281000EF92FF920F931F93CF93DF9300D000D0DE
:10282000CDB7DEB74C0127013801A982BA82CB822D
:10283000DC82FC01578F468F758F648F31A320A3F4
:1028400012AE12AA13AA14AA15AA80E090E0AFE76C
:10285000B3E486AB97ABA0AFB1AF84E690E0A0E065
:10286000B0E086A797A7A0ABB1AB6D8D7E8DC401FC
:102870000E94C213AB8CBC8CCF88D88CE98CFA8CAC
:1028800009811A812B813C81B301A201C4010E94FC
:1028900041120E94BE27F40146A457A460A871A863
:1028A000DC01CB0184199509A609B70982A393A37A
:1028B000A4A3B5A30F900F900F900F90DF91CF912D
:1028C0001F910F91FF90EF90DF90CF90BF90AF904E
:1028D0009F908F907F906F905F904F9008958F9210
:1028E0009F92AF92BF92CF92DF92EF92FF920F939F
:1028F0001F93CF93DF93CDB7DEB7EF85F889A98912
:10290000BA899B888C888F929F921F929924939466
:102910009F92BF93AF93FF93EF930E94FE130FB666
:10292000F894DEBF0FBECDBFDF91CF911F910F9105
:10293000FF90EF90DF90CF90BF90AF909F908F90DF
:1029400008952F923F924F925F926F927F928F9253
:102950009F92AF92BF92CF92DF92EF92FF920F932E
:102960001F93CF93DF93EC01F62E042FE22E862FD8
:1029700090E0FC01E857FE4F1491FC01E955FE4F31
:10298000E491F0E0EE0FFF1FEA53FE4FC590D490A4
:1029900061E08F2D0E94922960E08F2D0E94CE2948
:1029A000093038F0602F70E080E090E00E94EF275F
:1029B0000AC088EE93E09C01029FC001039F900D26
:1029C00011240E942B2860E08F2D0E94922980E222
:1029D00093E0D6012C91212321F00197D1F78DEFBF
:1029E0005FC080E991E0F6012081212321F4019765
:1029F000D1F78CEF55C080E991E0D6012C912123CD
:102A000021F00197D1F78BEF4BC058E280E991E0BC
:102A100020E030E0E0E9F1E000E060E0312C40E867
:102A2000252E2E1870E9872E99249394A12CB12C71
:102A3000D6017C91712361F5002351F1251698F49C
:102A40008E179F0708F4FC01240135014E1A5F0A16
:102A50006108710882E075946794579447948A9549
:102A6000D1F7920107C07F01E21AF30AE816F906CE
:102A700008F0642B469549F4CE01830D911DDC01CD
:102A800018966C93339460E040E8515080E991E0EF
:102A9000019729F0072F5111CBCF80E001C08EEFB5
:102AA000DF91CF911F910F91FF90EF90DF90CF902A
:102AB000BF90AF909F908F907F906F905F904F905E
:102AC0003F902F900895CF92DF92EF92FF920F9355
:102AD0001F93CF93DF93EC018D85882309F0F89441
:102AE00026E041E0CE010E94A114E82E8D858823C6
:102AF00009F078940885037008871A85812F8378F8
:102B0000F82E8A87C984602F70E0762F66276C0DB7
:102B1000711D072E000C880B990B0E94231C2DECB5
:102B20003CEC4CEC5DE30E94D81C688379838A837B
:102B30009B83DB841370612F70E0762F66276D0D09
:102B4000711D072E000C880B990B0E94231C2DEC85
:102B50003CEC4CEC5DE30E94D81CF7FC05C06C8398
:102B60007D838E839F8307C0DC01CB01B0588C83AB
:102B70009D83AE83BF83DC0C0D0DF00E8C85F812A7
:102B800002C08E2D01C08FEFDF91CF911F910F9169
:102B9000FF90EF90DF90CF90089580E090E008954F
:102BA0008DEF9FEF08958DEF9FEF0895CF93DF9303
:102BB000EC011B821A8280EF92E0998388831F8246
:102BC000188680ED97E0A0E0B0E0888B998BAA8B07
:102BD000BB8B86E290E0A0E0B0E08C8B9D8BAE8B4F
:102BE000BF8B1C861D861E861F861B860E94CA27D9
:102BF000688F798F8A8F9B8F1C8E1D8E1E8E1F8EE5
:102C0000DF91CF910895DC01ED91FC910684F78569
:102C1000E02D6FEF0994DC01ED91FC910684F785BE
:102C2000E02D60E009948F929F92AF92BF92EF9255
:102C3000FF921F93CF93DF93EC01162FE881F98168
:102C40000484F585E02D462F60E009957C01115044
:102C5000123038F419861A8688889988AA88BB8821
:102C600004C08C889D88AE88BF880E94CA27688F60
:102C7000798F8A8F9B8F8C8E9D8EAE8EBF8EC70173
:102C8000DF91CF911F91FF90EF90BF90AF909F90F9
:102C90008F90089561E00C94131662E00C94131663
:102CA000FC018085481710F04FEF480F938599235A
:102CB00059F09781691730F0691B4F5F4817D0F3BF
:102CC00040E0F8CF61874287DF01A40FB11D1C9659
:102CD0008C91680F6068CF010C941316FC0165811C
:102CE000262F246025836C600C9413160F931F937A
:102CF000CF93DF93EC01022F142F453008F014E03E
:102D00008C85811109C08D85811106C08E85811148
:102D100003C08F85882329F08F81882359F0861777
:102D200049F01C8680E48D876E87862F90E0805C5A
:102D30009F4F8F8718876F8364E670E080E090E094
:102D40000E94EF271C82E881F9810084F185E02D43
:102D5000CE010995009709F05EC08885823018F091
:102D60008C8188608C83002329F0113019F48C81C8
:102D700084608C83E881F9810484F585E02D40E34B
:102D800062E0CE01099565E070E080E090E00E948D
:102D9000EF27E881F9810484F585E02D40E362E0C6
:102DA000CE01099561E070E080E090E00E94EF279D
:102DB000E881F9810484F585E02D40E362E0CE01ED
:102DC000099561E070E080E090E00E94EF278C813F
:102DD00084FD09C0E881F9810484F585E02D40E295
:102DE00062E0CE0109956C816062CE010E941316EB
:102DF00084E08D83CE010E946E16CE010E944A1699
:102E000082E08E8366E0CE010E9413168C01CE0113
:102E10000E940316C801DF91CF911F910F91089571
:102E2000FC0165816D7F658368600C941316FC015D
:102E300065816E7F658368600C941316CF92DF9274
:102E4000EF92FF920F931F93CF93DF93EC01462FE6
:102E5000E881F9810484F585E02D61E009958C0114
:102E6000CC88DD88EE88FF880E94CA27688F798F1A
:102E70008A8F9B8FCC8EDD8EEE8EFF8E81E090E070
:102E8000012B11F080E090E0DF91CF911F910F9125
:102E9000FF90EF90DF90CF9008950F931F93CF9303
:102EA000DF93EC010E941E178C018B85882399F01B
:102EB00089858F5F89879F81891768F019868A8540
:102EC0008F5F8A879885891708F01A864A8560E09F
:102ED000CE010E945016C801DF91CF911F910F9132
:102EE00008951092AD0581E08093AB051092AA057C
:102EF00061E082E00E94CE2961E083E00E94CE2959
:102F0000E9EBF0E080818E7F808380818D7F8083FC
:102F100088E48093B80085E48093BC000895413232
:102F200008F043C09091AD059111FCCF91E09093D2
:102F3000AD052093AB052FEF20934005109285053A
:102F4000240F209384059093AC059091AC05880FD5
:102F5000892B8093AC058091AA05813061F4109291
:102F6000AA058091AC058093BB008091BC0083FDD5
:102F7000F8CF85EC01C085EE8093BC008091AD0553
:102F80008130E1F380918505841710F44091850527
:102F9000A6E8B5E0962FFB018E2F891B841718F445
:102FA0008D918193F9CF842F089580E008950F9338
:102FB000413208F04AC09091AD059111FCCF32E04A
:102FC0003093AD050093AB053FEF30934005109271
:102FD000850540938405562FA6E8B5E0FB013E2FFA
:102FE000351B341718F431913D93F9CF1092AC058D
:102FF0003091AC05880F832B8093AC058091AA0596
:10300000813061F41092AA058091AC058093BB00D9
:103010008091BC0083FDF8CF85EC01C085EE8093E4
:10302000BC00222321F08091AD058230D1F3809144
:1030300040058F3F79F080914005803241F08091CA
:103040004005803331F094E005C091E003C092E088
:1030500001C093E0892F0F91089540916205262FBA
:1030600030E0240F311D21323105DCF42091AD0513
:103070002430C9F4FC0180E090E0861758F43091C8
:1030800062052191DC01AC59BA4FA30FB11D2C93FD
:103090000196F3CF80916205680F6093620580E02E
:1030A000089581E0089582E008959093A7058093A4
:1030B000A60508959093A9058093A805089585ED28
:1030C0008093BC008091BC0084FDFCCF1092AD05C4
:1030D000089585EC8093BC001092AD0508951F9271
:1030E0000F920FB60F9211242F933F934F935F933C
:1030F0006F937F938F939F93AF93BF93EF93FF93C0
:103100008091B900887F803609F49EC078F58832B6
:1031100009F45DC090F4803109F456C038F4882376
:1031200009F4F5C0883009F44FC0F5C0883109F4BE
:103130004EC0803209F45FC0EEC0803409F46AC02A
:1031400058F4803309F457C0883309F0E4C0809301
:1031500040050E946918DFC0803509F44FC08835EA
:1031600009F45DC0883409F0D6C0D3C0883909F4A9
:10317000C4C0A8F4883709F467C038F4883609F465
:1031800063C0803709F460C0C6C0883809F4B5C090
:10319000803909F45FC0803809F0BDC05BC0803B56
:1031A00009F483C038F4803A09F466C0883A09F417
:1031B0007CC0B1C0803C09F4A4C0883C09F4A1C023
:1031C000883B09F487C0A7C08091AC0510C09091DE
:1031D000850580918405981770F5E091850581E05B
:1031E0008E0F80938505F0E0EA57FA4F8081809337
:1031F000BB0085EC83C0809340058BC0E0918505C2
:1032000081E08E0F809385058091BB00F0E0EA5746
:10321000FA4F808390918505809184056BC0E09181
:10322000850581E08E0F809385058091BB00F0E0DD
:10323000EA57FA4F80838091AB0581116AC081E023
:103240008093AA0584EA5EC083E08093AD05109266
:103250004105CFCF80914105803208F04EC0E0910A
:10326000410581E08E0F809341058091BB00F0E025
:10327000EE5BFA4F8083BDCF0E94691880914105B3
:10328000803230F4E0914105F0E0EE5BFA4F1082BD
:103290006091410570E0E091A605F091A70582E4F8
:1032A00095E009951092410536C084E08093AD0504
:1032B0001092630510926205E091A805F091A905AE
:1032C000099580916205811105C081E080936205B6
:1032D00010926405E091630581E08E0F8093630591
:1032E000F0E0EC59FA4F80818093BB009091630528
:1032F00080916205981708F47CCF85E88093BC0024
:103300000AC085EC8093BC001092AD0504C01092F9
:1033100040050E945F18FF91EF91BF91AF919F917F
:103320008F917F916F915F914F913F912F910F906E
:103330000FBE0F901F9018958091E20590E02091AC
:10334000E305821B910908959091E3058091E205C0
:10335000981750F4E92FF0E0EC51FA4F208130E05B
:103360009F5F9093E30502C02FEF3FEFC9010895DF
:10337000E091E3058091E205E81730F4F0E0EC51CC
:10338000FA4F808190E008958FEF9FEF08950895A0
:10339000CF93DF93EC01E091BA05F091BB05309734
:1033A000F1F09091E3058091E2059817C0F090E06C
:1033B000292F30E02617370754F4DE01A20FB31F80
:1033C0004C91D901AC51BA4F4C939F5FF1CF109201
:1033D000E3056093E205CB01DF91CF910994DF9182
:1033E000CF910895E091BC05F091BD05309729F08B
:1033F0001092C0051092BF0509940895CF92DF92F4
:10340000EF92FF920F931F93CF93DF937C01CB0139
:103410008A012091BE05222389F0EB016B01C40EC5
:10342000D51ECC15DD0569F06991D701ED91FC91B0
:103430000190F081E02DC7010995F3CF642F0E9420
:103440002D18C801DF91CF911F910F91FF90EF9040
:10345000DF90CF900895CF93DF931F92CDB7DEB763
:1034600069832091BE052223D1F02091BF0520322F
:1034700040F021E030E0FC013383228380E090E0E3
:1034800015C08091C005E82FF0E0EF53FA4F998105
:1034900090838F5F8093C0058093BF0505C061E076
:1034A000CE0101960E942D1881E090E00F90DF91EF
:1034B000CF910895FC011382128288EE93E0A0E080
:1034C000B0E084839583A683B78386E093E09183FD
:1034D000808308951092E3051092E2051092C005D2
:1034E0001092BF050E94711782EF99E10E945A184D
:1034F00088EC99E10C94551881E08093BE056093A7
:10350000E1051092C0051092BF0508950F93062F94
:1035100021E04091BF0561EC75E08091E1050E94DA
:10352000D7171092C0051092BF051092BE050F91DB
:1035300008954F925F926F927F92AF92BF92CF9217
:10354000EF92FF920F931F93CF93DF935C01F62EC0
:10355000D42F28013901EE2021F10E947C1ACE2DB2
:10356000C43008F0C3E0C150C0F028E0C29FC001E1
:103570001124A301920104C05695479537952795CC
:103580008A95D2F7CA01B901D501ED91FC9101905C
:10359000F081E02DC5010995E6CF60E0C5010E94EC
:1035A000861A4D2FD13208F040E22C2D64EE75E0E2
:1035B0008F2D0E948F171092E3058093E205DF9113
:1035C000CF911F910F91FF90EF90CF90BF90AF9050
:1035D0007F906F905F904F900895CF92EF920F93EE
:1035E0001F93C22EE12C00E010E098010E94991A6E
:1035F0001F910F91EF90CF90089521E00C94ED1A58
:1036000061E00C94861A8EEA95E00C945A1A505890
:10361000BB27AA270E941F1B0C94991C0E948B1C7D
:1036200038F00E94921C20F039F49F3F19F426F4E0
:103630000C94881C0EF4E095E7FB0C94821CE92F97
:103640000E94AA1C58F3BA176207730784079507EC
:1036500020F079F4A6F50C94CC1C0EF4E0950B2E1A
:10366000BA2FA02D0B01B90190010C01CA01A001D4
:103670001124FF27591B99F0593F50F4503E68F12F
:103680001A16F040A22F232F342F4427585FF3CF70
:10369000469537952795A795F0405395C9F77EF441
:1036A0001F16BA0B620B730B840BBAF09150A1F08A
:1036B000FF0FBB1F661F771F881FC2F70EC0BA0F10
:1036C000621F731F841F48F4879577956795B79598
:1036D000F7959E3F08F0B0CF9395880F08F0992793
:1036E000EE0F9795879508950E945E1C08F481E07F
:1036F00008950E948D1B0C94991C0E94921C58F0F6
:103700000E948B1C40F029F45F3F29F00C94821C2E
:1037100051110C94CD1C0C94881C0E94AA1C68F3B7
:103720009923B1F3552391F3951B550BBB27AA277A
:1037300062177307840738F09F5F5F4F220F331FB4
:10374000441FAA1FA9F335D00E2E3AF0E0E832D07C
:1037500091505040E695001CCAF72BD0FE2F29D07F
:10376000660F771F881FBB1F261737074807AB0751
:10377000B0E809F0BB0B802DBF01FF2793585F4FC6
:103780003AF09E3F510578F00C94821C0C94CD1CAD
:103790005F3FE4F3983ED4F3869577956795B795A8
:1037A000F7959F5FC9F7880F911D9695879597F9B3
:1037B0000895E1E0660F771F881FBB1F621773072C
:1037C0008407BA0720F0621B730B840BBA0BEE1F41
:1037D00088F7E09508950E94F21B6894B1110C944B
:1037E000CD1C08950E94B21C88F09F5798F0B92F05
:1037F0009927B751B0F0E1F0660F771F881F991F26
:103800001AF0BA95C9F714C0B13091F00E94CC1CDF
:10381000B1E008950C94CC1C672F782F8827B85FEF
:1038200039F0B93FCCF3869577956795B395D9F77D
:103830003EF490958095709561957F4F8F4F9F4F87
:103840000895E89409C097FB3EF490958095709593
:1038500061957F4F8F4F9F4F9923A9F0F92F96E9DC
:10386000BB279395F695879577956795B795F11151
:10387000F8CFFAF4BB0F11F460FF1BC06F5F7F4FEE
:103880008F4F9F4F16C0882311F096E911C0772300
:1038900021F09EE8872F762F05C0662371F096E809
:1038A000862F70E060E02AF09A95660F771F881FD8
:1038B000DAF7880F9695879597F90895990F00087C
:1038C000550FAA0BE0E8FEEF16161706E807F907F2
:1038D000C0F012161306E407F50798F0621B730B8D
:1038E000840B950B39F40A2661F0232B242B252B0E
:1038F00021F408950A2609F4A140A6958FEF811DB1
:10390000811D089597F99F6780E870E060E0089551
:103910009FEF80EC089500240A94161617061806E7
:103920000906089500240A941216130614060506C3
:103930000895092E0394000C11F4882352F0BB0F54
:1039400040F4BF2B11F460FF04C06F5F7F4F8F4FB7
:103950009F4F089557FD9058440F551F59F05F3FF2
:1039600071F04795880F97FB991F61F09F3F79F0A1
:1039700087950895121613061406551FF2CF469523
:10398000F1DF08C0161617061806991FF1CF8695A5
:103990007105610508940895E894BB276627772789
:1039A000CB0197F908950E945E1C08F48FEF0895EB
:1039B0000E94EB1C0C94991C0E948B1C38F00E94F6
:1039C000921C20F0952311F00C94821C0C94881CFE
:1039D00011240C94CD1C0E94AA1C70F3959FC1F376
:1039E000950F50E0551F629FF001729FBB27F00DAD
:1039F000B11D639FAA27F00DB11DAA1F649F662702
:103A0000B00DA11D661F829F2227B00DA11D621F50
:103A1000739FB00DA11D621F839FA00D611D221F0A
:103A2000749F3327A00D611D231F849F600D211DEE
:103A3000822F762F6A2F11249F5750409AF0F1F071
:103A400088234AF0EE0FFF1FBB1F661F771F881FDA
:103A500091505040A9F79E3F510580F00C94821C74
:103A60000C94CD1C5F3FE4F3983ED4F38695779594
:103A70006795B795F795E7959F5FC1F7FE2B880F80
:103A8000911D9695879597F908950E944D2ECF9395
:103A9000DF931F92CDB7DEB76983DC01ED91FC9116
:103AA0000280F381E02D41E050E0BE016F5F7F4F67
:103AB00009950F90DF91CF910895CF93DF93EC019B
:103AC0008C859D8597FF05C082E00E942D239D87F0
:103AD0008C878C859D85DF91CF91089583E00E942E
:103AE000442390E0089583E00C94C225FC01848572
:103AF000958597FD06C082E00E94D82290E001964D
:103B0000089582E00E94D82290E00895FC01848507
:103B1000958597FD05C02FEF3FEF358724870895E2
:103B200082E00C942D23CF93DF93EC01809123014D
:103B3000882331F083E00E945E231816190634F0C2
:103B400081E090E09B838A8380E090E0DF91CF91D9
:103B50000895EEEFFFE72591349181E02B3F3C4D36
:103B600009F080E00895FC0190819E5F908342E41B
:103B700050E068EE70E080E80C940E24FC01818136
:103B80009081913A59F4813209F065C047E050E0E4
:103B90006CE171E080E00E940E245BC0913209F07C
:103BA0005AC0833269F482819381A0E0B0E08093AF
:103BB000180190931901A0931A01B0931B0149C0F9
:103BC000803239F467E070E08CE191E00E943524A6
:103BD00040C0823209F03DC08281809323010E945F
:103BE000A91D882319F0EEEFFAE002C0E0E0F8E04A
:103BF00080911C0190911D01A0911E01B0911F01A7
:103C0000803B9440A105B10541F58091230180FDE1
:103C100024C0EE3F8AE0F80751F080819181873718
:103C200027E7920721F09093FF0A8093FE0A87E727
:103C300097E79183808380916000809354069BE096
:103C400088E10FB6F894A895809360000FBE90931A
:103C5000600081E0089580E0089580819181873738
:103C60009747B9F7A89580916000886180936000BC
:103C70008091540680936000EE3F8AE0F80739F0A7
:103C80008091FE0A9091FF0A91838083E2CF109287
:103C9000FF0A1092FE0ADDCF2FEF3FEFFC013587C0
:103CA00024870895E4E0F6E01382128288EE93E020
:103CB000A0E0B0E084839583A683B78388E193E096
:103CC000918380838FEF9FEF958784870895FC0110
:103CD000918D228D892F90E0805C9F4F821B9109EE
:103CE0008F7399270895FC01918D828D981731F07B
:103CF000828DE80FF11D858D90E008958FEF9FEF85
:103D00000895FC01918D828D981761F0828DDF01FD
:103D1000A80FB11D5D968C91928D9F5F9F73928FBE
:103D200090E008958FEF9FEF0895FC01538D448D2F
:103D3000252F30E0842F90E0821B930B541710F056
:103D4000CF960895019708958EEF9FE1892B49F052
:103D500080E090E0892B29F00E94FE1F81110C94D5
:103D600000000895FC01848DDF01A80FB11DA35A46
:103D7000BF4F2C91848D90E001968F739927848F8B
:103D8000A689B7892C93A089B1898C9182748C9370
:103D9000938D848D981306C00288F389E02D80816D
:103DA0008F7D80830895EF92FF920F931F93CF939F
:103DB000DF93EC0181E0888F9B8D8C8D981305C07B
:103DC000E889F989808185FD26C0F62E0B8D10E0EB
:103DD0000F5F1F4F0F731127E02E8C8DE8120CC060
:103DE0000FB607FCFACFE889F989808185FFF5CF06
:103DF000CE010E94B21EF1CF8B8DFE01E80FF11DA6
:103E0000E35AFF4FF0829FB7F8940B8FEA89FB8942
:103E10008081806209C09FB7F894EE89FF89608332
:103E2000E889F9898081827480839FBF81E090E076
:103E3000DF91CF911F910F91FF90EF900895CF9355
:103E4000DF93EC01888D8823C9F0EA89FB898081A2
:103E500085FD05C0A889B9898C9186FD0FC00FB674
:103E600007FCF5CF808185FFF2CFA889B9898C91B5
:103E700085FFEDCFCE010E94B21EE7CFDF91CF913B
:103E80000895CF92DF92EF92FF921F93CF93DF932B
:103E9000EC016A017B01122FE889F98982E08083B5
:103EA0004115514E61057105B1F060E079E08DE397
:103EB00090E0A70196010E940B2CDA01C90101973D
:103EC000A109B109B695A795979587959C012115EC
:103ED00080E13807A8F0E889F989108260E874E881
:103EE0008EE190E0A70196010E940B2CDA01C90136
:103EF0000197A109B109B695A795979587959C015A
:103F0000EC85FD853083EE85FF852083188EEC8956
:103F1000FD891083EA89FB89808180618083EA8939
:103F2000FB89808188608083EA89FB898081806841
:103F30008083EA89FB8980818F7D8083DF91CF91A7
:103F40001F91FF90EF90DF90CF9008951F920F92F6
:103F50000FB60F9211242F938F939F93EF93FF939C
:103F6000E0916506F09166068081E0916B06F09124
:103F70006C0682FD12C0908180916E068F5F8F73F8
:103F800020916F06821751F0E0916E06F0E0EB5A37
:103F9000F94F958F80936E0601C08081FF91EF915C
:103FA0009F918F912F910F900FBE0F901F9018959A
:103FB0001F920F920FB60F9211242F933F934F939E
:103FC0005F936F937F938F939F93AF93BF93EF9381
:103FD000FF9385E596E00E94B21EFF91EF91BF919D
:103FE000AF919F918F917F916F915F914F913F9191
:103FF0002F910F900FBE0F901F90189585E596E0BA
:104000000E94671E21E0892B09F420E0822F089589
:10401000E5E5F6E01382128288EE93E0A0E0B0E0DE
:1040200084839583A683B7838AE293E09183808318
:104030008DEC90E0958784878CEC90E0978786875D
:1040400088EC90E0918B808B89EC90E0938B828B55
:104050008AEC90E0958B848B8EEC90E0978B868B2E
:10406000118E128E138E148E089508950E94362894
:104070000E94352082EF96E00E944D260E94100E8D
:10408000C4EADEE10E94F80E2097E1F30E94A41E2C
:10409000F9CFCF92DF92EF92FF920F931F93CF93BE
:1040A000DF936C017A018B01C0E0D0E0CE15DF0513
:1040B00081F0D8016D918D01D601ED91FC910190B7
:1040C000F081E02DC6010995892B11F02196EECFE4
:1040D0007E01C701DF91CF911F910F91FF90EF906B
:1040E000DF90CF9008956115710579F0FB01019083
:1040F0000020E9F73197AF01461B570BDC01ED912A
:10410000FC910280F381E02D099480E090E0089515
:10411000DB0114964D915C9115976D917C91DC01BA
:10412000ED91FC910280F381E02D09940C947320B1
:10413000DC01ED91FC910190F081E02D09948F92CA
:104140009F92AF92BF92EF92FF920F931F93CF93E4
:10415000DF93CDB7DEB7A1970FB6F894DEBF0FBEE1
:10416000CDBF7C01FA01CB0119A2223008F42AE06C
:104170008E010F5D1F4F822E912CA12CB12CBF01FF
:10418000A50194010E940B2CF901CA0101501109EB
:104190006A3010F4605D01C0695CD8016C93232B18
:1041A000242B252B61F7B801C7010E947320A1962B
:1041B0000FB6F894DEBF0FBECDBFDF91CF911F9138
:1041C0000F91FF90EF90BF90AF909F908F900895C8
:1041D0002115310541F4DC01ED91FC910190F08154
:1041E000E02D642F09940C949F209A01AB0160E0AC
:1041F00070E00C94E820CF92DF92EF92FF920F9341
:104200001F93CF93DF932115310581F4DC01ED91EC
:10421000FC910190F081E02D642FDF91CF911F91EF
:104220000F91FF90EF90DF90CF9009942A303105E5
:1042300001F577FF1DC06A017B01EC016DE20E9470
:1042400098208C0144275527BA014C195D096E0945
:104250007F092AE0CE010E949F20800F911FDF91ED
:10426000CF911F910F91FF90EF90DF90CF90089525
:104270002AE0DF91CF911F910F91FF90EF90DF9097
:10428000CF900C949F209A01AB01770F660B770BB0
:104290000C94FB207F928F929F92AF92BF92CF920D
:1042A000DF92EF92FF920F931F93CF93DF938C01D6
:1042B0006A017B01722E9A01AB01C701B6010E940F
:1042C000F22B882319F06BE373E027C046015701F6
:1042D000E894B7F82FEF3FEF4FE75FE7C501B40170
:1042E0000E94F22B81110DC02FEF3FEF4FE75FE7E8
:1042F000C501B4010E94741B18161CF46FE373E02F
:104300000CC02FEF3FEF4FE75FE4C701B6010E94FB
:10431000D31C181694F463E473E0C801DF91CF91C5
:104320001F910F91FF90EF90DF90CF90BF90AF90D3
:104330009F908F907F900C9473202FEF3FEF4FE76B
:104340005FECC701B6010E94741B87FDE4CF20E03B
:1043500030E0A901C701B6010E94741B87FF0AC0A3
:104360006DE2C8010E949820EC01F7FAF094F7F88A
:10437000F09402C0C0E0D0E0B12C60E070E080E0DA
:104380009FE37B1441F020E030E040E251E40E94E2
:10439000791BB394F6CFA70196010E94081B6B010D
:1043A0007C010E94F21B4B015C012AE0AB01BC01C5
:1043B000C8010E949F20C80FD91F7720B9F1C501FD
:1043C000B4010E94211C9B01AC01C701B6010E94EF
:1043D000071B6B017C016EE2C8010E949820C80F88
:1043E000D91F20E030E040E251E4C701B6010E944D
:1043F000D81C4B015C010E94F21B6B017C014AE05E
:1044000050E0C8010E94F520C80FD91FB60180E016
:1044100090E00E94211C9B01AC01C501B4010E94E7
:10442000071B6B017C017A947110DBCFCE01DF9109
:10443000CF911F910F91FF90EF90DF90CF90BF90A1
:10444000AF909F908F907F9008950C944A21615077
:1044500030F02091F100FC0120830196F8CF2898DC
:1044600084E68093FA0608954091F5065091F60689
:104470002091F3063091F40642175307B4F490915B
:10448000E8009570E1F39091E80092FD19C08093E7
:10449000F1008091F5069091F60601968F739927A9
:1044A000892B19F48EEF8093E8008091F5069091A6
:1044B000F60601969093F6068093F50681E008953E
:1044C00080E00895DF92EF92FF920F931F93CF93B6
:1044D000DF93D82EF92EE42E062F10E0C8010196A6
:1044E000880F0E94342283E00E943422CD2DDF2DDC
:1044F0000C0F1D1FC017D10789F0E7FE03C0FE0196
:10450000849101C088810E943422F82E80E00E94AC
:1045100034228F2121968111EDCF01C081E0DF91FE
:10452000CF911F910F91FF90EF90DF9008958091B0
:10453000D70081608093D70080EA8093D80089B546
:10454000806189BD89B5826089BD09B400FEFDCF57
:1045500061E070E080E090E00E94EF278091D80059
:104560008F7C80618093D8008091E000807F809371
:10457000E0000895CF93DF931F92CDB7DEB7198285
:10458000CE0101960E94B31D0E94DE2BBE016F5F1B
:104590007F4F0E94592B89810F90DF91CF91089511
:1045A0002FB7FC012083F89467706093E9000895A9
:1045B000CF93DF931F92CDB7DEB7682FCE01019660
:1045C0000E94D0228091F20099819FBF0F90DF91CD
:1045D000CF910895EF92FF920F931F93CF93DF93A4
:1045E0001F92CDB7DEB79091F906992311F057FFCE
:1045F00003C08FEF9FEF29C08A017B01682FCE0196
:1046000001960E94D0222091F20030E00217130799
:104610000CF49801822FF70194E6815038F0289825
:104620009093FA064091F1004193F7CF211531059F
:1046300021F08091F200882321F089818FBFC90188
:1046400004C08BE68093E800F8CF0F90DF91CF9104
:104650001F910F91FF90EF900895CF93DF931F92DA
:10466000CDB7DEB741E050E0BE016F5F7F4F0E94E3
:10467000EA22019719F4898190E002C08FEF9FEF41
:104680000F90DF91CF910895CF93DF931F92CDB715
:10469000DEB7682FCE0101960E94D0229091E800EB
:1046A000892F807295FF04C09091F20080E4891BED
:1046B00099819FBF0F90DF91CF9108955F926F9284
:1046C0007F928F929F92AF92BF92CF92DF92EF92A2
:1046D000FF920F931F93CF93DF931F92CDB7DEB757
:1046E000982E6B01B42E052F8091F906811103C01D
:1046F0008FEF9FEF77C08091F70680FF05C0809114
:10470000E00082608093E000EB2CF02EA12C8AEF79
:10471000882E892D8072682E892D8074582E9AE3F8
:10472000792EE114F10419F4AA2009F455C0892D59
:104730000E944423182F81110AC08A948820C1F254
:1047400061E070E080E090E00E94EF27EACF90E027
:10475000E816F9060CF41E2D692DCE0101960E9473
:10476000D0228091E80085FF34C0812F90E0E81AC4
:10477000F90A662029F01150A0F01092F100FBCF49
:10478000F60197FE0AC0115050F024912093F100D9
:104790003196F9CF21912093F1001150D8F7C80E2E
:1047A000D91EAA2019F07092E8000BC08091E80091
:1047B00085FD09C07092E800AA24A394E114F104D5
:1047C00041F0A12C06C0E114F10419F451107092CB
:1047D000E80089818FBFA5CF5D9884E68093FB06B2
:1047E0008B2D902F0F90DF91CF911F910F91FF9004
:1047F000EF90DF90CF90BF90AF909F908F907F9081
:104800006F905F9008951092E9001092F606109252
:10481000F5069093F4068093F3060895DF92EF92E5
:10482000FF920F931F93CF93DF93D82E8A017B01C2
:10483000E40EF51EEB01CE15DF0571F0D7FE03C0C7
:10484000FE01849101C088810E9434222196811149
:10485000F2CF8FEF9FEF01C0C801DF91CF911F9181
:104860000F91FF90EF90DF900895AF92BF92DF928B
:10487000EF92FF920F931F93CF93DF935C018B0115
:10488000EB019BEFD92E2097C1F07E01C134D105F9
:104890001CF080E4E82EF12C8091E80082FFFCCF30
:1048A000C8018C1B9D0B6E2D8A0D9B1D0E9427221B
:1048B000D092E800CE19DF09E6CFC801DF91CF9191
:1048C0001F910F91FF90EF90DF90BF90AF900895F0
:1048D0001F920F920FB60F921124CF92DF92EF9298
:1048E000FF920F931F932F933F934F935F936F9379
:1048F0007F938F939F93AF93BF93EF93FF93CF9348
:10490000DF93CDB7DEB76C97DEBFCDBF1092E90065
:104910008091E80083FF17C168E0CE0145960E94B0
:10492000272282EF8093E8008D8987FF05C0909150
:10493000E80090FFFCCF03C09EEF9093E800982F13
:10494000907609F0D8C09E894F89588D2F89188D8F
:1049500091110CC0803829F48091F8068093F10001
:1049600002C01092F1001092F100E6C0913051F4B3
:104970008111E2C04130510509F0DEC08091F80696
:104980008D7F0BC0933061F48111D6C04130510549
:1049900009F0D2C08091F80682608093F806CCC0FE
:1049A000953049F48091E80080FFFCCF822F806829
:1049B0008093E300C1C0963009F070C0EB8CFC8C92
:1049C000123069F580E090E00E9403240E94BA2230
:1049D00099E09E012F5F3F4F6901F901292F119244
:1049E0002A95E9F799831A8391E09E8390EA988744
:1049F0009AEF99872091F5063091F606275F3F4F91
:104A00003C832B838D83C7010E94032449E050E03F
:104A1000B60180E00E940E240E94BA228DC0C70118
:104A20000E9403240E94DE2BBE016B5E7F4F0E941A
:104A3000822B009719F00CF07FC082C0113009F46E
:104A400070C0133009F07CC08F89882309F46CC0D2
:104A5000823029F440E860E188E491E006C08130CA
:104A600039F440E86BE08CE391E00E94622256C08A
:104A7000833009F065C00E94DE2B8E010F5F1F4F4F
:104A8000B8010E94A12BF80101900020E9F73197AD
:104A9000BF01601B710B40E0C801E7CF973009F4FC
:104AA0004FC0983021F481E08093F10045C09930E7
:104AB00009F042C0837009F043C0E5E2F1E081E013
:104AC00031E096E32081211109C08EE78093EA004E
:104AD0001092EA008F898093F9062EC08093E90036
:104AE0003093EB0021912093EC009093ED008F5FC9
:104AF000873041F7EACF8B8D9C8D0E940324898DEE
:104B0000811105C0CE0145960E94BE1D07C00E94BE
:104B1000DE2BBE016B5E7F4F0E94C02B882381F08D
:104B20000BC06AE271E002C069E571E0FB014491EB
:104B300050E080E80E940E248EEF8093E80003C0CE
:104B400081E28093EB006C960FB6F894DEBF0FBE47
:104B5000CDBFDF91CF91FF91EF91BF91AF919F9129
:104B60008F917F916F915F914F913F912F911F9105
:104B70000F91FF90EF90DF90CF900F900FBE0F90AE
:104B80001F9018958093E9008091F200882319F016
:104B90008AE38093E80008951F920F920FB60F9258
:104BA00011242F933F934F935F936F937F938F9332
:104BB0009F93AF93BF93CF93EF93FF93C091E10087
:104BC0008091E100837F8093E100C3FF0FC01092CA
:104BD000E90081E08093EB001092EC0082E3809387
:104BE000ED001092F90688E08093F000C2FF19C032
:104BF00083E00E94C2258091FB06882339F08091D2
:104C0000FB0681508093FB06882389F18091FA0688
:104C1000882339F08091FA0681508093FA06882320
:104C200041F1C4FF10C08091E2008E7E81608093CC
:104C3000E2008091E1008F7E8093E1008091F70691
:104C40008E7E806111C0C0FF16C08091E2008E7E12
:104C500080618093E2008091E1008E7E8093E1008C
:104C60008091F7068E7E81608093F70604C05D9A7E
:104C7000CDCF289AD6CFFF91EF91CF91BF91AF9131
:104C80009F918F917F916F915F914F913F912F9164
:104C90000F900FBE0F901F9018951092F90610926A
:104CA000F8061092F7060E949722E1EEF0E080816C
:104CB0008E7E80838DE08093E200559A209A08953D
:104CC0000895853008F04CC0E82FF0E0EE0FFF1F8C
:104CD000E55DFE4F718360838230E1F018F481302E
:104CE00069F004C0833019F1843071F1809169005A
:104CF0008C7F482B40936900E89A08958091690061
:104D0000837F440F551F440F551F482B4093690064
:104D1000E99A0895809169008F7C34E0440F551F13
:104D20003A95E1F7482B40936900EA9A08958091FB
:104D300069008F7326E0440F551F2A95E1F7482B31
:104D400040936900EB9A089580916A008F7C94E00B
:104D5000440F551F9A95E1F7482B40936A00EE9A4D
:104D600008951F920F920FB60F9211242F933F9325
:104D70004F935F936F937F938F939F93AF93BF9363
:104D8000EF93FF93E0912B01F0912C010995FF9196
:104D9000EF91BF91AF919F918F917F916F915F91B3
:104DA0004F913F912F910F900FBE0F901F9018952C
:104DB0001F920F920FB60F9211242F933F934F9390
:104DC0005F936F937F938F939F93AF93BF93EF9373
:104DD000FF93E0912D01F0912E010995FF91EF9144
:104DE000BF91AF919F918F917F916F915F914F9103
:104DF0003F912F910F900FBE0F901F9018951F920B
:104E00000F920FB60F9211242F933F934F935F93FE
:104E10006F937F938F939F93AF93BF93EF93FF9382
:104E2000E0912F01F09130010995FF91EF91BF9131
:104E3000AF919F918F917F916F915F914F913F9132
:104E40002F910F900FBE0F901F9018951F920F92E9
:104E50000FB60F9211242F933F934F935F936F934D
:104E60007F938F939F93AF93BF93EF93FF93E091C3
:104E70003101F09132010995FF91EF91BF91AF910E
:104E80009F918F917F916F915F914F913F912F9162
:104E90000F900FBE0F901F9018951F920F920FB694
:104EA0000F9211242F933F934F935F936F937F93B0
:104EB0008F939F93AF93BF93EF93FF93E091330151
:104EC000F09134010995FF91EF91BF91AF919F91BE
:104ED0008F917F916F915F914F913F912F910F90A3
:104EE0000FBE0F901F9018951F920F920FB60F9242
:104EF00011242F933F938F939F93AF93BF938091F0
:104F0000FD069091FE06A091FF06B091000730913A
:104F1000FC0623E0230F2D3720F40196A11DB11DBF
:104F200005C026E8230F0296A11DB11D2093FC06A3
:104F30008093FD069093FE06A093FF06B0930007B2
:104F40008091010790910207A0910307B091040797
:104F50000196A11DB11D8093010790930207A093B4
:104F60000307B0930407BF91AF919F918F913F9139
:104F70002F910F900FBE0F901F9018952FB7F89498
:104F80006091FD067091FE068091FF0690910007EA
:104F90002FBF08953FB7F8948091010790910207C1
:104FA000A0910307B091040726B5A89B05C02F3F29
:104FB00019F00196A11DB11D3FBFBA2FA92F982F3F
:104FC0008827820F911DA11DB11DBC01CD0142E0BA
:104FD000660F771F881F991F4A95D1F708958F9202
:104FE0009F92AF92BF92CF92DF92EF92FF926B01AE
:104FF0007C010E94CA274B015C01C114D104E10469
:10500000F10401F10E94582B0E94CA27DC01CB0158
:1050100088199909AA09BB09883E9340A105B105E1
:1050200060F321E0C21AD108E108F10888EE880E89
:1050300083E0981EA11CB11CC114D104E104F10449
:1050400019F7DBCFFF90EF90DF90CF90BF90AF903C
:105050009F908F9008958230910538F0880F991FA6
:10506000880F991F05970197F1F70895789484B5F3
:10507000826084BD84B5816084BD85B5826085BD54
:1050800085B5816085BDEEE6F0E08081816080833A
:10509000E1E8F0E01082808182608083808181601D
:1050A0008083E0E8F0E0808181608083E1E9F0E0E6
:1050B000808182608083808181608083E0E9F0E08C
:1050C000808181608083E1ECF0E080818460808376
:1050D000808182608083808181608083E3ECF0E066
:1050E000808181608083E0ECF0E080818260808359
:1050F000E2ECF0E0808181608083EAE7F0E080818B
:1051000084608083808182608083808181608083ED
:105110008081806880830895823108F08251E82F71
:10512000F0E0E35AFE4FE49180917B00E3FB2227FD
:1051300020F930E095E0220F331F9A95E1F78F7D3B
:10514000282B20937B008091350120E4829FC001B1
:105150001124E770E82BE0937C0080917A00806452
:1051600080937A0080917A0086FDFCCF8091780050
:105170002091790090E0922B08951F93CF93DF93B5
:10518000182FEB0161E00E949229209711F460E052
:1051900004C0CF3FD10539F461E0812FDF91CF9179
:1051A0001F910C94CE29E12FF0E0E759FE4FE491D6
:1051B0008E2F90E0FC013197EF30F10508F06CC0C4
:1051C000EA5AFF4F0C944C2C84B5806884BDC7BD4F
:1051D00068C084B5806284BDC8BD63C08091800012
:1051E000806880938000D0938900C093880059C064
:1051F00080918000806280938000D0938B00C09368
:105200008A004FC080918000886080938000D09396
:105210008D00C0938C0045C0809190008068809381
:105220009000D0939900C09398003BC0809190006B
:10523000806280939000D0939B00C0939A0031C00D
:1052400080919000886080939000D0939D00C093DF
:105250009C0027C08091C00080688093C00080912E
:10526000C0008F7B8093C000C093CF001AC0809194
:10527000C00080628093C000C093D00012C08091B3
:10528000C20088608093C2008091C2008B7F8093AF
:10529000C200C093D20005C0C038D1050CF07CCF4D
:1052A00076CFDF91CF911F91089590E0FC01319767
:1052B000EF30F105B0F5EB59FF4F0C944C2C809179
:1052C00080008F7703C0809180008F7D8093800065
:1052D000089580918000877FF9CF84B58F7702C0D1
:1052E00084B58F7D84BD0895809190008F7707C02D
:1052F000809190008F7D03C080919000877F809384
:10530000900008958091C0008F7703C08091C00005
:105310008F7D8093C00008958091C200877F809325
:10532000C2000895CF93DF9390E0FC01E857FE4F51
:105330002491FC01E955FE4F8491882361F190E0AE
:10534000880F991FFC01EE51FE4FC591D491FC01CD
:10535000EC52FE4FA591B491611109C09FB7F8942A
:105360008881209582238883EC912E230BC06230A4
:1053700061F49FB7F8948881322F30958323888316
:10538000EC912E2B2C939FBF06C08FB7F894E88129
:105390002E2B28838FBFDF91CF9108951F93CF933A
:1053A000DF93282F30E0F901E759FE4F8491F9018E
:1053B000E857FE4FD491F901E955FE4FC491CC2333
:1053C000C1F0162F81110E945529EC2FF0E0EE0F4D
:1053D000FF1FEC52FE4FA591B4919FB7F8941111A5
:1053E00004C08C91D095D82302C0EC91DE2BDC93C5
:1053F0009FBFDF91CF911F910895CF93DF93282F07
:1054000030E0F901E759FE4F8491F901E857FE4F6A
:10541000D491F901E955FE4FC491CC2391F081114B
:105420000E945529EC2FF0E0EE0FFF1FEA53FE4FCC
:10543000A591B491EC91ED2381E090E021F480E01E
:1054400002C080E090E0DF91CF9108950895FC01C3
:10545000808191810C94FE2CCF93DF93EC018881A5
:105460009981009711F00E94FE2C198218821D82EA
:105470001C821B821A82DF91CF9108950F931F9394
:10548000CF93DF93EC018B016F5F7F4F8881998110
:105490000E94872D009731F0998388831B830A83AC
:1054A00081E001C080E0DF91CF911F910F910895BD
:1054B000CF93DF93EC0188819981892B29F08A8130
:1054C0009B818617970760F4CE010E943E2A8823AD
:1054D00041F08C819D81892B19F4E881F98110823A
:1054E00081E0DF91CF910895EF92FF920F931F9388
:1054F000CF93DF93EC017B018A01BA010E94582A05
:10550000811104C0CE010E942C2A07C01D830C8388
:10551000B701888199810E94822ECE01DF91CF91BF
:105520001F910F91FF90EF900895FC01118210825E
:1055300013821282158214826115710551F0FB01EC
:1055400001900020E9F73197AF01461B570B0C94EF
:10555000742A08950F931F93CF93DF938C01EB016F
:10556000FC01808191810097D1F06881798161157A
:10557000710599F026E23AE2232B79F042815381BA
:105580002C813D814217530740F00E94822E8C816E
:105590009D81F8019583848313C00E94FE2C88812D
:1055A0009981F801918380838A819B81938382838F
:1055B0008C819D8195838483198218821B821A8233
:1055C0001D821C82DF91CF911F910F910895CF937F
:1055D000DF93EC016817790711F00E94AA2ACE0127
:1055E000DF91CF910895CF93DF93EC0161157105A1
:1055F00059F0FB0101900020E9F73197AF01461BFC
:10560000570B0E94742A02C00E942C2ACE01DF91FF
:10561000CF9108950F931F93CF93DF93CDB7DEB74C
:10562000A2970FB6F894DEBF0FBECDBF8C01CB01A1
:10563000BA01F8011182108213821282158214823B
:1056400030E0AE014F5F5F4F0E94A32EBE016F5F3F
:105650007F4FC8010E94F32AA2960FB6F894DEBFCE
:105660000FBECDBFDF91CF911F910F910895CF93C2
:10567000DF93FC01248135814217530780F4FB013D
:10568000DC01CD91DC9160817181CE01840F951F89
:105690000E94892E009719F08C1B9D0B02C08FEF82
:1056A0009FEFDF91CF91089540E050E00C94372BAD
:1056B0000895EF92FF920F931F93CF93DF937B0197
:1056C000FC01C281D38100E010E0209781F0E881E5
:1056D000F9810280F381E02DB701CE01099597FD94
:1056E00008C0080F191F0884D985C02DEECFC80146
:1056F00002C08FEF9FEFDF91CF911F910F91FF902D
:10570000EF9008950F931F93CF93DF938B01FC01CC
:10571000C281D381209771F0E881F9810480F581FD
:10572000E02DB801CE010995009731F40884D985A0
:10573000C02DF0CF80E090E0DF91CF911F910F91CD
:1057400008950F931F93CF93DF938B01FC01C281C8
:10575000D381209771F0E881F9810680F781E02DEF
:10576000B801CE010995080F111D0884D985C02DF7
:10577000F0CFF8011082DF91CF911F910F91089522
:105780000F931F93CF93DF938B01FC01C281D381D1
:10579000209771F0E881F9810190F081E02DB80146
:1057A000CE010995811105C00884D985C02DF0CF9F
:1057B00080E0DF91CF911F910F91089580910907AB
:1057C00081110DC082E08093050784E08093060775
:1057D000109208071092070781E08093090785E07F
:1057E00097E008950E945E1C880B990B089597FB23
:1057F000072E16F4009407D077FD09D00E94522C92
:1058000007FC05D03EF4909581959F4F08957095C3
:1058100061957F4F0895A1E21A2EAA1BBB1BFD01C3
:105820000DC0AA1FBB1FEE1FFF1FA217B307E4077F
:10583000F50720F0A21BB30BE40BF50B661F771FD7
:10584000881F991F1A9469F76095709580959095B7
:105850009B01AC01BD01CF010895052E97FB1EF4FD
:1058600000940E94442C57FD07D00E940B2C07FC8B
:1058700003D04EF40C94442C5095409530952195CE
:105880003F4F4F4F5F4F089590958095709561956C
:105890007F4F8F4F9F4F0895EE0FFF1F0590F4919C
:1058A000E02D0994AA1BBB1B51E107C0AA1FBB1F17
:1058B000A617B70710F0A61BB70B881F991F5A959C
:1058C000A9F780959095BC01CD0108950F931F9382
:1058D000CF93DF938230910510F482E090E0E09165
:1058E0001307F091140720E030E0A0E0B0E030971B
:1058F00019F1408151810281138148175907C8F07D
:105900008417950769F4109731F012960C9312974B
:1059100013961C9327C0009313071093140722C0FB
:105920002115310519F04217530718F49A01BD01EA
:10593000EF01DF01F801DBCF21153105F9F0281B5C
:10594000390B2430310580F48A819B816115710502
:1059500021F0FB019383828304C09093140780930A
:105960001307FE01329644C0FE01E20FF31F81933C
:10597000919322503109398328833AC0209111072D
:1059800030911207232B41F4209102013091030141
:1059900030931207209311072091000130910101EB
:1059A0002115310541F42DB73EB7409104015091C6
:1059B0000501241B350BE0911107F0911207E21746
:1059C000F307A0F42E1B3F0B2817390778F0AC0122
:1059D0004E5F5F4F2417350748F04E0F5F1F5093FF
:1059E0001207409311078193919302C0E0E0F0E029
:1059F000CF01DF91CF911F910F910895CF93DF9346
:105A0000009709F481C0FC01329713821282A091A1
:105A10001307B0911407109781F420813181820F10
:105A2000931F20911107309112072817390751F55C
:105A3000F0931207E093110767C0ED0120E030E01A
:105A4000CE17DF0740F44A815B819E014115510565
:105A5000F1F0EA01F5CFD383C28340815181840FF5
:105A6000951FC817D90759F488819981840F951F0C
:105A70000296918380838A819B81938382832115FF
:105A8000310529F4F0931407E09313073DC0E901B1
:105A9000FB83EA8349915991C40FD51FEC17FD0789
:105AA00061F480819181840F951F0296E9019983A9
:105AB0008883828193819B838A83E0E0F0E0129661
:105AC0008D919C911397009719F0FD01DC01F7CFA0
:105AD0008D919C9111979D012E5F3F4F820F931FD7
