S01D000050726F6A656B746172626569745F434F435F4252412E7372656349
S11300000C94EE000C9416010C9416010C94160139
S11300100C9416010C9416010C9416010C94160100
S11300200C9416010C9416010C9401170C949D1554
S11300300C9416010C9416010C9416010C941601E0
S11300400C9416010C9416010C9416010C941601D0
S11300500C9416010C9416010C9416010C9495172B
S11300600C9416010C9416010C9416010C941601B0
S11300700C9416010C9416010C9416010C941601A0
S11300800C9416010C9416010C9416010C94160190
S11300900C943A0D0C9416010C9416010C94160150
S11300A00C9416010C9416010C941601EB18EE181E
S11300B0DD18E118E7180F190F190F19F218F618BF
S11300C0FA18001904190F190A190012010002EF95
S11300D002014041233680000101020301417264A0
S11300E075696E6F204C4C430041726475696E6F84
S11300F0204C656F6E6172646F0004030904070687
S113010005040100080A0B0C0D0900000002000997
S11301100F0000030401000C0000000000000000B8
S113012000000000000000000004080201104080EC
S113013040102040804080080204018040201002CA
S1130140011080102040402004040404040304052A
S11301500202020204030202020206060606060660
S11301600404020202040400000000230026002903
S1130170002C002F0000000000250028002B002E7A
S113018000310000000000240027002A002D003068
S113019000080B000202020100090400000102022F
S11301A000000524001001052401010104240206B5
S11301B0052406000107058103100040090401001D
S11301C0020A00000007050202400000070583023E
S11301D0400000005505CE0F2C1B660611241FBEDF
S11301E0CFEFDAE0DEBFCDBF12E0A0E0B1E0E0E3A4
S11301F0FEE302C005900D92A638B107D9F724E0BA
S1130200A6E8B2E001C01D92AD3DB207E1F710E0EF
S1130210CDEED0E004C02197FE010E94B71CCA3E77
S1130220D107C9F70E946B110C940B1F0C940000AA
S113023080E00E94A2188D3F23E0920720F1809174
S1130240860290918702019690938702809386029A
S113025003970CF46AC0E6E8F2E020E030E080E0C6
S113026090E040815181443051052CF0C901493C52
S113027051050CF00596119211922F5F3F4F2630D5
S1130280310579F708958934910570F480918802D5
S11302909091890281152DE792074CF40196909371
S11302A089028093880241C08E3E910570F480914A
S11302B08A0290918B0281152DE7920754F40196DE
S11302C090938B0280938A0230C0823A21E0920795
S11302D070F480918C0290918D0281152DE7920724
S11302E04CF4019690938D0280938C021EC080374B
S11302F0924070F480918E0290918F0281152DE7C7
S1130300920734F4019690938F0280938E020DC06D
S1130310809190029091910281152DE792072CF41F
S11303200196909391028093900280E090E008956A
S113033080E090E0089508958DEF9FEF08959091E7
S1130340C50281E089278093C50280E090E008958A
S11303509091C40281E089278093C40280E090E0F8
S113036008950F931F93CF93DF93182FD0E0C0E22B
S11303706C2F83E194E00E94470F83E194E00E9494
S1130380CB0F082F61E070E080E090E00E9410182D
S1130390011103C01D17F9F0DF5FCF5FC83241F7C9
S11303A0C8E36C2F83E194E00E94470F83E194E05B
S11303B00E94CB0F082F61E070E080E090E00E9483
S11303C01018011103C01D1731F0DF5FCF5FC03477
S11303D041F780E001C08C2FDF91CF911F910F91E5
S11303E00895DC01ED91FC910190F081E02D0994D8
S11303F0FC018481958101962CE330E0B9010E94CF
S1130400811C95838483892B19F080E090E0089502
S1130410828193810196B9010E94811C9383828316
S1130420892B99F780819181019668E170E00E949F
S1130430811CAC019183808321E090E0452B09F07D
S113044020E0822F08950F931F930E94DF170091DD
S11304500601109107012091080130910901061746
S1130460170728073907E0F4D901C80188519C4FC0
S1130470AF4FBF4F8093060190930701A0930801EB
S1130480B09309018CEB92E00E94F80184EB92E0B6
S11304900E94F8018CEA92E01F910F910C94F801EC
S11304A01F910F9108950F931F93CF93DF938C01A6
S11304B08091C402F801C081D181882389F0CD30B4
S11304C0D1050CF02C97CA30D10534F46FE171E0FA
S11304D088E793E00E94CB114AE050E0BE010DC0D2
S11304E02A9734F46FE171E088E793E00E94CB111E
S11304F0F801608171814AE050E088E793E00E944E
S11305007812F801828193810A971CF46EE171E0FC
S113051002C061E271E088E793E00E94CB11F80128
S1130520628173814AE050E088E793E00E94781288
S1130530F801848195810A971CF46EE171E002C090
S113054061E271E088E793E00E94CB11F8016481D5
S113055075814AE050E088E793E00E947812809128
S1130560C402882391F0F801808191810D971CF0D9
S113057063E271E002C067E271E088E793E0DF9133
S1130580CF911F910F910C94CB11DF91CF911F91BB
S11305900F910895CF92DF92EF92FF9241E060E0D5
S11305A088E793E00E941B0BC090C602D090C7025C
S11305B0E090C802F090C90220E030E048EC52E438
S11305C0C701B6010E94D21018161CF46BE271E048
S11305D015C022E030E0B701A60188E793E00E944D
S11305E05A1369E371E088E793E00E94CB116FED41
S11305F088E793E00E94CD116BE371E088E793E014
S1130600FF90EF90DF90CF900C94CB110F931F933A
S1130610CF93DF93EC010E94DF170091CA0210917F
S1130620CB022091CC023091CD0206171707280780
S1130630390778F586E10E94A218BC01990F880B4E
S1130640990B0E94461020E030E04AEF53E40E94E8
S1130650D71020E030EC4FE754E40E94D20F6093AF
S1130660C6027093C7028093C8029093C9020E9485
S1130670CA020E94DF17DC01CB0188579C4EAF4FA2
S1130680BF4F8093CA029093CB02A093CC02B09345
S1130690CD020E94CA0240E060E088E793E00E9435
S11306A01B0B8091C5028823D9F084EB92E00E9451
S11306B0530240E06DE088E793E00E941B0B8091B9
S11306C0CE029091CF022EE0289FB001299F700D99
S11306D0112468527D4F88E793E00E94BD1104C045
S11306E08CEA92E00E945302CE01DF91CF911F91D8
S11306F00F9108958091CE029091CF022EE0289F11
S1130700F001299FF00D1124E053FD4F268137811C
S11307108091BC029091BD02820F931F8831910594
S11307200CF048979093B5028093B4022091B402E0
S11307303091B50237FF08C088E190E0821B930B2B
S11307409093B5028093B40208958330910539F0F3
S11307508A30910521F08130910551F517C088E761
S113076093E00E94150B8091CE029091CF020097E6
S113077019F48BE090E001C001979093CF0280932D
S1130780CE020E947A038AE090E0089588E793E01D
S11307900E94150B8091CE029091CF028B3091056F
S11307A029F41092CF021092CE02EBCF0196E5CF3E
S11307B00895CF93DF930E94A503EC0140E060E02D
S11307C088E793E00E941B0B8091CE029091CF02A8
S11307D02EE0289FB001299F700D112460537D4F96
S11307E088E793E00E94BD1141E060E088E793E070
S11307F00E941B0B84EB92E00E945302CE01DF9116
S1130800CF91089588E793E00E94150B6DE371E0A2
S113081088E793E00E94CB1160ED77E080E090E000
S11308200E94101888E793E00C94150B20E042E036
S113083060E188E793E00E94410B88E793E00E941F
S1130840D60A88E793E00E94DB0B88E793E00E94D6
S1130850180B60E571E088E793E00E94CB1141E05A
S113086060E088E793E00E941B0B61E671E088E793
S113087093E00E94CB110E94DF17683B7B40810507
S11308809105C8F388E793E00E94150B88E0ECEB30
S1130890F2E0A4EBB2E001900D928A95E1F760E0FA
S11308A087E00E94101960E086E10C94101987E03B
S11308B00E947B19019711F40C9402040E942302F4
S11308C00E9418019093A7028093A6022091AA0285
S11308D03091AB0242E1429FF001439FF00D11249D
S11308E0E85EFD4F0484F585E02D309729F00995E5
S11308F09093A7028093A6028091A6029091A702EA
S113090083309105E9F134F48130910579F002974F
S113091021F109C08530910509F46AC00CF443C083
S1130920069709F48AC08FEF9FEF12C088E793E01F
S11309300E94150B8091AA029091AB0222E1289F9C
S1130940F001299FF00D1124E85EFD4F828193810F
S11309509093A9028093A80280C088E793E00E9444
S1130960150B8091AA029091AB0222E1289FF0011D
S1130970299FF00D1124E85EFD4F84819581E8CF15
S113098088E793E00E94150B8091AA029091AB0234
S113099022E1289FF001299FF00D1124E85EFD4F0C
S11309A086819781D5CF88E793E00E94150B8091CB
S11309B0AA029091AB0222E1289FF001299FF00D39
S11309C01124E85EFD4F0684F785E02D309709F089
S11309D009958091AA029091AB0222E1289FF0012F
S11309E0299FF00D1124E85EFD4F80859185B0CFDD
S11309F088E793E00E94150B8091AA029091AB02C4
S1130A0022E1289FF001299FF00D1124E85EFD4F9B
S1130A100088F189E02D309709F009958091AA02A8
S1130A209091AB0222E1289FF001299FF00D11243F
S1130A30E85EFD4F828593858BCF88E793E00E9423
S1130A40150B88E793E00E94DB0B88E793E00E9494
S1130A50E20B1092A9021092A8028091A802909130
S1130A60A90297FD21C09093AB028093AA0240E0B3
S1130A7060E088E793E00E941B0B8091AA029091AA
S1130A80AB0222E1289FF001299FF00D1124E85EBA
S1130A90FD4F6081718182E992E00E94BD1EBC011C
S1130AA088E793E00C94CB110895AF92BF92CF9254
S1130AB0DF92EF92FF920F931F93CF93DF9388E718
S1130AC093E00E94A10AE8E7F3E086E092E09183D4
S1130AD0808310A211A26FE671E080ED92E00E9483
S1130AE0121AC0EDD2E01F821E8266E771E088ED23
S1130AF092E00E94121A6AE771E08EED92E00E9481
S1130B00121A8BEFE82EFF24FA94FD8AEC8A63E82C
S1130B1071E086EE92E00E94121A67E871E08CEEB2
S1130B2092E00E94121ACC24C394D12CDBA2CAA254
S1130B306DE871E084EF92E00E94121A61E971E0BD
S1130B408AEF92E00E94121A29E0A22EB12CB9AACF
S1130B50A8AA67E971E082E093E00E94121A6BE9A7
S1130B6071E088E093E00E94121A08E010E01FAFE1
S1130B700EAF64EA71E080E193E00E94121A68EA21
S1130B8071E086E193E00E94121A88EF9FEF909340
S1130B901D0380931C0364EB71E08EE193E00E94DB
S1130BA0121A68EB71E084E293E00E94121A8AEF51
S1130BB09FEF90932B0380932A0360EC71E08CE207
S1130BC093E00E94121A64EC71E082E393E00E94C5
S1130BD0121AB0923903A09238036AEC71E08AE3E6
S1130BE093E00E94121A6EEC71E080E493E00E949C
S1130BF0121AD0924703C092460367ED71E088E46D
S1130C0093E00E94121A6BED71E08EE493E00E946F
S1130C10121AF0925503E092540366EE71E086E5F1
S1130C2093E00E94121A6AEE71E08CE593E00E9450
S1130C30121A109363030093620363EF71E084E676
S1130C4093E00E94121A67EF71E08AE693E00E9433
S1130C50121A8BE090E090937103809370036EEF0F
S1130C6071E082E793E00E94121AECEBF2E085E176
S1130C7090E0918380838FE190E093838283158257
S1130C80148217821682E4EBF2E02CE030E0318328
S1130C902083138212821582148217821682ECEA50
S1130CA0F2E026E130E0318320839383828315824E
S1130CB0148217821682DF91CF911F910F91FF90BA
S1130CC0EF90DF90CF90BF90AF900895CF93DF93D4
S1130CD0C8E7D3E02E97CE0108960E94A419CE014E
S1130CE00E94A41982E0C03DD807A1F7DF91CF91FB
S1130CF00895CF93DF93FC0181A5882371F192A518
S1130D00662319F0913029F402C0911102C083A71F
S1130D1001C013A6EF0160A183E194E00E94470F94
S1130D2089A1823031F469E070E083E194E00E94AB
S1130D30F1016BA583E194E00E94F60E83E194E057
S1130D400E94CB0F21E030E0811102C020E030E0AE
S1130D5088279927821B930B02C08DEF9FEFDF91A9
S1130D60CF910895CF93FC01C3A560FF02C085A174
S1130D70C82B61FF02C086A1C82B62FF02C087A1F5
S1130D80C82B63FF02C080A5C82B413011F482A197
S1130D90C82B64A16C2B70E083E194E00E94F10104
S1130DA06C2F83E194E0CF910C94F60E8F929F9276
S1130DB0AF92BF92CF92DF92EF92FF920F931F9365
S1130DC0CF93DF93EC0188A1882309F450C089A153
S1130DD0882309F44CC0142F062F8C8C9D8CAE8C68
S1130DE0BF8CC88CD98CEA8CFB8C8DE2C81AD108D4
S1130DF0E108F1080E94EB17DC01CB018C199D0975
S1130E00AE09BF0988159905AA05BB0598F368A121
S1130E1083E194E00E94470F89A1823031F469E0B4
S1130E2070E083E194E00E94F101612F70E084E0BE
S1130E30759567958A95E1F7402FCE010E94B20619
S1130E40023031F0612F6F70402FCE010E94B20644
S1130E5083E194E00E94CB0F21E030E0811102C0D5
S1130E6020E030E088279927821B930B02C08CEF87
S1130E709FEFDF91CF911F910F91FF90EF90DF9043
S1130E80CF90BF90AF909F908F9008958F929F9234
S1130E90AF92BF92CF92DF92EF92FF920F931F9384
S1130EA0CF93DF93EC011BA588A1882309F4F6C036
S1130EB089A1882309F4F2C0823009F4F1C08BA11E
S1130EC0882309F4EDC0062F8C8C9D8CAE8CBF8CCE
S1130ED0C88CD98CEA8CFB8C8DE2C81AD108E10845
S1130EE0F1080E94EB17DC01CB018C199D09AE09B6
S1130EF0BF0988159905AA05BB0598F38DA1182B80
S1130F008EA1182B8FA1182B88A5182B013011F452
S1130F108AA1182B8BA1182B68A183E194E00E946D
S1130F20470F612F83E194E00E94F60E83E194E081
S1130F300E94CB0F882319F00FEF1FEF9DC068A10B
S1130F4083E194E00E94470F6CA1612B70E083E180
S1130F5094E00E94F10183E194E00E94CB0F81119F
S1130F60EBCF68A170E041E050E083E194E00E949F
S1130F70C80F83E194E00E946F0E7C0197FDDCCFE3
S1130F8068A183E194E00E94470F612F83E194E01C
S1130F900E94F60E83E194E00E94CB0F8111CCCF26
S1130FA08DA190E08E219F21892B11F400E001C0D6
S1130FB000E18EA190E08E219F21892B09F000622F
S1130FC08FA190E08E219F21892B09F0006488A5D0
S1130FD090E0E822F922EF2809F0006868A183E193
S1130FE094E00E94470F6CA1612B70E083E194E0D0
S1130FF00E94F10183E194E00E94CB0F81119CCF08
S113100068A170E041E050E083E194E00E94C80FE1
S113101083E194E00E946F0E7C0197FD8DCF68A15F
S113102083E194E00E94470F612F83E194E00E94E2
S1131030F60E83E194E00E94CB0F81117DCF8DA148
S113104090E08E219F21892B09F001608EA190E010
S11310508E219F21892B09F002608FA190E08E21BF
S11310609F21892B09F0046088A590E0E822F922E9
S1131070EF2809F0086010E068A183E194E00E9481
S1131080470F6BA583E194E00E94F60E83E194E0A0
S11310900E94CB0F882339F08FEF03C08CEF01C07F
S11310A08DEF9FEF01C0C801DF91CF911F910F9188
S11310B0FF90EF90DF90CF90BF90AF909F908F9074
S11310C008950F931F93CF93DF93EC0168A183E1FD
S11310D094E00E94470F6FEF83E194E00E94F60EC4
S11310E083E194E00E94CB0F68A170E041E050E0FE
S11310F083E194E00E94C80F83E194E00E946F0EA4
S11311008C0168A183E194E00E94470F6BEF83E1B7
S113111094E00E94F60E83E194E00E94CB0F68A154
S113112070E041E050E083E194E00E94C80F83E165
S113113094E00E946F0E9801277033272730310501
S1131140B1F4807F9927803F910589F483E0169557
S113115007958A95E1F781E00827017043E057E09D
S113116066E075E0E4E022E0F1E030E034C0C8017C
S1131170807799278037910509F068C068A183E1D9
S113118094E00E94470F6FEE83E194E00E94F60E14
S113119083E194E00E94CB0F68A170E041E050E04D
S11311A083E194E00E94C80F83E194E00E946F0EF3
S11311B08F7099270F9719F026E034E002C024E0DD
S11311C036E00095001F0027001F47E053E062E06F
S11311D071E0E0E0F5E081E090E0DC0101C0AA0FFD
S11311E03A95EAF7AAA3DC0101C0AA0FFA95EAF737
S11311F0ABA3DC0102C0AA0FBB1F2A95E2F7ACA384
S11312009C0101C0220FEA95EAF72DA39C0101C0BD
S1131210220F7A95EAF72EA39C0101C0220F6A954A
S1131220EAF72FA39C0101C0220F5A95EAF728A7D9
S113123001C0880F4A95EAF789A70AA7013011F47B
S11312408BA701C01BA680E090E002C08DEF9FEF4A
S1131250DF91CF911F910F910895CF93DF93EC010C
S113126068A183E194E00E94470F60E083E194E089
S11312700E94F60E6FEF70E083E194E00E94F101AA
S113128083E194E00E94CB0F68A183E194E00E9483
S1131290470F66E070E083E194E00E94F1016FEF94
S11312A070E083E194E00E94F10183E194E00E9404
S11312B0CB0F68A183E194E00E94470F69E070E0DE
S11312C083E194E00E94F10183E194E00E94CB0F5A
S11312D068A170E041E050E083E194E00E94C80F0F
S11312E083E194E00E946F0E8F3761F086FF12C095
S11312F081FD4CC021E032E043E054E065E076E05B
S1131300E7E00FC027E036E045E054E063E072E038
S1131310E1E007C026E033E042E051E060E077E03E
S1131320E4E081E090E0DC0102C0AA0FBB1FEA9573
S1131330E2F7AAA31BA2FC0101C0EE0F7A95EAF71B
S1131340ECA3FC0102C0EE0FFF1F6A95E2F7EDA3C8
S1131350BC0101C0660F5A95EAF76EA3BC0102C036
S1131360660F771F4A95E2F76FA3AC0101C0440FE3
S11313703A95EAF748A701C0880F2A95EAF789A7A2
S113138091E09AA78BA780E090E002C08DEF9FEFD9
S1131390DF91CF9108951F93CF93DF93EC0183E105
S11313A094E00E94350F68A161110AC08091A403E2
S11313B091E0980F9093A4030E94B10188A30DC0FB
S11313C083E194E00E94470F83E194E00E94CB0FF5
S11313D0882319F08CEF9FEFA7C088A1811109C061
S11313E08091A40391E0980F9093A4030E94B1010B
S11313F088A318A1112371F389A18823C1F168A1DD
S113140083E194E00E94470F89A1823009F076C0FD
S113141065E070E083E194E00E94F10160E270E035
S113142083E194E00E94F10183E194E00E94CB0FF8
S113143068A183E194E00E94470F60E083E194E0B7
S11314400E94F60E60E083E194E00E94F60E83E1D0
S113145094E00E94CB0F68A183E194E00E94470FBF
S113146069E070E083E194E00E94F10147C0612FDC
S113147083E194E00E94470F60E083E194E00E94DE
S1131480F60E6FEF83E194E00E94F60E83E194E0A0
S11314900E94CB0F612F83E194E00E94470F60E02C
S11314A083E194E00E94F60E83E194E00E94CB0F66
S11314B0612F70E041E050E083E194E00E94C80FA6
S11314C083E194E00E946F0E9C018F3F910529F007
S11314D091E0232B19F090E001C092E099A39923A5
S11314E009F1913021F4CE010E94610803C0CE01BC
S11314F00E942D09009709F482CF16C060E083E1B1
S113150094E00E94F60E83E194E00E94CB0F21E068
S113151030E0811102C020E030E088279927821B47
S1131520930B02C08FEF9FEFDF91CF911F9108952E
S113153080E090E008958DEF9FEF08958DEF9FEF89
S11315400895CF93DF93EC011B821A8280E492E02A
S1131550998388831F82188680ED97E0A0E0B0E02D
S1131560888B998BAA8BBB8B86E290E0A0E0B0E0DD
S11315708C8B9D8BAE8BBF8B1C861D861E861F8617
S11315801B860E94EB17688F798F8A8F9B8F1C8E26
S11315901D8E1E8E1F8EDF91CF910895DC01ED917B
S11315A0FC910684F785E02D6FEF0994DC01ED9141
S11315B0FC910684F785E02D60E009948F929F9258
S11315C0AF92BF92EF92FF921F93CF93DF93EC0100
S11315D0162FE881F9810484F585E02D462F60E01B
S11315E009957C011150123038F419861A868888BE
S11315F09988AA88BB8804C08C889D88AE88BF88D7
S11316000E94EB17688F798F8A8F9B8F8C8E9D8EAB
S1131610AE8EBF8EC701DF91CF911F91FF90EF90E7
S1131620BF90AF909F908F90089561E00C94DE0A74
S113163062E00C94DE0AFC018085481710F04FEF3D
S1131640480F9385992359F09781691730F0691BE6
S11316504F5F4817D0F340E0F8CF61874287DF013E
S1131660A40FB11D1C968C91680F6068CF010C9477
S1131670DE0AFC016581262F246025836C600C94AE
S1131680DE0A0F931F93CF93DF93EC01022F142FE5
S1131690453008F014E08C85811109C08D858111D5
S11316A006C08E85811103C08F85882329F08F8120
S11316B0882359F0861749F01C8680E48D876E874D
S11316C0862F90E0805C9F4F8F8718876F8364E636
S11316D070E080E090E00E9410181C82E881F9819B
S11316E00084F185E02DCE010995009709F05EC0D4
S11316F08885823018F08C8188608C83002329F0DF
S1131700113019F48C8184608C83E881F98104841C
S1131710F585E02D40E362E0CE01099565E070E0D7
S113172080E090E00E941018E881F9810484F58536
S1131730E02D40E362E0CE01099561E070E080E0D5
S113174090E00E941018E881F9810484F585E02D69
S113175040E362E0CE01099561E070E080E090E052
S11317600E9410188C8184FD09C0E881F9810484E9
S1131770F585E02D40E262E0CE0109956C8160625E
S1131780CE010E94DE0A84E08D83CE010E94390BD3
S1131790CE010E94150B82E08E8366E0CE010E948A
S11317A0DE0A8C01CE010E94CE0AC801DF91CF91DE
S11317B01F910F910895FC0165816D7F65836860B9
S11317C00C94DE0AFC0165816E7F658368600C946D
S11317D0DE0ACF92DF92EF92FF920F931F93CF9383
S11317E0DF93EC01462FE881F9810484F585E02D2F
S11317F061E009958C01CC88DD88EE88FF880E9421
S1131800EB17688F798F8A8F9B8FCC8EDD8EEE8E4F
S1131810FF8E81E090E0012B11F080E090E0DF91F9
S1131820CF911F910F91FF90EF90DF90CF9008958B
S11318300F931F93CF93DF93EC010E94E90B8C016C
S11318408B85882399F089858F5F89879F81891784
S113185068F019868A858F5F8A879885891708F0CA
S11318601A864A8560E0CE010E941B0BC801DF91F5
S1131870CF911F910F9108951092120481E08093EB
S1131880100410920F0461E082E00E944C1961E0A0
S113189083E00E944C19E9EBF0E080818E7F808325
S11318A080818D7F808388E48093B80085E4809371
S11318B0BC000895413208F043C090911204911184
S11318C0FCCF91E090931204209310042FEF209307
S11318D0A5031092EA03240F2093E90390931104C3
S11318E090911104880F892B8093110480910F0427
S11318F0813061F410920F04809111048093BB0035
S11319008091BC0083FDF8CF85EC01C085EE809307
S1131910BC00809112048130E1F38091EA038417C2
S113192010F44091EA03ABEEB3E0962FFB018E2F47
S1131930891B841718F48D918193F9CF842F08950E
S113194080E008950F93413208F04AC09091120448
S11319509111FCCF32E030931204009310043FEF56
S11319603093A5031092EA034093E903562FABEE9C
S1131970B3E0FB013E2F351B341718F431913D932E
S1131980F9CF1092110430911104880F832B8093A6
S1131990110480910F04813061F410920F0480913E
S11319A011048093BB008091BC0083FDF8CF85ECCB
S11319B001C085EE8093BC00222321F080911204A3
S11319C08230D1F38091A5038F3F79F08091A503F4
S11319D0803241F08091A503803331F094E005C05A
S11319E091E003C092E001C093E0892F0F91089524
S11319F04091C703262F30E0240F311D21323105D9
S1131A00DCF4209112042430C9F4FC0180E090E05D
S1131A10861758F43091C7032191DC01A753BC4FBA
S1131A20A30FB11D2C930196F3CF8091C703680FC8
S1131A306093C70380E0089581E0089582E00895EB
S1131A4090930C0480930B04089590930E04809358
S1131A500D04089585ED8093BC008091BC0084FD45
S1131A60FCCF10921204089585EC8093BC00109270
S1131A70120408951F920F920FB60F9211242F9300
S1131A803F934F935F936F937F938F939F93AF9302
S1131A90BF93EF93FF938091B900887F803609F458
S1131AA09EC078F5883209F45DC090F4803109F461
S1131AB056C038F4882309F4F5C0883009F44FC0BF
S1131AC0F5C0883109F44EC0803209F45FC0EEC01D
S1131AD0803409F46AC058F4803309F457C0883359
S1131AE009F0E4C08093A5030E94340DDFC0803563
S1131AF009F44FC0883509F45DC0883409F0D6C0B4
S1131B00D3C0883909F4C4C0A8F4883709F467C07D
S1131B1038F4883609F463C0803709F460C0C6C05D
S1131B20883809F4B5C0803909F45FC0803809F0F9
S1131B30BDC05BC0803B09F483C038F4803A09F42B
S1131B4066C0883A09F47CC0B1C0803C09F4A4C0E2
S1131B50883C09F4A1C0883B09F487C0A7C08091E0
S1131B60110410C09091EA038091E903981770F56D
S1131B70E091EA0381E08E0F8093EA03F0E0E551FF
S1131B80FC4F80818093BB0085EC83C08093A503C8
S1131B908BC0E091EA0381E08E0F8093EA03809189
S1131BA0BB00F0E0E551FC4F80839091EA03809103
S1131BB0E9036BC0E091EA0381E08E0F8093EA03AE
S1131BC08091BB00F0E0E551FC4F808380911004CC
S1131BD081116AC081E080930F0484EA5EC083E0CF
S1131BE0809312041092A603CFCF8091A603803273
S1131BF008F04EC0E091A60381E08E0F8093A60307
S1131C008091BB00F0E0E955FC4F8083BDCF0E947A
S1131C10340D8091A603803230F4E091A603F0E005
S1131C20E955FC4F10826091A60370E0E0910B042B
S1131C30F0910C0487EA93E009951092A60336C04C
S1131C4084E0809312041092C8031092C703E091B9
S1131C500D04F0910E0409958091C703811105C00C
S1131C6081E08093C7031092C903E091C80381E027
S1131C708E0F8093C803F0E0E753FC4F808180937C
S1131C80BB009091C8038091C703981708F47CCFD8
S1131C9085E88093BC000AC085EC8093BC00109258
S1131CA0120404C01092A5030E942A0DFF91EF9123
S1131CB0BF91AF919F918F917F916F915F914F9160
S1131CC03F912F910F900FBE0F901F901895809108
S1131CD0470490E020914804821B91090895909153
S1131CE0480480914704981750F4E92FF0E0E75B2B
S1131CF0FB4F208130E09F5F9093480402C02FEF98
S1131D003FEFC9010895E091480480914704E81722
S1131D1030F4F0E0E75BFB4F808190E008958FEFB3
S1131D209FEF08950895CF93DF93EC01E0911F0492
S1131D30F09120043097F1F0909148048091470489
S1131D409817C0F090E0292F30E02617370754F495
S1131D50DE01A20FB31F4C91D901A75BBB4F4C937B
S1131D609F5FF1CF1092480460934704CB01DF9149
S1131D70CF910994DF91CF910895E0912104F091DE
S1131D802204309729F01092250410922404099417
S1131D900895CF92DF92EF92FF920F931F93CF9308
S1131DA0DF937C01CB018A0120912304222389F053
S1131DB0EB016B01C40ED51ECC15DD0569F06991EC
S1131DC0D701ED91FC910190F081E02DC7010995B7
S1131DD0F3CF642F0E94F80CC801DF91CF911F91BB
S1131DE00F91FF90EF90DF90CF900895CF93DF9302
S1131DF01F92CDB7DEB76983209123042223D1F04B
S1131E0020912404203240F021E030E0FC013383AF
S1131E10228380E090E015C080912504E82FF0E053
S1131E20EA5DFB4F998190838F5F809325048093B3
S1131E30240405C061E0CE0101960E94F80C81E003
S1131E4090E00F90DF91CF910895FC0113821282EC
S1131E5088EE93E0A0E0B0E084839583A683B78303
S1131E6086E592E09183808308951092480410924D
S1131E70470410922504109224040E943C0C8DEB1C
S1131E809EE00E94250D83E99EE00C94200D81E0E4
S1131E908093230460934604109225041092240432
S1131EA008950F93062F21E04091240466E274E024
S1131EB0809146040E94A20C1092250410922404DE
S1131EC0109223040F9108954F925F926F927F9224
S1131ED0AF92BF92CF92EF92FF920F931F93CF9343
S1131EE0DF935C01F62ED42F28013901EE2021F175
S1131EF00E94470FCE2DC43008F0C3E0C150C0F09B
S1131F0028E0C29FC0011124A301920104C0569588
S1131F104795379527958A95D2F7CA01B901D50116
S1131F20ED91FC910190F081E02DC5010995E6CF7A
S1131F3060E0C5010E94510F4D2FD13208F040E2FC
S1131F402C2D69E474E08F2D0E945A0C10924804E1
S1131F5080934704DF91CF911F910F91FF90EF90F1
S1131F60CF90BF90AF907F906F905F904F90089507
S1131F70CF92EF920F931F93C22EE12C00E010E05A
S1131F8098010E94640F1F910F91EF90CF900895D4
S1131F9021E00C94B80F61E00C94510F83E194E0BC
S1131FA00C94250F0E94E60F0C9498100E94911037
S1131FB058F00E948A1040F029F45F3F29F00C94F5
S1131FC0811051110C94CC100C9487100E94A9100C
S1131FD068F39923B1F3552391F3951B550BBB2754
S1131FE0AA2762177307840738F09F5F5F4F220F99
S1131FF0331F441FAA1FA9F335D00E2E3AF0E0E890
S113200032D091505040E695001CCAF72BD0FE2FD9
S113201029D0660F771F881FBB1F2617370748076D
S1132020AB07B0E809F0BB0B802DBF01FF27935825
S11320305F4F3AF09E3F510578F00C9481100C9458
S1132040CC105F3FE4F3983ED4F38695779567957B
S1132050B795F7959F5FC9F7880F911D969587955A
S113206097F90895E1E0660F771F881FBB1F621779
S113207073078407BA0720F0621B730B840BBA0B37
S1132080EE1F88F7E0950895E89409C097FB3EF4A5
S113209090958095709561957F4F8F4F9F4F9923B1
S11320A0A9F0F92F96E9BB279395F695879577952F
S11320B06795B795F111F8CFFAF4BB0F11F460FFEF
S11320C01BC06F5F7F4F8F4F9F4F16C0882311F047
S11320D096E911C0772321F09EE8872F762F05C05B
S11320E0662371F096E8862F70E060E02AF09A95F6
S11320F0660F771F881FDAF7880F9695879597F9EB
S1132100089597F99F6780E870E060E008959FEF75
S113211080EC089500240A9416161706180609067A
S1132120089500240A941216130614060506089549
S1132130092E0394000C11F4882352F0BB0F40F4D1
S1132140BF2B11F460FF04C06F5F7F4F8F4F9F4F11
S1132150089557FD9058440F551F59F05F3F71F093
S11321604795880F97FB991F61F09F3F79F08795FA
S11321700895121613061406551FF2CF4695F1DF83
S113218008C0161617061806991FF1CF8695710513
S1132190610508940895E894BB2766277727CB0147
S11321A097F908950E94441108F48FEF08950E944E
S11321B0EA100C9498100E948A1038F00E94911032
S11321C020F0952311F00C9481100C9487101124A5
S11321D00C94CC100E94A91070F3959FC1F3950F35
S11321E050E0551F629FF001729FBB27F00DB11D97
S11321F0639FAA27F00DB11DAA1F649F6627B00D27
S1132200A11D661F829F2227B00DA11D621F739F0F
S1132210B00DA11D621F839FA00D611D221F749F1D
S11322203327A00D611D231F849F600D211D822F64
S1132230762F6A2F11249F5750409AF0F1F088238B
S11322404AF0EE0FFF1FBB1F661F771F881F9150B8
S11322505040A9F79E3F510580F00C9481100C94D6
S1132260CC105F3FE4F3983ED4F386957795679559
S1132270B795F795E7959F5FC1F7FE2B880F911DE2
S11322809695879597F90895990F0008550FAA0B0D
S1132290E0E8FEEF16161706E807F907C0F0121675
S11322A01306E407F50798F0621B730B840B950B78
S11322B039F40A2661F0232B242B252B21F40895CD
S11322C00A2609F4A140A6958FEF811D811D08956A
S11322D00E94B81E08950E944C180E946A1189E653
S11322E094E00E9482170E941604C0E0D0E00E948D
S11322F057042097E1F30E940000F9CFCF92DF92B8
S1132300EF92FF920F931F93CF93DF936C017A01A7
S11323108B01C0E0D0E0CE15DF0581F0D8016D91CE
S11323208D01D601ED91FC910190F081E02DC60163
S11323300995892B11F02196EECF7E01C701DF911B
S1132340CF911F910F91FF90EF90DF90CF90089560
S11323506115710579F0FB0101900020E9F73197CF
S1132360AF01461B570BDC01ED91FC910280F38118
S1132370E02D099480E090E00895DB0114964D91DE
S11323805C9115976D917C91DC01ED91FC9102803B
S1132390F381E02D09940C94A811DC01ED91FC91DA
S11323A00190F081E02D09948F929F92AF92BF9299
S11323B0EF92FF920F931F93CF93DF93CDB7DEB7C6
S11323C0A1970FB6F894DEBF0FBECDBF7C01FA0112
S11323D0CB0119A2223008F42AE08E010F5D1F4FB1
S11323E0822E912CA12CB12CBF01A50194010E9435
S11323F0951CF901CA01015011096A3010F4605D9D
S113240001C0695CD8016C93232B242B252B61F725
S1132410B801C7010E94A811A1960FB6F894DEBFB7
S11324200FBECDBFDF91CF911F910F91FF90EF9021
S1132430BF90AF909F908F9008952115310541F47E
S1132440DC01ED91FC910190F081E02D642F099461
S11324500C94D4119A01AB0160E070E00C941D124D
S1132460CF92DF92EF92FF920F931F93CF93DF935C
S11324702115310581F4DC01ED91FC910190F0818D
S1132480E02D642FDF91CF911F910F91FF90EF907A
S1132490DF90CF9009942A30310501F577FF1DC0F4
S11324A06A017B01EC016DE20E94CD118C0144278D
S11324B05527BA014C195D096E097F092AE0CE013E
S11324C00E94D411800F911FDF91CF911F910F9122
S11324D0FF90EF90DF90CF9008952AE0DF91CF91A5
S11324E01F910F91FF90EF90DF90CF900C94D41137
S11324F09A01AB01770F660B770B0C9430127F9225
S11325008F929F92AF92BF92CF92DF92EF92FF92FF
S11325100F931F93CF93DF938C016A017B01722E7B
S11325209A01AB01C701B6010E947C1C882319F0F3
S113253067E672E027C046015701E894B7F82FEF29
S11325403FEF4FE75FE7C501B4010E947C1C811196
S11325500DC02FEF3FEF4FE75FE7C501B4010E94C5
S1132560481C18161CF46BE672E00CC02FEF3FEF0A
S11325704FE75FE4C701B6010E94D210181694F425
S11325806FE672E0C801DF91CF911F910F91FF9028
S1132590EF90DF90CF90BF90AF909F908F907F90FF
S11325A00C94A8112FEF3FEF4FE75FECC701B60182
S11325B00E94481C87FDE4CF20E030E0A901C70158
S11325C0B6010E94481C87FF0AC06DE2C8010E9440
S11325D0CD11EC01F7FAF094F7F8F09402C0C0E0E2
S11325E0D0E0B12C60E070E080E09FE37B1441F028
S11325F020E030E040E251E40E94D20FB394F6CFE1
S1132600A70196010E94DC1B6B017C010E944D1CFA
S11326104B015C012AE0AB01BC01C8010E94D4114A
S1132620C80FD91F7720B9F1C501B4010E94441025
S11326309B01AC01C701B6010E94DB1B6B017C014D
S11326406EE2C8010E94CD11C80FD91F20E030E00E
S113265040E251E4C701B6010E94D7104B015C016E
S11326600E944D1C6B017C014AE050E0C8010E94AD
S11326702A12C80FD91FB60180E090E00E944410CE
S11326809B01AC01C501B4010E94DB1B6B017C0101
S11326907A947110DBCFCE01DF91CF911F910F910E
S11326A0FF90EF90DF90CF90BF90AF909F908F906E
S11326B07F9008950C947F12615030F02091F100C6
S11326C0FC0120830196F8CF289884E68093710456
S11326D0089540916C0450916D0420916A043091E6
S11326E06B0442175307B4F49091E8009570E1F33A
S11326F09091E80092FD19C08093F10080916C04E0
S113270090916D0401968F739927892B19F48EEF9C
S11327108093E80080916C0490916D0401969093ED
S11327206D0480936C0481E0089580E00895DF9245
S1132730EF92FF920F931F93CF93DF93D82EF92E2E
S1132740E42E062F10E0C8010196880F0E94691339
S113275083E00E946913CD2DDF2D0C0F1D1FC017C0
S1132760D10789F0E7FE03C0FE01849101C088818E
S11327700E946913F82E80E00E9469138F2121962C
S11327808111EDCF01C081E0DF91CF911F910F91B5
S1132790FF90EF90DF9008958091D700816080933F
S11327A0D70080EA8093D80089B5806189BD89B556
S11327B0826089BD09B400FEFDCF61E070E080E075
S11327C090E00E9410188091D8008F7C80618093E3
S11327D0D8008091E000807F8093E0000895CF933B
S11327E0DF931F92CDB7DEB71982CE0101960E9406
S11327F0931A0E94C71BBE016F5F7F4F0E94421B4A
S113280089810F90DF91CF9108952FB7FC01208328
S1132810F89467706093E9000895CF93DF931F9253
S1132820CDB7DEB7682FCE0101960E9405148091C2
S1132830F20099819FBF0F90DF91CF910895EF929D
S1132840FF920F931F93CF93DF931F92CDB7DEB701
S113285090917004992311F057FF03C08FEF9FEFFD
S113286029C08A017B01682FCE0101960E940514BC
S11328702091F20030E0021713070CF49801822F24
S1132880F70194E6815038F02898909371044091B0
S1132890F1004193F7CF2115310521F08091F20029
S11328A0882321F089818FBFC90104C08BE68093FE
S11328B0E800F8CF0F90DF91CF911F910F91FF9017
S11328C0EF900895CF93DF931F92CDB7DEB741E029
S11328D050E0BE016F5F7F4F0E941F14019719F4EF
S11328E0898190E002C08FEF9FEF0F90DF91CF912D
S11328F00895CF93DF931F92CDB7DEB7682FCE0133
S113290001960E9405149091E800892F807295FF2A
S113291004C09091F20080E4891B99819FBF0F90BD
S1132920DF91CF9108955F926F927F928F929F92E1
S1132930AF92BF92CF92DF92EF92FF920F931F93C9
S1132940CF93DF931F92CDB7DEB7982E6B01B42ED1
S1132950052F80917004811103C08FEF9FEF77C022
S113296080916E0480FF05C08091E00082608093B6
S1132970E000EB2CF02EA12C8AEF882E892D80729A
S1132980682E892D8074582E9AE3792EE114F1046F
S113299019F4AA2009F455C0892D0E947914182F1E
S11329A081110AC08A948820C1F261E070E080E05D
S11329B090E00E941018EACF90E0E816F9060CF4B3
S11329C01E2D692DCE0101960E9405148091E80008
S11329D085FF34C0812F90E0E81AF90A662029F0B7
S11329E01150A0F01092F100FBCFF60197FE0AC03F
S11329F0115050F024912093F1003196F9CF219198
S1132A002093F1001150D8F7C80ED91EAA2019F04E
S1132A107092E8000BC08091E80085FD09C07092B7
S1132A20E800AA24A394E114F10441F0A12C06C007
S1132A30E114F10419F451107092E80089818FBFF8
S1132A40A5CF5D9884E6809372048B2D902F0F9010
S1132A50DF91CF911F910F91FF90EF90DF90CF9076
S1132A60BF90AF909F908F907F906F905F900895EC
S1132A701092E90010926D0410926C0490936B0410
S1132A8080936A040895DF92EF92FF920F931F934D
S1132A90CF93DF93D82E8A017B01E40EF51EEB0160
S1132AA0CE15DF0571F0D7FE03C0FE01849101C08D
S1132AB088810E94691321968111F2CF8FEF9FEFD5
S1132AC001C0C801DF91CF911F910F91FF90EF904A
S1132AD0DF900895AF92BF92DF92EF92FF920F932F
S1132AE01F93CF93DF935C018B01EB019BEFD92EF6
S1132AF02097C1F07E01C134D1051CF080E4E82E9A
S1132B00F12C8091E80082FFFCCFC8018C1B9D0B47
S1132B106E2D8A0D9B1D0E945C13D092E800CE1985
S1132B20DF09E6CFC801DF91CF911F910F91FF908C
S1132B30EF90DF90BF90AF9008951F920F920FB661
S1132B400F921124CF92DF92EF92FF920F931F9373
S1132B502F933F934F935F936F937F938F939F93A1
S1132B60AF93BF93EF93FF93CF93DF93CDB7DEB7CC
S1132B706C97DEBFCDBF1092E9008091E80083FF1F
S1132B8017C168E0CE0145960E945C1382EF8093E2
S1132B90E8008D8987FF05C09091E80090FFFCCF85
S1132BA003C09EEF9093E800982F907609F0D8C068
S1132BB09E894F89588D2F89188D91110CC08038AA
S1132BC029F480916F048093F10002C01092F10007
S1132BD01092F100E6C0913051F48111E2C041300D
S1132BE0510509F0DEC080916F048D7F0BC09330D6
S1132BF061F48111D6C04130510509F0D2C08091F1
S1132C006F04826080936F04CCC0953049F4809146
S1132C10E80080FFFCCF822F80688093E300C1C06E
S1132C20963009F070C0EB8CFC8C123069F580E0B2
S1132C3090E00E9438150E94EF1399E09E012F5FE7
S1132C403F4F6901F901292F11922A95E9F79983D8
S1132C501A8391E09E8390EA98879AEF998720914E
S1132C606C0430916D04275F3F4F3C832B838D832D
S1132C70C7010E94381549E050E0B60180E00E9487
S1132C8043150E94EF138DC0C7010E9438150E949E
S1132C90C71BBE016B5E7F4F0E946B1B009719F030
S1132CA00CF07FC082C0113009F470C0133009F0F9
S1132CB07CC08F89882309F46CC0823029F440E8F1
S1132CC060E189EE90E006C0813039F440E86BE0C1
S1132CD08DED90E00E94971356C0833009F065C0D3
S1132CE00E94C71B8E010F5F1F4FB8010E948A1BF1
S1132CF0F80101900020E9F73197BF01601B710BC7
S1132D0040E0C801E7CF973009F44FC0983021F470
S1132D1081E08093F10045C0993009F042C083708E
S1132D2009F043C0EBE0F1E081E031E096E320817B
S1132D30211109C08EE78093EA001092EA008F897E
S1132D40809370042EC08093E9003093EB002191AE
S1132D502093EC009093ED008F5F873041F7EACF2A
S1132D608B8D9C8D0E943815898D811105C0CE01F3
S1132D7045960E949E1A07C00E94C71BBE016B5E47
S1132D807F4F0E94A91B882381F00BC06BEC70E07D
S1132D9002C06AEF70E0FB01449150E080E80E94B9
S1132DA043158EEF8093E80003C081E28093EB002B
S1132DB06C960FB6F894DEBF0FBECDBFDF91CF91F6
S1132DC0FF91EF91BF91AF919F918F917F916F91FF
S1132DD05F914F913F912F911F910F91FF90EF9031
S1132DE0DF90CF900F900FBE0F901F901895809397
S1132DF0E9008091F200882319F08AE38093E800C7
S1132E0008951F920F920FB60F9211242F933F93A0
S1132E104F935F936F937F938F939F93AF93BF93DE
S1132E20CF93EF93FF93C091E1008091E100837F02
S1132E308093E100C3FF0FC01092E90081E080930A
S1132E40EB001092EC0082E38093ED00109270048A
S1132E5088E08093F000C2FF19C083E00E94F71657
S1132E6080917204882339F0809172048150809398
S1132E707204882389F180917104882339F0809148
S1132E807104815080937104882341F1C4FF10C000
S1132E908091E2008E7E81608093E2008091E10067
S1132EA08F7E8093E10080916E048E7E806111C0DC
S1132EB0C0FF16C08091E2008E7E80618093E200A4
S1132EC08091E1008E7E8093E10080916E048E7E7D
S1132ED0816080936E0404C05D9ACDCF289AD6CFCA
S1132EE0FF91EF91CF91BF91AF919F918F917F917E
S1132EF06F915F914F913F912F910F900FBE0F9063
S1132F001F9018951092700410926F0410926E0422
S1132F100E94CC13E1EEF0E080818E7E80838DE010
S1132F208093E200559A209A08951F920F920FB64B
S1132F300F9211242F933F938F939F93AF93BF933B
S1132F408091740490917504A0917604B0917704F3
S1132F503091730423E0230F2D3720F40196A11D33
S1132F60B11D05C026E8230F0296A11DB11D2093B3
S1132F7073048093740490937504A0937604B093BF
S1132F8077048091780490917904A0917A04B091A7
S1132F907B040196A11DB11D80937804909379045C
S1132FA0A0937A04B0937B04BF91AF919F918F91CA
S1132FB03F912F910F900FBE0F901F9018952FB730
S1132FC0F8946091740470917504809176049091E2
S1132FD077042FBF08953FB7F894809178049091B7
S1132FE07904A0917A04B0917B0426B5A89B05C00E
S1132FF02F3F19F00196A11DB11D3FBFBA2FA92F74
S1133000982F8827820F911DA11DB11DBC01CD01F0
S113301042E0660F771F881F991F4A95D1F70895DC
S11330208F929F92AF92BF92CF92DF92EF92FF92D4
S11330306B017C010E94EB174B015C01C114D104AC
S1133040E104F10401F10E94411B0E94EB17DC0131
S1133050CB0188199909AA09BB09883E9340A105A7
S1133060B10560F321E0C21AD108E108F10888EE45
S1133070880E83E0981EA11CB11CC114D104E10484
S1133080F10419F7DBCFFF90EF90DF90CF90BF9062
S1133090AF909F908F900895789484B5826084BD9A
S11330A084B5816084BD85B5826085BD85B5816048
S11330B085BDEEE6F0E0808181608083E1E8F0E0A8
S11330C01082808182608083808181608083E0E8D7
S11330D0F0E0808181608083E1E9F0E080818260BA
S11330E08083808181608083E0E9F0E08081816079
S11330F08083E1ECF0E08081846080838081826061
S11331008083808181608083E3ECF0E08081816052
S11331108083E0ECF0E0808182608083E2ECF0E088
S1133120808181608083EAE7F0E08081846080832D
S113313080818260808380818160808380818068D7
S113314080830895823108F08251E82FF0E0E25044
S1133150FF4FE49180917B00E3FB222720F930E0CC
S113316095E0220F331F9A95E1F78F7D282B20934A
S11331707B008091110120E4829FC0011124E7703B
S1133180E82BE0937C0080917A00806480937A003D
S113319080917A0086FDFCCF80917800209179009F
S11331A090E0922B089590E0FC013197EF30F10507
S11331B0B0F5EA5AFF4F0C94B71C809180008F77CA
S11331C003C0809180008F7D80938000089580915A
S11331D08000877FF9CF84B58F7702C084B58F7D57
S11331E084BD0895809190008F7707C080919000EE
S11331F08F7D03C080919000877F80939000089515
S11332008091C0008F7703C08091C0008F7D809330
S1133210C00008958091C200877F8093C200089502
S1133220CF93DF9390E0FC01E75DFE4F2491FC0116
S1133230E85BFE4F8491882361F190E0880F991F29
S1133240FC01ED57FE4FC591D491FC01EB58FE4FA4
S1133250A591B491611109C09FB7F8948881209514
S113326082238883EC912E230BC0623061F49FB7D4
S1133270F8948881322F309583238883EC912E2B08
S11332802C939FBF06C08FB7F894E8812E2B288318
S11332908FBFDF91CF9108951F93CF93DF93282F92
S11332A030E0F901E65FFE4F8491F901E75DFE4FDE
S11332B0D491F901E85BFE4FC491CC23C1F0162FE1
S11332C081110E94D318EC2FF0E0EE0FFF1FEB5892
S11332D0FE4FA591B4919FB7F894111104C08C913D
S11332E0D095D82302C0EC91DE2BDC939FBFDF91F5
S11332F0CF911F910895CF93DF93282F30E0F901E8
S1133300E65FFE4F8491F901E75DFE4FD491F90128
S1133310E85BFE4FC491CC2391F081110E94D31835
S1133320EC2FF0E0EE0FFF1FE959FE4FA591B49189
S1133330EC91ED2381E090E021F480E002C080E094
S113334090E0DF91CF910895FC01808191810C94EC
S1133350691DCF93DF93EC0188819981009711F067
S11333600E94691D198218821D821C821B821A8286
S1133370DF91CF9108950F931F93CF93DF93EC01C7
S11333808B016F5F7F4F888199810E94F21D0097A6
S113339031F0998388831B830A8381E001C080E034
S11333A0DF91CF911F910F910895CF93DF93EC019B
S11333B088819981892B29F08A819B8186179707B7
S11333C060F4CE010E94BB19882341F08C819D8159
S11333D0892B19F4E881F981108281E0DF91CF9182
S11333E00895EF92FF920F931F93CF93DF93EC0115
S11333F07B018A01BA010E94D519811104C0CE0152
S11334000E94A91907C01D830C83B7018881998183
S11334100E94CD1ECE01DF91CF911F910F91FF909D
S1133420EF900895FC01118210821382128215829A
S113343014826115710551F0FB0101900020E9F738
S11334403197AF01461B570B0C94F1190895CF9394
S1133450DF931F92CDB7DEB76983DC01ED91FC9158
S11334600280F381E02D41E050E0BE016F5F7F4FA9
S113347009950F90DF91CF910895CF93DF93EC01DD
S11334808C859D8597FF05C082E00E9462149D870C
S11334908C878C859D85DF91CF91089583E00E9470
S11334A0791490E0089583E00C94F716FC01848568
S11334B0958597FD06C082E00E940D1490E0019668
S11334C0089582E00E940D1490E00895FC01848523
S11334D0958597FD05C02FEF3FEF35872487089525
S11334E082E00C946214CF93DF93EC0180911D0170
S11334F0882331F083E00E9493141816190634F0DF
S113350081E090E09B838A8380E090E0DF91CF911B
S11335100895EEEFFFE72591349181E02B3F3C4D78
S113352009F080E00895FC0190819E5F908342E45D
S113353050E061E971E080E80C944315FC0181815D
S11335409081913A59F4813209F065C047E050E026
S113355066E171E080E00E9443155BC0913209F09E
S11335605AC0833269F482819381A0E0B0E08093F1
S1133570120190931301A0931401B093150149C053
S1133580803239F467E070E086E191E00E946A15C8
S113359040C0823209F03DC0828180931D010E94A7
S11335A0891A882319F0EEEFFAE002C0E0E0F8E0AF
S11335B08091160190911701A0911801B091190101
S11335C0803B9440A105B10541F580911D0180FD2A
S11335D024C0EE3F8AE0F80751F08081918187375B
S11335E027E7920721F09093FF0A8093FE0A87E76A
S11335F097E791838083809160008093CC049BE063
S113360088E10FB6F894A895809360000FBE90935C
S1133610600081E0089580E008958081918187377A
S11336209747B9F7A89580916000886180936000FE
S11336308091CC0480936000EE3F8AE0F80739F073
S11336408091FE0A9091FF0A91838083E2CF1092C9
S1133650FF0A1092FE0ADDCFECE7F4E01382128237
S113366088EE93E0A0E0B0E084839583A683B783DB
S113367087E792E0918380838FEF9FEF958784871C
S113368008950895EF92FF920F931F93CF93DF93C2
S11336907B01FC01C281D38100E010E0209781F01E
S11336A0E881F9810280F381E02DB701CE0109950B
S11336B097FD08C0080F191F0884D985C02DEECFC7
S11336C0C80102C08FEF9FEFDF91CF911F910F913F
S11336D0FF90EF9008950F931F93CF93DF938B0187
S11336E0FC01C281D381209771F0E881F9810480C3
S11336F0F581E02DB801CE010995009731F40884D5
S1133700D985C02DF0CF80E090E0DF91CF911F915B
S11337100F9108950F931F93CF93DF938B01FC01B7
S1133720C281D381209771F0E881F9810680F78105
S1133730E02DB801CE010995080F111D0884D98523
S1133740C02DF0CFF8011082DF91CF911F910F911E
S113375008950F931F93CF93DF938B01FC01C281D4
S1133760D381209771F0E881F9810190F081E02DF7
S1133770B801CE010995811105C00884D985C02DF1
S1133780F0CF80E0DF91CF911F910F910895809148
S1133790D10481110DC082E08093CD0484E0809334
S11337A0CE041092D0041092CF0481E08093D1040F
S11337B08DEC94E008955058BB27AA270E94F31B70
S11337C00C9498100E948A1038F00E94911020F0F6
S11337D039F49F3F19F426F40C9487100EF4E09505
S11337E0E7FB0C948110E92F0E94A91058F3BA1733
S11337F0620773078407950720F079F4A6F50C9403
S1133800CB100EF4E0950B2EBA2FA02D0B01B901AD
S113381090010C01CA01A0011124FF27591B99F042
S1133820593F50F4503E68F11A16F040A22F232F4E
S1133830342F4427585FF3CF469537952795A7959E
S1133840F0405395C9F77EF41F16BA0B620B730B45
S1133850840BBAF09150A1F0FF0FBB1F661F771FB6
S1133860881FC2F70EC0BA0F621F731F841F48F46B
S1133870879577956795B795F7959E3F08F0B0CFF4
S11338809395880F08F09927EE0F979587950895DB
S11338900E94441108F481E008950E94B11088F058
S11338A09F5798F0B92F9927B751B0F0E1F0660F00
S11338B0771F881F991F1AF0BA95C9F714C0B13041
S11338C091F00E94CB10B1E008950C94CB10672FB7
S11338D0782F8827B85F39F0B93FCCF38695779570
S11338E06795B395D9F73EF4909580957095619559
S11338F07F4F8F4F9F4F08950E944411880B990B5F
S1133900089597FB072E16F4009407D077FD09D08D
S11339100E94BD1C07FC05D03EF4909581959F4FF5
S11339200895709561957F4F0895A1E21A2EAA1B00
S1133930BB1BFD010DC0AA1FBB1FEE1FFF1FA2175B
S1133940B307E407F50720F0A21BB30BE40BF50B58
S1133950661F771F881F991F1A9469F760957095E1
S1133960809590959B01AC01BD01CF010895EE0FA8
S1133970FF1F0590F491E02D0994AA1BBB1B51E194
S113398007C0AA1FBB1FA617B70710F0A61BB70BCB
S1133990881F991F5A95A9F780959095BC01CD0170
S11339A008950F931F93CF93DF938230910510F402
S11339B082E090E0E091DB04F091DC0420E030E070
S11339C0A0E0B0E0309719F1408151810281138168
S11339D048175907C8F08417950769F4109731F010
S11339E012960C93129713961C9327C00093DB0432
S11339F01093DC0422C02115310519F04217530736
S1133A0018F49A01BD01EF01DF01F801DBCF2115A4
S1133A103105F9F0281B390B2430310580F48A81F3
S1133A209B816115710521F0FB019383828304C09E
S1133A309093DC048093DB04FE01329644C0FE01C3
S1133A40E20FF31F81939193225031093983288324
S1133A503AC02091D9043091DA04232B41F4209107
S1133A600201309103013093DA042093D9042091A8
S1133A700001309101012115310541F42DB73EB704
S1133A804091040150910501241B350BE091D904A8
S1133A90F091DA04E217F307A0F42E1B3F0B28176A
S1133AA0390778F0AC014E5F5F4F2417350748F0B3
S1133AB04E0F5F1F5093DA044093D904819391937E
S1133AC002C0E0E0F0E0CF01DF91CF911F910F91B0
S1133AD00895CF93DF93009709F481C0FC013297D6
S1133AE013821282A091DB04B091DC04109781F45C
S1133AF020813181820F931F2091D9043091DA04FF
S1133B002817390751F5F093DA04E093D90467C014
S1133B10ED0120E030E0CE17DF0740F44A815B81FD
S1133B209E0141155105F1F0EA01F5CFD383C2831B
S1133B3040815181840F951FC817D90759F4888192
S1133B409981840F951F0296918380838A819B813A
S1133B50938382832115310529F4F093DC04E093E7
S1133B60DB043DC0E901FB83EA8349915991C40F09
S1133B70D51FEC17FD0761F480819181840F951F97
S1133B800296E90199838883828193819B838A8346
S1133B90E0E0F0E012968D919C911397009719F054
S1133BA0FD01DC01F7CF8D919C9111979D012E5F52
S1133BB03F4F820F931F2091D9043091DA042817C4
S1133BC0390769F4309729F41092DC041092DB046D
S1133BD002C013821282B093DA04A093D904DF9155
S1133BE0CF910895A0E0B0E0E8EFFDE10C94D81E79
S1133BF0EC01009721F4CB010E94D11CB4C0FC015C
S1133C00E60FF71F9C0122503109E217F30708F46D
S1133C10A8C0D9010D911C91119706171707B0F090
S1133C200530110508F49BC0C8010497861797074F
S1133C3008F495C002501109061B170B0193119348
S1133C406D937C93CF010E94691D89C05B01A01A0A
S1133C50B10A4C01800E911EA091DB04B091DC04EA
S1133C60612C712CE12CF12C109709F446C08D9134
S1133C709C911197A815B905B1F56C0142E0C40EE9
S1133C80D11CCA14DB0478F14C018A189B08640126
S1133C9042E0C40ED11C1296BC9012971396AC91BC
S1133CA0B5E0CB16D10440F0B282A3839182808226
S1133CB0D9016D937C9309C00E5F1F4F800F911F34
S1133CC0F90191838083EB2DFA2FE114F10431F093
S1133CD0D7011396FC93EE93129741C0F093DC0442
S1133CE0E093DB043CC06816790608F43C017D01CE
S1133CF012960D90BC91A02DB7CF8091D9049091CC
S1133D00DA0488169906E1F466167706C8F48091F9
S1133D10000190910101009741F48DB79EB7409145
S1133D20040150910501841B950BE817F907C8F4A9
S1133D30F093DA04E093D904F901718360830FC02E
S1133D40CB010E94D11C7C01009759F0A801BE014F
S1133D500E94C41ECE010E94691DC70104C0CE0189
S1133D6002C080E090E0CDB7DEB7EEE00C94F41E24
S1133D7081E090E0F8940C940B1FFB01DC010590AA
S1133D800D920020E1F70895FB01DC0102C00190CF
S1133D900D9241505040D8F70895FB01DC01019089
S1133DA00D920020E1F708952F923F924F925F9277
S1133DB06F927F928F929F92AF92BF92CF92DF9237
S1133DC0EF92FF920F931F93CF93DF93CDB7DEB79C
S1133DD0CA1BDB0B0FB6F894DEBF0FBECDBF099430
S1133DE02A88398848885F846E847D848C849B8487
S1133DF0AA84B984C884DF80EE80FD800C811B8195
S1133E00AA81B981CE0FD11D0FB6F894DEBF0FBEC3
S1133E10CDBFED01089510E0CDEED0E004C0FE0169
S1133E200E94B71C2196CE3ED107C9F7F894FFCF64
S1133E300000DD042000E803000000C180810000D0
S1133E400001FFFFFFFF00E10000000000003A3026
S1133E50003A0020504D0020414D0053656E736FB1
S1133E607220646566656B7400200043005A6569BE
S1133E70676572206B616C696272696572656E0058
S1133E80526F6D656F2056322E322057617463680D
S1133E9000436F726179202F204272756E6F004C5F
S1133EA06F6E646F6E004C4F4E004E65772D596FE8
S1133EB0726B004E45590050617269730050415253
S1133EC000546F6B796F00544F4B00486F6E676BF3
S1133ED06F6E6700484E4B004C6F7320416E6765F0
S1133EE06C6573004C414E004368696361676F0001
S1133EF04348490053656F756C0053454F00427247
S1133F0075657373656C0042525500576173686937
S1133F106E67746F6E005741530053696E6761702A
S1133F2075720053494E005379646E657900535994
S1133F30440000000000180C7E1198019B01CB097D
S1133F404607D60679069C01CA00FFFFFFFFFFFF64
S1133F500100000006030000A801CA00FFFF0000E2
S1133F60FFFFFFFF0000D90300009F0100000000D5
S1133F70180C7E1198019B01980A9B0A68119E0AED
S1133F809C0100000000F60EC90E9801920E670E07
S1133F906F0E830E0D0A006E616E00696E66006F0F
S1133FA076660000000000271A731A4E1A531A5638
S1093FB01A661A3D1A0016
S9030000FC
