:100000000C94EE000C9416010C9416010C9416013D
:100010000C9416010C9416010C9416010C94160104
:100020000C9416010C9416010C9436160C94D214F0
:100030000C9416010C9416010C9416010C941601E4
:100040000C9416010C9416010C9416010C941601D4
:100050000C9416010C9416010C9416010C94CA16FB
:100060000C9416010C9416010C9416010C941601B4
:100070000C9416010C9416010C9416010C941601A4
:100080000C9416010C9416010C9416010C94160194
:100090000C946F0C0C9416010C9416010C94160120
:1000A0000C9416010C9416010C94160120182318B8
:1000B000121816181C1844184418441827182B181E
:1000C0002F183518391844183F180012010002EF94
:1000D00002014041233680000101020301417264A4
:1000E00075696E6F204C4C430041726475696E6F88
:1000F000204C656F6E6172646F000403090407068B
:1001000005040100080A0B0C0D090000000200099B
:100110000F0000030401000C0000000000000000BC
:1001200000000000000000000004080201104080F0
:1001300040102040804080080204018040201002CE
:10014000011080102040402004040404040304052E
:100150000202020204030202020206060606060664
:100160000404020202040400000000230026002907
:10017000002C002F0000000000250028002B002E7E
:1001800000310000000000240027002A002D00306C
:1001900000080B0002020201000904000001020233
:1001A00000000524001001052401010104240206B9
:1001B0000524060001070581031000400904010021
:1001C000020A000000070502024000000705830242
:1001D00040000000DC04030F611A9F0511241FBEBC
:1001E000CFEFDAE0DEBFCDBF12E0A0E0B1E0EAE998
:1001F000FCE302C005900D92AE34B107D9F724E0BC
:10020000AEE4B2E001C01D92A735B207E1F710E0FD
:10021000CDEED0E004C02197FE010E94EC1BCA3E47
:10022000D107C9F70E94A0100C94401E0C94000046
:1002300080E00E94D7178D3F23E0920720F1809144
:100240004E0290914F02019690934F0280934E027E
:1002500003970CF46AC0EEE4F2E020E030E080E0C6
:1002600090E040815181443051052CF0C901493C56
:1002700051050CF00596119211922F5F3F4F2630D9
:10028000310579F708958934910570F48091500211
:100290009091510281152DE792074CF401969093AD
:1002A00051028093500241C08E3E910570F48091BE
:1002B00052029091530281152DE7920754F4019652
:1002C000909353028093520230C0823A21E0920709
:1002D00070F4809154029091550281152DE7920798
:1002E0004CF4019690935502809354021EC08037BF
:1002F000924070F4809156029091570281152DE73B
:10030000920734F4019690935702809356020DC0E1
:10031000809158029091590281152DE792072CF493
:100320000196909359028093580280E090E00895DE
:1003300080E090E0089508958DEF9FEF08950F936A
:100340001F93CF93DF93182FD0E0C0E26C2F8DE87E
:1003500093E00E947C0E8DE893E00E94000F082F2E
:1003600061E070E080E090E00E944517011103C059
:100370001D17F9F0DF5FCF5FC83241F7C8E36C2F7C
:100380008DE893E00E947C0E8DE893E00E94000FC0
:10039000082F61E070E080E090E00E9445170111B5
:1003A00003C01D1731F0DF5FCF5FC03441F780E03D
:1003B00001C08C2FDF91CF911F910F910895DC0127
:1003C000ED91FC910190F081E02D0994FC01848174
:1003D000958101962CE330E0B9010E94B61B95830C
:1003E0008483892B19F080E090E0089582819381C5
:1003F0000196B9010E94B61B93838283892B99F7DA
:1004000080819181019668E170E00E94B61BAC0189
:100410009183808321E090E0452B09F020E0822F3A
:1004200008950F931F930E941417009106011091D5
:1004300007012091080130910901061717072807C5
:100440003907E0F4D901C80188519C4FAF4FBF4F25
:100450008093060190930701A0930801B0930901CE
:1004600084E892E00E94E6018CE792E00E94E601B7
:1004700084E792E01F910F910C94E6011F910F9178
:100480000895CF93DF93EC01888199810A9734F422
:100490006FE171E082EF92E00E9400116881798142
:1004A0004AE050E082EF92E00E94AD118A819B8188
:1004B0000A971CF46EE171E002C061E271E082EF24
:1004C00092E00E9400116A817B814AE050E082EF55
:1004D00092E00E94AD118C819D810A971CF46EE11F
:1004E00071E002C061E271E082EF92E00E940011CF
:1004F0006C817D814AE050E082EF92E0DF91CF9104
:100500000C94AD11CF92DF92EF92FF9286E10E94A0
:10051000D717BC01990F880B990B0E947B0F20E025
:1005200030E04AEF53E40E940C1020E030EC4FE73B
:1005300054E40E94070F6B017C0141E060E082EF10
:1005400092E00E94500A20E030E048EC52E4C701FB
:10055000B6010E94071018161CF463E271E015C082
:1005600022E030E0B701A60182EF92E00E948F12F4
:1005700061E371E082EF92E00E9400116FED82EF83
:1005800092E00E94021163E371E082EF92E0FF903B
:10059000EF90DF90CF900C9400110F931F93CF93A7
:1005A000DF93EC010E94141700918C0210918D02D0
:1005B00020918E0230918F020617170728073907FE
:1005C00090F40E9482020E941417DC01CB0188572C
:1005D0009C4EAF4FBF4F80938C0290938D02A0939F
:1005E0008E02B0938F0240E060E082EF92E00E94C2
:1005F000500A84E792E00E944102CE01DF91CF9140
:100600001F910F910895E0919002F091910283E083
:10061000EE0FFF1F8A95E1F7EE56FD4F26813781D9
:100620008091840290918502820F931F88319105F9
:100630000CF0489790937D0280937C0220917C027D
:1006400030917D0237FF08C088E190E0821B930B58
:1006500090937D0280937C0208958330910539F058
:100660008A30910521F08130910551F517C082EF54
:1006700092E00E944A0A8091900290919102009724
:1006800019F48BE090E001C0019790939102809360
:1006900090020E9403038AE090E0089582EF92E0C6
:1006A0000E944A0A80919002909191028B309105AC
:1006B00029F41092910210929002EBCF0196E5CFAF
:1006C0000895CF93DF930E942D03EC0140E060E09A
:1006D00082EF92E00E94500A609190027091910224
:1006E00083E0660F771F8A95E1F76E567D4F82EFA4
:1006F00092E00E94F21041E060E082EF92E00E94FE
:10070000500A8CE792E00E944102CE01DF91CF9126
:10071000089582EF92E00E944A0A65E371E082EF59
:1007200092E00E94001160ED77E080E090E00E948E
:10073000451782EF92E00C944A0A20E042E060E123
:1007400082EF92E00E94760A82EF92E00E940B0A0A
:1007500082EF92E00E94100B82EF92E00E944D0A1D
:1007600068E471E082EF92E00E94001141E060E0F5
:1007700082EF92E00E94500A69E571E082EF92E018
:100780000E9400110E941417683B7B40810591056F
:10079000C8F382EF92E00E944A0A88E0E4E8F2E0BF
:1007A000ACE7B2E001900D928A95E1F760E087E056
:1007B0000E94451860E086E10C94451887E00E948D
:1007C000B018019711F40C9489030E9411020E9441
:1007D000180190936F0280936E0220917202309103
:1007E000730242E1429FF001439FF00D1124E05259
:1007F000FE4F0484F585E02D309729F009959093FC
:100800006F0280936E0280916E0290916F0283302E
:100810009105E9F134F48130910579F0029721F1E5
:1008200009C08530910509F46AC00CF443C00697ED
:1008300009F48AC08FEF9FEF12C082EF92E00E940E
:100840004A0A809172029091730222E1289FF0017E
:10085000299FF00D1124E052FE4F828193819093E5
:1008600071028093700280C082EF92E00E944A0A77
:10087000809172029091730222E1289FF001299FDA
:10088000F00D1124E052FE4F84819581E8CF82EF74
:1008900092E00E944A0A809172029091730222E1D2
:1008A000289FF001299FF00D1124E052FE4F868110
:1008B0009781D5CF82EF92E00E944A0A809172021E
:1008C0009091730222E1289FF001299FF00D1124DD
:1008D000E052FE4F0684F785E02D309709F0099528
:1008E000809172029091730222E1289FF001299F6A
:1008F000F00D1124E052FE4F80859185B0CF82EF3C
:1009000092E00E944A0A809172029091730222E161
:10091000289FF001299FF00D1124E052FE4F00881E
:10092000F189E02D309709F009958091720290913C
:10093000730222E1289FF001299FF00D1124E0525B
:10094000FE4F828593858BCF82EF92E00E944A0A08
:1009500082EF92E00E94100B82EF92E00E94170B50
:100960001092710210927002809170029091710247
:1009700097FD21C0909373028093720240E060E083
:1009800082EF92E00E94500A80917202909173026D
:1009900022E1289FF001299FF00D1124E052FE4F23
:1009A000608171818AE592E00E94F21DBC0182EFB4
:1009B00092E00C9400110895AF92BF92CF92DF9213
:1009C000EF92FF920F931F93CF93DF9382EF92E00A
:1009D0000E94D609E2EFF2E08EEC91E091838083F1
:1009E00010A211A267E671E082E992E00E94471925
:1009F000C2E9D2E01F821E826EE671E08AE992E0CF
:100A00000E9447198BEFE82EFF24FA94FF86EE86AA
:100A100067E771E082EA92E00E944719CC24C39410
:100A2000D12CDF8ACE8A6DE771E08AEA92E00E94DB
:100A3000471929E0A22EB12CBF8EAE8E63E871E07B
:100A400082EB92E00E94471908E010E01FA30EA37A
:100A50006CE871E08AEB92E00E94471988EF9FEF03
:100A60009FA78EA768E971E082EC92E00E94471987
:100A70008AEF9FEF9FAB8EAB60EA71E08AEC92E069
:100A80000E944719BFAEAEAE66EA71E082ED92E019
:100A90000E944719D092D902C092D8026FEA71E041
:100AA0008AED92E00E944719F092E102E092E002A2
:100AB0006AEB71E082EE92E00E9447191093E9021E
:100AC0000093E80263EC71E08AEE92E00E9447191D
:100AD0008BE090E09093F1028093F002E4E8F2E082
:100AE00085E190E0918380838FE190E0938382831E
:100AF0001582148217821682ECE7F2E02CE030E0D7
:100B00003183208313821282158214821782168207
:100B1000E4E7F2E026E130E03183208393838283AF
:100B20001582148217821682DF91CF911F910F9147
:100B3000FF90EF90DF90CF90BF90AF900895CF934C
:100B4000DF93C2EFD2E02897CE010E94D91882E04D
:100B5000C239D807C1F7DF91CF910895CF93DF93C2
:100B6000FC0181A5882371F192A5662319F09130CB
:100B700029F402C0911102C083A701C013A6EF019E
:100B800060A18DE893E00E947C0E89A1823031F44F
:100B900069E070E08DE893E00E94DF016BA58DE8CD
:100BA00093E00E942B0E8DE893E00E94000F21E05D
:100BB00030E0811102C020E030E088279927821BB5
:100BC000930B02C08DEF9FEFDF91CF910895CF93EC
:100BD000FC01C3A560FF02C085A1C82B61FF02C054
:100BE00086A1C82B62FF02C087A1C82B63FF02C089
:100BF00080A5C82B413011F482A1C82B64A16C2BB5
:100C000070E08DE893E00E94DF016C2F8DE893E0A7
:100C1000CF910C942B0E8F929F92AF92BF92CF9256
:100C2000DF92EF92FF920F931F93CF93DF93EC012C
:100C300088A1882309F450C089A1882309F44CC0F5
:100C4000142F062F8C8C9D8CAE8CBF8CC88CD98CAD
:100C5000EA8CFB8C8DE2C81AD108E108F1080E94E9
:100C60002017DC01CB018C199D09AE09BF0988153D
:100C70009905AA05BB0598F368A18DE893E00E9449
:100C80007C0E89A1823031F469E070E08DE893E058
:100C90000E94DF01612F70E084E0759567958A9569
:100CA000E1F7402FCE010E94E705023031F0612FBD
:100CB0006F70402FCE010E94E7058DE893E00E94FF
:100CC000000F21E030E0811102C020E030E08827F1
:100CD0009927821B930B02C08CEF9FEFDF91CF917E
:100CE0001F910F91FF90EF90DF90CF90BF90AF904A
:100CF0009F908F9008958F929F92AF92BF92CF92C4
:100D0000DF92EF92FF920F931F93CF93DF93EC014B
:100D10001BA588A1882309F4F6C089A1882309F4BA
:100D2000F2C0823009F4F1C08BA1882309F4EDC030
:100D3000062F8C8C9D8CAE8CBF8CC88CD98CEA8C89
:100D4000FB8C8DE2C81AD108E108F1080E94201737
:100D5000DC01CB018C199D09AE09BF0988159905E5
:100D6000AA05BB0598F38DA1182B8EA1182B8FA176
:100D7000182B88A5182B013011F48AA1182B8BA1F0
:100D8000182B68A18DE893E00E947C0E612F8DE8FE
:100D900093E00E942B0E8DE893E00E94000F8823C1
:100DA00019F00FEF1FEF9DC068A18DE893E00E943E
:100DB0007C0E6CA1612B70E08DE893E00E94DF0156
:100DC0008DE893E00E94000F8111EBCF68A170E0E5
:100DD00041E050E08DE893E00E94FD0E8DE893E045
:100DE0000E94A40D7C0197FDDCCF68A18DE893E003
:100DF0000E947C0E612F8DE893E00E942B0E8DE8FF
:100E000093E00E94000F8111CCCF8DA190E08E2144
:100E10009F21892B11F400E001C000E18EA190E038
:100E20008E219F21892B09F000628FA190E08E21F5
:100E30009F21892B09F0006488A590E0E822F9221F
:100E4000EF2809F0006868A18DE893E00E947C0E0D
:100E50006CA1612B70E08DE893E00E94DF018DE8CA
:100E600093E00E94000F81119CCF68A170E041E0E7
:100E700050E08DE893E00E94FD0E8DE893E00E9423
:100E8000A40D7C0197FD8DCF68A18DE893E00E94B1
:100E90007C0E612F8DE893E00E942B0E8DE893E08D
:100EA0000E94000F81117DCF8DA190E08E219F21A6
:100EB000892B09F001608EA190E08E219F21892B62
:100EC00009F002608FA190E08E219F21892B09F00B
:100ED000046088A590E0E822F922EF2809F0086074
:100EE00010E068A18DE893E00E947C0E6BA58DE870
:100EF00093E00E942B0E8DE893E00E94000F882360
:100F000039F08FEF03C08CEF01C08DEF9FEF01C070
:100F1000C801DF91CF911F910F91FF90EF90DF906B
:100F2000CF90BF90AF909F908F9008950F931F9395
:100F3000CF93DF93EC0168A18DE893E00E947C0ED3
:100F40006FEF8DE893E00E942B0E8DE893E00E94F6
:100F5000000F68A170E041E050E08DE893E00E944E
:100F6000FD0E8DE893E00E94A40D8C0168A18DE830
:100F700093E00E947C0E6BEF8DE893E00E942B0EB5
:100F80008DE893E00E94000F68A170E041E050E01E
:100F90008DE893E00E94FD0E8DE893E00E94A40D81
:100FA00098012770332727303105B1F4807F9927C6
:100FB000803F910589F483E0169507958A95E1F7BE
:100FC00081E00827017043E057E066E075E0E4E067
:100FD00022E0F1E030E034C0C80180779927803703
:100FE000910509F068C068A18DE893E00E947C0E2D
:100FF0006FEE8DE893E00E942B0E8DE893E00E9447
:10100000000F68A170E041E050E08DE893E00E949D
:10101000FD0E8DE893E00E94A40D8F7099270F9725
:1010200019F026E034E002C024E036E00095001F0D
:101030000027001F47E053E062E071E0E0E0F5E0E8
:1010400081E090E0DC0101C0AA0F3A95EAF7AAA37B
:10105000DC0101C0AA0FFA95EAF7ABA3DC0102C0DC
:10106000AA0FBB1F2A95E2F7ACA39C0101C0220F77
:10107000EA95EAF72DA39C0101C0220F7A95EAF7C1
:101080002EA39C0101C0220F6A95EAF72FA39C01B1
:1010900001C0220F5A95EAF728A701C0880F4A9588
:1010A000EAF789A70AA7013011F48BA701C01BA694
:1010B00080E090E002C08DEF9FEFDF91CF911F9114
:1010C0000F910895CF93DF93EC0168A18DE893E031
:1010D0000E947C0E60E08DE893E00E942B0E6FEF83
:1010E00070E08DE893E00E94DF018DE893E00E94BC
:1010F000000F68A18DE893E00E947C0E66E070E02E
:101100008DE893E00E94DF016FEF70E08DE893E0DF
:101110000E94DF018DE893E00E94000F68A18DE836
:1011200093E00E947C0E69E070E08DE893E00E94FD
:10113000DF018DE893E00E94000F68A170E041E0BC
:1011400050E08DE893E00E94FD0E8DE893E00E9450
:10115000A40D8F3761F086FF12C081FD4CC021E0E5
:1011600032E043E054E065E076E0E7E00FC027E0DE
:1011700036E045E054E063E072E0E1E007C026E0DD
:1011800033E042E051E060E077E0E4E081E090E0CD
:10119000DC0102C0AA0FBB1FEA95E2F7AAA31BA2BB
:1011A000FC0101C0EE0F7A95EAF7ECA3FC0102C046
:1011B000EE0FFF1F6A95E2F7EDA3BC0101C0660FB9
:1011C0005A95EAF76EA3BC0102C0660F771F4A95D5
:1011D000E2F76FA3AC0101C0440F3A95EAF748A7C4
:1011E00001C0880F2A95EAF789A791E09AA78BA7F3
:1011F00080E090E002C08DEF9FEFDF91CF910895E6
:101200001F93CF93DF93EC018DE893E00E946A0E69
:1012100068A161110AC080911E0391E0980F90931C
:101220001E030E949F0188A30DC08DE893E00E94D9
:101230007C0E8DE893E00E94000F882319F08CEF5C
:101240009FEFA7C088A1811109C080911E0391E082
:10125000980F90931E030E949F0188A318A1112349
:1012600071F389A18823C1F168A18DE893E00E9400
:101270007C0E89A1823009F076C065E070E08DE8CF
:1012800093E00E94DF0160E270E08DE893E00E944D
:10129000DF018DE893E00E94000F68A18DE893E0E4
:1012A0000E947C0E60E08DE893E00E942B0E60E0CF
:1012B0008DE893E00E942B0E8DE893E00E94000FD2
:1012C00068A18DE893E00E947C0E69E070E08DE8F3
:1012D00093E00E94DF0147C0612F8DE893E00E94F8
:1012E0007C0E60E08DE893E00E942B0E6FEF8DE89E
:1012F00093E00E942B0E8DE893E00E94000F612F77
:101300008DE893E00E947C0E60E08DE893E00E94FF
:101310002B0E8DE893E00E94000F612F70E041E0FA
:1013200050E08DE893E00E94FD0E8DE893E00E946E
:10133000A40D9C018F3F910529F091E0232B19F01A
:1013400090E001C092E099A3992309F1913021F432
:10135000CE010E94960703C0CE010E94620800974A
:1013600009F482CF16C060E08DE893E00E942B0E56
:101370008DE893E00E94000F21E030E0811102C06F
:1013800020E030E088279927821B930B02C08FEF63
:101390009FEFDF91CF911F91089580E090E0089535
:1013A0008DEF9FEF08958DEF9FEF0895CF93DF931B
:1013B000EC011B821A8288E092E0998388831F8265
:1013C000188680ED97E0A0E0B0E0888B998BAA8B1F
:1013D000BB8B86E290E0A0E0B0E08C8B9D8BAE8B67
:1013E000BF8B1C861D861E861F861B860E942017AB
:1013F000688F798F8A8F9B8F1C8E1D8E1E8E1F8EFD
:10140000DF91CF910895DC01ED91FC910684F78581
:10141000E02D6FEF0994DC01ED91FC910684F785D6
:10142000E02D60E009948F929F92AF92BF92EF926D
:10143000FF921F93CF93DF93EC01162FE881F98180
:101440000484F585E02D462F60E009957C0111505C
:10145000123038F419861A8688889988AA88BB8839
:1014600004C08C889D88AE88BF880E942017688F32
:10147000798F8A8F9B8F8C8E9D8EAE8EBF8EC7018B
:10148000DF91CF911F91FF90EF90BF90AF909F9011
:101490008F90089561E00C94130A62E00C94130A93
:1014A000FC018085481710F04FEF480F9385992372
:1014B00059F09781691730F0691B4F5F4817D0F3D7
:1014C00040E0F8CF61874287DF01A40FB11D1C9671
:1014D0008C91680F6068CF010C94130AFC01658140
:1014E000262F246025836C600C94130A0F931F939E
:1014F000CF93DF93EC01022F142F453008F014E056
:101500008C85811109C08D85811106C08E85811160
:1015100003C08F85882329F08F81882359F086178F
:1015200049F01C8680E48D876E87862F90E0805C72
:101530009F4F8F8718876F8364E670E080E090E0AC
:101540000E9445171C82E881F9810084F185E02D15
:10155000CE010995009709F05EC08885823018F0A9
:101560008C8188608C83002329F0113019F48C81E0
:1015700084608C83E881F9810484F585E02D40E363
:1015800062E0CE01099565E070E080E090E00E94A5
:101590004517E881F9810484F585E02D40E362E098
:1015A000CE01099561E070E080E090E00E9445176F
:1015B000E881F9810484F585E02D40E362E0CE0105
:1015C000099561E070E080E090E00E9445178C8111
:1015D00084FD09C0E881F9810484F585E02D40E2AD
:1015E00062E0CE0109956C816062CE010E94130A0F
:1015F00084E08D83CE010E946E0ACE010E944A0AC9
:1016000082E08E8366E0CE010E94130A8C01CE0137
:101610000E94030AC801DF91CF911F910F91089595
:10162000FC0165816D7F658368600C94130AFC0181
:1016300065816E7F658368600C94130ACF92DF9298
:10164000EF92FF920F931F93CF93DF93EC01462FFE
:10165000E881F9810484F585E02D61E009958C012C
:10166000CC88DD88EE88FF880E942017688F798FEC
:101670008A8F9B8FCC8EDD8EEE8EFF8E81E090E088
:10168000012B11F080E090E0DF91CF911F910F913D
:10169000FF90EF90DF90CF9008950F931F93CF931B
:1016A000DF93EC010E941E0B8C018B85882399F03F
:1016B00089858F5F89879F81891768F019868A8558
:1016C0008F5F8A879885891708F01A864A8560E0B7
:1016D000CE010E94500AC801DF91CF911F910F9156
:1016E000089510928C0381E080938A0310928903FD
:1016F00061E082E00E94811861E083E00E9481182D
:10170000E9EBF0E080818E7F808380818D7F808314
:1017100088E48093B80085E48093BC00089541324A
:1017200008F043C090918C039111FCCF91E090930D
:101730008C0320938A032FEF20931F0310926403DE
:10174000240F2093630390938B0390918B03880F56
:10175000892B80938B0380918903813061F41092EF
:10176000890380918B038093BB008091BC0083FD33
:10177000F8CF85EC01C085EE8093BC0080918C038E
:101780008130E1F380916403841710F44091640385
:10179000A5E6B3E0962FFB018E2F891B841718F462
:1017A0008D918193F9CF842F089580E008950F9350
:1017B000413208F04AC090918C039111FCCF32E085
:1017C00030938C0300938A033FEF30931F031092F2
:1017D000640340936303562FA5E6B3E0FB013E2F5D
:1017E000351B341718F431913D93F9CF10928B03C8
:1017F00030918B03880F832B80938B038091890317
:10180000813061F41092890380918B038093BB0037
:101810008091BC0083FDF8CF85EC01C085EE8093FC
:10182000BC00222321F080918C038230D1F380917F
:101830001F038F3F79F080911F03803241F0809128
:101840001F03803331F094E005C091E003C092E0C3
:1018500001C093E0892F0F91089540914103262FF5
:1018600030E0240F311D21323105DCF420918C034E
:101870002430C9F4FC0180E090E0861758F43091E0
:1018800041032191DC01AD5BBC4FA30FB11D2C9333
:101890000196F3CF80914103680F6093410380E08C
:1018A000089581E0089582E00895909386038093DF
:1018B000850308959093880380938703089585EDA9
:1018C0008093BC008091BC0084FDFCCF10928C03FF
:1018D000089585EC8093BC0010928C0308951F92AC
:1018E0000F920FB60F9211242F933F934F935F9354
:1018F0006F937F938F939F93AF93BF93EF93FF93D8
:101900008091B900887F803609F49EC078F58832CE
:1019100009F45DC090F4803109F456C038F488238E
:1019200009F4F5C0883009F44FC0F5C0883109F4D6
:101930004EC0803209F45FC0EEC0803409F46AC042
:1019400058F4803309F457C0883309F0E4C0809319
:101950001F030E94690CDFC0803509F44FC0883531
:1019600009F45DC0883409F0D6C0D3C0883909F4C1
:10197000C4C0A8F4883709F467C038F4883609F47D
:1019800063C0803709F460C0C6C0883809F4B5C0A8
:10199000803909F45FC0803809F0BDC05BC0803B6E
:1019A00009F483C038F4803A09F466C0883A09F42F
:1019B0007CC0B1C0803C09F4A4C0883C09F4A1C03B
:1019C000883B09F487C0A7C080918B0310C0909119
:1019D000640380916303981770F5E091640381E0DC
:1019E0008E0F80936403F0E0EB59FC4F808180936D
:1019F000BB0085EC83C080931F038BC0E091640320
:101A000081E08E0F809364038091BB00F0E0EB597E
:101A1000FC4F808390916403809163036BC0E091DD
:101A2000640381E08E0F809364038091BB00F0E03B
:101A3000EB59FC4F808380918A0381116AC081E059
:101A40008093890384EA5EC083E080938C031092C4
:101A50002003CFCF80912003803208F04EC0E09168
:101A6000200381E08E0F809320038091BB00F0E083
:101A7000EF5DFC4F8083BDCF0E94690C80912003F5
:101A8000803230F4E0912003F0E0EF5DFC4F1082F3
:101A90006091200370E0E0918503F091860381E27C
:101AA00093E009951092200336C084E080938C0364
:101AB0001092420310924103E0918703F091880352
:101AC000099580914103811105C081E08093410314
:101AD00010924303E091420381E08E0F8093420312
:101AE000F0E0ED5BFC4F80818093BB00909142035E
:101AF00080914103981708F47CCF85E88093BC005F
:101B00000AC085EC8093BC0010928C0304C0109234
:101B10001F030E945F0CFF91EF91BF91AF919F91C6
:101B20008F917F916F915F914F913F912F910F9086
:101B30000FBE0F901F9018958091C10390E02091E7
:101B4000C203821B910908959091C2038091C10341
:101B5000981750F4E92FF0E0ED53FC4F208130E06E
:101B60009F5F9093C20302C02FEF3FEFC90108951A
:101B7000E091C2038091C103E81730F4F0E0ED5327
:101B8000FC4F808190E008958FEF9FEF08950895B6
:101B9000CF93DF93EC01E0919903F0919A03309792
:101BA000F1F09091C2038091C1039817C0F090E0CA
:101BB000292F30E02617370754F4DE01A20FB31F98
:101BC0004C91D901AD53BC4F4C939F5FF1CF109214
:101BD000C2036093C103CB01DF91CF910994DF91E0
:101BE000CF910895E0919B03F0919C03309729F0E9
:101BF00010929F0310929E0309940895CF92DF9252
:101C0000EF92FF920F931F93CF93DF937C01CB0151
:101C10008A0120919D03222389F0EB016B01C40E00
:101C2000D51ECC15DD0569F06991D701ED91FC91C8
:101C30000190F081E02DC7010995F3CF642F0E9438
:101C40002D0CC801DF91CF911F910F91FF90EF9064
:101C5000DF90CF900895CF93DF931F92CDB7DEB77B
:101C6000698320919D032223D1F020919E0320328D
:101C700040F021E030E0FC013383228380E090E0FB
:101C800015C080919F03E82FF0E0E056FC4F99814A
:101C900090838F5F80939F0380939E0305C061E0D4
:101CA000CE0101960E942D0C81E090E00F90DF9113
:101CB000CF910895FC011382128288EE93E0A0E098
:101CC000B0E084839583A683B7838EE192E091830D
:101CD000808308951092C2031092C10310929F0353
:101CE00010929E030E94710B82EF9DE00E945A0C9D
:101CF00088EC9DE00C94550C81E080939D036093EB
:101D0000C00310929F0310929E0308950F93062F15
:101D100021E040919E0360EA73E08091C0030E943D
:101D2000D70B10929F0310929E0310929D030F9168
:101D300008954F925F926F927F92AF92BF92CF922F
:101D4000EF92FF920F931F93CF93DF935C01F62ED8
:101D5000D42F28013901EE2021F10E947C0ECE2DD6
:101D6000C43008F0C3E0C150C0F028E0C29FC001F9
:101D70001124A301920104C05695479537952795E4
:101D80008A95D2F7CA01B901D501ED91FC91019074
:101D9000F081E02DC5010995E6CF60E0C5010E9404
:101DA000860E4D2FD13208F040E22C2D63EC73E00B
:101DB0008F2D0E948F0B1092C2038093C103DF917D
:101DC000CF911F910F91FF90EF90CF90BF90AF9068
:101DD0007F906F905F904F900895CF92EF920F9306
:101DE0001F93C22EE12C00E010E098010E94990E92
:101DF0001F910F91EF90CF90089521E00C94ED0E7C
:101E000061E00C94860E8DE893E00C945A0E0E94CB
:101E10001B0F0C94CD0F0E94C60F58F00E94BF0FED
:101E200040F029F45F3F29F00C94B60F51110C9447
:101E300001100C94BC0F0E94DE0F68F39923B1F3DC
:101E4000552391F3951B550BBB27AA2762177307E0
:101E5000840738F09F5F5F4F220F331F441FAA1F74
:101E6000A9F335D00E2E3AF0E0E832D09150504030
:101E7000E695001CCAF72BD0FE2F29D0660F771FDE
:101E8000881FBB1F261737074807AB07B0E809F0C4
:101E9000BB0B802DBF01FF2793585F4F3AF09E3F49
:101EA000510578F00C94B60F0C9401105F3FE4F3E9
:101EB000983ED4F3869577956795B795F7959F5F8C
:101EC000C9F7880F911D9695879597F90895E1E0D8
:101ED000660F771F881FBB1F621773078407BA0737
:101EE00020F0621B730B840BBA0BEE1F88F7E09592
:101EF0000895E89409C097FB3EF4909580957095FD
:101F000061957F4F8F4F9F4F9923A9F0F92F96E945
:101F1000BB279395F695879577956795B795F111BA
:101F2000F8CFFAF4BB0F11F460FF1BC06F5F7F4F57
:101F30008F4F9F4F16C0882311F096E911C0772369
:101F400021F09EE8872F762F05C0662371F096E872
:101F5000862F70E060E02AF09A95660F771F881F41
:101F6000DAF7880F9695879597F9089597F99F67FF
:101F700080E870E060E008959FEF80EC0895002411
:101F80000A941616170618060906089500240A94DE
:101F900012161306140605060895092E0394000C64
:101FA00011F4882352F0BB0F40F4BF2B11F460FFF3
:101FB00004C06F5F7F4F8F4F9F4F089557FD90581C
:101FC000440F551F59F05F3F71F04795880F97FBFD
:101FD000991F61F09F3F79F08795089512161306B7
:101FE0001406551FF2CF4695F1DF08C016161706E6
:101FF0001806991FF1CF869571056105089408951B
:10200000E894BB2766277727CB0197F908950E94AC
:10201000791008F48FEF08950E941F100C94CD0FD3
:102020000E94BF0F38F00E94C60F20F0952311F0D8
:102030000C94B60F0C94BC0F11240C9401100E9448
:10204000DE0F70F3959FC1F3950F50E0551F629F0F
:10205000F001729FBB27F00DB11D639FAA27F00D01
:10206000B11DAA1F649F6627B00DA11D661F829F28
:102070002227B00DA11D621F739FB00DA11D621F0D
:10208000839FA00D611D221F749F3327A00D611D2A
:10209000231F849F600D211D822F762F6A2F11240C
:1020A0009F5750409AF0F1F088234AF0EE0FFF1F3F
:1020B000BB1F661F771F881F91505040A9F79E3F96
:1020C000510580F00C94B60F0C9401105F3FE4F3BF
:1020D000983ED4F3869577956795B795F795E795EC
:1020E0009F5FC1F7FE2B880F911D9695879597F9F5
:1020F0000895990F0008550FAA0BE0E8FEEF161699
:102100001706E807F907C0F012161306E407F507EB
:1021100098F0621B730B840B950B39F40A2661F05F
:10212000232B242B252B21F408950A2609F4A14002
:10213000A6958FEF811D811D08950E94ED1D0895C4
:102140000E9481170E949F1083EE93E00E94B716B1
:102150000E949D03C0E0D0E00E94DE032097E1F3DF
:102160000E940000F9CFCF92DF92EF92FF920F937F
:102170001F93CF93DF936C017A018B01C0E0D0E015
:10218000CE15DF0581F0D8016D918D01D601ED915D
:10219000FC910190F081E02DC6010995892B11F089
:1021A0002196EECF7E01C701DF91CF911F910F9154
:1021B000FF90EF90DF90CF9008956115710579F051
:1021C000FB0101900020E9F73197AF01461B570B47
:1021D000DC01ED91FC910280F381E02D099480E017
:1021E00090E00895DB0114964D915C9115976D91E7
:1021F0007C91DC01ED91FC910280F381E02D09944A
:102200000C94DD10DC01ED91FC910190F081E02D4A
:1022100009948F929F92AF92BF92EF92FF920F9389
:102220001F93CF93DF93CDB7DEB7A1970FB6F89486
:10223000DEBF0FBECDBF7C01FA01CB0119A2223057
:1022400008F42AE08E010F5D1F4F822E912CA12CE5
:10225000B12CBF01A50194010E94CA1BF901CA015A
:10226000015011096A3010F4605D01C0695CD80149
:102270006C93232B242B252B61F7B801C7010E94F7
:10228000DD10A1960FB6F894DEBF0FBECDBFDF9173
:10229000CF911F910F91FF90EF90BF90AF909F90C3
:1022A0008F9008952115310541F4DC01ED91FC91E9
:1022B0000190F081E02D642F09940C9409119A018A
:1022C000AB0160E070E00C945211CF92DF92EF927C
:1022D000FF920F931F93CF93DF932115310581F464
:1022E000DC01ED91FC910190F081E02D642FDF91F4
:1022F000CF911F910F91FF90EF90DF90CF900994B5
:102300002A30310501F577FF1DC06A017B01EC0120
:102310006DE20E9402118C0144275527BA014C1925
:102320005D096E097F092AE0CE010E940911800F24
:10233000911FDF91CF911F910F91FF90EF90DF9050
:10234000CF9008952AE0DF91CF911F910F91FF90D8
:10235000EF90DF90CF900C9409119A01AB01770FA9
:10236000660B770B0C9465117F928F929F92AF92C0
:10237000BF92CF92DF92EF92FF920F931F93CF9372
:10238000DF938C016A017B01722E9A01AB01C701B8
:10239000B6010E94B11B882319F06FE272E027C0DA
:1023A00046015701E894B7F82FEF3FEF4FE75FE79B
:1023B000C501B4010E94B11B81110DC02FEF3FEF89
:1023C0004FE75FE7C501B4010E947D1B18161CF49E
:1023D00063E372E00CC02FEF3FEF4FE75FE4C7010C
:1023E000B6010E940710181694F467E372E0C80162
:1023F000DF91CF911F910F91FF90EF90DF90CF90E1
:10240000BF90AF909F908F907F900C94DD102FEF36
:102410003FEF4FE75FECC701B6010E947D1B87FDD0
:10242000E4CF20E030E0A901C701B6010E947D1B86
:1024300087FF0AC06DE2C8010E940211EC01F7FAA1
:10244000F094F7F8F09402C0C0E0D0E0B12C60E066
:1024500070E080E09FE37B1441F020E030E040E258
:1024600051E40E94070FB394F6CFA70196010E9492
:10247000111B6B017C010E94821B4B015C012AE055
:10248000AB01BC01C8010E940911C80FD91F7720F8
:10249000B9F1C501B4010E94790F9B01AC01C701DC
:1024A000B6010E94101B6B017C016EE2C8010E9404
:1024B0000211C80FD91F20E030E040E251E4C7010B
:1024C000B6010E940C104B015C010E94821B6B0143
:1024D0007C014AE050E0C8010E945F11C80FD91F7B
:1024E000B60180E090E00E94790F9B01AC01C5012C
:1024F000B4010E94101B6B017C017A947110DBCF38
:10250000CE01DF91CF911F910F91FF90EF90DF905F
:10251000CF90BF90AF909F908F907F9008950C9434
:10252000B411615030F02091F100FC01208301963C
:10253000F8CF289884E68093EB0308954091E60352
:102540005091E7032091E4033091E50342175307CC
:10255000B4F49091E8009570E1F39091E80092FD59
:1025600019C08093F1008091E6039091E7030196F2
:102570008F739927892B19F48EEF8093E80080914F
:10258000E6039091E70301969093E7038093E603B7
:1025900081E0089580E00895DF92EF92FF920F931B
:1025A0001F93CF93DF93D82EF92EE42E062F10E041
:1025B000C8010196880F0E949E1283E00E949E121D
:1025C000CD2DDF2D0C0F1D1FC017D10789F0E7FEA1
:1025D00003C0FE01849101C088810E949E12F82EE2
:1025E00080E00E949E128F2121968111EDCF01C0C3
:1025F00081E0DF91CF911F910F91FF90EF90DF90DD
:1026000008958091D70081608093D70080EA8093FD
:10261000D80089B5806189BD89B5826089BD09B45A
:1026200000FEFDCF61E070E080E090E00E94451781
:102630008091D8008F7C80618093D8008091E000E9
:10264000807F8093E0000895CF93DF931F92CDB7F2
:10265000DEB71982CE0101960E94C8190E94FC1AA9
:10266000BE016F5F7F4F0E94771A89810F90DF91C3
:10267000CF9108952FB7FC012083F8946770609381
:10268000E9000895CF93DF931F92CDB7DEB7682F8F
:10269000CE0101960E943A138091F20099819FBF6A
:1026A0000F90DF91CF910895EF92FF920F931F93B8
:1026B000CF93DF931F92CDB7DEB79091EA039923B2
:1026C00011F057FF03C08FEF9FEF29C08A017B01F4
:1026D000682FCE0101960E943A132091F20030E05B
:1026E000021713070CF49801822FF70194E681502A
:1026F00038F028989093EB034091F1004193F7CF85
:102700002115310521F08091F200882321F0898183
:102710008FBFC90104C08BE68093E800F8CF0F900B
:10272000DF91CF911F910F91FF90EF900895CF937C
:10273000DF931F92CDB7DEB741E050E0BE016F5F7F
:102740007F4F0E945413019719F4898190E002C0D1
:102750008FEF9FEF0F90DF91CF910895CF93DF938D
:102760001F92CDB7DEB7682FCE0101960E943A13B3
:102770009091E800892F807295FF04C09091F2003B
:1027800080E4891B99819FBF0F90DF91CF910895BD
:102790005F926F927F928F929F92AF92BF92CF92F1
:1027A000DF92EF92FF920F931F93CF93DF931F92CD
:1027B000CDB7DEB7982E6B01B42E052F8091EA03BA
:1027C000811103C08FEF9FEF77C08091E80380FFF6
:1027D00005C08091E00082608093E000EB2CF02E39
:1027E000A12C8AEF882E892D8072682E892D807405
:1027F000582E9AE3792EE114F10419F4AA2009F471
:1028000055C0892D0E94AE13182F81110AC08A94D9
:102810008820C1F261E070E080E090E00E944517FE
:10282000EACF90E0E816F9060CF41E2D692DCE01D2
:1028300001960E943A138091E80085FF34C0812FF1
:1028400090E0E81AF90A662029F01150A0F01092E1
:10285000F100FBCFF60197FE0AC0115050F0249111
:102860002093F1003196F9CF21912093F10011507E
:10287000D8F7C80ED91EAA2019F07092E8000BC034
:102880008091E80085FD09C07092E800AA24A39415
:10289000E114F10441F0A12C06C0E114F10419F493
:1028A00051107092E80089818FBFA5CF5D9884E6B2
:1028B0008093EC038B2D902F0F90DF91CF911F9180
:1028C0000F91FF90EF90DF90CF90BF90AF909F90CF
:1028D0008F907F906F905F9008951092E900109212
:1028E000E7031092E6039093E5038093E4030895D1
:1028F000DF92EF92FF920F931F93CF93DF93D82E27
:102900008A017B01E40EF51EEB01CE15DF0571F0A7
:10291000D7FE03C0FE01849101C088810E949E12EF
:1029200021968111F2CF8FEF9FEF01C0C801DF9197
:10293000CF911F910F91FF90EF90DF900895AF928C
:10294000BF92DF92EF92FF920F931F93CF93DF938B
:102950005C018B01EB019BEFD92E2097C1F07E012A
:10296000C134D1051CF080E4E82EF12C8091E80000
:1029700082FFFCCFC8018C1B9D0B6E2D8A0D9B1D09
:102980000E949112D092E800CE19DF09E6CFC8016B
:10299000DF91CF911F910F91FF90EF90DF90BF904B
:1029A000AF9008951F920F920FB60F921124CF92FD
:1029B000DF92EF92FF920F931F932F933F934F93CA
:1029C0005F936F937F938F939F93AF93BF93EF9397
:1029D000FF93CF93DF93CDB7DEB76C97DEBFCDBF4C
:1029E0001092E9008091E80083FF17C168E0CE01F2
:1029F00045960E94911282EF8093E8008D8987FFAF
:102A000005C09091E80090FFFCCF03C09EEF90932B
:102A1000E800982F907609F0D8C09E894F89588D8C
:102A20002F89188D91110CC0803829F48091E90309
:102A30008093F10002C01092F1001092F100E6C004
:102A4000913051F48111E2C04130510509F0DEC0EE
:102A50008091E9038D7F0BC0933061F48111D6C062
:102A60004130510509F0D2C08091E9038260809322
:102A7000E903CCC0953049F48091E80080FFFCCF99
:102A8000822F80688093E300C1C0963009F070C047
:102A9000EB8CFC8C123069F580E090E00E946D14A4
:102AA0000E94241399E09E012F5F3F4F6901F901B5
:102AB000292F11922A95E9F799831A8391E09E8331
:102AC00090EA98879AEF99872091E6033091E7037F
:102AD000275F3F4F3C832B838D83C7010E946D147A
:102AE00049E050E0B60180E00E9478140E9424136F
:102AF0008DC0C7010E946D140E94FC1ABE016B5E5E
:102B00007F4F0E94A01A009719F00CF07FC082C07E
:102B1000113009F470C0133009F07CC08F8988230C
:102B200009F46CC0823029F440E860E189EE90E05D
:102B300006C0813039F440E86BE08DED90E00E94F2
:102B4000CC1256C0833009F065C00E94FC1A8E0179
:102B50000F5F1F4FB8010E94BF1AF80101900020BB
:102B6000E9F73197BF01601B710B40E0C801E7CF67
:102B7000973009F44FC0983021F481E08093F10040
:102B800045C0993009F042C0837009F043C0EBE0C2
:102B9000F1E081E031E096E32081211109C08EE768
:102BA0008093EA001092EA008F898093EA032EC096
:102BB0008093E9003093EB0021912093EC009093F7
:102BC000ED008F5F873041F7EACF8B8D9C8D0E949F
:102BD0006D14898D811105C0CE0145960E94D319CF
:102BE00007C00E94FC1ABE016B5E7F4F0E94DE1A76
:102BF000882381F00BC06BEC70E002C06AEF70E0DC
:102C0000FB01449150E080E80E9478148EEF80939D
:102C1000E80003C081E28093EB006C960FB6F89455
:102C2000DEBF0FBECDBFDF91CF91FF91EF91BF917E
:102C3000AF919F918F917F916F915F914F913F9154
:102C40002F911F910F91FF90EF90DF90CF900F90F9
:102C50000FBE0F901F9018958093E9008091F200AD
:102C6000882319F08AE38093E80008951F920F9259
:102C70000FB60F9211242F933F934F935F936F934F
:102C80007F938F939F93AF93BF93CF93EF93FF93D4
:102C9000C091E1008091E100837F8093E100C3FF58
:102CA0000FC01092E90081E08093EB001092EC00DD
:102CB00082E38093ED001092EA0388E08093F000B5
:102CC000C2FF19C083E00E942C168091EC03882378
:102CD00039F08091EC0381508093EC03882389F1D3
:102CE0008091EB03882339F08091EB03815080932E
:102CF000EB03882341F1C4FF10C08091E2008E7E77
:102D000081608093E2008091E1008F7E8093E100FA
:102D10008091E8038E7E806111C0C0FF16C0809153
:102D2000E2008E7E80618093E2008091E1008E7EE1
:102D30008093E1008091E8038E7E81608093E803B8
:102D400004C05D9ACDCF289AD6CFFF91EF91CF9155
:102D5000BF91AF919F918F917F916F915F914F91B3
:102D60003F912F910F900FBE0F901F9018951092CA
:102D7000EA031092E9031092E8030E940113E1EEC6
:102D8000F0E080818E7E80838DE08093E200559A12
:102D9000209A08951F920F920FB60F9211242F932D
:102DA0003F938F939F93AF93BF938091EE03909146
:102DB000EF03A091F003B091F1033091ED0323E014
:102DC000230F2D3720F40196A11DB11D05C026E863
:102DD000230F0296A11DB11D2093ED038093EE03F6
:102DE0009093EF03A093F003B093F1038091F2036B
:102DF0009091F303A091F403B091F5030196A11D06
:102E0000B11D8093F2039093F303A093F403B09366
:102E1000F503BF91AF919F918F913F912F910F90AB
:102E20000FBE0F901F9018952FB7F8946091EE0386
:102E30007091EF038091F0039091F1032FBF0895FB
:102E40003FB7F8948091F2039091F303A091F403BB
:102E5000B091F50326B5A89B05C02F3F19F0019648
:102E6000A11DB11D3FBFBA2FA92F982F8827820F10
:102E7000911DA11DB11DBC01CD0142E0660F771F60
:102E8000881F991F4A95D1F708958F929F92AF920C
:102E9000BF92CF92DF92EF92FF926B017C010E9472
:102EA00020174B015C01C114D104E104F10401F1CC
:102EB0000E94761A0E942017DC01CB01881999091B
:102EC000AA09BB09883E9340A105B10560F321E042
:102ED000C21AD108E108F10888EE880E83E0981E36
:102EE000A11CB11CC114D104E104F10419F7DBCF1A
:102EF000FF90EF90DF90CF90BF90AF909F908F901A
:102F00000895789484B5826084BD84B5816084BD61
:102F100085B5826085BD85B5816085BDEEE6F0E052
:102F2000808181608083E1E8F0E0108280818260AE
:102F30008083808181608083E0E8F0E0808181602F
:102F40008083E1E9F0E0808182608083808181601C
:102F50008083E0E9F0E0808181608083E1ECF0E053
:102F600080818460808380818260808380818160B1
:102F70008083E3ECF0E0808181608083E0ECF0E02E
:102F8000808182608083E2ECF0E0808181608083D8
:102F9000EAE7F0E0808184608083808182608083C2
:102FA0008081816080838081806880830895823100
:102FB00008F08251E82FF0E0E250FF4FE491809159
:102FC0007B00E3FB222720F930E095E0220F331F3E
:102FD0009A95E1F78F7D282B20937B00809111013A
:102FE00020E4829FC0011124E770E82BE0937C006D
:102FF00080917A00806480937A0080917A0086FDC7
:10300000FCCF809178002091790090E0922B089578
:1030100090E0FC013197EF30F105B0F5EA5AFF4F2F
:103020000C94EC1B809180008F7703C0809180000E
:103030008F7D80938000089580918000877FF9CFF5
:1030400084B58F7702C084B58F7D84BD089580914B
:1030500090008F7707C0809190008F7D03C0809192
:103060009000877F8093900008958091C0008F77B3
:1030700003C08091C0008F7D8093C000089580912F
:10308000C200877F8093C2000895CF93DF9390E0C2
:10309000FC01E75DFE4F2491FC01E85BFE4F84914B
:1030A000882361F190E0880F991FFC01ED57FE4FD6
:1030B000C591D491FC01EB58FE4FA591B4916111DB
:1030C00009C09FB7F8948881209582238883EC916A
:1030D0002E230BC0623061F49FB7F8948881322FA1
:1030E000309583238883EC912E2B2C939FBF06C0B1
:1030F0008FB7F894E8812E2B28838FBFDF91CF9173
:1031000008951F93CF93DF93282F30E0F901E65FF6
:10311000FE4F8491F901E75DFE4FD491F901E85B20
:10312000FE4FC491CC23C1F0162F81110E940818C4
:10313000EC2FF0E0EE0FFF1FEB58FE4FA591B4917E
:103140009FB7F894111104C08C91D095D82302C078
:10315000EC91DE2BDC939FBFDF91CF911F910895FF
:10316000CF93DF93282F30E0F901E65FFE4F849183
:10317000F901E75DFE4FD491F901E85BFE4FC49180
:10318000CC2391F081110E940818EC2FF0E0EE0F93
:10319000FF1FE959FE4FA591B491EC91ED2381E019
:1031A00090E021F480E002C080E090E0DF91CF91D8
:1031B0000895FC01808191810C949E1CCF93DF9334
:1031C000EC0188819981009711F00E949E1C198260
:1031D00018821D821C821B821A82DF91CF91089572
:1031E0000F931F93CF93DF93EC018B016F5F7F4FA2
:1031F000888199810E94271D009731F099838883E7
:103200001B830A8381E001C080E0DF91CF911F9191
:103210000F910895CF93DF93EC0188819981892BD9
:1032200029F08A819B818617970760F4CE010E945E
:10323000F018882341F08C819D81892B19F4E88155
:10324000F981108281E0DF91CF910895EF92FF9292
:103250000F931F93CF93DF93EC017B018A01BA0197
:103260000E940A19811104C0CE010E94DE1807C015
:103270001D830C83B701888199810E94021ECE01B3
:10328000DF91CF911F910F91FF90EF900895FC0176
:1032900011821082138212821582148261157105C7
:1032A00051F0FB0101900020E9F73197AF01461B77
:1032B000570B0C9426190895CF93DF931F92CDB727
:1032C000DEB76983DC01ED91FC910280F381E02D92
:1032D00041E050E0BE016F5F7F4F09950F90DF9195
:1032E000CF910895CF93DF93EC018C859D8597FF57
:1032F00005C082E00E9497139D878C878C859D85F1
:10330000DF91CF91089583E00E94AE1390E008957D
:1033100083E00C942C16FC018485958597FD06C0EE
:1033200082E00E94421390E00196089582E00E949C
:10333000421390E00895FC018485958597FD05C0B2
:103340002FEF3FEF35872487089582E00C94971381
:10335000CF93DF93EC0180911D01882331F083E04E
:103360000E94C8131816190634F081E090E09B8380
:103370008A8380E090E0DF91CF910895EEEFFFE740
:103380002591349181E02B3F3C4D09F080E0089578
:10339000FC0190819E5F908342E450E061E971E01E
:1033A00080E80C947814FC0181819081913A59F461
:1033B000813209F065C047E050E066E171E080E0ED
:1033C0000E9478145BC0913209F05AC0833269F4CC
:1033D00082819381A0E0B0E0809312019093130169
:1033E000A0931401B093150149C0803239F467E00D
:1033F00070E086E191E00E949F1440C0823209F0A3
:103400003DC0828180931D010E94BE19882319F05E
:10341000EEEFFAE002C0E0E0F8E080911601909152
:103420001701A0911801B0911901803B9440A105AA
:10343000B10541F580911D0180FD24C0EE3F8AE079
:10344000F80751F080819181873727E7920721F0B3
:103450009093FF0A8093FE0A87E797E79183808322
:1034600080916000809346049BE088E10FB6F89459
:10347000A895809360000FBE9093600081E008954E
:1034800080E008958081918187379747B9F7A895A3
:1034900080916000886180936000809146048093F1
:1034A0006000EE3F8AE0F80739F08091FE0A9091C3
:1034B000FF0A91838083E2CF1092FF0A1092FE0AE6
:1034C000DDCFE6EFF3E01382128288EE93E0A0E016
:1034D000B0E084839583A683B7838FE392E09183E2
:1034E00080838FEF9FEF9587848708950895EF92EB
:1034F000FF920F931F93CF93DF937B01FC01C28157
:10350000D38100E010E0209781F0E881F98102800A
:10351000F381E02DB701CE01099597FD08C0080F92
:10352000191F0884D985C02DEECFC80102C08FEFC6
:103530009FEFDF91CF911F910F91FF90EF90089532
:103540000F931F93CF93DF938B01FC01C281D38133
:10355000209771F0E881F9810480F581E02DB801B0
:10356000CE010995009731F40884D985C02DF0CF9C
:1035700080E090E0DF91CF911F910F9108950F931C
:103580001F93CF93DF938B01FC01C281D3812097DE
:1035900071F0E881F9810680F781E02DB801CE0154
:1035A0000995080F111D0884D985C02DF0CFF801A9
:1035B0001082DF91CF911F910F9108950F931F9368
:1035C000CF93DF938B01FC01C281D381209771F0EF
:1035D000E881F9810190F081E02DB801CE010995D3
:1035E000811105C00884D985C02DF0CF80E0DF911E
:1035F000CF911F910F91089580914B0481110DC0BF
:1036000082E08093470484E08093480410924A0447
:103610001092490481E080934B0487E494E008957C
:103620005058BB27AA270E94281B0C94CD0F0E943C
:10363000BF0F38F00E94C60F20F039F49F3F19F4F5
:1036400026F40C94BC0F0EF4E095E7FB0C94B60F37
:10365000E92F0E94DE0F58F3BA1762077307840739
:10366000950720F079F4A6F50C9400100EF4E0957F
:103670000B2EBA2FA02D0B01B90190010C01CA012C
:10368000A0011124FF27591B99F0593F50F4503ED7
:1036900068F11A16F040A22F232F342F4427585FC9
:1036A000F3CF469537952795A795F0405395C9F7E1
:1036B0007EF41F16BA0B620B730B840BBAF0915099
:1036C000A1F0FF0FBB1F661F771F881FC2F70EC038
:1036D000BA0F621F731F841F48F48795779567950B
:1036E000B795F7959E3F08F0B0CF9395880F08F0F7
:1036F0009927EE0F9795879508950E94791008F401
:1037000081E008950E94E60F88F09F5798F0B92F46
:103710009927B751B0F0E1F0660F771F881F991F06
:103720001AF0BA95C9F714C0B13091F00E94001098
:10373000B1E008950C940010672F782F8827B85FA8
:1037400039F0B93FCCF3869577956795B395D9F75E
:103750003EF490958095709561957F4F8F4F9F4F68
:1037600008950E947910880B990B089597FB072EF6
:1037700016F4009407D077FD09D00E94F21B07FCD5
:1037800005D03EF4909581959F4F08957095619571
:103790007F4F0895A1E21A2EAA1BBB1BFD010DC08D
:1037A000AA1FBB1FEE1FFF1FA217B307E407F507F1
:1037B00020F0A21BB30BE40BF50B661F771F881FCD
:1037C000991F1A9469F760957095809590959B0163
:1037D000AC01BD01CF010895EE0FFF1F0590F491DC
:1037E000E02D0994AA1BBB1B51E107C0AA1FBB1FF8
:1037F000A617B70710F0A61BB70B881F991F5A957D
:10380000A9F780959095BC01CD0108950F931F9362
:10381000CF93DF938230910510F482E090E0E09145
:103820005504F091560420E030E0A0E0B0E030977D
:1038300019F1408151810281138148175907C8F05D
:103840008417950769F4109731F012960C9312972C
:1038500013961C9327C0009355041093560422C05E
:103860002115310519F04217530718F49A01BD01CB
:10387000EF01DF01F801DBCF21153105F9F0281B3D
:10388000390B2430310580F48A819B8161157105E3
:1038900021F0FB019383828304C0909356048093AC
:1038A0005504FE01329644C0FE01E20FF31F8193DE
:1038B000919322503109398328833AC020915304CF
:1038C00030915404232B41F42091020130910301E3
:1038D000309354042093530420910001309101014E
:1038E0002115310541F42DB73EB7409104015091A7
:1038F0000501241B350BE0915304F0915404E217A9
:10390000F307A0F42E1B3F0B2817390778F0AC0102
:103910004E5F5F4F2417350748F04E0F5F1F5093DF
:103920005404409353048193919302C0E0E0F0E08B
:10393000CF01DF91CF911F910F910895CF93DF9326
:10394000009709F481C0FC01329713821282A09182
:103950005504B0915604109781F420813181820F73
:10396000931F20915304309154042817390751F5BF
:10397000F0935404E093530467C0ED0120E030E07D
:10398000CE17DF0740F44A815B819E014115510546
:10399000F1F0EA01F5CFD383C28340815181840FD6
:1039A000951FC817D90759F488819981840F951FED
:1039B0000296918380838A819B81938382832115E0
:1039C000310529F4F0935604E09355043DC0E90114
:1039D000FB83EA8349915991C40FD51FEC17FD076A
:1039E00061F480819181840F951F0296E90199838A
:1039F0008883828193819B838A83E0E0F0E0129642
:103A00008D919C911397009719F0FD01DC01F7CF80
:103A10008D919C9111979D012E5F3F4F820F931FB7
:103A200020915304309154042817390769F43097D2
:103A300029F4109256041092550402C01382128287
:103A4000B0935404A0935304DF91CF910895A0E064
:103A5000B0E0EDE2FDE10C940D1EEC01009721F4C5
:103A6000CB010E94061CB4C0FC01E60FF71F9C01AD
:103A700022503109E217F30708F4A8C0D9010D91CB
:103A80001C91119706171707B0F00530110508F4BF
:103A90009BC0C80104978617970708F495C0025089
:103AA0001109061B170B019311936D937C93CF01A2
:103AB0000E949E1C89C05B01A01AB10A4C01800EB5
:103AC000911EA0915504B0915604612C712CE12CEB
:103AD000F12C109709F446C08D919C911197A8156F
:103AE000B905B1F56C0142E0C40ED11CCA14DB0467
:103AF00078F14C018A189B08640142E0C40ED11C85
:103B00001296BC9012971396AC91B5E0CB16D104E7
:103B100040F0B282A38391828082D9016D937C931D
:103B200009C00E5F1F4F800F911FF90191838083A1
:103B3000EB2DFA2FE114F10431F0D7011396FC9329
:103B4000EE93129741C0F0935604E09355043CC0A5
:103B50006816790608F43C017D0112960D90BC911F
:103B6000A02DB7CF809153049091540488169906E4
:103B7000E1F466167706C8F4809100019091010186
:103B8000009741F48DB79EB7409104015091050113
:103B9000841B950BE817F907C8F4F0935404E093DD
:103BA0005304F901718360830FC0CB010E94061C8E
:103BB0007C01009759F0A801BE010E94F91DCE01B9
:103BC0000E949E1CC70104C0CE0102C080E090E0AC
:103BD000CDB7DEB7EEE00C94291E81E090E0F894BA
:103BE0000C94401EFB01DC0105900D920020E1F7D2
:103BF0000895FB01DC0102C001900D92415050403C
:103C0000D8F70895FB01DC0101900D920020E1F747
:103C100008952F923F924F925F926F927F928F9270
:103C20009F92AF92BF92CF92DF92EF92FF920F934B
:103C30001F93CF93DF93CDB7DEB7CA1BDB0B0FB655
:103C4000F894DEBF0FBECDBF09942A883988488812
:103C50005F846E847D848C849B84AA84B984C884A8
:103C6000DF80EE80FD800C811B81AA81B981CE0F9F
:103C7000D11D0FB6F894DEBF0FBECDBFED01089584
:103C800010E0CDEED0E004C0FE010E94EC1B2196B6
:0A3C9000CE3ED107C9F7F894FFCF2C
:103C9A00000057042000E803000000C180810000F2
:103CAA000001FFFFFFFF00E10000000000003A30C2
:103CBA00003A0053656E736F7220646566656B74B3
:103CCA0000200043005A6569676572206B616C6960
:103CDA006272696572656E00526F6D656F20563249
:103CEA002E3220576174636800436F726179202F06
:103CFA00204272756E6F004C6F6E646F6E004E6577
:103D0A00772D596F726B00506172697300546F6B33
:103D1A00796F00486F6E676B6F6E67004C6F732028
:103D2A00416E67656C6573004368696361676F001C
:103D3A0053656F756C004272C3BC7373656C005730
:103D4A00617368696E67746F6E0053696E6761703C
:103D5A007572005379646E657900000000004D0B9E
:103D6A00B31098019B0100097B060B06AE059C0166
:103D7A00CA00FFFFFFFFFFFF0100FFFFCD020000A7
:103D8A000000CA00FFFF0000FFFFFFFFFFFF610303
:103D9A0000000000000000004D0BB31098019B01C9
:103DAA00CD09D0099D10D3099C01000000002B0EFB
:103DBA00FE0D9801C70D9C0DA40DB80D0D0A006EDD
:103DCA00616E00696E66006F766600000000005C36
:0E3DDA0019A819831988198B199B19721900E1
:00000001FF
