:100000000C94ED000C9415010C9415010C94150141
:100010000C9415010C9415010C9415010C94150108
:100020000C9415010C9415010C94CE180C946A17BD
:100030000C9415010C9415010C9415010C941501E8
:100040000C9415010C9415010C9415010C941501D8
:100050000C9415010C9415010C9415010C94621963
:100060000C9415010C9415010C9415010C941501B8
:100070000C9415010C9415010C9415010C941501A8
:100080000C9415010C9415010C9415010C94150198
:100090000C940C0F0C9415010C9415010C94150183
:1000A0000C9415010C9415010C941501C31AC61A71
:1000B000B51AB91ABF1AE71AE71AE71ACA1ACE1AF6
:1000C000D21AD81ADC1AE71AE21A12010002EF0259
:1000D0000140412336800001010203014172647531
:1000E000696E6F204C4C430041726475696E6F20DD
:1000F0004C656F6E6172646F0004030904070605A6
:10010000040100080A0B0C0D090000000200090F91
:100110000000030401000C000000000000000000CB
:1001200000000000000000000408020110408040B0
:10013000102040804080080204018040201002010D
:10014000108010204040200404040404030405022D
:100150000202020403020202020606060606060462
:10016000040202020404000000002300260029000B
:100170002C002F0000000000250028002B002E007E
:10018000310000000000240027002A002D0030006C
:10019000080B000202020100090400000102020033
:1001A00000052400100105240101010424020605B4
:1001B0002406000107058103100040090401000224
:1001C0000A00000007050202400000070583024004
:1001D0000000D305A011DB1C0C0711241FBECFEFBC
:1001E000DAE0DEBFCDBF12E0A0E0B1E0EAE8F1E482
:1001F00002C005900D92AA39B107D9F725E0AAE906
:10020000B2E001C01D92A730B207E1F710E0CCEEDA
:10021000D0E004C02197FE010E946B1EC93ED107A9
:10022000C9F70E9438130C94B8200C94000080E0A9
:100230000E947A1A8D3F23E0920720F180919A0262
:1002400090919B02019690939B0280939A02039750
:100250000CF46AC0EAE9F2E020E030E080E090E0EF
:1002600040815181443051052CF0C901493C510570
:100270000CF00596119211922F5F3F4F26303105F9
:1002800079F708958934910570F480919C029091DA
:100290009D0281152DE792074CF4019690939D02E3
:1002A00080939C0241C08E3E910570F480919E0225
:1002B00090919F0281152DE7920754F40196909337
:1002C0009F0280939E0230C0823A21E0920770F430
:1002D0008091A0029091A10281152DE792074CF424
:1002E00001969093A1028093A0021EC08037924095
:1002F00070F48091A2029091A30281152DE79207DC
:1003000034F401969093A3028093A2020DC08091D1
:10031000A4029091A50281152DE792072CF4019675
:100320009093A5028093A40280E090E0089580E07D
:1003300090E0089508958DEF9FEF08959091EB025E
:1003400081E089278093EB0280E090E0089590910E
:10035000EA0281E089278093EA0280E090E0089534
:100360000F931F93CF93DF93182FD0E0C0E26C2F31
:100370008DE394E00E9419118DE394E00E949D1199
:10038000082F61E070E080E090E00E94DD1901112B
:1003900003C01D17F9F0DF5FCF5FC83241F7C8E334
:1003A0006C2F8DE394E00E9419118DE394E00E947C
:1003B0009D11082F61E070E080E090E00E94DD195F
:1003C000011103C01D1731F0DF5FCF5FC03441F76B
:1003D00080E001C08C2FDF91CF911F910F91089584
:1003E000DC01ED91FC910190F081E02D0994FC017C
:1003F0008481958101962CE330E0B9010E94351E7D
:1004000095838483892B19F080E090E008958281A0
:1004100093810196B9010E94351E93838283892BB3
:1004200099F780819181019668E170E00E94351E04
:10043000AC019183808321E090E0452B09F020E01E
:10044000822F0895FC012281338126303105D9F0B5
:100450003CF42230310569F02430310539F413C001
:100460002930310581F02B30310569F08FE190E0C2
:100470000895FC018081918183709927892B31F443
:100480008DE190E008958EE190E008958CE190E098
:1004900008950F931F93CF93DF93EC010C811D817F
:1004A0000F5F1F4F1D830C830E942202801791074C
:1004B000A4F421E030E03D832C838A819B81019666
:1004C0008D3091051CF49B838A8307C03B832A836C
:1004D00088819981019699838883DF91CF911F91BB
:1004E0000F9108950F931F930E94AC19009106017C
:1004F0001091070120910801309109010617170793
:100500002807390770F5D901C80188519C4FAF4FB2
:10051000BF4F8093060190930701A0930801B09309
:10052000090184ED92E00E94F701892B21F08CEB08
:1005300092E00E9449028CEC92E00E94F701892B24
:1005400021F084EB92E00E94490284EC92E00E9448
:10055000F701892B31F08CEA92E01F910F910C94F6
:1005600049021F910F9108950F931F93CF93DF932B
:100570008C018091EA02F801C081D181882389F041
:10058000CD30D1050CF02C97CA30D10534F46FE191
:1005900071E082EA93E00E9498134AE050E0BE01C5
:1005A0000DC02A9734F46FE171E082EA93E00E9473
:1005B0009813F801608171814AE050E082EA93E08B
:1005C0000E944514F801828193810A971CF46EE120
:1005D00071E002C061E271E082EA93E00E94981348
:1005E000F801628173814AE050E082EA93E00E9460
:1005F0004514F801848195810A971CF46EE171E03D
:1006000002C061E271E082EA93E00E949813F8016F
:10061000648175814AE050E082EA93E00E944514CB
:100620008091EA02882391F0F801808191810D97F1
:100630001CF063E271E002C067E271E082EA93E0DD
:10064000DF91CF911F910F910C949813DF91CF916F
:100650001F910F910895CF93DF93EC018C819D81C1
:100660000A9734F461E471E082EA93E00E949813FF
:100670006C817D814AE050E082EA93E00E9445145B
:100680008A819B810A971CF46BE271E002C06EE2E2
:1006900071E082EA93E00E9498136A817B814AE0CC
:1006A00050E082EA93E00E9445146EE271E082EA33
:1006B00093E00E949813688179814AE050E082EAD1
:1006C00093E0DF91CF910C944514CF93DF93EC012D
:1006D00040E060E082EA93E00E94ED0C8CEA92E058
:1006E0000E942B03CE01DF91CF910895CF92DF922C
:1006F000EF92FF9241E060E082EA93E00E94ED0C0D
:10070000C090F002D090F102E090F202F090F3027B
:1007100020E030E0A901C701B6010E941112811149
:1007200003C060E371E023C022E030E0B701A6011E
:1007300082EA93E00E9427156FED82EA93E00E941F
:100740009A136EE371E082EA93E00E94981340915D
:10075000EC025091ED026091EE027091EF0222E006
:1007600030E082EA93E00E94271563E471E082EAB8
:1007700093E0FF90EF90DF90CF900C9498130F933D
:100780001F93CF93DF93EC010E94AC190091F40208
:100790001091F5022091F6023091F7020617170723
:1007A00028073907B8F566E18CED92E00E94000C4D
:1007B0008091E0029091E102A091E202B091E30207
:1007C0008093F0029093F102A093F202B093F302AF
:1007D0008091DC029091DD02A091DE02B091DF02F7
:1007E0008093EC029093ED02A093EE02B093EF029F
:1007F0000E9476030E94AC19DC01CB0188579C4E05
:10080000AF4FBF4F8093F4029093F502A093F6028E
:10081000B093F7020E94760340E060E082EA93E042
:100820000E94ED0C8091EB028823D9F08CEC92E0D1
:100830000E94B40240E06DE082EA93E00E94ED0C79
:100840008091F8029091F9022EE0289FB001299F33
:10085000700D11246E5F7C4F82EA93E00E948A1330
:1008600004C084EC92E00E94B402CE01DF91CF91EB
:100870001F910F9108958091F8029091F9022EE056
:10088000289FF001299FF00D1124E650FD4F26818D
:1008900037818091D4029091D502820F931F8831C5
:1008A00091050CF048979093CD028093CC028091F3
:1008B000CC029091CD0297FF05C048969093CD024F
:1008C0008093CC0208958330910539F08A309105E8
:1008D00021F08130910551F517C082EA93E00E9422
:1008E000E70C8091F8029091F902009719F48BE0DF
:1008F00090E001C001979093F9028093F8020E9462
:100900003B048AE090E0089582EA93E00E94E70CBD
:100910008091F8029091F9028B30910529F41092A0
:10092000F9021092F802EBCF0196E5CF0895CF932C
:10093000DF930E946304EC0140E060E082EA93E010
:100940000E94ED0C8091F8029091F9022EE0289F10
:10095000B001299F700D112466507D4F82EA93E00B
:100960000E948A1341E060E082EA93E00E94ED0C6D
:100970008CEC92E00E94B402CE01DF91CF910895F9
:1009800020E042E060E182EA93E00E94130D82EAF7
:1009900093E00E94A80C82EA93E00E94AD0D82EAE7
:1009A00093E00E94EA0C68E571E082EA93E00E941D
:1009B000981341E060E082EA93E00E94ED0C69E662
:1009C00071E082EA93E00E9498130E94AC19683BA0
:1009D0007B4081059105C8F382EA93E00E94E70C11
:1009E00088E0E4EDF2E0ACECB2E001900D928A9583
:1009F000E1F760E087E00E94E81A60E086E10C948D
:100A0000E81A0E9472020E9417019093A702809335
:100A1000A602E091AA02F091AB0274E0EE0FFF1F74
:100A20007A95E1F7E05EFD4F0284F385E02D309783
:100A300029F009959093A7028093A6028091A602BF
:100A40009091A70283309105D9F134F4813091055A
:100A500079F0029719F109C08530910509F465C054
:100A60000CF440C0069709F483C08FEF9FEF11C0CC
:100A700082EA93E00E94E70CE091AA02F091AB02B7
:100A800064E0EE0FFF1F6A95E1F7E05EFD4F8081A5
:100A900091819093A9028093A8027AC082EA93E0A0
:100AA0000E94E70CE091AA02F091AB0254E0EE0F35
:100AB000FF1F5A95E1F7E05EFD4F82819381E9CFF8
:100AC00082EA93E00E94E70CE091AA02F091AB0267
:100AD00044E0EE0FFF1F4A95E1F7E05EFD4F848191
:100AE0009581D7CF82EA93E00E94E70CE091AA02B9
:100AF000F091AB0234E0EE0FFF1F3A95E1F7E05EB4
:100B0000FD4F0484F585E02D309709F00995E091BB
:100B1000AA02F091AB0224E0EE0FFF1F2A95E1F745
:100B2000E05EFD4F86819781B4CF82EA93E00E9418
:100B3000E70CE091AA02F091AB0294E0EE0FFF1FE8
:100B40009A95E1F7E05EFD4F0684F785E02D30973A
:100B500009F00995E091AA02F091AB0284E0EE0F52
:100B6000FF1F8A95E1F7E05EFD4F8085918591CF6B
:100B700082EA93E00E94E70C82EA93E00E94AD0DC6
:100B800082EA93E00E94B40D1092A9021092A8028A
:100B90008091A8029091A90297FD04C09093AB02A6
:100BA0008093AA020895AF92BF92CF92DF92EF9204
:100BB000FF920F931F93CF93DF9382EA93E00E94FB
:100BC000730CE2EAF3E08EE092E09183808310A25E
:100BD00011A267E771E08AEF92E00E94C11BCAEFA1
:100BE000D2E01F821E826EE771E082E093E00E94F5
:100BF000C11B62E871E088E093E00E94C11B8BEFAB
:100C0000A82EBB24BA94BD8AAC8A6BE871E080E15F
:100C100093E00E94C11B6FE871E086E193E00E94BF
:100C2000C11BEE24E394F12CFBA2EAA265E971E07A
:100C30008EE193E00E94C11B69E971E084E293E0D8
:100C40000E94C11B09E010E019AB08AB6FE971E02D
:100C50008CE293E00E94C11B63EA71E082E393E0BF
:100C60000E94C11B28E0C22ED12CDFAECEAE6CEAB2
:100C700071E08AE393E00E94C11B60EB71E080E4C5
:100C800093E00E94C11B88EF9FEF909347038093EE
:100C900046036CEB71E088E493E00E94C11B60ECBA
:100CA00071E08EE493E00E94C11B8AEF9FEF909366
:100CB00055038093540368EC71E086E593E00E944D
:100CC000C11B6CEC71E08CE593E00E94C11B10939A
:100CD00063030093620362ED71E084E693E00E9497
:100CE000C11B66ED71E08AE693E00E94C11BF092A1
:100CF0007103E09270036FED71E082E793E00E9470
:100D0000C11B63EE71E088E793E00E94C11BB092C3
:100D10007F03A0927E036EEE71E080E893E00E9474
:100D2000C11B62EF71E086E893E00E94C11BD09284
:100D30008D03C0928C036BEF71E08EE893E00E940C
:100D4000C11B6FEF71E084E993E00E94C11B8BE04F
:100D500090E090939B0380939A0366E072E08CE9A5
:100D600093E00E94C11B1092E902E4EDF2E047E13A
:100D700050E0518340838FE190E09383828315821A
:100D8000148217821682ECECF2E02CE030E0318322
:100D90002083138212821582148217821682E4EC59
:100DA000F2E05183408393838283158214821782F9
:100DB0001682ECEBF2E08AE090E095838483338343
:100DC000228323EE37E03183208317821682E4EBFF
:100DD000F2E0F582E4821383028320ED37E0318371
:100DE000208317821682ECEAF2E02FE030E03583B0
:100DF0002483938382838BEC97E091838083178293
:100E00001682DF91CF911F910F91FF90EF90DF90AD
:100E1000CF90BF90AF900895CF93DF93C2EAD3E015
:100E20002E97CE0108960E94531BCE010E94531BA1
:100E300082E0CA3FD807A1F7DF91CF910895CF9301
:100E4000DF93FC0181A5882371F192A5662319F037
:100E5000913029F402C0911102C083A701C013A6EA
:100E6000EF0160A18DE394E00E94191189A1823005
:100E700031F469E070E08DE394E00E94F0016BA52D
:100E80008DE394E00E94C8108DE394E00E949D11D0
:100E900021E030E0811102C020E030E0882799276E
:100EA000821B930B02C08DEF9FEFDF91CF910895CE
:100EB000CF93FC01C3A560FF02C085A1C82B61FFD1
:100EC00002C086A1C82B62FF02C087A1C82B63FFA6
:100ED00002C080A5C82B413011F482A1C82B64A1A7
:100EE0006C2B70E08DE394E00E94F0016C2F8DE399
:100EF00094E0CF910C94C8108F929F92AF92BF92C2
:100F0000CF92DF92EF92FF920F931F93CF93DF93D5
:100F1000EC0188A1882309F450C089A1882309F431
:100F20004CC0142F062F8C8C9D8CAE8CBF8CC88C23
:100F3000D98CEA8CFB8C8DE2C81AD108E108F10843
:100F40000E94B819DC01CB018C199D09AE09BF09BB
:100F500088159905AA05BB0598F368A18DE394E06F
:100F60000E94191189A1823031F469E070E08DE3AB
:100F700094E00E94F001612F70E084E07595679520
:100F80008A95E1F7402FCE010E945807023031F0D8
:100F9000612F6F70402FCE010E9458078DE394E0BF
:100FA0000E949D1121E030E0811102C020E030E07C
:100FB00088279927821B930B02C08CEF9FEFDF914C
:100FC000CF911F910F91FF90EF90DF90CF90BF9046
:100FD000AF909F908F9008958F929F92AF92BF9203
:100FE000CF92DF92EF92FF920F931F93CF93DF93F5
:100FF000EC011BA588A1882309F4F6C089A18823E8
:1010000009F4F2C0823009F4F1C08BA1882309F4FD
:10101000EDC0062F8C8C9D8CAE8CBF8CC88CD98C6F
:10102000EA8CFB8C8DE2C81AD108E108F1080E9415
:10103000B819DC01CB018C199D09AE09BF098815CF
:101040009905AA05BB0598F38DA1182B8EA1182B25
:101050008FA1182B88A5182B013011F48AA1182B09
:101060008BA1182B68A18DE394E00E941911612FC8
:101070008DE394E00E94C8108DE394E00E949D11DE
:10108000882319F00FEF1FEF9DC068A18DE394E056
:101090000E9419116CA1612B70E08DE394E00E9415
:1010A000F0018DE394E00E949D118111EBCF68A1C6
:1010B00070E041E050E08DE394E00E949A118DE3EE
:1010C00094E00E9441107C0197FDDCCF68A18DE384
:1010D00094E00E941911612F8DE394E00E94C810E2
:1010E0008DE394E00E949D118111CCCF8DA190E001
:1010F0008E219F21892B11F400E001C000E18EA117
:1011000090E08E219F21892B09F000628FA190E051
:101110008E219F21892B09F0006488A590E0E822A8
:10112000F922EF2809F0006868A18DE394E00E949D
:1011300019116CA1612B70E08DE394E00E94F00125
:101140008DE394E00E949D1181119CCF68A170E015
:1011500041E050E08DE394E00E949A118DE394E029
:101160000E9441107C0197FD8DCF68A18DE394E032
:101170000E941911612F8DE394E00E94C8108DE345
:1011800094E00E949D1181117DCF8DA190E08E2170
:101190009F21892B09F001608EA190E08E219F2173
:1011A000892B09F002608FA190E08E219F21892B6D
:1011B00009F0046088A590E0E822F922EF2809F000
:1011C000086010E068A18DE394E00E9419116BA5FE
:1011D0008DE394E00E94C8108DE394E00E949D117D
:1011E000882339F08FEF03C08CEF01C08DEF9FEFA4
:1011F00001C0C801DF91CF911F910F91FF90EF9037
:10120000DF90CF90BF90AF909F908F9008950F93F5
:101210001F93CF93DF93EC0168A18DE394E00E94CC
:1012200019116FEF8DE394E00E94C8108DE394E0F4
:101230000E949D1168A170E041E050E08DE394E0D0
:101240000E949A118DE394E00E9441108C0168A1E4
:101250008DE394E00E9419116BEF8DE394E00E94FE
:10126000C8108DE394E00E949D1168A170E041E0F8
:1012700050E08DE394E00E949A118DE394E00E9487
:10128000411098012770332727303105B1F4807F52
:101290009927803F910589F483E0169507958A95F3
:1012A000E1F781E00827017043E057E066E075E070
:1012B000E4E022E0F1E030E034C0C8018077992713
:1012C0008037910509F068C068A18DE394E00E9421
:1012D00019116FEE8DE394E00E94C8108DE394E045
:1012E0000E949D1168A170E041E050E08DE394E020
:1012F0000E949A118DE394E00E9441108F7099270B
:101300000F9719F026E034E002C024E036E00095A3
:10131000001F0027001F47E053E062E071E0E0E0BB
:10132000F5E081E090E0DC0101C0AA0F3A95EAF710
:10133000AAA3DC0101C0AA0FFA95EAF7ABA3DC016E
:1013400002C0AA0FBB1F2A95E2F7ACA39C0101C003
:10135000220FEA95EAF72DA39C0101C0220F7A958E
:10136000EAF72EA39C0101C0220F6A95EAF72FA38A
:101370009C0101C0220F5A95EAF728A701C0880FE7
:101380004A95EAF789A70AA7013011F48BA701C093
:101390001BA680E090E002C08DEF9FEFDF91CF9120
:1013A0001F910F910895CF93DF93EC0168A18DE316
:1013B00094E00E94191160E08DE394E00E94C8104F
:1013C0006FEF70E08DE394E00E94F0018DE394E014
:1013D0000E949D1168A18DE394E00E94191166E0BE
:1013E00070E08DE394E00E94F0016FEF70E08DE318
:1013F00094E00E94F0018DE394E00E949D1168A1A9
:101400008DE394E00E94191169E070E08DE394E0AF
:101410000E94F0018DE394E00E949D1168A170E0AC
:1014200041E050E08DE394E00E949A118DE394E056
:101430000E9441108F3761F086FF12C081FD4CC0C1
:1014400021E032E043E054E065E076E0E7E00FC001
:1014500027E036E045E054E063E072E0E1E007C0F9
:1014600026E033E042E051E060E077E0E4E081E054
:1014700090E0DC0102C0AA0FBB1FEA95E2F7AAA325
:101480001BA2FC0101C0EE0F7A95EAF7ECA3FC0168
:1014900002C0EE0FFF1F6A95E2F7EDA3BC0101C089
:1014A000660F5A95EAF76EA3BC0102C0660F771F5C
:1014B0004A95E2F76FA3AC0101C0440F3A95EAF7F1
:1014C00048A701C0880F2A95EAF789A791E09AA753
:1014D0008BA780E090E002C08DEF9FEFDF91CF916E
:1014E00008951F93CF93DF93EC018DE394E00E9466
:1014F000071168A161110AC08091CE0391E0980F95
:101500009093CE030E94B00188A30DC08DE394E0B8
:101510000E9419118DE394E00E949D11882319F017
:101520008CEF9FEFA7C088A1811109C08091CE03E5
:1015300091E0980F9093CE030E94B00188A318A168
:10154000112371F389A18823C1F168A18DE394E08F
:101550000E94191189A1823009F076C065E070E01F
:101560008DE394E00E94F00160E270E08DE394E08E
:101570000E94F0018DE394E00E949D1168A18DE32B
:1015800094E00E94191160E08DE394E00E94C8107D
:1015900060E08DE394E00E94C8108DE394E00E9427
:1015A0009D1168A18DE394E00E94191169E070E03B
:1015B0008DE394E00E94F00147C0612F8DE394E039
:1015C0000E94191160E08DE394E00E94C8106FEF53
:1015D0008DE394E00E94C8108DE394E00E949D1179
:1015E000612F8DE394E00E94191160E08DE394E097
:1015F0000E94C8108DE394E00E949D11612F70E05D
:1016000041E050E08DE394E00E949A118DE394E074
:101610000E9441109C018F3F910529F091E0232BFE
:1016200019F090E001C092E099A3992309F191305B
:1016300021F4CE010E94070903C0CE010E94D30904
:10164000009709F482CF16C060E08DE394E00E9419
:10165000C8108DE394E00E949D1121E030E08111DB
:1016600002C020E030E088279927821B930B02C03C
:101670008FEF9FEFDF91CF911F9108952F923F92AF
:101680004F925F926F927F928F929F92AF92BF9292
:10169000CF92DF92EF92FF920F931F93CF93DF933E
:1016A000EC01F62E042FE22E862F90E0FC01E85D7F
:1016B000FE4F1491FC01E95BFE4FE491F0E0EE0F68
:1016C000FF1FEA59FE4FC590D49061E08F2D0E9414
:1016D000E81A60E08F2D0E94241B093038F0602F3B
:1016E00070E080E090E00E94DD190AC088EE93E08F
:1016F0009C01029FC001039F900D11240E94191AA2
:1017000060E08F2D0E94E81A80E293E0D6012C91D0
:10171000212321F00197D1F78DEF5FC080E991E09F
:10172000F6012081212321F40197D1F78CEF55C0D8
:1017300080E991E0D6012C91212321F00197D1F786
:101740008BEF4BC058E280E991E020E030E0E0E927
:10175000F1E000E060E0312C40E8252E2E1870E921
:10176000872E99249394A12CB12CD6017C917123BE
:1017700061F5002351F1251698F48E179F0708F4A0
:10178000FC01240135014E1A5F0A6108710882E0EC
:1017900075946794579447948A95D1F7920107C03E
:1017A0007F01E21AF30AE816F90608F0642B469561
:1017B00049F4CE01830D911DDC0118966C9333948E
:1017C00060E040E8515080E991E0019729F0072F4F
:1017D0005111CBCF80E001C08EEFDF91CF911F91EF
:1017E0000F91FF90EF90DF90CF90BF90AF909F90C0
:1017F0008F907F906F905F904F903F902F900895C3
:10180000CF92DF92EF92FF920F931F93CF93DF93CC
:10181000EC018D85882309F0F89426E041E0CE01A3
:101820000E943E0BE82E8D85882309F07894088568
:10183000037008871A85812F8378F82E8A87C984D8
:10184000602F70E0762F66276C0D711D072E000C3F
:10185000880B990B0E9418122DEC3CEC4CEC5DE3CC
:101860000E94C812688379838A839B83DB84137008
:10187000612F70E0762F66276D0D711D072E000C0D
:10188000880B990B0E9418122DEC3CEC4CEC5DE39C
:101890000E94C812F7FC05C06C837D838E839F83F2
:1018A00007C0DC01CB01B0588C839D83AE83BF831E
:1018B000DC0C0D0DF00E8C85F81202C08E2D01C0CF
:1018C0008FEFDF91CF911F910F91FF90EF90DF90FD
:1018D000CF90089580E090E008958DEF9FEF0895F8
:1018E0008DEF9FEF0895CF93DF93EC011B821A8257
:1018F00084E592E0998388831F82188680ED97E0C3
:10190000A0E0B0E0888B998BAA8BBB8B86E290E03D
:10191000A0E0B0E08C8B9D8BAE8BBF8B1C861D86B0
:101920001E861F861B860E94B819688F798F8A8F42
:101930009B8F1C8E1D8E1E8E1F8EDF91CF91089562
:10194000DC01ED91FC910684F785E02D6FEF0994A1
:10195000DC01ED91FC910684F785E02D60E00994AF
:101960008F929F92AF92BF92EF92FF921F93CF936D
:10197000DF93EC01162FE881F9810484F585E02DD1
:10198000462F60E009957C011150123038F4198619
:101990001A8688889988AA88BB8804C08C889D8804
:1019A000AE88BF880E94B819688F798F8A8F9B8F05
:1019B0008C8E9D8EAE8EBF8EC701DF91CF911F9111
:1019C000FF90EF90BF90AF909F908F90089561E04F
:1019D0000C94B00C62E00C94B00CFC0180854817AC
:1019E00010F04FEF480F9385992359F097816917AD
:1019F00030F0691B4F5F4817D0F340E0F8CF6187A4
:101A00004287DF01A40FB11D1C968C91680F60689E
:101A1000CF010C94B00CFC016581262F2460258336
:101A20006C600C94B00C0F931F93CF93DF93EC0179
:101A3000022F142F453008F014E08C85811109C065
:101A40008D85811106C08E85811103C08F85882305
:101A500029F08F81882359F0861749F01C8680E48D
:101A60008D876E87862F90E0805C9F4F8F871887C9
:101A70006F8364E670E080E090E00E94DD191C82D4
:101A8000E881F9810084F185E02DCE010995009768
:101A900009F05EC08885823018F08C8188608C8364
:101AA000002329F0113019F48C8184608C83E88143
:101AB000F9810484F585E02D40E362E0CE010995CB
:101AC00065E070E080E090E00E94DD19E881F98136
:101AD0000484F585E02D40E362E0CE01099561E0E4
:101AE00070E080E090E00E94DD19E881F9810484D3
:101AF000F585E02D40E362E0CE01099561E070E0FC
:101B000080E090E00E94DD198C8184FD09C0E881AD
:101B1000F9810484F585E02D40E262E0CE0109956B
:101B20006C816062CE010E94B00C84E08D83CE0196
:101B30000E940B0DCE010E94E70C82E08E8366E0CE
:101B4000CE010E94B00C8C01CE010E94A00CC801F5
:101B5000DF91CF911F910F910895FC0165816D7FF9
:101B6000658368600C94B00CFC0165816E7F6583B1
:101B700068600C94B00CCF92DF92EF92FF920F93BB
:101B80001F93CF93DF93EC01462FE881F981048402
:101B9000F585E02D61E009958C01CC88DD88EE8823
:101BA000FF880E94B819688F798F8A8F9B8FCC8E9F
:101BB000DD8EEE8EFF8E81E090E0012B11F080E053
:101BC00090E0DF91CF911F910F91FF90EF90DF9008
:101BD000CF9008950F931F93CF93DF93EC010E9452
:101BE000BB0D8C018B85882399F089858F5F898750
:101BF0009F81891768F019868A858F5F8A87988503
:101C0000891708F01A864A8560E0CE010E94ED0C23
:101C1000C801DF91CF911F910F91089510923C045C
:101C200081E080933A041092390461E082E00E94DE
:101C3000241B61E083E00E94241BE9EBF0E080813B
:101C40008E7F808380818D7F808388E48093B8003D
:101C500085E48093BC000895413208F043C0909120
:101C60003C049111FCCF91E090933C0420933A0402
:101C70002FEF2093CF0310921404240F209313040A
:101C800090933B0490913B04880F892B80933B04F5
:101C900080913904813061F41092390480913B04C1
:101CA0008093BB008091BC0083FDF8CF85EC01C020
:101CB00085EE8093BC0080913C048130E1F38091FB
:101CC0001404841710F440911404A5E1B4E0962F95
:101CD000FB018E2F891B841718F48D918193F9CF06
:101CE000842F089580E008950F93413208F04AC090
:101CF00090913C049111FCCF32E030933C0400936E
:101D00003A043FEF3093CF0310921404409313042E
:101D1000562FA5E1B4E0FB013E2F351B341718F414
:101D200031913D93F9CF10923B0430913B04880FE1
:101D3000832B80933B0480913904813061F41092AD
:101D4000390480913B048093BB008091BC0083FDEB
:101D5000F8CF85EC01C085EE8093BC00222321F0F2
:101D600080913C048230D1F38091CF038F3F79F092
:101D70008091CF03803241F08091CF03803331F0E6
:101D800094E005C091E003C092E001C093E0892F88
:101D90000F9108954091F103262F30E0240F311D5B
:101DA00021323105DCF420913C042430C9F4FC01DB
:101DB00080E090E0861758F43091F1032191DC0126
:101DC000AD50BC4FA30FB11D2C930196F3CF809162
:101DD000F103680F6093F10380E0089581E00895B6
:101DE00082E008959093360480933504089590938B
:101DF000380480933704089585ED8093BC0080916A
:101E0000BC0084FDFCCF10923C04089585EC8093C7
:101E1000BC0010923C0408951F920F920FB60F92CF
:101E200011242F933F934F935F936F937F938F93DF
:101E30009F93AF93BF93EF93FF938091B900887FF7
:101E4000803609F49EC078F5883209F45DC090F4BC
:101E5000803109F456C038F4882309F4F5C088307D
:101E600009F44FC0F5C0883109F44EC0803209F43E
:101E70005FC0EEC0803409F46AC058F4803309F4BE
:101E800057C0883309F0E4C08093CF030E94060F47
:101E9000DFC0803509F44FC0883509F45DC088344F
:101EA00009F0D6C0D3C0883909F4C4C0A8F4883773
:101EB00009F467C038F4883609F463C0803709F440
:101EC00060C0C6C0883809F4B5C0803909F45FC065
:101ED000803809F0BDC05BC0803B09F483C038F492
:101EE000803A09F466C0883A09F47CC0B1C0803CED
:101EF00009F4A4C0883C09F4A1C0883B09F487C058
:101F0000A7C080913B0410C09091140480911304E9
:101F1000981770F5E091140481E08E0F80931404FB
:101F2000F0E0EB5EFB4F80818093BB0085EC83C0CB
:101F30008093CF038BC0E091140481E08E0F8093D7
:101F400014048091BB00F0E0EB5EFB4F8083909126
:101F50001404809113046BC0E091140481E08E0F8F
:101F6000809314048091BB00F0E0EB5EFB4F808314
:101F700080913A0481116AC081E08093390484EA37
:101F80005EC083E080933C041092D003CFCF809159
:101F9000D003803208F04EC0E091D00381E08E0F74
:101FA0008093D0038091BB00F0E0EF52FC4F808320
:101FB000BDCF0E94060F8091D003803230F4E091B3
:101FC000D003F0E0EF52FC4F10826091D00370E03C
:101FD000E0913504F091360481ED93E0099510927B
:101FE000D00336C084E080933C041092F203109238
:101FF000F103E0913704F091380409958091F103E1
:10200000811105C081E08093F1031092F303E09108
:10201000F20381E08E0F8093F203F0E0ED50FC4F6D
:1020200080818093BB009091F2038091F103981717
:1020300008F47CCF85E88093BC000AC085EC8093CF
:10204000BC0010923C0404C01092CF030E94FC0E0E
:10205000FF91EF91BF91AF919F918F917F916F9180
:102060005F914F913F912F910F900FBE0F901F9056
:1020700018958091710490E020917204821B91095F
:1020800008959091720480917104981750F4E92F8B
:10209000F0E0ED58FB4F208130E09F5F9093720499
:1020A00002C02FEF3FEFC9010895E09172048091C3
:1020B0007104E81730F4F0E0ED58FB4F808190E0B8
:1020C00008958FEF9FEF08950895CF93DF93EC016C
:1020D000E0914904F0914A043097F1F09091720434
:1020E000809171049817C0F090E0292F30E02617F6
:1020F000370754F4DE01A20FB31F4C91D901AD583C
:10210000BB4F4C939F5FF1CF1092720460937104A8
:10211000CB01DF91CF910994DF91CF910895E091A8
:102120004B04F0914C04309729F010924F04109218
:102130004E0409940895CF92DF92EF92FF920F938D
:102140001F93CF93DF937C01CB018A0120914D0433
:10215000222389F0EB016B01C40ED51ECC15DD05E1
:1021600069F06991D701ED91FC910190F081E02D2A
:10217000C7010995F3CF642F0E94CA0EC801DF91F1
:10218000CF911F910F91FF90EF90DF90CF90089526
:10219000CF93DF931F92CDB7DEB7698320914D04B3
:1021A0002223D1F020914E04203240F021E030E093
:1021B000FC013383228380E090E015C080914F04BE
:1021C000E82FF0E0E05BFB4F998190838F5F809375
:1021D0004F0480934E0405C061E0CE0101960E9439
:1021E000CA0E81E090E00F90DF91CF910895FC013D
:1021F0001382128288EE93E0A0E0B0E0848395839E
:10220000A683B7838AE692E0918380830895109233
:1022100072041092710410924F0410924E040E94A6
:102220000E0E8FE890E10E94F70E85E690E10C9487
:10223000F20E81E080934D046093700410924F047D
:1022400010924E0408950F93062F21E040914E0402
:1022500060E574E0809170040E94740E10924F0447
:1022600010924E0410924D040F9108954F925F9278
:102270006F927F92AF92BF92CF92EF92FF920F93A5
:102280001F93CF93DF935C01F62ED42F28013901E1
:10229000EE2021F10E941911CE2DC43008F0C3E0C8
:1022A000C150C0F028E0C29FC0011124A3019201D7
:1022B00004C056954795379527958A95D2F7CA0158
:1022C000B901D501ED91FC910190F081E02DC5019E
:1022D0000995E6CF60E0C5010E9423114D2FD13250
:1022E00008F040E22C2D63E774E08F2D0E942C0E45
:1022F0001092720480937104DF91CF911F910F911E
:10230000FF90EF90CF90BF90AF907F906F905F90D5
:102310004F900895CF92EF920F931F93C22EE12C0E
:1023200000E010E098010E9436111F910F91EF908C
:10233000CF90089521E00C948A1161E00C94231150
:102340008DE394E00C94F7105058BB27AA270E9405
:10235000BC110C948E120E94801238F00E948712D9
:1023600020F039F49F3F19F426F40C947D120EF4FA
:10237000E095E7FB0C947712E92F0E949F1258F327
:10238000BA17620773078407950720F079F4A6F55A
:102390000C94C1120EF4E0950B2EBA2FA02D0B0158
:1023A000B90190010C01CA01A0011124FF27591B9A
:1023B00099F0593F50F4503E68F11A16F040A22FA0
:1023C000232F342F4427585FF3CF46953795279511
:1023D000A795F0405395C9F77EF41F16BA0B620B10
:1023E000730B840BBAF09150A1F0FF0FBB1F661F57
:1023F000771F881FC2F70EC0BA0F621F731F841F9A
:1024000048F4879577956795B795F7959E3F08F0BF
:10241000B0CF9395880F08F09927EE0F9795879581
:1024200008950E94531208F481E00895E89409C0C9
:1024300097FB3EF490958095709561957F4F8F4FF7
:102440009F4F9923A9F0F92F96E9BB279395F6950D
:10245000879577956795B795F111F8CFFAF4BB0F8B
:1024600011F460FF1BC06F5F7F4F8F4F9F4F16C0EF
:10247000882311F096E911C0772321F09EE8872F79
:10248000762F05C0662371F096E8862F70E060E035
:102490002AF09A95660F771F881FDAF7880F9695AE
:1024A000879597F90895990F0008550FAA0BE0E852
:1024B000FEEF16161706E807F907C0F01216130606
:1024C000E407F50798F0621B730B840B950B39F446
:1024D0000A2661F0232B242B252B21F408950A26AC
:1024E00009F4A140A6958FEF811D811D089597F9EC
:1024F0009F6780E870E060E008959FEF80EC0895AA
:1025000000240A94161617061806090608950024D2
:102510000A9412161306140605060895092E03944C
:10252000000C11F4882352F0BB0F40F4BF2B11F4C0
:1025300060FF04C06F5F7F4F8F4F9F4F089557FD1F
:102540009058440F551F59F05F3F71F04795880F21
:1025500097FB991F61F09F3F79F0879508951216B8
:1025600013061406551FF2CF4695F1DF08C0161664
:1025700017061806991FF1CF869571056105089415
:102580000895E894BB2766277727CB0197F908952C
:102590000E94DB120C948E120E94801238F00E946E
:1025A000871220F0952311F00C9477120C947D1271
:1025B00011240C94C2120E949F1270F3959FC1F3D4
:1025C000950F50E0551F629FF001729FBB27F00DE1
:1025D000B11D639FAA27F00DB11DAA1F649F662736
:1025E000B00DA11D661F829F2227B00DA11D621F85
:1025F000739FB00DA11D621F839FA00D611D221F3F
:10260000749F3327A00D611D231F849F600D211D22
:10261000822F762F6A2F11249F5750409AF0F1F0A5
:1026200088234AF0EE0FFF1FBB1F661F771F881F0E
:1026300091505040A9F79E3F510580F00C947712BD
:102640000C94C2125F3FE4F3983ED4F386957795DD
:102650006795B795F795E7959F5FC1F7FE2B880FB4
:10266000911D9695879597F908950E946C2008957D
:102670000E94241A0E94371383E994E00E944F19A4
:102680000E94C004C0E0D0E00E9401052097E1F361
:102690000E940000F9CFCF92DF92EF92FF920F934A
:1026A0001F93CF93DF936C017A018B01C0E0D0E0E0
:1026B000CE15DF0581F0D8016D918D01D601ED9128
:1026C000FC910190F081E02DC6010995892B11F054
:1026D0002196EECF7E01C701DF91CF911F910F911F
:1026E000FF90EF90DF90CF9008956115710579F01C
:1026F000FB0101900020E9F73197AF01461B570B12
:10270000DC01ED91FC910280F381E02D099480E0E1
:1027100090E00895DB0114964D915C9115976D91B1
:102720007C91DC01ED91FC910280F381E02D099414
:102730000C947513DC01ED91FC910190F081E02D7A
:1027400009948F929F92AF92BF92EF92FF920F9354
:102750001F93CF93DF93CDB7DEB7A1970FB6F89451
:10276000DEBF0FBECDBF7C01FA01CB0119A2223022
:1027700008F42AE08E010F5D1F4F822E912CA12CB0
:10278000B12CBF01A50194010E94491EF901CA01A3
:10279000015011096A3010F4605D01C0695CD80114
:1027A0006C93232B242B252B61F7B801C7010E94C2
:1027B0007513A1960FB6F894DEBF0FBECDBFDF91A3
:1027C000CF911F910F91FF90EF90BF90AF909F908E
:1027D0008F9008952115310541F4DC01ED91FC91B4
:1027E0000190F081E02D642F09940C94A1139A01BB
:1027F000AB0160E070E00C94EA13CF92DF92EF92AD
:10280000FF920F931F93CF93DF932115310581F42E
:10281000DC01ED91FC910190F081E02D642FDF91BE
:10282000CF911F910F91FF90EF90DF90CF9009947F
:102830002A30310501F577FF1DC06A017B01EC01EB
:102840006DE20E949A138C0144275527BA014C1956
:102850005D096E097F092AE0CE010E94A113800F55
:10286000911FDF91CF911F910F91FF90EF90DF901B
:10287000CF9008952AE0DF91CF911F910F91FF90A3
:10288000EF90DF90CF900C94A1139A01AB01770FDA
:10289000660B770B0C94FD137F928F929F92AF92F1
:1028A000BF92CF92DF92EF92FF920F931F93CF933D
:1028B000DF938C016A017B01722E9A01AB01C70183
:1028C000B6010E94301E882319F06BE772E027C022
:1028D00046015701E894B7F82FEF3FEF4FE75FE766
:1028E000C501B4010E94301E81110DC02FEF3FEFD2
:1028F0004FE75FE7C501B4010E94111218161CF4DE
:102900006FE772E00CC02FEF3FEF4FE75FE4C701C6
:10291000B6010E942B1E181694F463E872E0C801F9
:10292000DF91CF911F910F91FF90EF90DF90CF90AB
:10293000BF90AF909F908F907F900C9475132FEF66
:102940003FEF4FE75FECC701B6010E94111287FD10
:10295000E4CF20E030E0A901C701B6010E941112C6
:1029600087FF0AC06DE2C8010E949A13EC01F7FAD2
:10297000F094F7F8F09402C0C0E0D0E0B12C60E031
:1029800070E080E09FE37B1441F020E030E040E223
:1029900051E40E948A1DB394F6CFA70196010E94CC
:1029A000A5116B017C010E94FC1D4B015C012AE01A
:1029B000AB01BC01C8010E94A113C80FD91F772029
:1029C000B9F1C501B4010E9416129B01AC01C70107
:1029D000B6010E94A4116B017C016EE2C8010E9445
:1029E0009A13C80FD91F20E030E040E251E4C7013C
:1029F000B6010E94C8124B015C010E94FC1D6B01D4
:102A00007C014AE050E0C8010E94F713C80FD91FAB
:102A1000B60180E090E00E9416129B01AC01C50156
:102A2000B4010E94A4116B017C017A947110DBCF78
:102A3000CE01DF91CF911F910F91FF90EF90DF902A
:102A4000CF90BF90AF909F908F907F9008950C94FF
:102A50004C14615030F02091F100FC01208301966C
:102A6000F8CF289884E680939B04089540919604BB
:102A70005091970420919404309195044217530784
:102A8000B4F49091E8009570E1F39091E80092FD24
:102A900019C08093F100809196049091970401965B
:102AA0008F739927892B19F48EEF8093E80080911A
:102AB00096049091970401969093970480939604BE
:102AC00081E0089580E00895DF92EF92FF920F93E6
:102AD0001F93CF93DF93D82EF92EE42E062F10E00C
:102AE000C8010196880F0E94361583E00E943615B2
:102AF000CD2DDF2D0C0F1D1FC017D10789F0E7FE6C
:102B000003C0FE01849101C088810E943615F82E11
:102B100080E00E9436158F2121968111EDCF01C0F2
:102B200081E0DF91CF911F910F91FF90EF90DF90A7
:102B300008958091D70081608093D70080EA8093C8
:102B4000D80089B5806189BD89B5826089BD09B425
:102B500000FEFDCF61E070E080E090E00E94DD19B2
:102B60008091D8008F7C80618093D8008091E000B4
:102B7000807F8093E0000895CF93DF931F92CDB7BD
:102B8000DEB71982CE0101960E94421C0E94761D7A
:102B9000BE016F5F7F4F0E94F11C89810F90DF9112
:102BA000CF9108952FB7FC012083F894677060934C
:102BB000E9000895CF93DF931F92CDB7DEB7682F5A
:102BC000CE0101960E94D2158091F20099819FBF9B
:102BD0000F90DF91CF910895EF92FF920F931F9383
:102BE000CF93DF931F92CDB7DEB790919A049923CC
:102BF00011F057FF03C08FEF9FEF29C08A017B01BF
:102C0000682FCE0101960E94D2152091F20030E08B
:102C1000021713070CF49801822FF70194E68150F4
:102C200038F0289890939B044091F1004193F7CF9E
:102C30002115310521F08091F200882321F089814E
:102C40008FBFC90104C08BE68093E800F8CF0F90D6
:102C5000DF91CF911F910F91FF90EF900895CF9347
:102C6000DF931F92CDB7DEB741E050E0BE016F5F4A
:102C70007F4F0E94EC15019719F4898190E002C002
:102C80008FEF9FEF0F90DF91CF910895CF93DF9358
:102C90001F92CDB7DEB7682FCE0101960E94D215E4
:102CA0009091E800892F807295FF04C09091F20006
:102CB00080E4891B99819FBF0F90DF91CF91089588
:102CC0005F926F927F928F929F92AF92BF92CF92BC
:102CD000DF92EF92FF920F931F93CF93DF931F9298
:102CE000CDB7DEB7982E6B01B42E052F80919A04D4
:102CF000811103C08FEF9FEF77C08091980480FF10
:102D000005C08091E00082608093E000EB2CF02E03
:102D1000A12C8AEF882E892D8072682E892D8074CF
:102D2000582E9AE3792EE114F10419F4AA2009F43B
:102D300055C0892D0E944616182F81110AC08A9409
:102D40008820C1F261E070E080E090E00E94DD192F
:102D5000EACF90E0E816F9060CF41E2D692DCE019D
:102D600001960E94D2158091E80085FF34C0812F22
:102D700090E0E81AF90A662029F01150A0F01092AC
:102D8000F100FBCFF60197FE0AC0115050F02491DC
:102D90002093F1003196F9CF21912093F100115049
:102DA000D8F7C80ED91EAA2019F07092E8000BC0FF
:102DB0008091E80085FD09C07092E800AA24A394E0
:102DC000E114F10441F0A12C06C0E114F10419F45E
:102DD00051107092E80089818FBFA5CF5D9884E67D
:102DE00080939C048B2D902F0F90DF91CF911F919A
:102DF0000F91FF90EF90DF90CF90BF90AF909F909A
:102E00008F907F906F905F9008951092E9001092DC
:102E100097041092960490939504809394040895D7
:102E2000DF92EF92FF920F931F93CF93DF93D82EF1
:102E30008A017B01E40EF51EEB01CE15DF0571F072
:102E4000D7FE03C0FE01849101C088810E9436151F
:102E500021968111F2CF8FEF9FEF01C0C801DF9162
:102E6000CF911F910F91FF90EF90DF900895AF9257
:102E7000BF92DF92EF92FF920F931F93CF93DF9356
:102E80005C018B01EB019BEFD92E2097C1F07E01F5
:102E9000C134D1051CF080E4E82EF12C8091E800CB
:102EA00082FFFCCFC8018C1B9D0B6E2D8A0D9B1DD4
:102EB0000E942915D092E800CE19DF09E6CFC8019B
:102EC000DF91CF911F910F91FF90EF90DF90BF9016
:102ED000AF9008951F920F920FB60F921124CF92C8
:102EE000DF92EF92FF920F931F932F933F934F9395
:102EF0005F936F937F938F939F93AF93BF93EF9362
:102F0000FF93CF93DF93CDB7DEB76C97DEBFCDBF16
:102F10001092E9008091E80083FF17C168E0CE01BC
:102F200045960E94291582EF8093E8008D8987FFDE
:102F300005C09091E80090FFFCCF03C09EEF9093F6
:102F4000E800982F907609F0D8C09E894F89588D57
:102F50002F89188D91110CC0803829F48091990423
:102F60008093F10002C01092F1001092F100E6C0CF
:102F7000913051F48111E2C04130510509F0DEC0B9
:102F8000809199048D7F0BC0933061F48111D6C07C
:102F90004130510509F0D2C080919904826080933C
:102FA0009904CCC0953049F48091E80080FFFCCFB3
:102FB000822F80688093E300C1C0963009F070C012
:102FC000EB8CFC8C123069F580E090E00E940517D4
:102FD0000E94BC1599E09E012F5F3F4F6901F901E6
:102FE000292F11922A95E9F799831A8391E09E83FC
:102FF00090EA98879AEF99872091960430919704E8
:10300000275F3F4F3C832B838D83C7010E940517A9
:1030100049E050E0B60180E00E9410170E94BC1504
:103020008DC0C7010E9405170E94761DBE016B5E10
:103030007F4F0E941A1D009719F00CF07FC082C0CC
:10304000113009F470C0133009F07CC08F898823D7
:1030500009F46CC0823029F440E860E188EE90E029
:1030600006C0813039F440E86BE08CED90E00E94BE
:10307000641556C0833009F065C00E94761D8E012C
:103080000F5F1F4FB8010E94391DF8010190002009
:10309000E9F73197BF01601B710B40E0C801E7CF32
:1030A000973009F44FC0983021F481E08093F1000B
:1030B00045C0993009F042C0837009F043C0EBE08D
:1030C000F1E081E031E096E32081211109C08EE733
:1030D0008093EA001092EA008F8980939A042EC0B0
:1030E0008093E9003093EB0021912093EC009093C2
:1030F000ED008F5F873041F7EACF8B8D9C8D0E946A
:103100000517898D811105C0CE0145960E944D1C81
:1031100007C00E94761DBE016B5E7F4F0E94581D46
:10312000882381F00BC06AEC70E002C069EF70E0A8
:10313000FB01449150E080E80E9410178EEF8093CD
:10314000E80003C081E28093EB006C960FB6F89420
:10315000DEBF0FBECDBFDF91CF91FF91EF91BF9149
:10316000AF919F918F917F916F915F914F913F911F
:103170002F911F910F91FF90EF90DF90CF900F90C4
:103180000FBE0F901F9018958093E9008091F20078
:10319000882319F08AE38093E80008951F920F9224
:1031A0000FB60F9211242F933F934F935F936F931A
:1031B0007F938F939F93AF93BF93CF93EF93FF939F
:1031C000C091E1008091E100837F8093E100C3FF23
:1031D0000FC01092E90081E08093EB001092EC00A8
:1031E00082E38093ED0010929A0488E08093F000CF
:1031F000C2FF19C083E00E94C41880919C048823F8
:1032000039F080919C04815080939C04882389F13B
:1032100080919B04882339F080919B048150809396
:103220009B04882341F1C4FF10C08091E2008E7E90
:1032300081608093E2008091E1008F7E8093E100C5
:10324000809198048E7E806111C0C0FF16C080916D
:10325000E2008E7E80618093E2008091E1008E7EAC
:103260008093E100809198048E7E81608093980421
:1032700004C05D9ACDCF289AD6CFFF91EF91CF9120
:10328000BF91AF919F918F917F916F915F914F917E
:103290003F912F910F900FBE0F901F901895109295
:1032A0009A0410929904109298040E949915E1EEE4
:1032B000F0E080818E7E80838DE08093E200559ADD
:1032C000209A08951F920F920FB60F9211242F93F8
:1032D0003F938F939F93AF93BF9380919E04909160
:1032E0009F04A091A004B091A10430919D0423E01B
:1032F000230F2D3720F40196A11DB11D05C026E82E
:10330000230F0296A11DB11D20939D0480939E045E
:1033100090939F04A093A004B093A1048091A20471
:103320009091A304A091A404B091A5040196A11DBD
:10333000B11D8093A2049093A304A093A404B0931E
:10334000A504BF91AF919F918F913F912F910F90C5
:103350000FBE0F901F9018952FB7F89460919E04A0
:1033600070919F048091A0049091A1042FBF0895B3
:103370003FB7F8948091A2049091A304A091A40473
:10338000B091A50426B5A89B05C02F3F19F0019662
:10339000A11DB11D3FBFBA2FA92F982F8827820FDB
:1033A000911DA11DB11DBC01CD0142E0660F771F2B
:1033B000881F991F4A95D1F708958F929F92AF92D7
:1033C000BF92CF92DF92EF92FF926B017C010E943D
:1033D000B8194B015C01C114D104E104F10401F1FD
:1033E0000E94F01C0E94B819DC01CB0188199909D0
:1033F000AA09BB09883E9340A105B10560F321E00D
:10340000C21AD108E108F10888EE880E83E0981E00
:10341000A11CB11CC114D104E104F10419F7DBCFE4
:10342000FF90EF90DF90CF90BF90AF909F908F90E4
:1034300008958230910538F0880F991F880F991FE1
:1034400005970197F1F70895789484B5826084BD5B
:1034500084B5816084BD85B5826085BD85B5816098
:1034600085BDEEE6F0E0808181608083E1E8F0E0F8
:103470001082808182608083808181608083E0E827
:10348000F0E0808181608083E1E9F0E0808182600A
:103490008083808181608083E0E9F0E080818160C9
:1034A0008083E1ECF0E080818460808380818260B1
:1034B0008083808181608083E3ECF0E080818160A3
:1034C0008083E0ECF0E0808182608083E2ECF0E0D9
:1034D000808181608083EAE7F0E08081846080837E
:1034E0008081826080838081816080838081806828
:1034F00080830895823108F08251E82FF0E0E35094
:10350000FF4FE49180917B00E3FB222720F930E01C
:1035100095E0220F331F9A95E1F78F7D282B20939A
:103520007B008091110120E4829FC0011124E7708B
:10353000E82BE0937C0080917A00806480937A008D
:1035400080917A0086FDFCCF8091780020917900EF
:1035500090E0922B089590E0FC013197EF30F10557
:10356000B0F5EA5AFF4F0C946B1E809180008F7764
:1035700003C0809180008F7D8093800008958091AA
:103580008000877FF9CF84B58F7702C084B58F7DA7
:1035900084BD0895809190008F7707C0809190003E
:1035A0008F7D03C080919000877F80939000089565
:1035B0008091C0008F7703C08091C0008F7D809381
:1035C000C00008958091C200877F8093C200089553
:1035D000CF93DF9390E0FC01E85DFE4F2491FC0166
:1035E000E95BFE4F8491882361F190E0880F991F79
:1035F000FC01EE57FE4FC591D491FC01EC58FE4FF3
:10360000A591B491611109C09FB7F8948881209564
:1036100082238883EC912E230BC0623061F49FB724
:10362000F8948881322F309583238883EC912E2B58
:103630002C939FBF06C08FB7F894E8812E2B288368
:103640008FBFDF91CF9108951F93CF93DF93282FE2
:1036500030E0F901E75FFE4F8491F901E85DFE4F2C
:10366000D491F901E95BFE4FC491CC23C1F0162F30
:1036700081110E94AB1AEC2FF0E0EE0FFF1FEC5807
:10368000FE4FA591B4919FB7F894111104C08C918D
:10369000D095D82302C0EC91DE2BDC939FBFDF9145
:1036A000CF911F910895FC01808191810C941D1F81
:1036B000CF93DF93EC0188819981009711F00E94EC
:1036C0001D1F198218821D821C821B821A82DF91A3
:1036D000CF9108950F931F93CF93DF93EC018B014C
:1036E0006F5F7F4F888199810E94A61F009731F0FC
:1036F000998388831B830A8381E001C080E0DF9186
:10370000CF911F910F910895CF93DF93EC018881A2
:103710009981892B29F08A819B818617970760F40C
:10372000CE010E946A1B882341F08C819D81892BE8
:1037300019F4E881F981108281E0DF91CF91089539
:10374000EF92FF920F931F93CF93DF93EC017B01D6
:103750008A01BA010E94841B811104C0CE010E941B
:10376000581B07C01D830C83B701888199810E9473
:103770007A20CE01DF91CF911F910F91FF90EF90B2
:103780000895FC0111821082138212821582148224
:103790006115710551F0FB0101900020E9F73197A7
:1037A000AF01461B570B0C94A01B0895CF93DF93DA
:1037B0001F92CDB7DEB76983DC01ED91FC910280E9
:1037C000F381E02D41E050E0BE016F5F7F4F09952E
:1037D0000F90DF91CF910895CF93DF93EC018C850B
:1037E0009D8597FF05C082E00E942F169D878C87DC
:1037F0008C859D85DF91CF91089583E00E944616C8
:1038000090E0089583E00C94C418FC0184859585AC
:1038100097FD06C082E00E94DA1590E001960895B7
:1038200082E00E94DA1590E00895FC018485958578
:1038300097FD05C02FEF3FEF35872487089582E07D
:103840000C942F16CF93DF93EC0180911D018823F8
:1038500031F083E00E9460161816190634F081E0FA
:1038600090E09B838A8380E090E0DF91CF91089580
:10387000EEEFFFE72591349181E02B3F3C4D09F0BD
:1038800080E00895FC0190819E5F908342E450E0C7
:1038900060E971E080E80C941017FC01818190814F
:1038A000913A59F4813209F065C047E050E066E191
:1038B00071E080E00E9410175BC0913209F05AC09D
:1038C000833269F482819381A0E0B0E08093120199
:1038D00090931301A0931401B093150149C0803255
:1038E00039F467E070E086E191E00E94371740C04C
:1038F000823209F03DC0828180931D010E94381CF4
:10390000882319F0EEEFFAE002C0E0E0F8E08091E1
:10391000160190911701A0911801B0911901803BF7
:103920009440A105B10541F580911D0180FD24C0A1
:10393000EE3F8AE0F80751F080819181873727E7D1
:10394000920721F09093FF0A8093FE0A87E797E79A
:1039500091838083809160008093F6049BE088E1EE
:103960000FB6F894A895809360000FBE9093600006
:1039700081E0089580E0089580819181873797479D
:10398000B9F7A8958091600088618093600080916C
:10399000F60480936000EE3F8AE0F80739F08091EA
:1039A000FE0A9091FF0A91838083E2CF1092FF0A72
:1039B0001092FE0ADDCFE6EAF4E01382128288EE6E
:1039C00093E0A0E0B0E084839583A683B7838BE87F
:1039D00092E0918380838FEF9FEF9587848708958E
:1039E0000895EF92FF920F931F93CF93DF937B0184
:1039F000FC01C281D38100E010E0209781F0E881D2
:103A0000F9810280F381E02DB701CE01099597FD80
:103A100008C0080F191F0884D985C02DEECFC80132
:103A200002C08FEF9FEFDF91CF911F910F91FF9019
:103A3000EF9008950F931F93CF93DF938B01FC01B9
:103A4000C281D381209771F0E881F9810480F581EA
:103A5000E02DB801CE010995009731F40884D9858D
:103A6000C02DF0CF80E090E0DF91CF911F910F91BA
:103A700008950F931F93CF93DF938B01FC01C281B5
:103A8000D381209771F0E881F9810680F781E02DDC
:103A9000B801CE010995080F111D0884D985C02DE4
:103AA000F0CFF8011082DF91CF911F910F9108950F
:103AB0000F931F93CF93DF938B01FC01C281D381BE
:103AC000209771F0E881F9810190F081E02DB80133
:103AD000CE010995811105C00884D985C02DF0CF8C
:103AE00080E0DF91CF911F910F9108958091FB04A9
:103AF00081110DC082E08093F70484E08093F80484
:103B00001092FA041092F90481E08093FB0487EF8D
:103B100094E008950E949E1D0C948E120E948712BC
:103B200058F00E94801240F029F45F3F29F00C9475
:103B3000771251110C94C2120C947D120E949F12A4
:103B400068F39923B1F3552391F3951B550BBB27CC
:103B5000AA2762177307840738F09F5F5F4F220F11
:103B6000331F441FAA1FA9F335D00E2E3AF0E0E808
:103B700032D091505040E695001CCAF72BD0FE2F52
:103B800029D0660F771F881FBB1F261737074807E6
:103B9000AB07B0E809F0BB0B802DBF01FF2793589E
:103BA0005F4F3AF09E3F510578F00C9477120C94D9
:103BB000C2125F3FE4F3983ED4F3869577956795FC
:103BC000B795F7959F5FC9F7880F911D96958795D3
:103BD00097F90895E1E0660F771F881FBB1F6217F2
:103BE00073078407BA0720F0621B730B840BBA0BB0
:103BF000EE1F88F7E09508950E94A71288F09F575E
:103C000098F0B92F9927B751B0F0E1F0660F771F00
:103C1000881F991F1AF0BA95C9F714C0B13091F0F6
:103C20000E94C112B1E008950C94C112672F782F41
:103C30008827B85F39F0B93FCCF3869577956795BB
:103C4000B395D9F73EF490958095709561957F4F27
:103C50008F4F9F4F08950E94531208F48FEF0895DD
:103C60000E945312880B990B089597FB072E16F4A8
:103C7000009407D077FD09D00E94711E07FC05D083
:103C80003EF4909581959F4F0895709561957F4F73
:103C90000895A1E21A2EAA1BBB1BFD010DC0AA1F8D
:103CA000BB1FEE1FFF1FA217B307E407F50720F0A5
:103CB000A21BB30BE40BF50B661F771F881F991F20
:103CC0001A9469F760957095809590959B01AC0169
:103CD000BD01CF010895EE0FFF1F0590F491E02D77
:103CE0000994AA1BBB1B51E107C0AA1FBB1FA61743
:103CF000B70710F0A61BB70B881F991F5A95A9F795
:103D000080959095BC01CD0108950F931F93CF939B
:103D1000DF938230910510F482E090E0E091050598
:103D2000F091060520E030E0A0E0B0E0309719F116
:103D3000408151810281138148175907C8F08417C7
:103D4000950769F4109731F012960C931297139619
:103D50001C9327C0009305051093060522C021156A
:103D6000310519F04217530718F49A01BD01EF010C
:103D7000DF01F801DBCF21153105F9F0281B390BE4
:103D80002430310580F48A819B816115710521F011
:103D9000FB019383828304C09093060580930505FD
:103DA000FE01329644C0FE01E20FF31F819391930E
:103DB00022503109398328833AC02091030530917C
:103DC0000405232B41F4209102013091030130932B
:103DD0000405209303052091000130910101211574
:103DE000310541F42DB73EB74091040150910501D2
:103DF000241B350BE0910305F0910405E217F3074E
:103E0000A0F42E1B3F0B2817390778F0AC014E5F4A
:103E10005F4F2417350748F04E0F5F1F509304057E
:103E2000409303058193919302C0E0E0F0E0CF015D
:103E3000DF91CF911F910F910895CF93DF9300975A
:103E400009F481C0FC01329713821282A09105050A
:103E5000B0910605109781F420813181820F931F64
:103E600020910305309104052817390751F5F09387
:103E70000405E093030567C0ED0120E030E0CE17B4
:103E8000DF0740F44A815B819E0141155105F1F045
:103E9000EA01F5CFD383C28340815181840F951FFE
:103EA000C817D90759F488819981840F951F029604
:103EB000918380838A819B8193838283211531053D
:103EC00029F4F0930605E09305053DC0E901FB8365
:103ED000EA8349915991C40FD51FEC17FD0761F48E
:103EE00080819181840F951F0296E90199838883CF
:103EF000828193819B838A83E0E0F0E012968D912A
:103F00009C911397009719F0FD01DC01F7CF8D917B
:103F10009C9111979D012E5F3F4F820F931F20911F
:103F20000305309104052817390769F4309729F4FF
:103F3000109206051092050502C013821282B093FA
:103F40000405A0930305DF91CF910895A0E0B0E0B0
:103F5000ECEAFFE10C948520EC01009721F4CB0101
:103F60000E94851EB4C0FC01E60FF71F9C01225081
:103F70003109E217F30708F4A8C0D9010D911C918B
:103F8000119706171707B0F00530110508F49BC00C
:103F9000C80104978617970708F495C002501109C5
:103FA000061B170B019311936D937C93CF010E9415
:103FB0001D1F89C05B01A01AB10A4C01800E911E21
:103FC000A0910505B0910605612C712CE12CF12C16
:103FD000109709F446C08D919C911197A815B905C9
:103FE000B1F56C0142E0C40ED11CCA14DB0478F1B7
:103FF0004C018A189B08640142E0C40ED11C129641
:10400000BC9012971396AC91B5E0CB16D10440F05A
:10401000B282A38391828082D9016D937C9309C07F
:104020000E5F1F4F800F911FF90191838083EB2D4D
:10403000FA2FE114F10431F0D7011396FC93EE93BB
:10404000129741C0F0930605E09305053CC0681641
:10405000790608F43C017D0112960D90BC91A02DCB
:10406000B7CF809103059091040588169906E1F475
:1040700066167706C8F480910001909101010097BF
:1040800041F48DB79EB74091040150910501841B06
:10409000950BE817F907C8F4F0930405E0930305BE
:1040A000F901718360830FC0CB010E94851E7C01E2
:1040B000009759F0A801BE010E947120CE010E9414
:1040C0001D1FC70104C0CE0102C080E090E0CDB743
:1040D000DEB7EEE00C94A12081E090E0F8940C941F
:1040E000B820FB01DC0102C001900D92415050400C
:1040F000D8F70895FB01DC0101900D920020E1F753
:1041000008952F923F924F925F926F927F928F927B
:104110009F92AF92BF92CF92DF92EF92FF920F9356
:104120001F93CF93DF93CDB7DEB7CA1BDB0B0FB660
:10413000F894DEBF0FBECDBF09942A88398848881D
:104140005F846E847D848C849B84AA84B984C884B3
:10415000DF80EE80FD800C811B81AA81B981CE0FAA
:10416000D11D0FB6F894DEBF0FBECDBFED0108958F
:1041700010E0CCEED0E004C0FE010E946B1E219640
:0A418000CD3ED107C9F7F894FFCF38
:10418A00000007052000E803000000C1808100004C
:10419A000001FFFFFFFF00E10000000000003A30CD
:1041AA00003A0020504D0020414D002E20002E00E4
:1041BA0053656E736F7220646566656B7400432085
:1041CA0020200025005A6569676572206B616C6959
:1041DA006272696572656E00526F6D656F20563244
:1041EA002E3220576174636800436F726179202F01
:1041FA00204272756E6F004C6F6E646F6E004C4F8A
:10420A004E004E65772D596F726B004E455900501E
:10421A00617269730050415200546F6B796F005498
:10422A004F4B00486F6E676B6F6E6700484E4B00CE
:10423A004C6F7320416E67656C6573004C414E008C
:10424A004368696361676F004348490053656F7546
:10425A006C0053454F00427275657373656C00427A
:10426A0052550057617368696E67746F6E005741E3
:10427A00530053696E67617075720053494E00535B
:10428A0079646E6579005359440000000000EA0D14
:10429A004B1397019A01710AEC077C071F079B01D0
:1042AA00FFFFFFFF020001000000BF030000A7019B
:1042BA00FFFF0000FFFFFFFF0000970400009E01C0
:1042CA000000FFFFFFFFFFFFFFFF65030000000084
:1042DA0000000000EA0D4B1397019A016A0C6D0C5D
:1042EA003513700C9B0100000000C8109B10970149
:1042FA0064103910411055100D0A006E616E006984
:10430A006E66006F76660000000000D61B221CFD58
:0A431A001B021C051C151CEC1B0007
:00000001FF
