:100000000C94ED000C9415010C9415010C94150141
:100010000C9415010C9415010C9415010C94150108
:100020000C9415010C9415010C946A1A0C94061981
:100030000C9415010C9415010C9415010C941501E8
:100040000C9415010C9415010C9415010C941501D8
:100050000C9415010C9415010C9415010C94FE1AC6
:100060000C9415010C9415010C9415010C941501B8
:100070000C9415010C9415010C9415010C941501A8
:100080000C9415010C9415010C9415010C94150198
:100090000C94A8100C9415010C9415010C941501E6
:1000A0000C9415010C9415010C9415015F1C621C35
:1000B000511C551C5B1C831C831C831C661C6A1C06
:1000C0006E1C741C781C831C7E1C12010002EF0243
:1000D0000140412336800001010203014172647531
:1000E000696E6F204C4C430041726475696E6F20DD
:1000F0004C656F6E6172646F0004030904070605A6
:10010000040100080A0B0C0D090000000200090F91
:100110000000030401000C000000000000000000CB
:1001200000000000000000000408020110408040B0
:10013000102040804080080204018040201002010D
:10014000108010204040200404040404030405022D
:100150000202020403020202020606060606060462
:10016000040202020404000000002300260029000B
:100170002C002F0000000000250028002B002E007E
:10018000310000000000240027002A002D0030006C
:10019000080B000202020100090400000102020033
:1001A00000052400100105240101010424020605B4
:1001B0002406000107058103100040090401000224
:1001C0000A00000007050202400000070583024004
:1001D000000065073C13771EA80811241FBECFEF4F
:1001E000DAE0DEBFCDBF12E0A0E0B1E0E2ECF4E483
:1001F00002C005900D92AE3EB107D9F725E0AEEEF4
:10020000B2E001C01D92A636B207E1F710E0CCEED5
:10021000D0E004C02197FE010E940720C93ED1070B
:10022000C9F70E94D4140C9454220C94000080E06E
:100230000E94161C8D3F23E0920720F18091EE0270
:100240009091EF0201969093EF028093EE02039754
:100250000CF46AC0EEEEF2E020E030E080E090E0E6
:1002600040815181443051052CF0C901493C510570
:100270000CF00596119211922F5F3F4F26303105F9
:1002800079F708958934910570F48091F002909186
:10029000F10281152DE792074CF401969093F1023B
:1002A0008093F00241C08E3E910570F48091F2027D
:1002B0009091F30281152DE7920754F401969093E3
:1002C000F3028093F20230C0823A21E0920770F488
:1002D0008091F4029091F50281152DE792074CF47C
:1002E00001969093F5028093F4021EC080379240ED
:1002F00070F48091F6029091F70281152DE7920734
:1003000034F401969093F7028093F6020DC0809129
:10031000F8029091F90281152DE792072CF40196CD
:100320009093F9028093F80280E090E0089580E0D5
:1003300090E0089508958DEF9FEF089590914A03FE
:1003400081E0892780934A0380E090E008959091AE
:10035000490381E089278093490380E090E0089574
:1003600090911A0381E0892780931A0380E090E03E
:100370000895CF93DF93EC0140E060E081E094E0EA
:100380000E94890E6EE171E081E094E00E943415D4
:10039000CE01DF91CF9108950F931F93CF93DF93F9
:1003A000182FD0E0C0E26C2F8CE994E00E94B512C7
:1003B0008CE994E00E943913082F61E070E080E03E
:1003C00090E00E94791B011103C01D17F9F0DF5F57
:1003D000CF5FC83241F7C8E36C2F8CE994E00E94EC
:1003E000B5128CE994E00E943913082F61E070E0A7
:1003F00080E090E00E94791B011103C01D1731F0CD
:10040000DF5FCF5FC03441F780E001C08C2FDF9108
:10041000CF911F910F910895DC01ED91FC91019016
:10042000F081E02D0994FC018481958101962CE3F3
:1004300030E0B9010E94D11F95838483892B19F084
:1004400080E090E00895828193810196B9010E9435
:10045000D11F93838283892B99F7808191810196A3
:1004600068E170E00E94D11FAC019183808321E09C
:1004700090E0452B09F020E0822F0895FC012281B5
:10048000338126303105D9F03CF42230310569F052
:100490002430310539F413C02930310581F02B3077
:1004A000310569F08FE190E00895FC018081918130
:1004B00083709927892B31F48DE190E008958EE1C6
:1004C00090E008958CE190E008950F931F93CF93EF
:1004D000DF93EC010C811D810F5F1F4F1D830C8387
:1004E0000E943E0280179107A4F421E030E03D8392
:1004F0002C838A819B8101968D3091051CF49B830E
:100500008A8307C03B832A838881998101969983D6
:100510008883DF91CF911F910F9108950F931F93BF
:100520000E94481B009106011091070120910801CB
:1005300030910901061717072807390770F5D90107
:10054000C80188519C4FAF4FBF4F809306019093D5
:100550000701A0930801B093090183E393E00E948F
:100560001302892B21F080E193E00E9465028BE267
:1005700093E00E941302892B21F088E093E00E940F
:10058000650283E293E00E941302892B31F080E040
:1005900093E01F910F910C9465021F910F910895A4
:1005A000FC01CB01268137812150310922303105F0
:1005B00058F021E030E0378326836230710569F01E
:1005C0006430710539F014C06230710531F0643067
:1005D000710549F482E090E002C081E090E09783E9
:1005E00086838AE090E02681378121303105D1F47D
:1005F0008130910521F08330910549F00895808183
:100600009181019668E170E00E94D11F08C080814D
:100610009181009719F487E190E001C001979183DF
:10062000808313C022303105F1F48130910521F02F
:100630008330910579F008958281938101966CE36E
:1006400070E00E94D11F93838283158214828AE016
:1006500090E0089582819381009719F48BE390E0F4
:10066000F2CF0197F0CF08950F931F93CF93DF93AD
:100670008C0180914903F801C081D181882389F0E0
:10068000CD30D1050CF02C97CA30D10534F469E295
:1006900071E081E094E00E9434154AE050E0BE0130
:1006A0000DC02A9734F469E271E081E094E00E9481
:1006B0003415F801608171814AE050E081E094E0F6
:1006C0000E94E115F801828193810A971CF468E287
:1006D00071E002C06BE271E081E094E00E943415A9
:1006E000F801628173814AE050E081E094E00E9469
:1006F000E115F801848195810A971CF468E271E0A4
:1007000002C06BE271E081E094E00E943415F801D0
:10071000648175814AE050E081E094E00E94E11537
:1007200080914903882391F0F801808191810D9790
:100730001CF06DE271E002C061E371E081E094E0E1
:10074000DF91CF911F910F910C943415DF91CF91D0
:100750001F910F910895CF93DF93EC0140E060E08B
:1007600081E094E00E94890E65E371E081E094E00D
:100770000E94341580911A03882319F06EE371E00A
:1007800002C062E471E081E094E00E94341541E02F
:1007900060E081E094E00E94890E8BE193E00E948A
:1007A0003403CE01DF91CF910895CF93DF93EC0115
:1007B00040E060E081E094E00E94890E66E471E030
:1007C00081E094E00E943415BE018BE193E00E9429
:1007D000D002EC0141E060E081E094E00E94890EEB
:1007E0008BE193E00E943403CE01DF91CF91089515
:1007F000CF93DF93EC018C819D810A9734F466E6F8
:1008000071E081E094E00E9434156C817D814AE0C2
:1008100050E081E094E00E94E1158A819B810A9773
:100820001CF460E571E002C063E571E081E094E0F2
:100830000E9434156A817B814AE050E081E094E0B7
:100840000E94E11563E571E081E094E00E943415B7
:10085000688179814AE050E081E094E0DF91CF91B6
:100860000C94E115CF93DF93EC0140E060E081E070
:1008700094E00E94890E80914A03882319F18BE24B
:1008800093E00E94340340E06DE081E094E00E9438
:10089000890E80915703909158032EE0289FB00154
:1008A000299F700D11246F597C4F81E094E00E94C4
:1008B000261541E060E081E094E00E94890E88E026
:1008C00093E00CC083E293E00E94340341E060E0D7
:1008D00081E094E00E94890E80E093E00E94F8039A
:1008E000CE01DF91CF910895CF92DF92EF92FF92E8
:1008F00041E060E081E094E00E94890EC0904F03E7
:10090000D0905003E0905103F090520320E030E08B
:10091000A901C701B6010E94AD13811103C065E5AD
:1009200071E023C022E030E0B701A60181E094E04D
:100930000E94C3166FED81E094E00E94361563E6D5
:1009400071E081E094E00E94341540914B03509196
:100950004C0360914D0370914E0322E030E081E042
:1009600094E00E94C31668E671E081E094E0FF9095
:10097000EF90DF90CF900C9434150F931F93CF938B
:10098000DF93EC010E94481B009153031091540324
:10099000209155033091560306171707280739078A
:1009A000B8F566E18BE393E00E949C0D80913F03D4
:1009B00090914003A0914103B091420380934F0373
:1009C00090935003A0935103B093520380913B0343
:1009D00090913C03A0913D03B0913E0380934B0363
:1009E00090934C03A0934D03B0934E030E94740464
:1009F0000E94481BDC01CB0188579C4EAF4FBF4F74
:100A00008093530390935403A0935503B0935603DC
:100A10000E94740440E060E081E094E00E94890E4E
:100A200080914A038823D9F08BE293E00E9434033B
:100A300040E06DE081E094E00E94890E80915703D0
:100A4000909158032EE0289FB001299F700D11242A
:100A50006F597C4F81E094E00E94261504C083E228
:100A600093E00E943403CE01DF91CF911F910F914B
:100A7000089580915703909158032EE0289FF0012C
:100A8000299FF00D1124E75AFC4F26813781809170
:100A9000330390913403820F931F90932C03809320
:100AA0002B0328E0E0E1F3E0A8E0B3E001900D9231
:100AB0002A95E1F7883191054CF0489790932C03E3
:100AC00080932B0388E093E00E94650280912B03C2
:100AD00090912C0397FF2FC0489690932C038093FE
:100AE0002B0380910C0390910D03019790930D03BC
:100AF00080930C03892BF9F480910A0390910B03E6
:100B0000019790930B0380930A03892B29F088E0C7
:100B100093E00E943E020BC080910803909109036C
:100B2000019790930903809308038FE190E09093DD
:100B30000D0380930C0308958330910539F08A30BA
:100B4000910521F08130910551F517C081E094E0C5
:100B50000E94830E8091570390915803009719F4D7
:100B60008BE090E001C00197909358038093570366
:100B70000E9439058AE090E0089581E094E00E94A7
:100B8000830E80915703909158038B30910529F47F
:100B90001092580310925703EBCF0196E5CF0895BA
:100BA000CF93DF930E949C05EC0140E060E081E080
:100BB00094E00E94890E80915703909158032EE093
:100BC000289FB001299F700D1124675A7C4F81E046
:100BD00094E00E94261541E060E081E094E00E94EC
:100BE000890E8BE293E00E943403CE01DF91CF9116
:100BF000089520E042E060E181E094E00E94AF0EC1
:100C000081E094E00E94440E81E094E00E94490F4C
:100C100081E094E00E94860E6DE771E081E094E04F
:100C20000E94341541E060E081E094E00E94890E6A
:100C30006EE871E081E094E00E9434150E94481B48
:100C4000683B7B4081059105C8F381E094E00E94F8
:100C5000830E88E0E3E3F3E0ABE2B3E001900D92B2
:100C60008A95E1F788E0E0E1F3E0A8E0B3E00190E5
:100C70000D928A95E1F760E087E00E94841C60E0B5
:100C800086E10C94841C0E948E0280911A038823B2
:100C900011F1209123033091240380911B03909143
:100CA0001C0328173907B9F4209125033091260336
:100CB00080911D0390911E032817390761F420913C
:100CC00027033091280380911F0390912003281758
:100CD000390709F4F2C00E9417019093FB02809338
:100CE000FA022091180330911903232BC1F0892BAC
:100CF00049F081E094E00E94440E10921903109292
:100D000018030DC08091270380FF05C081E094E0A7
:100D10000E943C0E04C081E094E00E94440EE091E9
:100D2000FE02F091FF0274E0EE0FFF1F7A95E1F7EB
:100D3000EB5BFD4F0284F385E02D309749F0809105
:100D4000FA029091FB0209959093FB028093FA02BC
:100D50008091FA029091FB0283309105D9F134F42D
:100D60008130910579F0029719F109C0853091051C
:100D700009F465C00CF440C0069709F483C08FEFF6
:100D80009FEF11C081E094E00E94830EE091FE028B
:100D9000F091FF0264E0EE0FFF1F6A95E1F7EB5B55
:100DA000FD4F808191819093FD028093FC027AC077
:100DB00081E094E00E94830EE091FE02F091FF0238
:100DC00054E0EE0FFF1F5A95E1F7EB5BFD4F828178
:100DD0009381E9CF81E094E00E94830EE091FE02CE
:100DE000F091FF0244E0EE0FFF1F4A95E1F7EB5B45
:100DF000FD4F84819581D7CF81E094E00E94830EDE
:100E0000E091FE02F091FF0234E0EE0FFF1F3A95F1
:100E1000E1F7EB5BFD4F0484F585E02D309709F099
:100E20000995E091FE02F091FF0224E0EE0FFF1F12
:100E30002A95E1F7EB5BFD4F86819781B4CF81E086
:100E400094E00E94830EE091FE02F091FF0294E094
:100E5000EE0FFF1F9A95E1F7EB5BFD4F0684F785D8
:100E6000E02D309709F00995E091FE02F091FF0224
:100E700084E0EE0FFF1F8A95E1F7EB5BFD4F808565
:100E8000918591CF81E094E00E94830E81E094E00F
:100E90000E94490F81E094E00E94500F1092FD02E1
:100EA0001092FC028091FC029091FD0297FD0CC013
:100EB0009093FF028093FE02089581E090E090936A
:100EC00019038093180307CF0895AF92BF92CF9272
:100ED000DF92EF92FF920F931F93CF93DF9381E006
:100EE00094E00E940F0EE1E0F4E083E392E091834E
:100EF000808310A211A26CE971E089E593E00E9461
:100F00005D1DC9E5D3E01F821E8263EA71E081E6C0
:100F100093E00E945D1D67EA71E087E693E00E941E
:100F20005D1D8BEFA82EBB24BA94BD8AAC8A60EB02
:100F300071E08FE693E00E945D1D64EB71E085E750
:100F400093E00E945D1DEE24E394F12CFBA2EAA243
:100F50006AEB71E08DE793E00E945D1D6EEB71E03E
:100F600083E893E00E945D1D09E010E019AB08AB37
:100F700064EC71E08BE893E00E945D1D68EC71E029
:100F800081E993E00E945D1D28E0C22ED12CDFAEE6
:100F9000CEAE61ED71E089E993E00E945D1D65EDE3
:100FA00071E08FE993E00E945D1D88EF9FEF9093C1
:100FB000A6038093A50361EE71E087EA93E00E94A7
:100FC0005D1D65EE71E08DEA93E00E945D1D8AEF84
:100FD0009FEF9093B4038093B3036DEE71E085EBC4
:100FE00093E00E945D1D61EF71E08BEB93E00E9446
:100FF0005D1D1093C2030093C10367EF71E083ECA2
:1010000093E00E945D1D6BEF71E089EC93E00E941C
:101010005D1DF092D003E092CF0364E072E081EDB9
:1010200093E00E945D1D68E072E087ED93E00E940E
:101030005D1DB092DE03A092DD0363E172E08FEDEF
:1010400093E00E945D1D67E172E085EE93E00E94EF
:101050005D1DD092EC03C092EB0360E272E08DEE76
:1010600093E00E945D1D64E272E083EF93E00E94D2
:101070005D1D8BE090E09093FA038093F9036BE29F
:1010800072E08BEF93E00E945D1D10924803E3E352
:10109000F3E061E170E0718360834BE350E05383E0
:1010A00042832DE230E03583248317821682EBE2FF
:1010B000F3E08CE090E091838083138212821582AA
:1010C000148217821682E3E2F3E071836083538314
:1010D00042833583248317821682EBE1F3E022E119
:1010E00030E03183208313821282158214821782AA
:1010F0001682E0E1F3E04EE050E0558344839383B1
:10110000828323EE37E03183208317821682E8E062
:10111000F3E0F582E4821383028360ED77E071836C
:10112000608317821682E0E0F3E055834483938363
:1011300082833183208317821682DF91CF911F91A2
:101140000F91FF90EF90DF90CF90BF90AF900895F8
:10115000CF93DF93C1E0D4E02E97CE0108960E9492
:10116000EF1CCE010E94EF1C83E0C935D807A1F720
:10117000DF91CF910895CF93DF93FC0181A5882360
:1011800071F192A5662319F0913029F402C09111F2
:1011900002C083A701C013A6EF0160A18CE994E00F
:1011A0000E94B51289A1823031F469E070E08CE9C7
:1011B00094E00E940C026BA58CE994E00E946412FA
:1011C0008CE994E00E94391321E030E0811102C0E3
:1011D00020E030E088279927821B930B02C08DEF17
:1011E0009FEFDF91CF910895CF93FC01C3A560FFDE
:1011F00002C085A1C82B61FF02C086A1C82B62FF77
:1012000002C087A1C82B63FF02C080A5C82B413054
:1012100011F482A1C82B64A16C2B70E08CE994E0DE
:101220000E940C026C2F8CE994E0CF910C94641214
:101230008F929F92AF92BF92CF92DF92EF92FF92E6
:101240000F931F93CF93DF93EC0188A1882309F4B8
:1012500050C089A1882309F44CC0142F062F8C8C10
:101260009D8CAE8CBF8CC88CD98CEA8CFB8C8DE2AB
:10127000C81AD108E108F1080E94541BDC01CB0117
:101280008C199D09AE09BF0988159905AA05BB05EA
:1012900098F368A18CE994E00E94B51289A182308C
:1012A00031F469E070E08CE994E00E940C02612F57
:1012B00070E084E0759567958A95E1F7402FCE013F
:1012C0000E94F408023031F0612F6F70402FCE0180
:1012D0000E94F4088CE994E00E94391321E030E088
:1012E000811102C020E030E088279927821B930BF0
:1012F00002C08CEF9FEFDF91CF911F910F91FF9074
:10130000EF90DF90CF90BF90AF909F908F90089517
:101310008F929F92AF92BF92CF92DF92EF92FF9205
:101320000F931F93CF93DF93EC011BA588A1882314
:1013300009F4F6C089A1882309F4F2C0823009F4C7
:10134000F1C08BA1882309F4EDC0062F8C8C9D8CF5
:10135000AE8CBF8CC88CD98CEA8CFB8C8DE2C81A01
:10136000D108E108F1080E94541BDC01CB018C1963
:101370009D09AE09BF0988159905AA05BB0598F313
:101380008DA1182B8EA1182B8FA1182B88A5182B97
:10139000013011F48AA1182B8BA1182B68A18CE9BC
:1013A00094E00E94B512612F8CE994E00E946412CF
:1013B0008CE994E00E943913882319F00FEF1FEF96
:1013C0009DC068A18CE994E00E94B5126CA1612BCC
:1013D00070E08CE994E00E940C028CE994E00E9499
:1013E00039138111EBCF68A170E041E050E08CE946
:1013F00094E00E9436138CE994E00E94DD117C0198
:1014000097FDDCCF68A18CE994E00E94B512612FB2
:101410008CE994E00E9464128CE994E00E943913F4
:101420008111CCCF8DA190E08E219F21892B11F4C9
:1014300000E001C000E18EA190E08E219F21892B68
:1014400009F000628FA190E08E219F21892B09F085
:10145000006488A590E0E822F922EF2809F00068EE
:1014600068A18CE994E00E94B5126CA1612B70E038
:101470008CE994E00E940C028CE994E00E943913FC
:1014800081119CCF68A170E041E050E08CE994E0CC
:101490000E9436138CE994E00E94DD117C0197FDD7
:1014A0008DCF68A18CE994E00E94B512612F8CE980
:1014B00094E00E9464128CE994E00E943913811137
:1014C0007DCF8DA190E08E219F21892B09F00160B5
:1014D0008EA190E08E219F21892B09F002608FA1BF
:1014E00090E08E219F21892B09F0046088A590E06F
:1014F000E822F922EF2809F0086010E068A18CE9E1
:1015000094E00E94B5126BA58CE994E00E946412ED
:101510008CE994E00E943913882339F08FEF03C0DF
:101520008CEF01C08DEF9FEF01C0C801DF91CF911B
:101530001F910F91FF90EF90DF90CF90BF90AF90F1
:101540009F908F9008950F931F93CF93DF93EC019B
:1015500068A18CE994E00E94B5126FEF8CE994E0E9
:101560000E9464128CE994E00E94391368A170E033
:1015700041E050E08CE994E00E9436138CE994E05D
:101580000E94DD118C0168A18CE994E00E94B512E3
:101590006BEF8CE994E00E9464128CE994E00E9465
:1015A000391368A170E041E050E08CE994E00E94BA
:1015B00036138CE994E00E94DD11980127703327DF
:1015C00027303105B1F4807F9927803F910589F458
:1015D00083E0169507958A95E1F781E00827017069
:1015E00043E057E066E075E0E4E022E0F1E030E05F
:1015F00034C0C801807799278037910509F068C009
:1016000068A18CE994E00E94B5126FEE8CE994E039
:101610000E9464128CE994E00E94391368A170E082
:1016200041E050E08CE994E00E9436138CE994E0AC
:101630000E94DD118F7099270F9719F026E034E092
:1016400002C024E036E00095001F0027001F47E09D
:1016500053E062E071E0E0E0F5E081E090E0DC0181
:1016600001C0AA0F3A95EAF7AAA3DC0101C0AA0FAC
:10167000FA95EAF7ABA3DC0102C0AA0FBB1F2A95BB
:10168000E2F7ACA39C0101C0220FEA95EAF72DA373
:101690009C0101C0220F7A95EAF72EA39C0101C09C
:1016A000220F6A95EAF72FA39C0101C0220F5A95D9
:1016B000EAF728A701C0880F4A95EAF789A70AA781
:1016C000013011F48BA701C01BA680E090E002C09E
:1016D0008DEF9FEFDF91CF911F910F910895CF93E1
:1016E000DF93EC0168A18CE994E00E94B51260E000
:1016F0008CE994E00E9464126FEF70E08CE994E052
:101700000E940C028CE994E00E94391368A18CE9D4
:1017100094E00E94B51266E070E08CE994E00E94CB
:101720000C026FEF70E08CE994E00E940C028CE9EF
:1017300094E00E94391368A18CE994E00E94B512EC
:1017400069E070E08CE994E00E940C028CE994E07E
:101750000E94391368A170E041E050E08CE994E008
:101760000E9436138CE994E00E94DD118F3761F0FE
:1017700086FF12C081FD4CC021E032E043E054E01E
:1017800065E076E0E7E00FC027E036E045E054E0B2
:1017900063E072E0E1E007C026E033E042E051E0C0
:1017A00060E077E0E4E081E090E0DC0102C0AA0FB5
:1017B000BB1FEA95E2F7AAA31BA2FC0101C0EE0F32
:1017C0007A95EAF7ECA3FC0102C0EE0FFF1F6A95C1
:1017D000E2F7EDA3BC0101C0660F5A95EAF76EA3CC
:1017E000BC0102C0660F771F4A95E2F76FA3AC01F8
:1017F00001C0440F3A95EAF748A701C0880F2A951F
:10180000EAF789A791E09AA78BA780E090E002C051
:101810008DEF9FEFDF91CF9108951F93CF93DF93CB
:10182000EC018CE994E00E94A31268A161110AC046
:1018300080912D0491E0980F90932D040E94CC018B
:1018400088A30DC08CE994E00E94B5128CE994E065
:101850000E943913882319F08CEF9FEFA7C088A14D
:10186000811109C080912D0491E0980F90932D046F
:101870000E94CC0188A318A1112371F389A18823A8
:10188000C1F168A18CE994E00E94B51289A182306F
:1018900009F076C065E070E08CE994E00E940C02EB
:1018A00060E270E08CE994E00E940C028CE994E024
:1018B0000E94391368A18CE994E00E94B51260E09F
:1018C0008CE994E00E94641260E08CE994E00E944C
:1018D00064128CE994E00E94391368A18CE994E0C9
:1018E0000E94B51269E070E08CE994E00E940C025D
:1018F00047C0612F8CE994E00E94B51260E08CE94A
:1019000094E00E9464126FEF8CE994E00E946412EC
:101910008CE994E00E943913612F8CE994E00E94D5
:10192000B51260E08CE994E00E9464128CE994E0C6
:101930000E943913612F70E041E050E08CE994E09F
:101940000E9436138CE994E00E94DD119C018F3FC8
:10195000910529F091E0232B19F090E001C092E06D
:1019600099A3992309F1913021F4CE010E94A30A91
:1019700003C0CE010E946F0B009709F482CF16C0FE
:1019800060E08CE994E00E9464128CE994E00E948B
:10199000391321E030E0811102C020E030E08827D7
:1019A0009927821B930B02C08FEF9FEFDF91CF919E
:1019B0001F9108952F923F924F925F926F927F9264
:1019C0008F929F92AF92BF92CF92DF92EF92FF924F
:1019D0000F931F93CF93DF93EC01F62E042FE22E8B
:1019E000862F90E0FC01E85DFE4F1491FC01E95B5D
:1019F000FE4FE491F0E0EE0FFF1FEA59FE4FC59055
:101A0000D49061E08F2D0E94841C60E08F2D0E9495
:101A1000C01C093038F0602F70E080E090E00E9438
:101A2000791B0AC088EE93E09C01029FC001039FCE
:101A3000900D11240E94B51B60E08F2D0E94841C24
:101A400080E293E0D6012C91212321F00197D1F778
:101A50008DEF5FC080E991E0F6012081212321F420
:101A60000197D1F78CEF55C080E991E0D6012C9118
:101A7000212321F00197D1F78BEF4BC058E280E989
:101A800091E020E030E0E0E9F1E000E060E0312CBE
:101A900040E8252E2E1870E9872E99249394A12CC6
:101AA000B12CD6017C91712361F5002351F12516EB
:101AB00098F48E179F0708F4FC01240135014E1A93
:101AC0005F0A6108710882E075946794579447949F
:101AD0008A95D1F7920107C07F01E21AF30AE8164E
:101AE000F90608F0642B469549F4CE01830D911D4B
:101AF000DC0118966C93339460E040E8515080E923
:101B000091E0019729F0072F5111CBCF80E001C060
:101B10008EEFDF91CF911F910F91FF90EF90DF90AB
:101B2000CF90BF90AF909F908F907F906F905F907D
:101B30004F903F902F900895CF92DF92EF92FF92B7
:101B40000F931F93CF93DF93EC018D85882309F0CA
:101B5000F89426E041E0CE010E94DA0CE82E8D8553
:101B6000882309F078940885037008871A85812FE7
:101B70008378F82E8A87C984602F70E0762F6627D5
:101B80006C0D711D072E000C880B990B0E94B4136D
:101B90002DEC3CEC4CEC5DE30E946414688379838B
:101BA0008A839B83DB841370612F70E0762F662716
:101BB0006D0D711D072E000C880B990B0E94B4133C
:101BC0002DEC3CEC4CEC5DE30E946414F7FC05C08A
:101BD0006C837D838E839F8307C0DC01CB01B0586B
:101BE0008C839D83AE83BF83DC0C0D0DF00E8C8542
:101BF000F81202C08E2D01C08FEFDF91CF911F919F
:101C00000F91FF90EF90DF90CF90089580E090E0EB
:101C100008958DEF9FEF08958DEF9FEF0895CF9377
:101C2000DF93EC011B821A8289EA92E09983888310
:101C30001F82188680ED97E0A0E0B0E0888B998B3A
:101C4000AA8BBB8B86E290E0A0E0B0E08C8B9D8BF2
:101C5000AE8BBF8B1C861D861E861F861B860E9430
:101C6000541B688F798F8A8F9B8F1C8E1D8E1E8EC2
:101C70001F8EDF91CF910895DC01ED91FC910684D8
:101C8000F785E02D6FEF0994DC01ED91FC9106845E
:101C9000F785E02D60E009948F929F92AF92BF92FA
:101CA000EF92FF921F93CF93DF93EC01162FE88101
:101CB000F9810484F585E02D462F60E009957C01CB
:101CC0001150123038F419861A8688889988AA88A3
:101CD000BB8804C08C889D88AE88BF880E94541B36
:101CE000688F798F8A8F9B8F8C8E9D8EAE8EBF8EE4
:101CF000C701DF91CF911F91FF90EF90BF90AF9000
:101D00009F908F90089561E00C944C0E62E00C94CB
:101D10004C0EFC018085481710F04FEF480F93855B
:101D2000992359F09781691730F0691B4F5F481765
:101D3000D0F340E0F8CF61874287DF01A40FB11DE7
:101D40001C968C91680F6068CF010C944C0EFC01BE
:101D50006581262F246025836C600C944C0E0F93B4
:101D60001F93CF93DF93EC01022F142F453008F01F
:101D700014E08C85811109C08D85811106C08E8586
:101D8000811103C08F85882329F08F81882359F022
:101D9000861749F01C8680E48D876E87862F90E039
:101DA000805C9F4F8F8718876F8364E670E080E0C8
:101DB00090E00E94791B1C82E881F9810084F18502
:101DC000E02DCE010995009709F05EC0888582302C
:101DD00018F08C8188608C83002329F0113019F46D
:101DE0008C8184608C83E881F9810484F585E02D01
:101DF00040E362E0CE01099565E070E080E090E0AC
:101E00000E94791BE881F9810484F585E02D40E387
:101E100062E0CE01099561E070E080E090E00E9410
:101E2000791BE881F9810484F585E02D40E362E0C7
:101E3000CE01099561E070E080E090E00E94791B9E
:101E40008C8184FD09C0E881F9810484F585E02D49
:101E500040E262E0CE0109956C816062CE010E9491
:101E60004C0E84E08D83CE010E94A70ECE010E940D
:101E7000830E82E08E8366E0CE010E944C0E8C01C0
:101E8000CE010E943C0EC801DF91CF911F910F91AE
:101E90000895FC0165816D7F658368600C944C0E2C
:101EA000FC0165816E7F658368600C944C0ECF9257
:101EB000DF92EF92FF920F931F93CF93DF93EC018A
:101EC000462FE881F9810484F585E02D61E00995CC
:101ED0008C01CC88DD88EE88FF880E94541B688FB7
:101EE000798F8A8F9B8FCC8EDD8EEE8EFF8E81E078
:101EF00090E0012B11F080E090E0DF91CF911F91F5
:101F00000F91FF90EF90DF90CF9008950F931F9364
:101F1000CF93DF93EC010E94570F8C018B858823B0
:101F200099F089858F5F89879F81891768F0198665
:101F30008A858F5F8A879885891708F01A864A856F
:101F400060E0CE010E94890EC801DF91CF911F9100
:101F50000F91089510929B0481E080939904109250
:101F6000980461E082E00E94C01C61E083E00E946E
:101F7000C01CE9EBF0E080818E7F808380818D7FC3
:101F8000808388E48093B80085E48093BC00089542
:101F9000413208F043C090919B049111FCCF91E035
:101FA00090939B04209399042FEF20932E0410927A
:101FB0007304240F2093720490939A0490919A04CE
:101FC000880F892B80939A0480919804813061F462
:101FD0001092980480919A048093BB008091BC0079
:101FE00083FDF8CF85EC01C085EE8093BC00809125
:101FF0009B048130E1F380917304841710F44091C5
:102000007304A4E7B4E0962FFB018E2F891B84177D
:1020100018F48D918193F9CF842F089580E008956D
:102020000F93413208F04AC090919B049111FCCF6C
:1020300032E030939B04009399043FEF30932E04D9
:102040001092730440937204562FA4E7B4E0FB018E
:102050003E2F351B341718F431913D93F9CF109270
:102060009A0430919A04880F832B80939A0480916C
:102070009804813061F41092980480919A048093BE
:10208000BB008091BC0083FDF8CF85EC01C085EEDC
:102090008093BC00222321F080919B048230D1F3F5
:1020A00080912E048F3F79F080912E04803241F090
:1020B00080912E04803331F094E005C091E003C09C
:1020C00092E001C093E0892F0F9108954091500450
:1020D000262F30E0240F311D21323105DCF4209110
:1020E0009B042430C9F4FC0180E090E0861758F48A
:1020F000309150042191DC01AE5ABB4FA30FB11DAA
:102100002C930196F3CF80915004680F6093500494
:1021100080E0089581E0089582E008959093950409
:10212000809394040895909397048093960408955F
:1021300085ED8093BC008091BC0084FDFCCF1092A3
:102140009B04089585EC8093BC0010929B04089535
:102150001F920F920FB60F9211242F933F934F931C
:102160005F936F937F938F939F93AF93BF93EF93FF
:10217000FF938091B900887F803609F49EC078F57E
:10218000883209F45DC090F4803109F456C038F407
:10219000882309F4F5C0883009F44FC0F5C08831B0
:1021A00009F44EC0803209F45FC0EEC0803409F4F7
:1021B0006AC058F4803309F457C0883309F0E4C08A
:1021C00080932E040E94A210DFC0803509F44FC016
:1021D000883509F45DC0883409F0D6C0D3C0883989
:1021E00009F4C4C0A8F4883709F467C038F4883605
:1021F00009F463C0803709F460C0C6C0883809F4A8
:10220000B5C0803909F45FC0803809F0BDC05BC03B
:10221000803B09F483C038F4803A09F466C0883AF8
:1022200009F47CC0B1C0803C09F4A4C0883C09F426
:10223000A1C0883B09F487C0A7C080919A0410C050
:102240009091730480917204981770F5E091730473
:1022500081E08E0F80937304F0E0EC58FB4F808197
:102260008093BB0085EC83C080932E048BC0E091EB
:10227000730481E08E0F809373048091BB00F0E0C3
:10228000EC58FB4F808390917304809172046BC073
:10229000E091730481E08E0F809373048091BB0002
:1022A000F0E0EC58FB4F80838091990481116AC063
:1022B00081E08093980484EA5EC083E080939B046D
:1022C00010922F04CFCF80912F04803208F04EC09F
:1022D000E0912F0481E08E0F80932F048091BB004A
:1022E000F0E0E05DFB4F8083BDCF0E94A2108091A3
:1022F0002F04803230F4E0912F04F0E0E05DFB4FDA
:10230000108260912F0470E0E0919404F0919504A4
:1023100080E394E0099510922F0436C084E0809306
:102320009B041092510410925004E0919604F09195
:102330009704099580915004811105C081E0809334
:10234000500410925204E091510481E08E0F80936A
:102350005104F0E0EE5AFB4F80818093BB009091D6
:10236000510480915004981708F47CCF85E880933D
:10237000BC000AC085EC8093BC0010929B0404C092
:1023800010922E040E949810FF91EF91BF91AF918F
:102390009F918F917F916F915F914F913F912F917D
:1023A0000F900FBE0F901F9018958091D00490E071
:1023B0002091D104821B910908959091D1048091BC
:1023C000D004981750F4E92FF0E0EE52FB4F208133
:1023D00030E09F5F9093D10402C02FEF3FEFC9011F
:1023E0000895E091D1048091D004E81730F4F0E032
:1023F000EE52FB4F808190E008958FEF9FEF08959C
:102400000895CF93DF93EC01E091A804F091A90423
:102410003097F1F09091D1048091D0049817C0F0DA
:1024200090E0292F30E02617370754F4DE01A20F81
:10243000B31F4C91D901AE52BB4F4C939F5FF1CF6C
:102440001092D1046093D004CB01DF91CF91099415
:10245000DF91CF910895E091AA04F091AB043097F9
:1024600029F01092AE041092AD0409940895CF9211
:10247000DF92EF92FF920F931F93CF93DF937C0134
:10248000CB018A012091AC04222389F0EB016B017E
:10249000C40ED51ECC15DD0569F06991D701ED910B
:1024A000FC910190F081E02DC7010995F3CF642FD5
:1024B0000E946610C801DF91CF911F910F91FF908C
:1024C000EF90DF90CF900895CF93DF931F92CDB719
:1024D000DEB769832091AC042223D1F02091AD04B2
:1024E000203240F021E030E0FC013383228380E0A1
:1024F00090E015C08091AE04E82FF0E0E155FB4F6D
:10250000998190838F5F8093AE048093AD0405C062
:1025100061E0CE0101960E94661081E090E00F908C
:10252000DF91CF910895FC011382128288EE93E02F
:10253000A0E0B0E084839583A683B7838FEB92E01D
:102540009183808308951092D1041092D004109248
:10255000AE041092AD040E94AA0F8BE292E10E9499
:10256000931081E092E10C948E1081E08093AC0492
:102570006093CF041092AE041092AD0408950F93AF
:10258000062F21E04091AD046FEA74E08091CF0402
:102590000E9410101092AE041092AD041092AC0480
:1025A0000F9108954F925F926F927F92AF92BF9278
:1025B000CF92EF92FF920F931F93CF93DF935C0123
:1025C000F62ED42F28013901EE2021F10E94B512F8
:1025D000CE2DC43008F0C3E0C150C0F028E0C29F47
:1025E000C0011124A301920104C056954795379567
:1025F00027958A95D2F7CA01B901D501ED91FC91D1
:102600000190F081E02DC5010995E6CF60E0C5019C
:102610000E94BF124D2FD13208F040E22C2D62ED06
:1026200074E08F2D0E94C80F1092D1048093D004C3
:10263000DF91CF911F910F91FF90EF90CF90BF90BE
:10264000AF907F906F905F904F900895CF92EF92F0
:102650000F931F93C22EE12C00E010E098010E941E
:10266000D2121F910F91EF90CF90089521E00C941A
:10267000261361E00C94BF128CE994E00C94931241
:102680005058BB27AA270E9458130C942A140E9462
:102690001C1438F00E94231420F039F49F3F19F4E1
:1026A00026F40C9419140EF4E095E7FB0C94131423
:1026B000E92F0E943B1458F3BA1762077307840787
:1026C000950720F079F4A6F50C945D140EF4E095CE
:1026D0000B2EBA2FA02D0B01B90190010C01CA01DC
:1026E000A0011124FF27591B99F0593F50F4503E87
:1026F00068F11A16F040A22F232F342F4427585F79
:10270000F3CF469537952795A795F0405395C9F790
:102710007EF41F16BA0B620B730B840BBAF0915048
:10272000A1F0FF0FBB1F661F771F881FC2F70EC0E7
:10273000BA0F621F731F841F48F4879577956795BA
:10274000B795F7959E3F08F0B0CF9395880F08F0A6
:102750009927EE0F9795879508950E94EF1308F437
:1027600081E00895E89409C097FB3EF49095809528
:10277000709561957F4F8F4F9F4F9923A9F0F92F47
:1027800096E9BB279395F695879577956795B795C5
:10279000F111F8CFFAF4BB0F11F460FF1BC06F5FAB
:1027A0007F4F8F4F9F4F16C0882311F096E911C0BD
:1027B000772321F09EE8872F762F05C0662371F0DE
:1027C00096E8862F70E060E02AF09A95660F771FF2
:1027D000881FDAF7880F9695879597F90895990FCE
:1027E0000008550FAA0BE0E8FEEF16161706E807DB
:1027F000F907C0F012161306E407F50798F0621BFC
:10280000730B840B950B39F40A2661F0232B242BD0
:10281000252B21F408950A2609F4A140A6958FEFEF
:10282000811D811D089597F99F6780E870E060E041
:1028300008959FEF80EC089500240A941616170659
:1028400018060906089500240A94121613061406A1
:1028500005060895092E0394000C11F4882352F004
:10286000BB0F40F4BF2B11F460FF04C06F5F7F4FBC
:102870008F4F9F4F089557FD9058440F551F59F0A3
:102880005F3F71F04795880F97FB991F61F09F3F5D
:1028900079F087950895121613061406551FF2CF86
:1028A0004695F1DF08C0161617061806991FF1CFD6
:1028B00086957105610508940895E894BB276627FD
:1028C0007727CB0197F908950E9477140C942A1466
:1028D0000E941C1438F00E94231420F0952311F05C
:1028E0000C9413140C94191411240C945E140E946B
:1028F0003B1470F3959FC1F3950F50E0551F629FF5
:10290000F001729FBB27F00DB11D639FAA27F00D48
:10291000B11DAA1F649F6627B00DA11D661F829F6F
:102920002227B00DA11D621F739FB00DA11D621F54
:10293000839FA00D611D221F749F3327A00D611D71
:10294000231F849F600D211D822F762F6A2F112453
:102950009F5750409AF0F1F088234AF0EE0FFF1F86
:10296000BB1F661F771F881F91505040A9F79E3FDD
:10297000510580F00C9413140C945E145F3FE4F343
:10298000983ED4F3869577956795B795F795E79533
:102990009F5FC1F7FE2B880F911D9695879597F93C
:1029A00008950E94082208950E94C01B0E94D3141B
:1029B00082EF94E00E94EB1A0E94F905C0E0D0E09B
:1029C0000E9443062097E1F30E940000F9CFCF92C6
:1029D000DF92EF92FF920F931F93CF93DF936C01DF
:1029E0007A018B01C0E0D0E0CE15DF0581F0D8017F
:1029F0006D918D01D601ED91FC910190F081E02D5A
:102A0000C6010995892B11F02196EECF7E01C701F1
:102A1000DF91CF911F910F91FF90EF90DF90CF90BA
:102A200008956115710579F0FB0101900020E9F727
:102A30003197AF01461B570BDC01ED91FC910280F1
:102A4000F381E02D099480E090E00895DB01149675
:102A50004D915C9115976D917C91DC01ED91FC910C
:102A60000280F381E02D09940C941115DC01ED91A5
:102A7000FC910190F081E02D09948F929F92AF928A
:102A8000BF92EF92FF920F931F93CF93DF93CDB737
:102A9000DEB7A1970FB6F894DEBF0FBECDBF7C01A5
:102AA000FA01CB0119A2223008F42AE08E010F5D51
:102AB0001F4F822E912CA12CB12CBF01A501940196
:102AC0000E94E51FF901CA01015011096A3010F492
:102AD000605D01C0695CD8016C93232B242B252BEE
:102AE00061F7B801C7010E941115A1960FB6F894BD
:102AF000DEBF0FBECDBFDF91CF911F910F91FF9031
:102B0000EF90BF90AF909F908F9008952115310561
:102B100041F4DC01ED91FC910190F081E02D642FF6
:102B200009940C943D159A01AB0160E070E00C949F
:102B30008615CF92DF92EF92FF920F931F93CF9360
:102B4000DF932115310581F4DC01ED91FC910190B9
:102B5000F081E02D642FDF91CF911F910F91FF90B5
:102B6000EF90DF90CF9009942A30310501F577FF7F
:102B70001DC06A017B01EC016DE20E9436158C01DB
:102B800044275527BA014C195D096E097F092AE0CF
:102B9000CE010E943D15800F911FDF91CF911F91B3
:102BA0000F91FF90EF90DF90CF9008952AE0DF9192
:102BB000CF911F910F91FF90EF90DF90CF900C94E9
:102BC0003D159A01AB01770F660B770B0C949915A5
:102BD0007F928F929F92AF92BF92CF92DF92EF92AD
:102BE000FF920F931F93CF93DF938C016A017B01B8
:102BF000722E9A01AB01C701B6010E94CC1F882337
:102C000019F060ED72E027C046015701E894B7F86B
:102C10002FEF3FEF4FE75FE7C501B4010E94CC1FE4
:102C200081110DC02FEF3FEF4FE75FE7C501B40102
:102C30000E94AD1318161CF464ED72E00CC02FEF67
:102C40003FEF4FE75FE4C701B6010E94C71F1816A8
:102C500094F468ED72E0C801DF91CF911F910F915C
:102C6000FF90EF90DF90CF90BF90AF909F908F90AC
:102C70007F900C9411152FEF3FEF4FE75FECC701EA
:102C8000B6010E94AD1387FDE4CF20E030E0A9013A
:102C9000C701B6010E94AD1387FF0AC06DE2C801EB
:102CA0000E943615EC01F7FAF094F7F8F09402C0A0
:102CB000C0E0D0E0B12C60E070E080E09FE37B14E6
:102CC00041F020E030E040E251E40E94261FB3943E
:102CD000F6CFA70196010E9441136B017C010E946F
:102CE000981F4B015C012AE0AB01BC01C8010E94A6
:102CF0003D15C80FD91F7720B9F1C501B4010E9455
:102D0000B2139B01AC01C701B6010E9440136B01D5
:102D10007C016EE2C8010E943615C80FD91F20E061
:102D200030E040E251E4C701B6010E9464144B0157
:102D30005C010E94981F6B017C014AE050E0C801D1
:102D40000E949315C80FD91FB60180E090E00E9441
:102D5000B2139B01AC01C501B4010E9440136B0189
:102D60007C017A947110DBCFCE01DF91CF911F915E
:102D70000F91FF90EF90DF90CF90BF90AF909F901A
:102D80008F907F9008950C94E815615030F0209159
:102D9000F100FC0120830196F8CF289884E6809307
:102DA000FA0408954091F5045091F6042091F3043B
:102DB0003091F40442175307B4F49091E8009570F1
:102DC000E1F39091E80092FD19C08093F1008091A9
:102DD000F5049091F60401968F739927892B19F4C5
:102DE0008EEF8093E8008091F5049091F6040196AF
:102DF0009093F6048093F50481E0089580E00895AF
:102E0000DF92EF92FF920F931F93CF93DF93D82E11
:102E1000F92EE42E062F10E0C8010196880F0E94BB
:102E2000D21683E00E94D216CD2DDF2D0C0F1D1F70
:102E3000C017D10789F0E7FE03C0FE01849101C0ED
:102E400088810E94D216F82E80E00E94D2168F212F
:102E500021968111EDCF01C081E0DF91CF911F91CB
:102E60000F91FF90EF90DF9008958091D7008160DF
:102E70008093D70080EA8093D80089B5806189BDAE
:102E800089B5826089BD09B400FEFDCF61E070E0C4
:102E900080E090E00E94791B8091D8008F7C806157
:102EA0008093D8008091E000807F8093E0000895B7
:102EB000CF93DF931F92CDB7DEB71982CE01019673
:102EC0000E94DE1D0E94121FBE016F5F7F4F0E9495
:102ED0008D1E89810F90DF91CF9108952FB7FC014E
:102EE0002083F89467706093E9000895CF93DF938F
:102EF0001F92CDB7DEB7682FCE0101960E946E17E4
:102F00008091F20099819FBF0F90DF91CF9108953A
:102F1000EF92FF920F931F93CF93DF931F92CDB742
:102F2000DEB79091F904992311F057FF03C08FEF9A
:102F30009FEF29C08A017B01682FCE0101960E9474
:102F40006E172091F20030E0021713070CF498017D
:102F5000822FF70194E6815038F028989093FA0474
:102F60004091F1004193F7CF2115310521F0809177
:102F7000F200882321F089818FBFC90104C08BE64C
:102F80008093E800F8CF0F90DF91CF911F910F91C0
:102F9000FF90EF900895CF93DF931F92CDB7DEB7E8
:102FA00041E050E0BE016F5F7F4F0E94881701979C
:102FB00019F4898190E002C08FEF9FEF0F90DF91AD
:102FC000CF910895CF93DF931F92CDB7DEB7682FCF
:102FD000CE0101960E946E179091E800892F8072B1
:102FE00095FF04C09091F20080E4891B99819FBFF6
:102FF0000F90DF91CF9108955F926F927F928F92A1
:103000009F92AF92BF92CF92DF92EF92FF920F9377
:103010001F93CF93DF931F92CDB7DEB7982E6B012E
:10302000B42E052F8091F904811103C08FEF9FEF1B
:1030300077C08091F70480FF05C08091E000826036
:103040008093E000EB2CF02EA12C8AEF882E892DA6
:103050008072682E892D8074582E9AE3792EE1149F
:10306000F10419F4AA2009F455C0892D0E94E21731
:10307000182F81110AC08A948820C1F261E070E0A3
:1030800080E090E00E94791BEACF90E0E816F90614
:103090000CF41E2D692DCE0101960E946E178091B1
:1030A000E80085FF34C0812F90E0E81AF90A662015
:1030B00029F01150A0F01092F100FBCFF60197FE1D
:1030C0000AC0115050F024912093F1003196F9CFAD
:1030D00021912093F1001150D8F7C80ED91EAA20D3
:1030E00019F07092E8000BC08091E80085FD09C0DE
:1030F0007092E800AA24A394E114F10441F0A12CF9
:1031000006C0E114F10419F451107092E8008981AD
:103110008FBFA5CF5D9884E68093FB048B2D902F05
:103120000F90DF91CF911F910F91FF90EF90DF9063
:10313000CF90BF90AF909F908F907F906F905F9057
:1031400008951092E9001092F6041092F5049093FD
:10315000F4048093F3040895DF92EF92FF920F93AB
:103160001F93CF93DF93D82E8A017B01E40EF51EC7
:10317000EB01CE15DF0571F0D7FE03C0FE0184918F
:1031800001C088810E94D21621968111F2CF8FEF63
:103190009FEF01C0C801DF91CF911F910F91FF9068
:1031A000EF90DF900895AF92BF92DF92EF92FF927F
:1031B0000F931F93CF93DF935C018B01EB019BEF88
:1031C000D92E2097C1F07E01C134D1051CF080E4D6
:1031D000E82EF12C8091E80082FFFCCFC8018C1B07
:1031E0009D0B6E2D8A0D9B1D0E94C516D092E80086
:1031F000CE19DF09E6CFC801DF91CF911F910F9162
:10320000FF90EF90DF90BF90AF9008951F920F92C4
:103210000FB60F921124CF92DF92EF92FF920F938D
:103220001F932F933F934F935F936F937F938F934E
:103230009F93AF93BF93EF93FF93CF93DF93CDB75C
:10324000DEB76C97DEBFCDBF1092E9008091E80039
:1032500083FF17C168E0CE0145960E94C51682EF34
:103260008093E8008D8987FF05C09091E80090FF6A
:10327000FCCF03C09EEF9093E800982F907609F062
:10328000D8C09E894F89588D2F89188D91110CC0F7
:10329000803829F48091F8048093F10002C01092E4
:1032A000F1001092F100E6C0913051F48111E2C0BA
:1032B0004130510509F0DEC08091F8048D7F0BC0CC
:1032C000933061F48111D6C04130510509F0D2C06C
:1032D0008091F80482608093F804CCC0953049F462
:1032E0008091E80080FFFCCF822F80688093E3000C
:1032F000C1C0963009F070C0EB8CFC8C123069F5BF
:1033000080E090E00E94A1180E94581799E09E0169
:103310002F5F3F4F6901F901292F11922A95E9F793
:1033200099831A8391E09E8390EA98879AEF998710
:103330002091F5043091F604275F3F4F3C832B83A7
:103340008D83C7010E94A11849E050E0B60180E0DA
:103350000E94AC180E9458178DC0C7010E94A11886
:103360000E94121FBE016B5E7F4F0E94B61E009727
:1033700019F00CF07FC082C0113009F470C0133016
:1033800009F07CC08F89882309F46CC0823029F44D
:1033900040E860E188EE90E006C0813039F440E812
:1033A0006BE08CED90E00E94001756C0833009F06E
:1033B00065C00E94121F8E010F5F1F4FB8010E944F
:1033C000D51EF80101900020E9F73197BF01601B7D
:1033D000710B40E0C801E7CF973009F44FC0983037
:1033E00021F481E08093F10045C0993009F042C09A
:1033F000837009F043C0EBE0F1E081E031E096E357
:103400002081211109C08EE78093EA001092EA0022
:103410008F898093F9042EC08093E9003093EB00EC
:1034200021912093EC009093ED008F5F873041F75E
:10343000EACF8B8D9C8D0E94A118898D811105C0CA
:10344000CE0145960E94E91D07C00E94121FBE01D1
:103450006B5E7F4F0E94F41E882381F00BC06AECE4
:1034600070E002C069EF70E0FB01449150E080E839
:103470000E94AC188EEF8093E80003C081E2809335
:10348000EB006C960FB6F894DEBF0FBECDBFDF9198
:10349000CF91FF91EF91BF91AF919F918F917F91CC
:1034A0006F915F914F913F912F911F910F91FF90DD
:1034B000EF90DF90CF900F900FBE0F901F90189558
:1034C0008093E9008091F200882319F08AE38093C9
:1034D000E80008951F920F920FB60F9211242F93B8
:1034E0003F934F935F936F937F938F939F93AF938C
:1034F000BF93CF93EF93FF93C091E1008091E100E0
:10350000837F8093E100C3FF0FC01092E90081E048
:103510008093EB001092EC0082E38093ED00109218
:10352000F90488E08093F000C2FF19C083E00E9494
:10353000601A8091FB04882339F08091FB0481504C
:103540008093FB04882389F18091FA04882339F061
:103550008091FA0481508093FA04882341F1C4FFDA
:1035600010C08091E2008E7E81608093E2008091A5
:10357000E1008F7E8093E1008091F7048E7E806170
:1035800011C0C0FF16C08091E2008E7E80618093E2
:10359000E2008091E1008E7E8093E1008091F7044B
:1035A0008E7E81608093F70404C05D9ACDCF289A07
:1035B000D6CFFF91EF91CF91BF91AF919F918F9116
:1035C0007F916F915F914F913F912F910F900FBE1F
:1035D0000F901F9018951092F9041092F804109211
:1035E000F7040E943517E1EEF0E080818E7E808343
:1035F0008DE08093E200559A209A08951F920F92D1
:103600000FB60F9211242F933F938F939F93AF93F5
:10361000BF938091FD049091FE04A091FF04B091AE
:1036200000053091FC0423E0230F2D3720F4019690
:10363000A11DB11D05C026E8230F0296A11DB11DD5
:103640002093FC048093FD049093FE04A093FF0458
:10365000B09300058091010590910205A0910305AA
:10366000B09104050196A11DB11D809301059093B1
:103670000205A0930305B0930405BF91AF919F91FC
:103680008F913F912F910F900FBE0F901F90189523
:103690002FB7F8946091FD047091FE048091FF04AF
:1036A000909100052FBF08953FB7F89480910105D0
:1036B00090910205A0910305B091040526B5A89B41
:1036C00005C02F3F19F00196A11DB11D3FBFBA2FB4
:1036D000A92F982F8827820F911DA11DB11DBC0114
:1036E000CD0142E0660F771F881F991F4A95D1F7D9
:1036F00008958F929F92AF92BF92CF92DF92EF92F6
:10370000FF926B017C010E94541B4B015C01C114B0
:10371000D104E104F10401F10E948C1E0E94541BAB
:10372000DC01CB0188199909AA09BB09883E93409D
:10373000A105B10560F321E0C21AD108E108F10842
:1037400088EE880E83E0981EA11CB11CC114D10420
:10375000E104F10419F7DBCFFF90EF90DF90CF90F9
:10376000BF90AF909F908F9008958230910538F070
:10377000880F991F880F991F05970197F1F70895F2
:10378000789484B5826084BD84B5816084BD85B53C
:10379000826085BD85B5816085BDEEE6F0E0808103
:1037A00081608083E1E8F0E0108280818260808324
:1037B000808181608083E0E8F0E0808181608083A7
:1037C000E1E9F0E080818260808380818160808394
:1037D000E0E9F0E0808181608083E1ECF0E08081CD
:1037E0008460808380818260808380818160808327
:1037F000E3ECF0E0808181608083E0ECF0E08081A8
:1038000082608083E2ECF0E0808181608083EAE77F
:10381000F0E0808184608083808182608083808109
:10382000816080838081806880830895823108F080
:103830008251E82FF0E0E350FF4FE49180917B004C
:10384000E3FB222720F930E095E0220F331F9A9501
:10385000E1F78F7D282B20937B008091110120E4DC
:10386000829FC0011124E770E82BE0937C008091D7
:103870007A00806480937A0080917A0086FDFCCF84
:10388000809178002091790090E0922B089590E04B
:10389000FC013197EF30F105B0F5EA5AFF4F0C9477
:1038A0000720809180008F7703C0809180008F7DFA
:1038B00080938000089580918000877FF9CF84B540
:1038C0008F7702C084B58F7D84BD0895809190006C
:1038D0008F7707C0809190008F7D03C0809190000A
:1038E000877F8093900008958091C0008F7703C0F8
:1038F0008091C0008F7D8093C00008958091C200A8
:10390000877F8093C2000895CF93DF9390E0FC01FE
:10391000E85DFE4F2491FC01E95BFE4F8491882312
:1039200061F190E0880F991FFC01EE57FE4FC591A1
:10393000D491FC01EC58FE4FA591B491611109C0DE
:103940009FB7F8948881209582238883EC912E2359
:103950000BC0623061F49FB7F8948881322F3095A4
:1039600083238883EC912E2B2C939FBF06C08FB7A7
:10397000F894E8812E2B28838FBFDF91CF91089593
:103980001F93CF93DF93282F30E0F901E75FFE4FBD
:103990008491F901E85DFE4FD491F901E95BFE4F96
:1039A000C491CC23C1F0162F81110E94471CEC2F2B
:1039B000F0E0EE0FFF1FEC58FE4FA591B4919FB7BA
:1039C000F894111104C08C91D095D82302C0EC91C9
:1039D000DE2BDC939FBFDF91CF911F910895FC01F7
:1039E000808191810C94B920CF93DF93EC01888181
:1039F0009981009711F00E94B920198218821D82C6
:103A00001C821B821A82DF91CF9108950F931F931E
:103A1000CF93DF93EC018B016F5F7F4F888199819A
:103A20000E944221009731F0998388831B830A8387
:103A300081E001C080E0DF91CF911F910F91089547
:103A4000CF93DF93EC0188819981892B29F08A81BA
:103A50009B818617970760F4CE010E94061D88237C
:103A600041F08C819D81892B19F4E881F9811082C4
:103A700081E0DF91CF910895EF92FF920F931F9312
:103A8000CF93DF93EC017B018A01BA010E94201DD4
:103A9000811104C0CE010E94F41C07C01D830C8359
:103AA000B701888199810E941622CE01DF91CF91C2
:103AB0001F910F91FF90EF900895FC0111821082E9
:103AC00013821282158214826115710551F0FB0177
:103AD00001900020E9F73197AF01461B570B0C947A
:103AE0003C1D0895CF93DF931F92CDB7DEB7698356
:103AF000DC01ED91FC910280F381E02D41E050E08A
:103B0000BE016F5F7F4F09950F90DF91CF910895B0
:103B1000CF93DF93EC018C859D8597FF05C082E0F4
:103B20000E94CB179D878C878C859D85DF91CF91D7
:103B3000089583E00E94E21790E0089583E00C94DA
:103B4000601AFC018485958597FD06C082E00E947D
:103B5000761790E00196089582E00E94761790E033
:103B60000895FC018485958597FD05C02FEF3FEFF3
:103B700035872487089582E00C94CB17CF93DF9389
:103B8000EC0180911D01882331F083E00E94FC1735
:103B90001816190634F081E090E09B838A8380E058
:103BA00090E0DF91CF910895EEEFFFE725913491FA
:103BB00081E02B3F3C4D09F080E00895FC019081AD
:103BC0009E5F908342E450E060E971E080E80C94ED
:103BD000AC18FC0181819081913A59F4813209F04D
:103BE00065C047E050E066E171E080E00E94AC18FB
:103BF0005BC0913209F05AC0833269F482819381AB
:103C0000A0E0B0E08093120190931301A0931401FF
:103C1000B093150149C0803239F467E070E086E165
:103C200091E00E94D31840C0823209F03DC08281E9
:103C300080931D010E94D41D882319F0EEEFFAE055
:103C400002C0E0E0F8E08091160190911701A09188
:103C50001801B0911901803B9440A105B10541F5CF
:103C600080911D0180FD24C0EE3F8AE0F80751F0ED
:103C700080819181873727E7920721F09093FF0A8F
:103C80008093FE0A87E797E79183808380916000A5
:103C9000809355059BE088E10FB6F894A895809332
:103CA00060000FBE9093600081E0089580E0089569
:103CB0008081918187379747B9F7A89580916000F7
:103CC0008861809360008091550580936000EE3F8D
:103CD0008AE0F80739F08091FE0A9091FF0A9183FB
:103CE0008083E2CF1092FF0A1092FE0ADDCFE5E05A
:103CF000F5E01382128288EE93E0A0E0B0E08483C6
:103D00009583A683B78380EE92E0918380838FEFC3
:103D10009FEF9587848708950895EF92FF920F9300
:103D20001F93CF93DF937B01FC01C281D38100E01D
:103D300010E0209781F0E881F9810280F381E02D85
:103D4000B701CE01099597FD08C0080F191F088417
:103D5000D985C02DEECFC80102C08FEF9FEFDF9154
:103D6000CF911F910F91FF90EF9008950F931F93A4
:103D7000CF93DF938B01FC01C281D381209771F037
:103D8000E881F9810480F581E02DB801CE01099523
:103D9000009731F40884D985C02DF0CF80E090E001
:103DA000DF91CF911F910F9108950F931F93CF93A0
:103DB000DF938B01FC01C281D381209771F0E881F0
:103DC000F9810680F781E02DB801CE010995080F31
:103DD000111D0884D985C02DF0CFF8011082DF9124
:103DE000CF911F910F9108950F931F93CF93DF935E
:103DF0008B01FC01C281D381209771F0E881F981A8
:103E00000190F081E02DB801CE010995811105C026
:103E10000884D985C02DF0CF80E0DF91CF911F912C
:103E20000F91089580915A0581110DC082E0809311
:103E3000560584E080935705109259051092580555
:103E400081E080935A0586E595E008950E943A1F27
:103E50000C942A140E94231458F00E941C1440F061
:103E600029F45F3F29F00C94131451110C945E1443
:103E70000C9419140E943B1468F39923B1F3552351
:103E800091F3951B550BBB27AA276217730784076D
:103E900038F09F5F5F4F220F331F441FAA1FA9F303
:103EA00035D00E2E3AF0E0E832D091505040E695F1
:103EB000001CCAF72BD0FE2F29D0660F771F881F52
:103EC000BB1F261737074807AB07B0E809F0BB0B45
:103ED000802DBF01FF2793585F4F3AF09E3F510559
:103EE00078F00C9413140C945E145F3FE4F3983E46
:103EF000D4F3869577956795B795F7959F5FC9F742
:103F0000880F911D9695879597F90895E1E0660FC2
:103F1000771F881FBB1F621773078407BA0720F03B
:103F2000621B730B840BBA0BEE1F88F7E0950895A4
:103F30000E94431488F09F5798F0B92F9927B751E2
:103F4000B0F0E1F0660F771F881F991F1AF0BA953D
:103F5000C9F714C0B13091F00E945D14B1E008952A
:103F60000C945D14672F782F8827B85F39F0B93F1C
:103F7000CCF3869577956795B395D9F73EF49095F0
:103F80008095709561957F4F8F4F9F4F08950E9448
:103F9000EF1308F48FEF08950E94EF13880B990B2D
:103FA000089597FB072E16F4009407D077FD09D0EB
:103FB0000E940D2007FC05D03EF4909581959F4FFF
:103FC0000895709561957F4F0895A1E21A2EAA1B5E
:103FD000BB1BFD010DC0AA1FBB1FEE1FFF1FA217B9
:103FE000B307E407F50720F0A21BB30BE40BF50BB6
:103FF000661F771F881F991F1A9469F7609570953F
:10400000809590959B01AC01BD01CF010895EE0F05
:10401000FF1F0590F491E02D0994AA1BBB1B51E1F1
:1040200007C0AA1FBB1FA617B70710F0A61BB70B28
:10403000881F991F5A95A9F780959095BC01CD01CD
:1040400008950F931F93CF93DF938230910510F45F
:1040500082E090E0E0916405F091650520E030E0B9
:10406000A0E0B0E0309719F14081518102811381C5
:1040700048175907C8F08417950769F4109731F06D
:1040800012960C93129713961C9327C00093640505
:104090001093650522C02115310519F04217530709
:1040A00018F49A01BD01EF01DF01F801DBCF211502
:1040B0003105F9F0281B390B2430310580F48A8151
:1040C0009B816115710521F0FB019383828304C0FC
:1040D0009093650580936405FE01329644C0FE010D
:1040E000E20FF31F81939193225031093983288382
:1040F0003AC02091620530916305232B41F4209151
:1041000002013091030130936305209362052091F1
:104110000001309101012115310541F42DB73EB761
:104120004091040150910501241B350BE09162057B
:10413000F0916305E217F307A0F42E1B3F0B28173D
:10414000390778F0AC014E5F5F4F2417350748F010
:104150004E0F5F1F509363054093620581939193C7
:1041600002C0E0E0F0E0CF01DF91CF911F910F910D
:104170000895CF93DF93009709F481C0FC01329733
:1041800013821282A0916405B0916505109781F4A5
:1041900020813181820F931F209162053091630548
:1041A0002817390751F5F0936305E093620567C05E
:1041B000ED0120E030E0CE17DF0740F44A815B815B
:1041C0009E0141155105F1F0EA01F5CFD383C28379
:1041D00040815181840F951FC817D90759F48881F0
:1041E0009981840F951F0296918380838A819B8198
:1041F000938382832115310529F4F0936505E093BB
:1042000064053DC0E901FB83EA8349915991C40FDC
:10421000D51FEC17FD0761F480819181840F951FF4
:104220000296E90199838883828193819B838A83A3
:10423000E0E0F0E012968D919C911397009719F0B1
:10424000FD01DC01F7CF8D919C9111979D012E5FAF
:104250003F4F820F931F209162053091630528170D
:10426000390769F4309729F41092650510926405B6
:1042700002C013821282B0936305A0936205DF919E
:10428000CF910895A0E0B0E0E8E4F1E20C9421229F
:10429000EC01009721F4CB010E942120B4C0FC0165
:1042A000E60FF71F9C0122503109E217F30708F4CB
:1042B000A8C0D9010D911C91119706171707B0F0EE
:1042C0000530110508F49BC0C801049786179707AD
:1042D00008F495C002501109061B170B01931193A6
:1042E0006D937C93CF010E94B92089C05B01A01A15
:1042F000B10A4C01800E911EA0916405B091650534
:10430000612C712CE12CF12C109709F446C08D9191
:104310009C911197A815B905B1F56C0142E0C40E46
:10432000D11CCA14DB0478F14C018A189B08640183
:1043300042E0C40ED11C1296BC9012971396AC9119
:10434000B5E0CB16D10440F0B282A3839182808283
:10435000D9016D937C9309C00E5F1F4F800F911F91
:10436000F90191838083EB2DFA2FE114F10431F0F0
:10437000D7011396FC93EE93129741C0F093650515
:10438000E09364053CC06816790608F43C017D01A1
:1043900012960D90BC91A02DB7CF8091620590919F
:1043A000630588169906E1F466167706C8F48091CD
:1043B000000190910101009741F48DB79EB74091A3
:1043C000040150910501841B950BE817F907C8F407
:1043D000F0936305E0936205F901718360830FC078
:1043E000CB010E9421207C01009759F0A801BE0159
:1043F0000E940D22CE010E94B920C70104C0CE0147
:1044000002C080E090E0CDB7DEB7EEE00C943D2234
:1044100081E090E0F8940C945422FB01DC0102C08E
:1044200001900D9241505040D8F70895FB01DC01F6
:1044300001900D920020E1F708952F923F924F9244
:104440005F926F927F928F929F92AF92BF92CF9224
:10445000DF92EF92FF920F931F93CF93DF93CDB72D
:10446000DEB7CA1BDB0B0FB6F894DEBF0FBECDBFA5
:1044700009942A88398848885F846E847D848C8476
:104480009B84AA84B984C884DF80EE80FD800C817F
:104490001B81AA81B981CE0FD11D0FB6F894DEBF62
:1044A0000FBECDBFED01089510E0CCEED0E004C00A
:1044B000FE010E9407202196CD3ED107C9F7F8944E
:0244C000FFCF2C
:1044C200000066052000E803000000C180810000B2
:1044D2000001FFFFFFFF00E1000000000000475065
:1044E2005320446174656E003A30003A0020504D0A
:1044F2000020414D005765636B65723A20004569A3
:104502006E00417573005765636B7A6569743F008D
:104512002E20002E0053656E736F722064656665EF
:104522006B7400432020200025005A65696765727C
:10453200206B616C696272696572656E00526F6DA3
:10454200656F2056322E3220576174636800436FC4
:10455200726179202F204272756E6F004C6F6E640B
:104562006F6E004C4F4E004E65772D596F726B0087
:104572004E45590050617269730050415200546FA8
:104582006B796F00544F4B00486F6E676B6F6E67AD
:1045920000484E4B004C6F7320416E67656C65732B
:1045A200004C414E004368696361676F00434849AC
:1045B2000053656F756C0053454F00427275657309
:1045C20073656C004252550057617368696E677477
:1045D2006F6E005741530053696E676170757200C8
:1045E20053494E005379646E657900535944000073
:1045F200000000860FE71497019A010D0C88091834
:1046020009BB089B010100FFFF030002000000BD7F
:10461200040000A701FFFFFFFF00000200010032BB
:10462200040000A701FFFF0000FFFFFFFF0000D012
:104632000500009E010000FFFF05000400FFFFAB24
:10464200030000B001040003000400FFFF0300D5D3
:104652000300000000030003000000FFFF0300B995
:10466200010000000000000000860FE71497019A85
:1046720001060E090ED1140C0E9B0100000000640D
:1046820012371297010012D511DD11F1110D0A0036
:104692006E616E00696E66006F7666000000000053
:0E46A200721DBE1D991D9E1DA11DB11D881DFE
:00000001FF
