:100000000C94FC000C94F4200C941B210C944221C1
:100010000C9469210C9424010C9424010C949021DB
:100020000C9424010C9424010C940F200C94AB1E0E
:100030000C9424010C9424010C9424010C942401AC
:100040000C9424010C9424010C9424010C9424019C
:100050000C9424010C9424010C9424010C94B721D9
:100060000C9424010C9424010C9424010C9424017C
:100070000C9424010C9424010C9424010C9424016C
:100080000C9424010C9424010C9424010C9424015C
:100090000C94A0150C9424010C9424010C942401BC
:1000A0000C9424010C9424010C94240127232C2368
:1000B00031233B2345238F238F238F234F23592322
:1000C00063236D237A238F238223B023B323A223B8
:1000D000A623AC23D423D423D423B723BB23BF2309
:1000E000C523C923D423CF2312010002EF0201400C
:1000F0004123368000010102030141726475696E7B
:100100006F204C4C430041726475696E6F204C65E2
:100110006F6E6172646F0004030904070605040131
:1001200000080A0B0C0D090000000200090F000076
:10013000030401000C0000000000000000000000AB
:100140000000000000000408020110408040102060
:10015000408040800802040180402010020110808D
:100160001020404020040404040403040502020299
:100170000204030202020206060606060604040240
:1001800002020404000000002300260029002C00C5
:100190002F0000000000250028002B002E00310059
:1001A00000000000240027002A002D003000080B6A
:1001B0000002020201000904000001020200000521
:1001C000240010010524010101042402060524066F
:1001D00000010705810310004009040100020A0024
:1001E00000000705020240000007058302400000EE
:1001F00060083418F125D90911241FBECFEFDAE0C9
:10020000DEBFCDBF13E0A0E0B1E0EAE6F2E502C058
:1002100005900D92A630B107D9F725E0A6E0B3E02E
:1002200001C01D92A73DB207E1F710E0CBEFD0E08F
:1002300004C02197FE010E94DB26C83FD107C9F701
:100240000E94791A0C9428290C94000080E00E94E6
:10025000CF228D3F23E0920720F1809106039091F9
:1002600007030196909307038093060303970CF40A
:100270006AC0E6E0F3E020E030E080E090E040811A
:100280005181443051052CF0C901493C51050CF015
:100290000596119211922F5F3F4F2630310579F765
:1002A00008958934910570F48091080390910903B1
:1002B00081152DE792074CF40196909309038093E2
:1002C000080341C08E3E910570F480910A0390911D
:1002D0000B0381152DE7920754F4019690930B03BD
:1002E00080930A0330C0823A21E0920770F4809133
:1002F0000C0390910D0381152DE792074CF40196A4
:1003000090930D0380930C031EC08037924070F4CD
:1003100080910E0390910F0381152DE7920734F41D
:10032000019690930F0380930E030DC080911003EC
:100330009091110381152DE792072CF4019690936B
:1003400011038093100380E090E0089580E090E036
:10035000089508958DEF9FEF08959091AD0381E08A
:1003600089278093AD0380E090E008959091AC03DD
:1003700081E089278093AC0380E090E0089590911C
:10038000320381E089278093320380E090E0089572
:1003900020E030E040E85FE36091A8037091A9039A
:1003A0008091AA039091AB030E9439186093A8032F
:1003B0007093A9038093AA039093AB030895CF93FE
:1003C000DF93EC0140E060E082E794E00E9481135B
:1003D00066E371E082E794E00E94D91ACE01DF91D2
:1003E000CF9108950F931F93CF93DF93182FD0E0F1
:1003F000C0E26C2F8DE095E00E94AD178DE095E096
:100400000E943118082F61E070E080E090E00E94C7
:100410003222011103C01D17F9F0DF5FCF5FC83230
:1004200041F7C8E36C2F8DE095E00E94AD178DE099
:1004300095E00E943118082F61E070E080E090E0C4
:100440000E943222011103C01D1731F0DF5FCF5F20
:10045000C03441F780E001C08C2FDF91CF911F9114
:100460000F910895DC01ED91FC910190F081E02D58
:100470000994FC018481958101962CE330E0B90157
:100480000E94A52695838483892B19F080E090E053
:100490000895828193810196B9010E94A5269383D4
:1004A0008283892B99F780819181019668E170E0C0
:1004B0000E94A526AC019183808321E090E0452B2A
:1004C00009F020E0822F0895FC012281338126303B
:1004D0003105D9F03CF42230310569F02430310582
:1004E00039F413C02930310581F02B30310569F022
:1004F0008FE190E00895FC018081918183709927BC
:10050000892B31F48DE190E008958EE190E008951B
:100510008CE190E008950F931F93CF93DF93EC014C
:100520000C811D810F5F1F4F1D830C830E9464028D
:1005300080179107A4F421E030E03D832C838A8169
:100540009B8101968D3091051CF49B838A8307C0A3
:100550003B832A8388819981019699838883DF91DF
:10056000CF911F910F9108950F931F930E94012225
:1005700000910601109107012091080130910901B5
:10058000061717072807390770F5D901C8018851E0
:100590009C4FAF4FBF4F8093060190930701A093EC
:1005A0000801B09309018BE493E00E943902892B82
:1005B00021F088E293E00E948B0283E493E00E94A2
:1005C0003902892B21F080E293E00E948B028BE3B9
:1005D00093E00E943902892B31F088E193E01F916A
:1005E0000F910C948B021F910F910895FC01CB0188
:1005F00026813781215031092230310558F021E020
:1006000030E0378326836230710569F0643071050C
:1006100039F014C06230710531F06430710549F46D
:1006200082E090E002C081E090E0978386838AE0D8
:1006300090E02681378121303105D1F48130910558
:1006400021F08330910549F00895808191810196D0
:1006500068E170E00E94A52608C080819181009722
:1006600019F487E190E001C001979183808313C062
:1006700022303105F1F48130910521F0833091056C
:1006800079F008958281938101966CE370E00E9475
:10069000A52693838283158214828AE090E00895D0
:1006A00082819381009719F48BE390E0F2CF019758
:1006B000F0CF08950F931F93CF93DF938C01809118
:1006C000AC03F801C081D181882389F0CD30D105F8
:1006D0000CF02C97CA30D10534F461E471E082E764
:1006E00094E00E94D91A4AE050E0BE010DC02A975A
:1006F00034F461E471E082E794E00E94D91AF801D1
:10070000608171814AE050E082E794E00E94861B9C
:10071000F801828193810A971CF460E471E002C0C1
:1007200063E471E082E794E00E94D91AF8016281E3
:1007300073814AE050E082E794E00E94861BF80152
:10074000848195810A971CF460E471E002C063E43F
:1007500071E082E794E00E94D91AF8016481758102
:100760004AE050E082E794E00E94861B8091AC034F
:10077000882391F0F801808191810D971CF065E448
:1007800071E002C069E471E082E794E0DF91CF910B
:100790001F910F910C94D91ADF91CF911F910F9156
:1007A0000895CF93DF93EC0140E060E082E794E0AE
:1007B0000E9481136DE471E082E794E00E94D91AEF
:1007C00080913203882319F066E571E002C06AE582
:1007D00071E082E794E00E94D91A41E060E082E78C
:1007E00094E00E94811383E393E00E945A03CE01B8
:1007F000DF91CF910895CF93DF93EC0140E060E06B
:1008000082E794E00E9481136EE571E082E794E054
:100810000E94D91ABE0183E393E00E94F602EC0124
:1008200041E060E082E794E00E94811383E393E07B
:100830000E945A03CE01DF91CF910895CF93DF93A9
:10084000EC018C819D810A9734F46EE771E082E7B8
:1008500094E00E94D91A6C817D814AE050E082E7E1
:1008600094E00E94861B8A819B810A971CF468E6AB
:1008700071E002C06BE671E082E794E00E94D91A51
:100880006A817B814AE050E082E794E00E94861B07
:100890006BE671E082E794E00E94D91A6881798161
:1008A0004AE050E082E794E0DF91CF910C94861B00
:1008B000CF93DF93EC0140E060E082E794E00E9498
:1008C00081138091AD03882319F183E493E00E94A2
:1008D0005A0340E06DE082E794E00E94811380912A
:1008E000C8039091C9032EE0289FB001299F700D85
:1008F00011246E527C4F82E794E00E94CB1A41E0B3
:1009000060E082E794E00E94811380E293E00CC0F3
:100910008BE393E00E945A0341E060E082E794E0B9
:100920000E94811388E193E00E941E04CE01DF91B2
:10093000CF910895CF92DF92EF92FF9241E060E075
:1009400082E794E00E948113C090B203D090B30379
:10095000E090B403F090B50320E030E0A901C701B6
:10096000B6010E94A518811103C06DE671E023C095
:1009700022E030E0B701A60182E794E00E94681C03
:100980006FED82E794E00E94DB1A6BE771E082E78B
:1009900094E00E94D91A4091AE035091AF03609148
:1009A000B0037091B10322E030E082E794E00E944E
:1009B000681C60E871E082E794E0FF90EF90DF90C0
:1009C000CF900C94D91A0F931F93CF93DF93EC0120
:1009D0000E9401220091B6031091B7032091B80341
:1009E0003091B9030617170728073907B8F566E1EC
:1009F0008AEB93E00E9494128091BE039091BF0312
:100A0000A091C003B091C1038093B2039093B3034C
:100A1000A093B403B093B5038091BA039091BB0344
:100A2000A091BC03B091BD038093AE039093AF033C
:100A3000A093B003B093B1030E949A040E940122D4
:100A4000DC01CB0188579C4EAF4FBF4F8093B6035C
:100A50009093B703A093B803B093B9030E949A048C
:100A600040E060E082E794E00E9481138091AD0352
:100A70008823D9F083E493E00E945A0340E06DE0BC
:100A800082E794E00E9481138091C8039091C9038A
:100A90002EE0289FB001299F700D11246E527C4FCB
:100AA00082E794E00E94CB1A04C08BE393E00E949B
:100AB0005A03CE01DF91CF911F910F91089580913C
:100AC000C8039091C9032EE0289FF001299FF00DE3
:100AD0001124E653FC4F2681378180914B0390917E
:100AE0004C03820F931F909344038093430328E0A9
:100AF000E8E2F3E0A0E2B3E001900D922A95E1F77D
:100B0000883191054CF048979093440380934303B8
:100B100080E293E00E948B02809143039091440312
:100B200097FF2FC04896909344038093430380918E
:100B30002403909125030197909325038093240328
:100B4000892BF9F4809122039091230301979093CC
:100B5000230380932203892B29F080E293E00E94F3
:100B600064020BC080912003909121030197909320
:100B70002103809320038FE190E0909325038093DD
:100B8000240308958330910539F08A30910521F0CE
:100B90008130910551F517C082E794E00E947B13E4
:100BA0008091C8039091C903009719F48BE090E0FD
:100BB00001C001979093C9038093C8030E945F0509
:100BC0008AE090E0089582E794E00E947B13809190
:100BD000C8039091C9038B30910529F41092C90381
:100BE0001092C803EBCF0196E5CF0895CF93DF9322
:100BF0000E94C205EC0140E060E082E794E00E94C0
:100C000081138091C8039091C9032EE0289FB00101
:100C1000299F700D112466537C4F82E794E00E9457
:100C2000CB1A41E060E082E794E00E94811383E404
:100C300093E00E945A03CE01DF91CF91089560E0C6
:100C400070E0809116010E94002382E794E00E94E8
:100C50007B1362E871E082E794E00E94D91A60EDAC
:100C600077E080E090E00E94322282E794E00C94EA
:100C70007B1360E0809114010E94112460919F0316
:100C80007091A0038091A1039091A2030E941C196E
:100C9000809116010C94002320E042E060E182E79D
:100CA00094E00E94A71382E794E00E943C1382E73D
:100CB00094E00E94411482E794E00E947E1365E96B
:100CC00071E082E794E00E94D91A41E060E082E797
:100CD00094E00E94811366EA71E082E794E00E944A
:100CE000D91A0E940122683B7B4081059105C8F317
:100CF00082E794E00E947B1388E0EBE4F3E0A3E456
:100D0000B3E001900D928A95E1F788E0E8E2F3E024
:100D1000A0E2B3E001900D928A95E1F760E088E0EF
:100D20000E94D52360E086E10E94D52361E0809196
:100D300014010E94D52361E0809116010E94D52301
:100D400060E087E00E94D52310929B0310929C03E1
:100D500010929D0310929E0361E070E08BE593E09A
:100D60000E94DC1064E670E08BE593E00E9448107E
:100D700041E050E068EC71E084E00E94A4200E9411
:100D80000122609357037093580380935903909303
:100D90005A030895CF92DF92EF92FF920F931F9321
:100DA00088E00E944024019741F41F910F91FF9029
:100DB000EF90DF90CF900C941F060E9439060E949E
:100DC00001226093530370935403809355039093CF
:100DD0005603009157031091580320915903309105
:100DE0005A036B017C01C01AD10AE20AF30A00918E
:100DF0000A0110910B01012E000C220B330B0C1574
:100E00001D052E053F05A4F5609357037093580305
:100E10008093590390935A0320E030E040E752E476
:100E20006091A8037091A9038091AA039091AB03EC
:100E30000E94091A20E030E040EF54E40E94AA1812
:100E40006093A4037093A5038093A6039093A703D4
:100E50008BE593E00E940B0E8093A303882341F05F
:100E60001092A8031092A9031092AA031092AB0348
:100E70000E94B40280913203882311F120913B0338
:100E800030913C0380913303909134032817390744
:100E9000B9F420913D0330913E0380913503909148
:100EA00036032817390761F420913F03309140033E
:100EB00080913703909138032817390709F4F2C05D
:100EC0000E94260190931303809312032091300314
:100ED00030913103232BC1F0892B49F082E794E054
:100EE0000E943C1310923103109230030DC0809188
:100EF0003F0380FF05C082E794E00E94341304C0E2
:100F000082E794E00E943C13E0911603F0911703EE
:100F100074E0EE0FFF1F7A95E1F7E35AFD4F02846C
:100F2000F385E02D309749F08091120390911303DF
:100F3000099590931303809312038091120390916B
:100F4000130383309105D9F134F48130910579F0A0
:100F5000029719F109C08530910509F465C00CF4B8
:100F600040C0069709F483C08FEF9FEF11C082E75E
:100F700094E00E947B13E0911603F091170364E064
:100F8000EE0FFF1F6A95E1F7E35AFD4F80819181D3
:100F900090931503809314037AC082E794E00E9433
:100FA0007B13E0911603F091170354E0EE0FFF1F3F
:100FB0005A95E1F7E35AFD4F82819381E9CF82E7A9
:100FC00094E00E947B13E0911603F091170344E034
:100FD000EE0FFF1F4A95E1F7E35AFD4F848195819B
:100FE000D7CF82E794E00E947B13E0911603F09143
:100FF000170334E0EE0FFF1F3A95E1F7E35AFD4F78
:101000000484F585E02D309709F00995E0911603E9
:10101000F091170324E0EE0FFF1F2A95E1F7E35A42
:10102000FD4F86819781B4CF82E794E00E947B13C5
:10103000E0911603F091170394E0EE0FFF1F9A95CD
:10104000E1F7E35AFD4F0684F785E02D309709F06C
:101050000995E0911603F091170384E0EE0FFF1F4E
:101060008A95E1F7E35AFD4F8085918591CF82E71C
:1010700094E00E947B1382E794E00E94411482E78F
:1010800094E00E944814109215031092140380916A
:1010900014039091150397FD0CC090931703809350
:1010A000160307C081E090E09093310380933003F2
:1010B00007CF1F910F91FF90EF90DF90CF90089591
:1010C0006F927F928F929F92AF92BF92CF92DF9258
:1010D000EF92FF920F931F93CF93DF9382E794E0F9
:1010E0000E940713E2E7F4E08BE492E091838083AF
:1010F00010A211A264EB71E08AEC93E00E94D72465
:10110000CAECD3E01F821E826BEB71E082ED93E0AC
:101110000E94D7246FEB71E088ED93E00E94D72402
:101120008BEFE82EFF24FA94FD8AEC8A68EC71E0DC
:1011300080EE93E00E94D7246CEC71E086EE93E0A1
:101140000E94D72466246394712C7BA26AA262ED6C
:1011500071E08EEE93E00E94D72466ED71E084EF9B
:1011600093E00E94D72429E0822E912C99AA88AA84
:101170006CED71E08CEF93E00E94D72460EE71E09B
:1011800082E094E00E94D72408E010E01FAF0EAF89
:1011900069EE71E08AE094E00E94D7246DEE71E080
:1011A00080E194E00E94D72488EF9FEF909317048A
:1011B0008093160469EF71E088E194E00E94D724DF
:1011C0006DEF71E08EE194E00E94D7248AEF9FEFEB
:1011D000909325048093240465E072E086E294E015
:1011E0000E94D72469E072E08CE294E00E94D72448
:1011F00090923304809232046FE072E084E394E0D2
:101200000E94D72463E172E08AE394E00E94D7242D
:1012100070924104609240046CE172E082E494E0D8
:101220000E94D72460E272E088E494E00E94D72410
:10123000F0924F04E0924E046BE272E080E594E09D
:101240000E94D7246FE272E086E594E00E94D724E2
:1012500010935D0400935C0468E372E08EE594E013
:101260000E94D7246CE372E084E694E00E94D724C5
:101270008BE090E090936B0480936A0463E472E0E7
:101280008CE694E00E94D7241092C703A0900C0132
:10129000B0900D01C0900E01D0900F01E0901001B0
:1012A000F090110100911201109113011F921F92F1
:1012B00080919A038F93809199038F9380919803E3
:1012C0008F93809197038F932BE933E04FE953E09D
:1012D00064EA73E08BE593E00E94A011EBE4F3E095
:1012E00061E170E0718360834BE350E0538342839C
:1012F0002DE230E03583248317821682E3E4F3E0A5
:101300008CE090E091838083138212821582148294
:1013100017821682EBE3F3E0718360835383428389
:101320003583248317821682E3E3F3E022E130E081
:1013300031832083138212821582148217821682CF
:10134000E8E2F3E04EE050E05583448393838283E8
:1013500023EE37E03183208317821682E0E2F3E048
:10136000758264829382828260ED77E0718360830C
:1013700017821682E8E1F3E05583448393838283E6
:1013800031832083178216820F900F900F900F9059
:101390000F900F90DF91CF911F910F91FF90EF90E1
:1013A000DF90CF90BF90AF909F908F907F906F9085
:1013B0000895CF93DF93C2E7D4E02E97CE0108962D
:1013C0000E946924CE010E94692483E0CA3CD807A8
:1013D000A1F7DF91CF910895CF93DF93FC0181A511
:1013E000882371F192A5662319F0913029F402C087
:1013F000911102C083A701C013A6EF0160A18DE087
:1014000095E00E94AD1789A1823031F469E070E067
:101410008DE095E00E9432026BA58DE095E00E9480
:101420005C178DE095E00E94311821E030E08111D9
:1014300002C020E030E088279927821B930B02C06E
:101440008DEF9FEFDF91CF910895CF93FC01C3A55E
:1014500060FF02C085A1C82B61FF02C086A1C82B16
:1014600062FF02C087A1C82B63FF02C080A5C82B02
:10147000413011F482A1C82B64A16C2B70E08DE087
:1014800095E00E9432026C2F8DE095E0CF910C9494
:101490005C178F929F92AF92BF92CF92DF92EF92A2
:1014A000FF920F931F93CF93DF93EC0188A18823C2
:1014B00009F450C089A1882309F44CC0142F062FC9
:1014C0008C8C9D8CAE8CBF8CC88CD98CEA8CFB8CA0
:1014D0008DE2C81AD108E108F1080E940D22DC0152
:1014E000CB018C199D09AE09BF0988159905AA057C
:1014F000BB0598F368A18DE095E00E94AD1789A126
:10150000823031F469E070E08DE095E00E943202B3
:10151000612F70E084E0759567958A95E1F7402F1B
:10152000CE010E94250A023031F0612F6F70402FEA
:10153000CE010E94250A8DE095E00E94311821E03D
:1015400030E0811102C020E030E088279927821B1B
:10155000930B02C08CEF9FEFDF91CF911F910F9102
:10156000FF90EF90DF90CF90BF90AF909F908F90C3
:1015700008958F929F92AF92BF92CF92DF92EF9297
:10158000FF920F931F93CF93DF93EC011BA588A1CC
:10159000882309F4F6C089A1882309F4F2C08230B7
:1015A00009F4F1C08BA1882309F4EDC0062F8C8CBF
:1015B0009D8CAE8CBF8CC88CD98CEA8CFB8C8DE258
:1015C000C81AD108E108F1080E940D22DC01CB0104
:1015D0008C199D09AE09BF0988159905AA05BB0597
:1015E00098F38DA1182B8EA1182B8FA1182B88A5ED
:1015F000182B013011F48AA1182B8BA1182B68A18C
:101600008DE095E00E94AD17612F8DE095E00E947E
:101610005C178DE095E00E943118882319F00FEFD8
:101620001FEF9DC068A18DE095E00E94AD176CA1F1
:10163000612B70E08DE095E00E9432028DE095E034
:101640000E9431188111EBCF68A170E041E050E0B9
:101650008DE095E00E942E188DE095E00E94D51651
:101660007C0197FDDCCF68A18DE095E00E94AD176D
:10167000612F8DE095E00E945C178DE095E00E945F
:1016800031188111CCCF8DA190E08E219F21892B23
:1016900011F400E001C000E18EA190E08E219F21B5
:1016A000892B09F000628FA190E08E219F21892B68
:1016B00009F0006488A590E0E822F922EF2809F0FB
:1016C000006868A18DE095E00E94AD176CA1612BC8
:1016D00070E08DE095E00E9432028DE095E00E947E
:1016E000311881119CCF68A170E041E050E08DE09D
:1016F00095E00E942E188DE095E00E94D5167C01A1
:1017000097FD8DCF68A18DE095E00E94AD17612F08
:101710008DE095E00E945C178DE095E00E94311805
:1017200081117DCF8DA190E08E219F21892B09F021
:1017300001608EA190E08E219F21892B09F002602B
:101740008FA190E08E219F21892B09F0046088A54C
:1017500090E0E822F922EF2809F0086010E068A183
:101760008DE095E00E94AD176BA58DE095E00E949D
:101770005C178DE095E00E943118882339F08FEFD7
:1017800003C08CEF01C08DEF9FEF01C0C801DF9156
:10179000CF911F910F91FF90EF90DF90CF90BF906E
:1017A000AF909F908F9008950F931F93CF93DF93E7
:1017B000EC0168A18DE095E00E94AD176FEF8DE020
:1017C00095E00E945C178DE095E00E94311868A1B9
:1017D00070E041E050E08DE095E00E942E188DE031
:1017E00095E00E94D5168C0168A18DE095E00E94DD
:1017F000AD176BEF8DE095E00E945C178DE095E0F2
:101800000E94311868A170E041E050E08DE095E061
:101810000E942E188DE095E00E94D5169801277041
:10182000332727303105B1F4807F9927803F910518
:1018300089F483E0169507958A95E1F781E00827FA
:10184000017043E057E066E075E0E4E022E0F1E09B
:1018500030E034C0C801807799278037910509F0BE
:1018600068C068A18DE095E00E94AD176FEE8DE035
:1018700095E00E945C178DE095E00E94311868A108
:1018800070E041E050E08DE095E00E942E188DE080
:1018900095E00E94D5168F7099270F9719F026E0D2
:1018A00034E002C024E036E00095001F0027001F4E
:1018B00047E053E062E071E0E0E0F5E081E090E0D5
:1018C000DC0101C0AA0F3A95EAF7AAA3DC0101C026
:1018D000AA0FFA95EAF7ABA3DC0102C0AA0FBB1F5F
:1018E0002A95E2F7ACA39C0101C0220FEA95EAF722
:1018F0002DA39C0101C0220F7A95EAF72EA39C012B
:1019000001C0220F6A95EAF72FA39C0101C0220FA4
:101910005A95EAF728A701C0880F4A95EAF789A7E0
:101920000AA7013011F48BA701C01BA680E090E04C
:1019300002C08DEF9FEFDF91CF911F910F9108951E
:10194000CF93DF93EC0168A18DE095E00E94AD1785
:1019500060E08DE095E00E945C176FEF70E08DE035
:1019600095E00E9432028DE095E00E94311868A156
:101970008DE095E00E94AD1766E070E08DE095E0A7
:101980000E9432026FEF70E08DE095E00E9432021B
:101990008DE095E00E94311868A18DE095E00E94ED
:1019A000AD1769E070E08DE095E00E9432028DE0B5
:1019B00095E00E94311868A170E041E050E08DE0B0
:1019C00095E00E942E188DE095E00E94D5168F3785
:1019D00061F086FF12C081FD4CC021E032E043E09F
:1019E00054E065E076E0E7E00FC027E036E045E050
:1019F00054E063E072E0E1E007C026E033E042E05B
:101A000051E060E077E0E4E081E090E0DC0102C0DA
:101A1000AA0FBB1FEA95E2F7AAA31BA2FC0101C013
:101A2000EE0F7A95EAF7ECA3FC0102C0EE0FFF1F60
:101A30006A95E2F7EDA3BC0101C0660F5A95EAF77B
:101A40006EA3BC0102C0660F771F4A95E2F76FA331
:101A5000AC0101C0440F3A95EAF748A701C0880FCE
:101A60002A95EAF789A791E09AA78BA780E090E0F2
:101A700002C08DEF9FEFDF91CF9108951F93CF9319
:101A8000DF93EC018DE095E00E949B1768A1611146
:101A90000AC080919E0491E0980F90939E040E944A
:101AA000F20188A30DC08DE095E00E94AD178DE096
:101AB00095E00E943118882319F08CEF9FEFA7C0A2
:101AC00088A1811109C080919E0491E0980F9093A4
:101AD0009E040E94F20188A318A1112371F389A129
:101AE0008823C1F168A18DE095E00E94AD1789A11E
:101AF000823009F076C065E070E08DE095E00E94EC
:101B0000320260E270E08DE095E00E9432028DE0EA
:101B100095E00E94311868A18DE095E00E94AD1714
:101B200060E08DE095E00E945C1760E08DE095E05C
:101B30000E945C178DE095E00E94311868A18DE04D
:101B400095E00E94AD1769E070E08DE095E00E949D
:101B5000320247C0612F8DE095E00E94AD1760E032
:101B60008DE095E00E945C176FEF8DE095E00E949C
:101B70005C178DE095E00E943118612F8DE095E0B3
:101B80000E94AD1760E08DE095E00E945C178DE04B
:101B900095E00E943118612F70E041E050E08DE047
:101BA00095E00E942E188DE095E00E94D5169C01CC
:101BB0008F3F910529F091E0232B19F090E001C0AF
:101BC00092E099A3992309F1913021F4CE010E946A
:101BD000D40B03C0CE010E94A00C009709F482CF61
:101BE00016C060E08DE095E00E945C178DE095E006
:101BF0000E94311821E030E0811102C020E030E085
:101C000088279927821B930B02C08FEF9FEFDF91EC
:101C1000CF911F9108952F923F924F925F926F92B2
:101C20007F928F929F92AF92BF92CF92DF92EF926C
:101C3000FF920F931F93CF93DF93CDB7DEB76097DB
:101C40000FB6F894DEBF0FBECDBFDC01DA96BC91B3
:101C5000B983B11102C019822BC1988B8F870E9462
:101C600001226E837F8388879987EF85F88982A117
:101C700093A1A4A1B5A14E815F8168857985481B98
:101C8000590B6A0B7B0B86A597A5A0A9B1A948178C
:101C900059076A077B07F8F2048CF58DE02D8081E7
:101CA0009181A281B3818A839B83AC83BD83AF85FD
:101CB000B8899096ED91FC9191972A813B814C8156
:101CC0005D8160817181828193810E9438184B010E
:101CD0005C01EF85F88922A533A544A555A56A8145
:101CE0007B818C819D810E9438186B017C01AF85BE
:101CF000B88950962D913D914D915C915397C501B6
:101D0000B4010E94091AEF85F88926A137A140A5E0
:101D100051A50E9439182B013C01AF85B8899696D0
:101D20006D937D938D939C939997DB96BC91BA8725
:101D3000B11118C0EF85F88924853585468557850A
:101D4000C701B6010E94091A9B01AC01C301B2018F
:101D50000E943818AF85B88996966D937D938D93C0
:101D60009C939997EF85F88946A057A060A471A429
:101D700016A907A930AC21AC212F302F432D522DAD
:101D8000C301B2010E94041A18162CF4812F902F5F
:101D9000A32DB22D18C0AF85B889D2968D919D9193
:101DA0000D90BC91A02D8B879C87AD87BE879C0131
:101DB000AD01C301B2010E94A51887FF0AC08B853F
:101DC0009C85AD85BE85EF85F88986A397A3A0A7DE
:101DD000B1A7FA85FF2379F0AF85B8891C962D91BC
:101DE0003D914D915C911F97C501B4010E94091A64
:101DF0004B015C0103C0812C912C5401EF85F889C3
:101E00002489358946895789C701B6010E94091A74
:101E10009B01AC01AF85B88996966D917D918D91AE
:101E20009C9199970E943818A50194010E94391835
:101E30006B017C019B01AC01612F702F832D922DD2
:101E40000E94A51887FD14C0EF85F88912A903A97F
:101E500034A825A8212F302F432D522DB601C701BC
:101E60000E94A51887FD04C01C2D0D2D3E2C2F2C83
:101E7000AF85B8895E96ED91FC915F97812F902F89
:101E8000A32DB22D80839183A283B3838A819B810A
:101E9000AC81BD81EF85F88982A793A7A4A7B5A7D8
:101EA0008E819F81A885B98582A393A3A4A3B5A39E
:101EB000898160960FB6F894DEBF0FBECDBFDF916B
:101EC000CF911F910F91FF90EF90DF90CF90BF9037
:101ED000AF909F908F907F906F905F904F903F90CA
:101EE0002F9008954F925F926F927F928F929F9260
:101EF000AF92BF92CF92DF92EF92FF920F931F9318
:101F0000CF93DF9300D000D000D0CDB7DEB79E8353
:101F10008D8349835A836B837C832801390120E0B8
:101F200030E0A90169817A818B819C810E94A5188A
:101F300087FD97C020E030E0A901C301B2010E94F3
:101F4000A51887FD8EC020E030E0A901C701B601C9
:101F50000E94A51887FD85C0AD81BE815B96BC92AD
:101F6000AE925A9781E0AA94AB2809F080E0ED8107
:101F7000FE8183AF89819A81AB81BC81808391830B
:101F8000A283B3834482558266827782C086D186DB
:101F9000E286F38666A577A580A991A90E945219C9
:101FA00020E030E04AE754E40E94AA184B015C01AB
:101FB00089819A81AB81BC81ED81FE81848795877F
:101FC000A687B787A5019401C301B2010E94091A2F
:101FD0002B013C01AD81BE8150966D937D938D9315
:101FE0009C935397A5019401C701B6010E94AA18BA
:101FF0006B017C01ED81FE81648B758B868B978BE9
:10200000808D918D019769F529813A814B815C81A1
:1020100060E070E0CB010E943818AD81BE811C9653
:102020006D937D938D939C931F97A301920160E024
:1020300070E0CB010E943818ED81FE81608B718BBE
:10204000828B938BA701960160E070E0CB010E9428
:102050003818AD81BE8154966D937D938D939C937A
:10206000579726960FB6F894DEBF0FBECDBFDF910F
:10207000CF911F910F91FF90EF90DF90CF90BF9085
:10208000AF909F908F907F906F905F904F9008954A
:102090008F929F92AF92BF92CF92DF92EF92FF9278
:1020A000CF93DF9316161706B4F56B01EC010D2CD8
:1020B000000CEE08FF08C701B6010E9454194B013D
:1020C0005C016EA57FA588A999A90E9452199B0160
:1020D000AC01C501B4010E94AA184B015C019B012F
:1020E000AC01688979898A899B890E94091A688B61
:1020F000798B8A8B9B8BA50194016C897D898E8954
:102100009F890E94AA186C8B7D8B8E8B9F8BCEA68D
:10211000DFA6E8AAF9AADF91CF91FF90EF90DF90B8
:10212000CF90BF90AF909F908F9008958F929F9285
:10213000AF92BF92CF92DF92EF92FF92CF93DF9355
:10214000EC01EE8DFF8DC080D180E280F380CEA2C5
:10215000DFA2E8A6F9A6EC8DFD8D80819181A28198
:10216000B3818AA79BA7ACA7BDA78EA89FA8A8AC40
:10217000B9ACA5019401C701B6010E94041A181652
:1021800064F08AA89BA8ACA8BDA8A5019401C701CA
:10219000B6010E94A51887FF04C08EA29FA2A8A620
:1021A000B9A6DF91CF91FF90EF90DF90CF90BF90D5
:1021B000AF909F908F9008951F93CF93DF93EC0182
:1021C00011E06130710509F010E06130710531F402
:1021D0008AAD811103C0CE010E9496101AAFDF9123
:1021E000CF911F9108950F931F93CF93DF93EC012D
:1021F0008B018AAD882361F1888D998D86179707A9
:1022000039F12C853D854E855F8560E070E0CB011E
:102210000E9438186C877D878E879F872889398927
:102220004A895B8960E070E0CB010E943818688BB6
:10223000798B8A8B9B8B2C893D894E895F8960E0E5
:1022400070E0CB010E9438186C8B7D8B8E8B9F8B3E
:10225000198F088FDF91CF911F910F9108954F92A1
:102260005F926F927F928F929F92AF92BF92CF9226
:10227000DF92EF92FF920F931F93CF93DF9300D0E3
:1022800000D0CDB7DEB74C0127013801A982BA8250
:10229000CB82DC82FC01578F468F758F648F31A310
:1022A00020A312AE12AA13AA14AA15AA80E090E0E5
:1022B000AFE7B3E486AB97ABA0AFB1AF84E690E0F5
:1022C000A0E0B0E086A797A7A0ABB1AB6D8D7E8DE7
:1022D000C4010E94F310AB8CBC8CCF88D88CE98CE5
:1022E000FA8C09811A812B813C81B301A201C401BE
:1022F0000E94720F0E940122F40146A457A460A814
:1023000071A8DC01CB0184199509A609B70982A33C
:1023100093A3A4A3B5A30F900F900F900F90DF91FC
:10232000CF911F910F91FF90EF90DF90CF90BF90D2
:10233000AF909F908F907F906F905F904F90089597
:102340008F929F92AF92BF92CF92DF92EF92FF92C5
:102350000F931F93CF93DF93CDB7DEB7EF85F88947
:10236000A989BA899B888C888F929F921F92992401
:1023700093949F92BF93AF93FF93EF930E942F117B
:102380000FB6F894DEBF0FBECDBFDF91CF911F9186
:102390000F91FF90EF90DF90CF90BF90AF909F9004
:1023A0008F9008952F923F924F925F926F927F92FB
:1023B0008F929F92AF92BF92CF92DF92EF92FF9255
:1023C0000F931F93CF93DF93EC01F62E042FE22E91
:1023D000862F90E0FC01EA5BFE4F1491FC01EB5963
:1023E000FE4FE491F0E0EE0FFF1FEC57FE4FC5905B
:1023F000D49061E08F2D0E94D52360E08F2D0E9444
:102400001124093038F0602F70E080E090E00E94E5
:1024100032220AC088EE93E09C01029FC001039F14
:10242000900D11240E946E2260E08F2D0E94D52312
:1024300080E293E0D6012C91212321F00197D1F77E
:102440008DEF5FC080E991E0F6012081212321F426
:102450000197D1F78CEF55C080E991E0D6012C911E
:10246000212321F00197D1F78BEF4BC058E280E98F
:1024700091E020E030E0E0E9F1E000E060E0312CC4
:1024800040E8252E2E1870E9872E99249394A12CCC
:10249000B12CD6017C91712361F5002351F12516F1
:1024A00098F48E179F0708F4FC01240135014E1A99
:1024B0005F0A6108710882E07594679457944794A5
:1024C0008A95D1F7920107C07F01E21AF30AE81654
:1024D000F90608F0642B469549F4CE01830D911D51
:1024E000DC0118966C93339460E040E8515080E929
:1024F00091E0019729F0072F5111CBCF80E001C067
:102500008EEFDF91CF911F910F91FF90EF90DF90B1
:10251000CF90BF90AF909F908F907F906F905F9083
:102520004F903F902F900895CF92DF92EF92FF92BD
:102530000F931F93CF93DF93EC018D85882309F0D0
:10254000F89426E041E0CE010E94D211E82E8D855C
:10255000882309F078940885037008871A85812FED
:102560008378F82E8A87C984602F70E0762F6627DB
:102570006C0D711D072E000C880B990B0E945419CD
:102580002DEC3CEC4CEC5DE30E94091A68837983E6
:102590008A839B83DB841370612F70E0762F66271C
:1025A0006D0D711D072E000C880B990B0E9454199C
:1025B0002DEC3CEC4CEC5DE30E94091AF7FC05C0E5
:1025C0006C837D838E839F8307C0DC01CB01B05871
:1025D0008C839D83AE83BF83DC0C0D0DF00E8C8548
:1025E000F81202C08E2D01C08FEFDF91CF911F91A5
:1025F0000F91FF90EF90DF90CF90089580E090E0F2
:1026000008958DEF9FEF08958DEF9FEF0895CF937D
:10261000DF93EC011B821A8281EC92E0998388831C
:102620001F82188680ED97E0A0E0B0E0888B998B40
:10263000AA8BBB8B86E290E0A0E0B0E08C8B9D8BF8
:10264000AE8BBF8B1C861D861E861F861B860E9436
:102650000D22688F798F8A8F9B8F1C8E1D8E1E8E08
:102660001F8EDF91CF910895DC01ED91FC910684DE
:10267000F785E02D6FEF0994DC01ED91FC91068464
:10268000F785E02D60E009948F929F92AF92BF9200
:10269000EF92FF921F93CF93DF93EC01162FE88107
:1026A000F9810484F585E02D462F60E009957C01D1
:1026B0001150123038F419861A8688889988AA88A9
:1026C000BB8804C08C889D88AE88BF880E940D227C
:1026D000688F798F8A8F9B8F8C8E9D8EAE8EBF8EEA
:1026E000C701DF91CF911F91FF90EF90BF90AF9006
:1026F0009F908F90089561E00C94441362E00C94D5
:102700004413FC018085481710F04FEF480F938564
:10271000992359F09781691730F0691B4F5F48176B
:10272000D0F340E0F8CF61874287DF01A40FB11DED
:102730001C968C91680F6068CF010C944413FC01C7
:102740006581262F246025836C600C9444130F93BD
:102750001F93CF93DF93EC01022F142F453008F025
:1027600014E08C85811109C08D85811106C08E858C
:10277000811103C08F85882329F08F81882359F028
:10278000861749F01C8680E48D876E87862F90E03F
:10279000805C9F4F8F8718876F8364E670E080E0CE
:1027A00090E00E9432221C82E881F9810084F18548
:1027B000E02DCE010995009709F05EC08885823032
:1027C00018F08C8188608C83002329F0113019F473
:1027D0008C8184608C83E881F9810484F585E02D07
:1027E00040E362E0CE01099565E070E080E090E0B2
:1027F0000E943222E881F9810484F585E02D40E3CE
:1028000062E0CE01099561E070E080E090E00E9416
:102810003222E881F9810484F585E02D40E362E00D
:10282000CE01099561E070E080E090E00E943222E4
:102830008C8184FD09C0E881F9810484F585E02D4F
:1028400040E262E0CE0109956C816062CE010E9497
:10285000441384E08D83CE010E949F13CE010E9419
:102860007B1382E08E8366E0CE010E9444138C01CC
:10287000CE010E943413C801DF91CF911F910F91B7
:102880000895FC0165816D7F658368600C94441335
:10289000FC0165816E7F658368600C944413CF9260
:1028A000DF92EF92FF920F931F93CF93DF93EC0190
:1028B000462FE881F9810484F585E02D61E00995D2
:1028C0008C01CC88DD88EE88FF880E940D22688FFD
:1028D000798F8A8F9B8FCC8EDD8EEE8EFF8E81E07E
:1028E00090E0012B11F080E090E0DF91CF911F91FB
:1028F0000F91FF90EF90DF90CF9008950F931F936B
:10290000CF93DF93EC010E944F148C018B858823B9
:1029100099F089858F5F89879F81891768F019866B
:102920008A858F5F8A879885891708F01A864A8575
:1029300060E0CE010E948113C801DF91CF911F9109
:102940000F91089510920C0581E080930A05109272
:10295000090561E082E00E94112461E083E00E94A9
:102960001124E9EBF0E080818E7F808380818D7F70
:10297000808388E48093B80085E48093BC00089548
:10298000413208F043C090910C059111FCCF91E0C9
:1029900090930C0520930A052FEF20939F0410922B
:1029A000E404240F2093E30490930B0590910B050E
:1029B000880F892B80930B0580910905813061F484
:1029C0001092090580910B058093BB008091BC009B
:1029D00083FDF8CF85EC01C085EE8093BC0080912B
:1029E0000C058130E1F38091E404841710F44091E8
:1029F000E404A5EEB4E0962FFB018E2F891B84170B
:102A000018F48D918193F9CF842F089580E0089573
:102A10000F93413208F04AC090910C059111FCCF00
:102A200032E030930C0500930A053FEF30939F048A
:102A30001092E4044093E304562FA5EEB4E0FB01AA
:102A40003E2F351B341718F431913D93F9CF109276
:102A50000B0530910B05880F832B80930B0580911C
:102A60000905813061F41092090580910B0580936E
:102A7000BB008091BC0083FDF8CF85EC01C085EEE2
:102A80008093BC00222321F080910C058230D1F389
:102A900080919F048F3F79F080919F04803241F0B4
:102AA00080919F04803331F094E005C091E003C031
:102AB00092E001C093E0892F0F9108954091C104E5
:102AC000262F30E0240F311D21323105DCF4209116
:102AD0000C052430C9F4FC0180E090E0861758F41E
:102AE0003091C1042191DC01AD53BB4FA30FB11D47
:102AF0002C930196F3CF8091C104680F6093C104B9
:102B000080E0089581E0089582E00895909306059D
:102B1000809305050895909308058093070508950F
:102B200085ED8093BC008091BC0084FDFCCF1092A9
:102B30000C05089585EC8093BC0010920C05089557
:102B40001F920F920FB60F9211242F933F934F9322
:102B50005F936F937F938F939F93AF93BF93EF9305
:102B6000FF938091B900887F803609F49EC078F584
:102B7000883209F45DC090F4803109F456C038F40D
:102B8000882309F4F5C0883009F44FC0F5C08831B6
:102B900009F44EC0803209F45FC0EEC0803409F4FD
:102BA0006AC058F4803309F457C0883309F0E4C090
:102BB00080939F040E949A15DFC0803509F44FC0AE
:102BC000883509F45DC0883409F0D6C0D3C088398F
:102BD00009F4C4C0A8F4883709F467C038F488360B
:102BE00009F463C0803709F460C0C6C0883809F4AE
:102BF000B5C0803909F45FC0803809F0BDC05BC042
:102C0000803B09F483C038F4803A09F466C0883AFE
:102C100009F47CC0B1C0803C09F4A4C0883C09F42C
:102C2000A1C0883B09F487C0A7C080910B0510C0E4
:102C30009091E4048091E304981770F5E091E40426
:102C400081E08E0F8093E404F0E0EB51FB4F808134
:102C50008093BB0085EC83C080939F048BC0E09180
:102C6000E40481E08E0F8093E4048091BB00F0E0E7
:102C7000EB51FB4F80839091E4048091E3046BC09F
:102C8000E091E40481E08E0F8093E4048091BB0026
:102C9000F0E0EB51FB4F808380910A0581116AC0FF
:102CA00081E08093090584EA5EC083E080930C058F
:102CB0001092A004CFCF8091A004803208F04EC0C3
:102CC000E091A00481E08E0F8093A0048091BB006E
:102CD000F0E0EF55FB4F8083BDCF0E949A158091A5
:102CE000A004803230F4E091A004F0E0EF55FB4FF7
:102CF00010826091A00470E0E0910505F091060556
:102D000081EA94E009951092A00436C084E0809393
:102D10000C051092C2041092C104E0910705F091D5
:102D2000080509958091C104811105C081E0809357
:102D3000C1041092C304E091C20481E08E0F80931D
:102D4000C204F0E0ED53FB4F80818093BB00909173
:102D5000C2048091C104981708F47CCF85E8809361
:102D6000BC000AC085EC8093BC0010920C0504C026
:102D700010929F040E949015FF91EF91BF91AF9127
:102D80009F918F917F916F915F914F913F912F9183
:102D90000F900FBE0F901F9018958091410590E005
:102DA00020914205821B91090895909142058091DE
:102DB0004105981750F4E92FF0E0ED5BFA4F2081C0
:102DC00030E09F5F9093420502C02FEF3FEFC901B3
:102DD0000895E091420580914105E81730F4F0E054
:102DE000ED5BFA4F808190E008958FEF9FEF08959B
:102DF0000895CF93DF93EC01E0911905F0911A0546
:102E00003097F1F090914205809141059817C0F0FC
:102E100090E0292F30E02617370754F4DE01A20F87
:102E2000B31F4C91D901AD5BBA4F4C939F5FF1CF6B
:102E30001092420560934105CB01DF91CF91099437
:102E4000DF91CF910895E0911B05F0911C0530971B
:102E500029F010921F0510921E0509940895CF9233
:102E6000DF92EF92FF920F931F93CF93DF937C013A
:102E7000CB018A0120911D05222389F0EB016B0112
:102E8000C40ED51ECC15DD0569F06991D701ED9111
:102E9000FC910190F081E02DC7010995F3CF642FDB
:102EA0000E945E15C801DF91CF911F910F91FF9095
:102EB000EF90DF90CF900895CF93DF931F92CDB71F
:102EC000DEB7698320911D052223D1F020911E05D4
:102ED000203240F021E030E0FC013383228380E0A7
:102EE00090E015C080911F05E82FF0E0E05EFA4FFA
:102EF000998190838F5F80931F0580931E0505C085
:102F000061E0CE0101960E945E1581E090E00F9095
:102F1000DF91CF910895FC011382128288EE93E035
:102F2000A0E0B0E084839583A683B78387ED92E029
:102F3000918380830895109242051092410510926A
:102F40001F0510921E050E94A21483E297E10E94C1
:102F50008B1589EF96E10C94861581E080931D0511
:102F60006093400510921F0510921E0508950F935F
:102F7000062F21E040911E0560E275E0809140053A
:102F80000E94081510921F0510921E0510921D0533
:102F90000F9108954F925F926F927F92AF92BF927E
:102FA000CF92EF92FF920F931F93CF93DF935C0129
:102FB000F62ED42F28013901EE2021F10E94AD1701
:102FC000CE2DC43008F0C3E0C150C0F028E0C29F4D
:102FD000C0011124A301920104C05695479537956D
:102FE00027958A95D2F7CA01B901D501ED91FC91D7
:102FF0000190F081E02DC5010995E6CF60E0C501A3
:103000000E94B7174D2FD13208F040E22C2D63E417
:1030100075E08F2D0E94C0141092420580934105E7
:10302000DF91CF911F910F91FF90EF90CF90BF90C4
:10303000AF907F906F905F904F900895CF92EF92F6
:103040000F931F93C22EE12C00E010E098010E9424
:10305000CA171F910F91EF90CF90089521E00C9423
:103060001E1861E00C94B7178DE095E00C948B1757
:103070005058BB27AA270E9450180C94CA190E94C6
:10308000BC1938F00E94C31920F039F49F3F19F49D
:1030900026F40C94B9190EF4E095E7FB0C94B319DF
:1030A000E92F0E94DB1958F3BA17620773078407E8
:1030B000950720F079F4A6F50C94FD190EF4E0952F
:1030C0000B2EBA2FA02D0B01B90190010C01CA01E2
:1030D000A0011124FF27591B99F0593F50F4503E8D
:1030E00068F11A16F040A22F232F342F4427585F7F
:1030F000F3CF469537952795A795F0405395C9F797
:103100007EF41F16BA0B620B730B840BBAF091504E
:10311000A1F0FF0FBB1F661F771F881FC2F70EC0ED
:10312000BA0F621F731F841F48F4879577956795C0
:10313000B795F7959E3F08F0B0CF9395880F08F0AC
:103140009927EE0F9795879508950E948F1908F497
:1031500081E008950E94BE180C94CA190E94C319F8
:1031600058F00E94BC1940F029F45F3F29F00C94FC
:10317000B31951110C94FE190C94B9190E94DB1962
:1031800068F39923B1F3552391F3951B550BBB2796
:10319000AA2762177307840738F09F5F5F4F220FDB
:1031A000331F441FAA1FA9F335D00E2E3AF0E0E8D2
:1031B00032D091505040E695001CCAF72BD0FE2F1C
:1031C00029D0660F771F881FBB1F261737074807B0
:1031D000AB07B0E809F0BB0B802DBF01FF27935868
:1031E0005F4F3AF09E3F510578F00C94B3190C9460
:1031F000FE195F3FE4F3983ED4F386957795679583
:10320000B795F7959F5FC9F7880F911D969587959C
:1032100097F90895E1E0660F771F881FBB1F6217BB
:1032200073078407BA0720F0621B730B840BBA0B79
:10323000EE1F88F7E09508950E9423196894B11154
:103240000C94FE1908950E94E31988F09F5798F096
:10325000B92F9927B751B0F0E1F0660F771F881F9B
:10326000991F1AF0BA95C9F714C0B13091F00E94B5
:10327000FD19B1E008950C94FD19672F782F882768
:10328000B85F39F0B93FCCF3869577956795B395DC
:10329000D9F73EF490958095709561957F4F8F4F4B
:1032A0009F4F0895E89409C097FB3EF49095809550
:1032B000709561957F4F8F4F9F4F9923A9F0F92FFC
:1032C00096E9BB279395F695879577956795B7957A
:1032D000F111F8CFFAF4BB0F11F460FF1BC06F5F60
:1032E0007F4F8F4F9F4F16C0882311F096E911C072
:1032F000772321F09EE8872F762F05C0662371F093
:1033000096E8862F70E060E02AF09A95660F771FA6
:10331000881FDAF7880F9695879597F90895990F82
:103320000008550FAA0BE0E8FEEF16161706E8078F
:10333000F907C0F012161306E407F50798F0621BB0
:10334000730B840B950B39F40A2661F0232B242B85
:10335000252B21F408950A2609F4A140A6958FEFA4
:10336000811D811D089597F99F6780E870E060E0F6
:1033700008959FEF80EC089500240A94161617060E
:1033800018060906089500240A9412161306140656
:1033900005060895092E0394000C11F4882352F0B9
:1033A000BB0F40F4BF2B11F460FF04C06F5F7F4F71
:1033B0008F4F9F4F089557FD9058440F551F59F058
:1033C0005F3F71F04795880F97FB991F61F09F3F12
:1033D00079F087950895121613061406551FF2CF3B
:1033E0004695F1DF08C0161617061806991FF1CF8B
:1033F00086957105610508940895E894BB276627B2
:103400007727CB0197F908950E948F1908F48FEF61
:1034100008950E941C1A0C94CA190E94BC1938F015
:103420000E94C31920F0952311F00C94B3190C9449
:10343000B91911240C94FE190E94DB1970F3959FA1
:10344000C1F3950F50E0551F629FF001729FBB279B
:10345000F00DB11D639FAA27F00DB11DAA1F649F37
:103460006627B00DA11D661F829F2227B00DA11DEA
:10347000621F739FB00DA11D621F839FA00D611D70
:10348000221F749F3327A00D611D231F849F600D91
:10349000211D822F762F6A2F11249F5750409AF0BA
:1034A000F1F088234AF0EE0FFF1FBB1F661F771F46
:1034B000881F91505040A9F79E3F510580F00C9411
:1034C000B3190C94FE195F3FE4F3983ED4F386954C
:1034D00077956795B795F795E7959F5FC1F7FE2BB1
:1034E000880F911D9695879597F908950E94DC287D
:1034F00008950E9479220E94781A83E695E00E943E
:1035000090200E944C06C0E0D0E00E94CA0620979E
:10351000E1F30E940000F9CFCF92DF92EF92FF9289
:103520000F931F93CF93DF936C017A018B01C0E05F
:10353000D0E0CE15DF0581F0D8016D918D01D60167
:10354000ED91FC910190F081E02DC6010995892B48
:1035500011F02196EECF7E01C701DF91CF911F912F
:103560000F91FF90EF90DF90CF9008956115710556
:1035700079F0FB0101900020E9F73197AF01461B7C
:10358000570BDC01ED91FC910280F381E02D099451
:1035900080E090E00895DB0114964D915C911597C1
:1035A0006D917C91DC01ED91FC910280F381E02D25
:1035B00009940C94B61ADC01ED91FC910190F08114
:1035C000E02D09948F929F92AF92BF92EF92FF925B
:1035D0000F931F93CF93DF93CDB7DEB7A1970FB6AD
:1035E000F894DEBF0FBECDBF7C01FA01CB0119A25A
:1035F000223008F42AE08E010F5D1F4F822E912C9D
:10360000A12CB12CBF01A50194010E94B926F9019A
:10361000CA01015011096A3010F4605D01C0695C93
:10362000D8016C93232B242B252B61F7B801C701FC
:103630000E94B61AA1960FB6F894DEBF0FBECDBF9A
:10364000DF91CF911F910F91FF90EF90BF90AF90BE
:103650009F908F9008952115310541F4DC01ED9183
:10366000FC910190F081E02D642F09940C94E21AF2
:103670009A01AB0160E070E00C942B1BCF92DF92BB
:10368000EF92FF920F931F93CF93DF932115310594
:1036900081F4DC01ED91FC910190F081E02D642F2B
:1036A000DF91CF911F910F91FF90EF90DF90CF901E
:1036B00009942A30310501F577FF1DC06A017B01AD
:1036C000EC016DE20E94DB1A8C0144275527BA01F8
:1036D0004C195D096E097F092AE0CE010E94E21AA9
:1036E000800F911FDF91CF911F910F91FF90EF906D
:1036F000DF90CF9008952AE0DF91CF911F910F9135
:10370000FF90EF90DF90CF900C94E21A9A01AB01FA
:10371000770F660B770B0C943E1B7F928F929F92D4
:10372000AF92BF92CF92DF92EF92FF920F931F93CF
:10373000CF93DF938C016A017B01722E9A01AB015A
:10374000C701B6010E94A026882319F068EE72E036
:1037500027C046015701E894B7F82FEF3FEF4FE736
:103760005FE7C501B4010E94A02681110DC02FEFB3
:103770003FEF4FE75FE7C501B4010E94A518181697
:103780001CF46CEE72E00CC02FEF3FEF4FE75FE4EC
:10379000C701B6010E94041A181694F460EF72E093
:1037A000C801DF91CF911F910F91FF90EF90DF90B3
:1037B000CF90BF90AF909F908F907F900C94B61A4F
:1037C0002FEF3FEF4FE75FECC701B6010E94A5184E
:1037D00087FDE4CF20E030E0A901C701B6010E94D7
:1037E000A51887FF0AC06DE2C8010E94DB1AEC0130
:1037F000F7FAF094F7F8F09402C0C0E0D0E0B12CF2
:1038000060E070E080E09FE37B1441F020E030E076
:1038100040E251E40E94AA18B394F6CFA7019601A2
:103820000E9439186B017C010E9423194B015C0135
:103830002AE0AB01BC01C8010E94E21AC80FD91FDF
:103840007720B9F1C501B4010E9452199B01AC0166
:10385000C701B6010E9438186B017C016EE2C801F5
:103860000E94DB1AC80FD91F20E030E040E251E48B
:10387000C701B6010E94091A4B015C010E9423197D
:103880006B017C014AE050E0C8010E94381BC80F60
:10389000D91FB60180E090E00E9452199B01AC0153
:1038A000C501B4010E9438186B017C017A94711033
:1038B000DBCFCE01DF91CF911F910F91FF90EF9061
:1038C000DF90CF90BF90AF909F908F907F900895A2
:1038D0000C948D1B615030F02091F100FC0120838D
:1038E0000196F8CF289884E680936B05089540915F
:1038F0006605509167052091640530916505421772
:103900005307B4F49091E8009570E1F39091E800CA
:1039100092FD19C08093F100809166059091670532
:1039200001968F739927892B19F48EEF8093E80005
:103930008091660590916705019690936705809345
:10394000660581E0089580E00895DF92EF92FF928E
:103950000F931F93CF93DF93D82EF92EE42E062FCB
:1039600010E0C8010196880F0E94771C83E00E9436
:10397000771CCD2DDF2D0C0F1D1FC017D10789F02F
:10398000E7FE03C0FE01849101C088810E94771C7C
:10399000F82E80E00E94771C8F2121968111EDCFB7
:1039A00001C081E0DF91CF911F910F91FF90EF90C7
:1039B000DF9008958091D70081608093D70080EADE
:1039C0008093D80089B5806189BD89B5826089BD41
:1039D00009B400FEFDCF61E070E080E090E00E945D
:1039E00032228091D8008F7C80618093D8008091B2
:1039F000E000807F8093E0000895CF93DF931F92D3
:103A0000CDB7DEB71982CE0101960E9458250E94DB
:103A10008C26BE016F5F7F4F0E94072689810F9021
:103A2000DF91CF9108952FB7FC012083F894677040
:103A30006093E9000895CF93DF931F92CDB7DEB76F
:103A4000682FCE0101960E94131D8091F20099818A
:103A50009FBF0F90DF91CF910895EF92FF920F9348
:103A60001F93CF93DF931F92CDB7DEB790916A0576
:103A7000992311F057FF03C08FEF9FEF29C08A01F0
:103A80007B01682FCE0101960E94131D2091F20048
:103A900030E0021713070CF49801822FF70194E627
:103AA000815038F0289890936B054091F100419334
:103AB000F7CF2115310521F08091F200882321F004
:103AC00089818FBFC90104C08BE68093E800F8CFDD
:103AD0000F90DF91CF911F910F91FF90EF9008957C
:103AE000CF93DF931F92CDB7DEB741E050E0BE0128
:103AF0006F5F7F4F0E942D1D019719F4898190E01F
:103B000002C08FEF9FEF0F90DF91CF910895CF9379
:103B1000DF931F92CDB7DEB7682FCE0101960E94CA
:103B2000131D9091E800892F807295FF04C0909139
:103B3000F20080E4891B99819FBF0F90DF91CF91A4
:103B400008955F926F927F928F929F92AF92BF92F1
:103B5000CF92DF92EF92FF920F931F93CF93DF9359
:103B60001F92CDB7DEB7982E6B01B42E052F809132
:103B70006A05811103C08FEF9FEF77C080916805C0
:103B800080FF05C08091E00082608093E000EB2C14
:103B9000F02EA12C8AEF882E892D8072682E892D17
:103BA0008074582E9AE3792EE114F10419F4AA20B6
:103BB00009F455C0892D0E94871D182F81110AC054
:103BC0008A948820C1F261E070E080E090E00E9479
:103BD0003222EACF90E0E816F9060CF41E2D692D8A
:103BE000CE0101960E94131D8091E80085FF34C02C
:103BF000812F90E0E81AF90A662029F01150A0F010
:103C00001092F100FBCFF60197FE0AC0115050F060
:103C100024912093F1003196F9CF21912093F10066
:103C20001150D8F7C80ED91EAA2019F07092E800DA
:103C30000BC08091E80085FD09C07092E800AA24BD
:103C4000A394E114F10441F0A12C06C0E114F104A5
:103C500019F451107092E80089818FBFA5CF5D984B
:103C600084E680936C058B2D902F0F90DF91CF9180
:103C70001F910F91FF90EF90DF90CF90BF90AF908A
:103C80009F908F907F906F905F9008951092E900C1
:103C90001092670510926605909365058093640500
:103CA0000895DF92EF92FF920F931F93CF93DF93CC
:103CB000D82E8A017B01E40EF51EEB01CE15DF053F
:103CC00071F0D7FE03C0FE01849101C088810E947B
:103CD000771C21968111F2CF8FEF9FEF01C0C801B1
:103CE000DF91CF911F910F91FF90EF90DF9008959A
:103CF000AF92BF92DF92EF92FF920F931F93CF93F9
:103D0000DF935C018B01EB019BEFD92E2097C1F073
:103D10007E01C134D1051CF080E4E82EF12C8091A5
:103D2000E80082FFFCCFC8018C1B9D0B6E2D8A0D15
:103D30009B1D0E946A1CD092E800CE19DF09E6CFD5
:103D4000C801DF91CF911F910F91FF90EF90DF900D
:103D5000BF90AF9008951F920F920FB60F9211244B
:103D6000CF92DF92EF92FF920F931F932F933F9387
:103D70004F935F936F937F938F939F93AF93BF9373
:103D8000EF93FF93CF93DF93CDB7DEB76C97DEBF92
:103D9000CDBF1092E9008091E80083FF17C168E071
:103DA000CE0145960E946A1C82EF8093E8008D89BF
:103DB00087FF05C09091E80090FFFCCF03C09EEF05
:103DC0009093E800982F907609F0D8C09E894F898B
:103DD000588D2F89188D91110CC0803829F480914D
:103DE00069058093F10002C01092F1001092F10079
:103DF000E6C0913051F48111E2C04130510509F023
:103E0000DEC0809169058D7F0BC0933061F4811114
:103E1000D6C04130510509F0D2C080916905826059
:103E200080936905CCC0953049F48091E80080FF0B
:103E3000FCCF822F80688093E300C1C0963009F0E8
:103E400070C0EB8CFC8C123069F580E090E00E9431
:103E5000461E0E94FD1C99E09E012F5F3F4F6901A5
:103E6000F901292F11922A95E9F799831A8391E094
:103E70009E8390EA98879AEF998720916605309102
:103E80006705275F3F4F3C832B838D83C7010E94CB
:103E9000461E49E050E0B60180E00E94511E0E949B
:103EA000FD1C8DC0C7010E94461E0E948C26BE01CB
:103EB0006B5E7F4F0E943026009719F00CF07FC098
:103EC00082C0113009F470C0133009F07CC08F89B2
:103ED000882309F46CC0823029F440E860E186E070
:103EE00091E006C0813039F440E86BE08AEF90E061
:103EF0000E94A51C56C0833009F065C00E948C2624
:103F00008E010F5F1F4FB8010E944F26F8010190EC
:103F10000020E9F73197BF01601B710B40E0C80139
:103F2000E7CF973009F44FC0983021F481E08093B7
:103F3000F10045C0993009F042C0837009F043C0D8
:103F4000E9E1F1E081E031E096E32081211109C04F
:103F50008EE78093EA001092EA008F8980936A05C9
:103F60002EC08093E9003093EB0021912093EC0068
:103F70009093ED008F5F873041F7EACF8B8D9C8D5A
:103F80000E94461E898D811105C0CE0145960E9472
:103F9000632507C00E948C26BE016B5E7F4F0E9486
:103FA0006E26882381F00BC068EE70E002C067E1E6
:103FB00071E0FB01449150E080E80E94511E8EEFB9
:103FC0008093E80003C081E28093EB006C960FB60B
:103FD000F894DEBF0FBECDBFDF91CF91FF91EF917F
:103FE000BF91AF919F918F917F916F915F914F9111
:103FF0003F912F911F910F91FF90EF90DF90CF9005
:104000000F900FBE0F901F9018958093E90080913C
:10401000F200882319F08AE38093E80008951F9244
:104020000F920FB60F9211242F933F934F935F93EC
:104030006F937F938F939F93AF93BF93CF93EF93A0
:10404000FF93C091E1008091E100837F8093E100C4
:10405000C3FF0FC01092E90081E08093EB00109243
:10406000EC0082E38093ED0010926A0588E0809373
:10407000F000C2FF19C083E00E94052080916C050A
:10408000882339F080916C05815080936C058823DA
:1040900089F180916B05882339F080916B058150FF
:1040A00080936B05882341F1C4FF10C08091E2002A
:1040B0008E7E81608093E2008091E1008F7E80930C
:1040C000E100809168058E7E806111C0C0FF16C03E
:1040D0008091E2008E7E80618093E2008091E10019
:1040E0008E7E8093E100809168058E7E8160809352
:1040F000680504C05D9ACDCF289AD6CFFF91EF9185
:10410000CF91BF91AF919F918F917F916F915F916F
:104110004F913F912F910F900FBE0F901F901895C8
:1041200010926A0510926905109268050E94DA1CC7
:10413000E1EEF0E080818E7E80838DE08093E2006E
:10414000559A209A08950895853008F04CC0E82FBC
:10415000F0E0EE0FFF1FE15EFE4F7183608382305F
:10416000E1F018F4813069F004C0833019F1843033
:1041700071F1809169008C7F482B40936900E89A27
:10418000089580916900837F440F551F440F551F88
:10419000482B40936900E99A0895809169008F7CCB
:1041A00034E0440F551F3A95E1F7482B40936900DE
:1041B000EA9A0895809169008F7326E0440F551F95
:1041C0002A95E1F7482B40936900EB9A0895809176
:1041D0006A008F7C94E0440F551F9A95E1F7482BB5
:1041E00040936A00EE9A08951F920F920FB60F92B5
:1041F00011242F933F934F935F936F937F938F93EC
:104200009F93AF93BF93EF93FF93E0911F01F091C2
:1042100020010995FF91EF91BF91AF919F918F91EF
:104220007F916F915F914F913F912F910F900FBEB2
:104230000F901F9018951F920F920FB60F92112496
:104240002F933F934F935F936F937F938F939F939E
:10425000AF93BF93EF93FF93E0912101F09122017F
:104260000995FF91EF91BF91AF919F918F917F91B0
:104270006F915F914F913F912F910F900FBE0F90D3
:104280001F9018951F920F920FB60F9211242F9323
:104290003F934F935F936F937F938F939F93AF93CE
:1042A000BF93EF93FF93E0912301F09124010995CF
:1042B000FF91EF91BF91AF919F918F917F916F91FE
:1042C0005F914F913F912F910F900FBE0F901F90D4
:1042D00018951F920F920FB60F9211242F933F93B0
:1042E0004F935F936F937F938F939F93AF93BF93FE
:1042F000EF93FF93E0912501F09126010995FF913D
:10430000EF91BF91AF919F918F917F916F915F914D
:104310004F913F912F910F900FBE0F901F901895C6
:104320001F920F920FB60F9211242F933F934F932A
:104330005F936F937F938F939F93AF93BF93EF930D
:10434000FF93E0912701F09128010995FF91EF91EA
:10435000BF91AF919F918F917F916F915F914F919D
:104360003F912F910F900FBE0F901F9018951F92A5
:104370000F920FB60F9211242F933F938F939F9319
:10438000AF93BF9380916E0590916F05A0917005DA
:10439000B091710530916D0523E0230F2D3720F486
:1043A0000196A11DB11D05C026E8230F0296A11D8F
:1043B000B11D20936D0580936E0590936F05A093BA
:1043C0007005B09371058091720590917305A0916D
:1043D0007405B09175050196A11DB11D80937205FC
:1043E00090937305A0937405B0937505BF91AF9139
:1043F0009F918F913F912F910F900FBE0F901F9023
:1044000018952FB7F89460916E0570916F058091A3
:104410007005909171052FBF08953FB7F894809172
:10442000720590917305A0917405B091750526B53C
:10443000A89B05C02F3F19F00196A11DB11D3FBFDC
:10444000BA2FA92F982F8827820F911DA11DB11D6A
:10445000BC01CD0142E0660F771F881F991F4A9566
:10446000D1F708958F929F92AF92BF92CF92DF9231
:10447000EF92FF926B017C010E940D224B015C01C7
:10448000C114D104E104F10401F10E9406260E9446
:104490000D22DC01CB0188199909AA09BB09883EC4
:1044A0009340A105B10560F321E0C21AD108E108EB
:1044B000F10888EE880E83E0981EA11CB11CC1147F
:1044C000D104E104F10419F7DBCFFF90EF90DF9006
:1044D000CF90BF90AF909F908F90089582309105BC
:1044E00038F0880F991F880F991F05970197F1F7EA
:1044F0000895789484B5826084BD84B5816084BD5C
:1045000085B5826085BD85B5816085BDEEE6F0E04C
:10451000808181608083E1E8F0E0108280818260A8
:104520008083808181608083E0E8F0E08081816029
:104530008083E1E9F0E08081826080838081816016
:104540008083E0E9F0E0808181608083E1ECF0E04D
:1045500080818460808380818260808380818160AB
:104560008083E3ECF0E0808181608083E0ECF0E028
:10457000808182608083E2ECF0E0808181608083D2
:10458000EAE7F0E0808184608083808182608083BC
:1045900080818160808380818068808308958231FA
:1045A00008F08251E82FF0E0E55EFE4FE491809143
:1045B0007B00E3FB222720F930E095E0220F331F38
:1045C0009A95E1F78F7D282B20937B00809129011C
:1045D00020E4829FC0011124E770E82BE0937C0067
:1045E00080917A00806480937A0080917A0086FDC1
:1045F000FCCF809178002091790090E0922B089573
:104600001F93CF93DF93182FEB0161E00E94D52316
:10461000209711F460E004C0CF3FD10539F461E088
:10462000812FDF91CF911F910C941124E12FF0E0A5
:10463000E95DFE4FE4918E2F90E0FC013197EF3061
:10464000F10508F06CC0EA5AFF4F0C94DB2684B5E4
:10465000806884BDC7BD68C084B5806284BDC8BDA4
:1046600063C080918000806880938000D09389002F
:10467000C093880059C08091800080628093800040
:10468000D0938B00C0938A004FC0809180008860D7
:1046900080938000D0938D00C0938C0045C08091A2
:1046A0009000806880939000D0939900C093980008
:1046B0003BC080919000806280939000D0939B00DB
:1046C000C0939A0031C080919000886080939000E0
:1046D000D0939D00C0939C0027C08091C00080684B
:1046E0008093C0008091C0008F7B8093C000C093F6
:1046F000CF001AC08091C00080628093C000C09338
:10470000D00012C08091C20088608093C200809166
:10471000C2008B7F8093C200C093D20005C0C03816
:10472000D1050CF07CCF76CFDF91CF911F9108950A
:1047300090E0FC013197EF30F105B0F5EB59FF4FF8
:104740000C94DB26809180008F7703C080918000DD
:104750008F7D80938000089580918000877FF9CFBE
:1047600084B58F7702C084B58F7D84BD0895809114
:1047700090008F7707C0809190008F7D03C080915B
:104780009000877F8093900008958091C0008F777C
:1047900003C08091C0008F7D8093C00008958091F8
:1047A000C200877F8093C2000895CF93DF9390E08B
:1047B000FC01EA5BFE4F2491FC01EB59FE4F849112
:1047C000882361F190E0880F991FFC01E056FE4FAD
:1047D000C591D491FC01EE56FE4FA591B4916111A3
:1047E00009C09FB7F8948881209582238883EC9133
:1047F0002E230BC0623061F49FB7F8948881322F6A
:10480000309583238883EC912E2B2C939FBF06C079
:104810008FB7F894E8812E2B28838FBFDF91CF913B
:1048200008951F93CF93DF93282F30E0F901E95DBE
:10483000FE4F8491F901EA5BFE4FD491F901EB59E7
:10484000FE4FC491CC23C1F0162F81110E949823F2
:10485000EC2FF0E0EE0FFF1FEE56FE4FA591B49146
:104860009FB7F894111104C08C91D095D82302C041
:10487000EC91DE2BDC939FBFDF91CF911F910895C8
:10488000CF93DF93282F30E0F901E95DFE4F84914B
:10489000F901EA5BFE4FD491F901EB59FE4FC49147
:1048A000CC2391F081110E949823EC2FF0E0EE0FC1
:1048B000FF1FEC57FE4FA591B491EC91ED2381E0E1
:1048C00090E021F480E002C080E090E0DF91CF91A1
:1048D0000895FC01808191810C948D27CF93DF9303
:1048E000EC0188819981009711F00E948D2719822F
:1048F00018821D821C821B821A82DF91CF9108953B
:104900000F931F93CF93DF93EC018B016F5F7F4F6A
:10491000888199810E941628009731F099838883B5
:104920001B830A8381E001C080E0DF91CF911F915A
:104930000F910895CF93DF93EC0188819981892BA2
:1049400029F08A819B818617970760F4CE010E9427
:104950008024882341F08C819D81892B19F4E88182
:10496000F981108281E0DF91CF910895EF92FF925B
:104970000F931F93CF93DF93EC017B018A01BA0160
:104980000E949A24811104C0CE010E946E2407C0A7
:104990001D830C83B701888199810E94EA28CE018A
:1049A000DF91CF911F910F91FF90EF900895FC013F
:1049B0001182108213821282158214826115710590
:1049C00051F0FB0101900020E9F73197AF01461B40
:1049D000570B0C94B6240895CF93DF931F92CDB755
:1049E000DEB76983DC01ED91FC910280F381E02D5B
:1049F00041E050E0BE016F5F7F4F09950F90DF915E
:104A0000CF910895CF93DF93EC018C859D8597FF1F
:104A100005C082E00E94701D9D878C878C859D85D6
:104A2000DF91CF91089583E00E94871D90E0089563
:104A300083E00C940520FC018485958597FD06C0D4
:104A400082E00E941B1D90E00196089582E00E9482
:104A50001B1D90E00895FC018485958597FD05C098
:104A60002FEF3FEF35872487089582E00C94701D67
:104A7000CF93DF93EC0180913501882331F083E0FF
:104A80000E94A11D1816190634F081E090E09B8366
:104A90008A8380E090E0DF91CF910895EEEFFFE709
:104AA0002591349181E02B3F3C4D09F080E0089541
:104AB000FC0190819E5F908342E450E06EEA71E0D9
:104AC00080E80C94511EFC0181819081913A59F447
:104AD000813209F065C047E050E06EE271E080E0AD
:104AE0000E94511E5BC0913209F05AC0833269F4B2
:104AF00082819381A0E0B0E080932A0190932B0102
:104B0000A0932C01B0932D0149C0803239F467E0A5
:104B100070E08EE291E00E94781E40C0823209F07F
:104B20003DC08281809335010E944E25882319F073
:104B3000EEEFFAE002C0E0E0F8E080912E01909103
:104B40002F01A0913001B0913101803B9440A1052B
:104B5000B10541F58091350180FD24C0EE3F8AE02A
:104B6000F80751F080819181873727E7920721F07C
:104B70009093FF0A8093FE0A87E797E791838083EB
:104B8000809160008093C6059BE088E10FB6F894A1
:104B9000A895809360000FBE9093600081E0089517
:104BA00080E008958081918187379747B9F7A8956C
:104BB000809160008861809360008091C605809339
:104BC0006000EE3F8AE0F80739F08091FE0A90918C
:104BD000FF0A91838083E2CF1092FF0A1092FE0AAF
:104BE000DDCFE6E7F5E01382128288EE93E0A0E0E5
:104BF000B0E084839583A683B78388EF92E09183A6
:104C000080838FEF9FEF9587848708950895EF92B3
:104C1000FF920F931F93CF93DF937B01FC01C2811F
:104C2000D38100E010E0209781F0E881F9810280D3
:104C3000F381E02DB701CE01099597FD08C0080F5B
:104C4000191F0884D985C02DEECFC80102C08FEF8F
:104C50009FEFDF91CF911F910F91FF90EF900895FB
:104C60000F931F93CF93DF938B01FC01C281D381FC
:104C7000209771F0E881F9810480F581E02DB80179
:104C8000CE010995009731F40884D985C02DF0CF65
:104C900080E090E0DF91CF911F910F9108950F93E5
:104CA0001F93CF93DF938B01FC01C281D3812097A7
:104CB00071F0E881F9810680F781E02DB801CE011D
:104CC0000995080F111D0884D985C02DF0CFF80172
:104CD0001082DF91CF911F910F9108950F931F9331
:104CE000CF93DF938B01FC01C281D381209771F0B8
:104CF000E881F9810190F081E02DB801CE0109959C
:104D0000811105C00884D985C02DF0CF80E0DF91E6
:104D1000CF911F910F9108958091CB0581110DC006
:104D200082E08093C70584E08093C8051092CA058D
:104D30001092C90581E08093CB0587EC95E008953A
:104D40000E948F19880B990B089597FB072E16F474
:104D5000009407D077FD09D00E94E12607FC05D01A
:104D60003EF4909581959F4F0895709561957F4F82
:104D70000895A1E21A2EAA1BBB1BFD010DC0AA1F9C
:104D8000BB1FEE1FFF1FA217B307E407F50720F0B4
:104D9000A21BB30BE40BF50B661F771F881F991F2F
:104DA0001A9469F760957095809590959B01AC0178
:104DB000BD01CF010895EE0FFF1F0590F491E02D86
:104DC0000994AA1BBB1B51E107C0AA1FBB1FA61752
:104DD000B70710F0A61BB70B881F991F5A95A9F7A4
:104DE00080959095BC01CD0108950F931F93CF93AB
:104DF000DF938230910510F482E090E0E091D505D8
:104E0000F091D60520E030E0A0E0B0E0309719F155
:104E1000408151810281138148175907C8F08417D6
:104E2000950769F4109731F012960C931297139628
:104E30001C9327C00093D5051093D60522C02115D9
:104E4000310519F04217530718F49A01BD01EF011B
:104E5000DF01F801DBCF21153105F9F0281B390BF3
:104E60002430310580F48A819B816115710521F020
:104E7000FB019383828304C09093D6058093D5056C
:104E8000FE01329644C0FE01E20FF31F819391931D
:104E900022503109398328833AC02091D3053091BB
:104EA000D405232B41F4209102013091030130936A
:104EB000D4052093D30520910001309101012115E3
:104EC000310541F42DB73EB74091040150910501E1
:104ED000241B350BE091D305F091D405E217F307BD
:104EE000A0F42E1B3F0B2817390778F0AC014E5F5A
:104EF0005F4F2417350748F04E0F5F1F5093D405BE
:104F00004093D3058193919302C0E0E0F0E0CF019C
:104F1000DF91CF911F910F910895CF93DF93009769
:104F200009F481C0FC01329713821282A091D50549
:104F3000B091D605109781F420813181820F931FA3
:104F40002091D3053091D4052817390751F5F093F6
:104F5000D405E093D30567C0ED0120E030E0CE1723
:104F6000DF0740F44A815B819E0141155105F1F054
:104F7000EA01F5CFD383C28340815181840F951F0D
:104F8000C817D90759F488819981840F951F029613
:104F9000918380838A819B8193838283211531054C
:104FA00029F4F093D605E093D5053DC0E901FB83D4
:104FB000EA8349915991C40FD51FEC17FD0761F49D
:104FC00080819181840F951F0296E90199838883DE
:104FD000828193819B838A83E0E0F0E012968D9139
:104FE0009C911397009719F0FD01DC01F7CF8D918B
:104FF0009C9111979D012E5F3F4F820F931F20912F
:10500000D3053091D4052817390769F4309729F46E
:105010001092D6051092D50502C013821282B09369
:10502000D405A093D305DF91CF910895A0E0B0E01F
:10503000ECE1F8E20C94F528EC01009721F4CB01A7
:105040000E94F526B4C0FC01E60FF71F9C01225018
:105050003109E217F30708F4A8C0D9010D911C919A
:10506000119706171707B0F00530110508F49BC01B
:10507000C80104978617970708F495C002501109D4
:10508000061B170B019311936D937C93CF010E9424
:105090008D2789C05B01A01AB10A4C01800E911EB8
:1050A000A091D505B091D605612C712CE12CF12C85
:1050B000109709F446C08D919C911197A815B905D8
:1050C000B1F56C0142E0C40ED11CCA14DB0478F1C6
:1050D0004C018A189B08640142E0C40ED11C129650
:1050E000BC9012971396AC91B5E0CB16D10440F06A
:1050F000B282A38391828082D9016D937C9309C08F
:105100000E5F1F4F800F911FF90191838083EB2D5C
:10511000FA2FE114F10431F0D7011396FC93EE93CA
:10512000129741C0F093D605E093D5053CC06816B0
:10513000790608F43C017D0112960D90BC91A02DDA
:10514000B7CF8091D3059091D40588169906E1F4E4
:1051500066167706C8F480910001909101010097CE
:1051600041F48DB79EB74091040150910501841B15
:10517000950BE817F907C8F4F093D405E093D3052D
:10518000F901718360830FC0CB010E94F5267C0179
:10519000009759F0A801BE010E94E128CE010E94AB
:1051A0008D27C70104C0CE0102C080E090E0CDB7DA
:1051B000DEB7EEE00C94112981E090E0F8940C94B5
:1051C0002829FB01DC0102C001900D9241505040A2
:1051D000D8F70895FB01DC0101900D920020E1F762
:1051E00008952F923F924F925F926F927F928F928B
:1051F0009F92AF92BF92CF92DF92EF92FF920F9366
:105200001F93CF93DF93CDB7DEB7CA1BDB0B0FB66F
:10521000F894DEBF0FBECDBF09942A88398848882C
:105220005F846E847D848C849B84AA84B984C884C2
:10523000DF80EE80FD800C811B81AA81B981CE0FB9
:10524000D11D0FB6F894DEBF0FBECDBFED0108959E
:1052500010E0CBEFD0E004C0FE010E94DB262196D7
:0A526000CC3FD107C9F7F894FFCF47
:10526A000000D7052000E8030000E8030000A04082
:10527A00000040400400050000C18081000000A336
:10528A0020A320A320A320A32001FFFFFFFF00E10A
:10529A0000000000000047505320446174656E000E
:1052AA003A30003A0020504D0020414D00576563C6
:1052BA006B65723A200045696E0041757300576547
:1052CA00636B7A6569743F002E20002E0053656E69
:1052DA00736F7220646566656B740043202020003A
:1052EA0025005A6569676572206B616C696272692B
:1052FA006572656E00526F6D656F2056322E3220D0
:10530A00576174636800436F726179202F2042727B
:10531A00756E6F004C6F6E646F6E004C4F4E004E90
:10532A0065772D596F726B004E455900506172694D
:10533A00730050415200546F6B796F00544F4B0009
:10534A00486F6E676B6F6E6700484E4B004C6F7309
:10535A0020416E67656C6573004C414E0043686975
:10536A006361676F004348490053656F756C00536A
:10537A00454F00427275657373656C004252550061
:10538A0057617368696E67746F6E005741530053B3
:10539A00696E67617075720053494E005379646E85
:1053AA0065790053594400000000007E148C1AA647
:1053BA0001A9013E0DB90A490AEC09AA010100FF37
:1053CA00FF030002000000E3040000B601FFFFFF34
:1053DA00FF00000200010058040000B601FFFF00B0
:1053EA0000FFFFFFFF0000F6050000AD010000FF0F
:1053FA00FF05000400FFFFD1030000BF0104000302
:10540A00000400FFFF0300FB030000000003000389
:10541A00000000FFFF0300DF0100000000000000A1
:10542A00007E148C1AA601A901FE120113761A0431
:10543A0013AA01000000005C172F17A601F816CD69
:10544A0016D516E9160D0A006E616E00696E6600C1
:10545A006F76660000000000EC2438251325182515
:06546A001B252B25022585
:00000001FF
