S01D000050726F6A656B746172626569745F434F435F4252412E7372656349
S11300000C94FD000C94BD260C94E4260C940B2750
S11300100C9432270C9425010C9425010C94592737
S11300200C9425010C9425010C94D8250C9474246B
S11300300C9425010C9425010C9425010C942501A4
S11300400C9425010C9425010C9425010C94250194
S11300500C9425010C9425010C9425010C94802703
S11300600C9425010C94B21F0C94E41F0C942501EC
S11300700C9425010C9425010C9425010C94250164
S11300800C9425010C9425010C9425010C94250154
S11300900C947B180C9425010C9425010C942501D7
S11300A00C9425010C9425010C942501F028F528C5
S11300B0FA2804290E2958295829582918292229A7
S11300C02C293629432958294B2979297C296B293C
S11300D06F2975299D299D299D298029842988298D
S11300E08E2992299D299829080B000202020100F9
S11300F00904000001020200000524001001052487
S113010001010104240206052406000107058103F8
S113011010004009040100020A0000000705020261
S11301204000000705830240000012010002EF02B4
S113013001404123368000010102030141726475CC
S1130140696E6F204C4C430041726475696E6F2078
S11301504C656F6E6172646F000403090407060541
S1130160040100080A0B0C0D090000000200090F2D
S11301700000030401000C00000000000000000067
S1130180000000000000000004080201104080404C
S113019010204080408008020401804020100201A9
S11301A010801020404020040404040403040502C9
S11301B002020204030202020206060606060604FE
S11301C004020202040400000000230026002900A7
S11301D02C002F0000000000250028002B002E001A
S11301E0310000000000240027002A002D00300008
S11301F09A060F1B5E1E1420210811241FBECFEF88
S1130200DAE0DEBFCDBF13E0A0E0B1E0E8EAFEE54E
S113021002C005900D92A834B107D9F727E0A8E4ED
S1130220B3E001C01D92A631B207E1F710E0CCEFB4
S1130230D0E004C02197FE010E94582CC83FD1078A
S1130240C9F70E9442200C94472F0C94000080E0D0
S11302500E9498288D3F23E0920720F18091480363
S1130260909149030196909349038093480303971F
S11302700CF46AC0E8E4F3E020E030E080E090E0D1
S113028040815181443051052CF0C901493C51054C
S11302900CF00596119211922F5F3F4F26303105D5
S11302A079F708958934910570F480914A03909107
S11302B04B0381152DE792074CF4019690934B0361
S11302C080934A0341C08E3E910570F480914C03A3
S11302D090914D0381152DE7920754F40196909364
S11302E04D0380934C0330C0823A21E0920770F4AE
S11302F080914E0390914F0381152DE792074CF4A2
S1130300019690934F0380934E031EC08037924012
S113031070F4809150039091510381152DE7920759
S113032034F4019690935103809350030DC080914F
S113033052039091530381152DE792072CF40196F3
S1130340909353038093520380E090E0089580E0FB
S113035090E0089508958DEF9FEF089590914F04D4
S113036081E0892780934F0480E090E00895909184
S11303704E0481E0892780934E0480E090E0089544
S11303809091740381E089278093740380E090E066
S1130390089520E030E040E85FE360914A04709102
S11303A04B0480914C0490914D040E94141B609363
S11303B04A0470934B0480934C0490934D04089525
S11303C0CF93DF93EC018091A90340E060E08823A0
S11303D009F44DC084E195E00E945C166CE973E079
S11303E084E195E00E9494206FED84E195E00E9401
S11303F0A42066E973E084E195E00E94942066E31A
S113040071E084E195E00E94A2206091950384E16B
S113041095E00E94A42041E060E084E195E00E9420
S11304205C166091A5037091A6034AE050E084E154
S113043095E00E944F216FED84E195E00E94A42095
S11304406091A3037091A4034AE050E084E195E035
S11304500E944F2166E371E084E195E00E94A220AE
S11304606091A20384E195E00E94A42016C084E177
S113047095E00E945C1669E371E084E195E00E94D6
S1130480A22041E060E084E195E00E945C166FE602
S113049072E084E195E00E94A220CE01DF91CF9129
S11304A008950F931F93CF93DF93182FD0E0C0E2EA
S11304B06C2F8FEA95E00E94881A8FEA95E00E94DB
S11304C00C1B082F61E070E080E090E00E94FB27A5
S11304D0011103C01D17F9F0DF5FCF5FC83241F788
S11304E0C8E36C2F8FEA95E00E94881A8FEA95E0A2
S11304F00E940C1B082F61E070E080E090E00E94F5
S1130500FB27011103C01D1731F0DF5FCF5FC0343B
S113051041F780E001C08C2FDF91CF911F910F91A3
S11305200895DC01ED91FC910190F081E02D099496
S1130530FC018481958101962CE330E0B9010E948D
S1130540032C95838483892B19F080E090E008952F
S1130550828193810196B9010E94032C9383828343
S1130560892B99F780819181019668E170E00E945E
S1130570032CAC019183808321E090E0452B09F0AA
S113058020E0822F0895FC01228133812630310539
S1130590D9F03CF42230310569F02430310539F4C6
S11305A013C02930310581F02B30310569F08FE11A
S11305B090E00895FC018081918183709927892BB3
S11305C031F48DE190E008958EE190E008958CE19E
S11305D090E008950F931F93CF93DF93EC010C8168
S11305E01D810F5F1F4F1D830C830E94C302801760
S11305F09107A4F421E030E03D832C838A819B8120
S113060001968D3091051CF49B838A8307C03B833C
S11306102A8388819981019699838883DF91CF9178
S11306201F910F9108950F931F930E94CA27009161
S11306300601109107012091080130910901061764
S113064017072807390770F5D901C80188519C4F4D
S1130650AF4FBF4F8093060190930701A093080109
S1130660B09309018DE893E00E949802892B21F050
S11306708AE693E00E94EA0285E893E00E949802E9
S1130680892B21F082E693E00E94EA028DE793E051
S11306900E949802892B31F08AE593E01F910F9113
S11306A00C94EA021F910F910895FC01CB0126815D
S11306B03781215031092230310558F021E030E0F2
S11306C0378326836230710569F06430710539F02F
S11306D014C06230710531F06430710549F482E070
S11306E090E002C081E090E0978386838AE090E006
S11306F02681378121303105D1F48130910521F0F3
S11307008330910549F0089580819181019668E1D3
S113071070E00E94032C08C080819181009719F435
S113072087E190E001C001979183808313C0223058
S11307303105F1F48130910521F08330910579F090
S113074008958281938101966CE370E00E94032CEA
S113075093838283158214828AE090E008958281D3
S11307609381009719F48BE390E0F2CF0197F0CFD7
S113077008950F931F93CF93DF938C0180914E04C0
S1130780F801C081D181882389F0CD30D1050CF0E6
S11307902C97CA30D10534F469E671E084E195E020
S11307A00E94A2204AE050E0BE010DC02A9734F412
S11307B069E671E084E195E00E94A220F80160817D
S11307C071814AE050E084E195E00E944F21F801F4
S11307D0828193810A971CF460E471E002C063E4AF
S11307E071E084E195E00E94A220F80162817381A6
S11307F04AE050E084E195E00E944F21F8018481B1
S113080095810A971CF460E471E002C063E471E02E
S113081084E195E00E94A220F801648175814AE098
S113082050E084E195E00E944F2180914E0488239A
S113083091F0F801808191810D971CF065E471E0DD
S113084002C069E471E084E195E0DF91CF911F91EA
S11308500F910C94A220DF91CF911F910F910895D5
S1130860CF93DF93EC0140E060E084E195E00E94E7
S11308705C166DE471E084E195E00E94A220809111
S11308807403882319F066E571E002C06AE571E03B
S113089084E195E00E94A22041E060E084E195E0DB
S11308A00E945C1685E793E00E94B903CE01DF91B4
S11308B0CF910895CF93DF93EC0140E060E084E1B1
S11308C095E00E945C166EE571E084E195E00E947B
S11308D0A220BE0185E793E00E945503EC0141E0AC
S11308E060E084E195E00E945C1685E793E00E9455
S11308F0B903CE01DF91CF910895CF93DF93EC013B
S11309008C819D810A9734F469E671E084E195E075
S11309100E94A2206C817D814AE050E084E195E050
S11309200E944F218A819B810A971CF468E671E03A
S113093002C06BE671E084E195E00E94A2206A8126
S11309407B814AE050E084E195E00E944F216BE610
S113095071E084E195E00E94A220688179814AE0F7
S113096050E084E195E0DF91CF910C944F21CF9337
S1130970DF93EC0140E060E084E195E00E945C16C6
S113098080914F04882319F185E893E00E94B9030C
S113099040E06DE084E195E00E945C1680916A0479
S11309A090916B042EE0289FB001299F700D1124B3
S11309B06C587B4F84E195E00E94942041E060E014
S11309C084E195E00E945C1682E693E00CC08DE71A
S11309D093E00E94B90341E060E084E195E00E9465
S11309E05C168AE593E00E947D04CE01DF91CF91ED
S11309F00895CF92DF92EF92FF9241E060E084E1AC
S1130A0095E00E945C16C0905404D0905504E09088
S1130A105604F090570420E030E0A901C701B60164
S1130A200E94801B811103C06DE671E023C022E0A7
S1130A3030E0B701A60184E195E00E9431226FED18
S1130A4084E195E00E94A4206BE771E084E195E0E5
S1130A500E94A2204091500450915104609152048C
S1130A607091530422E030E084E195E00E94312249
S1130A7060E871E084E195E0FF90EF90DF90CF9023
S1130A800C94A2200F931F93CF93DF93EC010E9449
S1130A90CA27009158041091590420915A043091A6
S1130AA05B040617170728073907B8F566E18CE5D4
S1130AB094E00E946F158091600490916104A0916C
S1130AC06204B09163048093540490935504A093FA
S1130AD05604B093570480915C0490915D04A091F6
S1130AE05E04B0915F048093500490935104A093EA
S1130AF05204B09353040E94F9040E94CA27DC01F3
S1130B00CB0188579C4EAF4FBF4F809358049093AE
S1130B105904A0935A04B0935B040E94F90440E082
S1130B2060E084E195E00E945C1680914F04882384
S1130B30D9F085E893E00E94B90340E06DE084E1D8
S1130B4095E00E945C1680916A0490916B042EE0FB
S1130B50289FB001299F700D11246C587B4F84E1AC
S1130B6095E00E94942004C08DE793E00E94B903AD
S1130B70CE01DF91CF911F910F91089588E0EDE8A8
S1130B80F3E0A5E8B3E001900D928A95E1F7809136
S1130B906A0490916B042EE0289FF001299FF00DC8
S1130BA01124E459FB4F2681378180918D03909164
S1130BB08E03820F931F909386038093850328E00E
S1130BC0EAE6F3E0A2E6B3E001900D922A95E1F79C
S1130BD0883191054CF04897909386038093850360
S1130BE082E693E00E94EA02809185039091860355
S1130BF097FF2FC048969093860380938503809136
S1130C00660390916703019790936703809366034B
S1130C10892BF9F480916403909165030197909373
S1130C20650380936403892B29F082E693E00E9494
S1130C30C3020BC080916203909163030197909368
S1130C406303809362038FE190E090936703809342
S1130C50660308958330910539F08A30910521F0B7
S1130C608130910551F517C084E195E00E94561634
S1130C7080916A0490916B04009719F48BE090E0E2
S1130C8001C0019790936B0480936A040E94BE058F
S1130C908AE090E0089584E195E00E9456168091E0
S1130CA06A0490916B048B30910529F410926B04C3
S1130CB010926A04EBCF0196E5CF0895CF93DF93AA
S1130CC00E942A06EC0140E060E084E195E00E9485
S1130CD05C1680916A0490916B042EE0289FB00109
S1130CE0299F700D112464597B4F84E195E00E9483
S1130CF0942041E060E084E195E00E945C1685E880
S1130D0093E00E94B903CE01DF91CF91089560E092
S1130D10809114010E94DA29609140047091410489
S1130D2080914204909143040E94F71B8091160124
S1130D300C94C9286F927F928F929F92AF92BF9228
S1130D40CF92DF92EF92FF920F931F93CF93DF9393
S1130D5084E195E00E94E215E4E1F5E08AE792E09F
S1130D609183808310A211A265E971E08CE694E07E
S1130D700E94A12ACCE6D4E01F821E826CE971E0B5
S1130D8084E794E00E94A12A60EA71E08AE794E093
S1130D900E94A12A8BEFE82EFF24FA94FD8AEC8AA4
S1130DA069EA71E082E894E00E94A12A6DEA71E0A8
S1130DB088E894E00E94A12A66246394712C7BA2A3
S1130DC06AA263EB71E080E994E00E94A12A67EBD8
S1130DD071E086E994E00E94A12A29E0822E912CF8
S1130DE099AA88AA6DEB71E08EE994E00E94A12A89
S1130DF061EC71E084EA94E00E94A12A08E010E02A
S1130E001FAF0EAF6AEC71E08CEA94E00E94A12A55
S1130E106EEC71E082EB94E00E94A12A88EF9FEFD0
S1130E209093B9048093B8046AED71E08AEB94E07E
S1130E300E94A12A6EED71E080EC94E00E94A12A48
S1130E408AEF9FEF9093C7048093C60466EE71E027
S1130E5088EC94E00E94A12A6AEE71E08EEC94E0A2
S1130E600E94A12A9092D5048092D40460EF71E08C
S1130E7086ED94E00E94A12A64EF71E08CED94E089
S1130E800E94A12A7092E3046092E2046DEF71E083
S1130E9084EE94E00E94A12A61E072E08AEE94E07C
S1130EA00E94A12AF092F104E092F0046CE072E056
S1130EB082EF94E00E94A12A60E172E088EF94E05E
S1130EC00E94A12A1093FF040093FE0469E172E0DA
S1130ED080E095E00E94A12A6DE172E086E095E051
S1130EE00E94A12A8BE090E090930D0580930C055D
S1130EF064E272E08EE095E00E94A12A10926904F7
S1130F00A0900C01B0900D01C0900E01D0900F0183
S1130F10E0901001F0901101009112011091130161
S1130F201F921F9280913B048F9380913A048F9378
S1130F30809139048F93809138048F932CE334E0AB
S1130F4040E454E066E474E08CEF93E00E947B1488
S1130F506AE373E08CE993E00E94A12A6AE373E0F8
S1130F6086E993E00E94A12AEDE8F3E080E190E0B5
S1130F70918380832BE330E0338322838DE290E0FE
S1130F809583848317821682E5E8F3E01182108248
S1130F90138212821582148217821682EDE7F3E01F
S1130FA041E150E0518340833383228395838483DA
S1130FB017821682E5E7F3E082E190E09183808373
S1130FC0138212821582148217821682EAE6F3E0F3
S1130FD04EE050E0558344832CE030E03383228399
S1130FE083EE97E09183808317821682E2E6F3E032
S1130FF0758264829382828260ED77E0718360837C
S113100017821682EAE5F3E055834483338322830F
S113101091838083178216820F900F900F900F9008
S11310200F900F90DF91CF911F910F91FF90EF9050
S1131030DF90CF90BF90AF909F908F907F906F90F4
S11310400895CF93DF9386E993E00E94332A8CE9D5
S113105093E00E94332AC4E1D5E02E97CE0108968E
S11310600E94332ACE010E94332A84E0CC36D8076A
S1131070A1F7DF91CF910895CF93DF93FC0181A570
S1131080882371F192A5662319F0913029F402C0E6
S1131090911102C083A701C013A6EF0160A18FEADA
S11310A095E00E94881A89A1823031F469E070E0E9
S11310B08FEA95E00E9491026BA58FEA95E00E9469
S11310C0371A8FEA95E00E940C1B21E030E0811171
S11310D002C020E030E088279927821B930B02C0CE
S11310E08DEF9FEFDF91CF910895CF93FC01C3A5BE
S11310F060FF02C085A1C82B61FF02C086A1C82B76
S113110062FF02C087A1C82B63FF02C080A5C82B61
S1131110413011F482A1C82B64A16C2B70E08FEADA
S113112095E00E9491026C2F8FEA95E0CF910C9488
S1131130371A8F929F92AF92BF92CF92DF92EF9223
S1131140FF920F931F93CF93DF93EC0188A1882321
S113115009F450C089A1882309F44CC0142F062F28
S11311608C8C9D8CAE8CBF8CC88CD98CEA8CFB8CFF
S11311708DE2C81AD108E108F1080E94D627DC01E3
S1131180CB018C199D09AE09BF0988159905AA05DB
S1131190BB0598F368A18FEA95E00E94881A89A19B
S11311A0823031F469E070E08FEA95E00E949102A8
S11311B0612F70E084E0759567958A95E1F7402F7B
S11311C0CE010E947508023031F0612F6F70402FFC
S11311D0CE010E9475088FEA95E00E940C1B21E065
S11311E030E0811102C020E030E088279927821B7B
S11311F0930B02C08CEF9FEFDF91CF911F910F9162
S1131200FF90EF90DF90CF90BF90AF909F908F9022
S113121008958F929F92AF92BF92CF92DF92EF92F6
S1131220FF920F931F93CF93DF93EC011BA588A12B
S1131230882309F4F6C089A1882309F4F2C0823016
S113124009F4F1C08BA1882309F4EDC0062F8C8C1E
S11312509D8CAE8CBF8CC88CD98CEA8CFB8C8DE2B7
S1131260C81AD108E108F1080E94D627DC01CB0195
S11312708C199D09AE09BF0988159905AA05BB05F6
S113128098F38DA1182B8EA1182B8FA1182B88A54C
S1131290182B013011F48AA1182B8BA1182B68A1EB
S11312A08FEA95E00E94881A612F8FEA95E00E94E8
S11312B0371A8FEA95E00E940C1B882319F00FEF70
S11312C01FEF9DC068A18FEA95E00E94881A6CA167
S11312D0612B70E08FEA95E00E9491028FEA95E01D
S11312E00E940C1B8111EBCF68A170E041E050E03B
S11312F08FEA95E00E94091B8FEA95E00E94B019DD
S11313007C0197FDDCCF68A18FEA95E00E94881AE2
S1131310612F8FEA95E00E94371A8FEA95E00E94C8
S11313200C1B8111CCCF8DA190E08E219F21892BA4
S113133011F400E001C000E18EA190E08E219F2114
S1131340892B09F000628FA190E08E219F21892BC7
S113135009F0006488A590E0E822F922EF2809F05A
S1131360006868A18FEA95E00E94881A6CA1612B3D
S113137070E08FEA95E00E9491028FEA95E00E9466
S11313800C1B81119CCF68A170E041E050E08FEA12
S113139095E00E94091B8FEA95E00E94B0197C0138
S11313A097FD8DCF68A18FEA95E00E94881A612F7E
S11313B08FEA95E00E94371A8FEA95E00E940C1B91
S11313C081117DCF8DA190E08E219F21892B09F081
S11313D001608EA190E08E219F21892B09F002608B
S11313E08FA190E08E219F21892B09F0046088A5AC
S11313F090E0E822F922EF2809F0086010E068A1E3
S11314008FEA95E00E94881A6BA58FEA95E00E9406
S1131410371A8FEA95E00E940C1B882339F08FEF6E
S113142003C08CEF01C08DEF9FEF01C0C801DF91B5
S1131430CF911F910F91FF90EF90DF90CF90BF90CD
S1131440AF909F908F9008950F931F93CF93DF9346
S1131450EC0168A18FEA95E00E94881A6FEF8FEA89
S113146095E00E94371A8FEA95E00E940C1B68A150
S113147070E041E050E08FEA95E00E94091B8FEA9A
S113148095E00E94B0198C0168A18FEA95E00E9452
S1131490881A6BEF8FEA95E00E94371A8FEA95E07D
S11314A00E940C1B68A170E041E050E08FEA95E0D7
S11314B00E94091B8FEA95E00E94B01998012770D9
S11314C0332727303105B1F4807F9927803F910578
S11314D089F483E0169507958A95E1F781E008275A
S11314E0017043E057E066E075E0E4E022E0F1E0FB
S11314F030E034C0C801807799278037910509F01E
S113150068C068A18FEA95E00E94881A6FEE8FEA9E
S113151095E00E94371A8FEA95E00E940C1B68A19F
S113152070E041E050E08FEA95E00E94091B8FEAE9
S113153095E00E94B0198F7099270F9719F026E053
S113154034E002C024E036E00095001F0027001FAD
S113155047E053E062E071E0E0E0F5E081E090E034
S1131560DC0101C0AA0F3A95EAF7AAA3DC0101C085
S1131570AA0FFA95EAF7ABA3DC0102C0AA0FBB1FBE
S11315802A95E2F7ACA39C0101C0220FEA95EAF781
S11315902DA39C0101C0220F7A95EAF72EA39C018A
S11315A001C0220F6A95EAF72FA39C0101C0220F04
S11315B05A95EAF728A701C0880F4A95EAF789A740
S11315C00AA7013011F48BA701C01BA680E090E0AC
S11315D002C08DEF9FEFDF91CF911F910F9108957E
S11315E0CF93DF93EC0168A18FEA95E00E94881AFB
S11315F060E08FEA95E00E94371A6FEF70E08FEA9F
S113160095E00E9491028FEA95E00E940C1B68A16C
S11316108FEA95E00E94881A66E070E08FEA95E010
S11316200E9491026FEF70E08FEA95E00E949102B0
S11316308FEA95E00E940C1B68A18FEA95E00E9456
S1131640881A69E070E08FEA95E00E9491028FEABF
S113165095E00E940C1B68A170E041E050E08FEA25
S113166095E00E94091B8FEA95E00E94B0198F371C
S113167061F086FF12C081FD4CC021E032E043E0FE
S113168054E065E076E0E7E00FC027E036E045E0AF
S113169054E063E072E0E1E007C026E033E042E0BA
S11316A051E060E077E0E4E081E090E0DC0102C03A
S11316B0AA0FBB1FEA95E2F7AAA31BA2FC0101C073
S11316C0EE0F7A95EAF7ECA3FC0102C0EE0FFF1FC0
S11316D06A95E2F7EDA3BC0101C0660F5A95EAF7DB
S11316E06EA3BC0102C0660F771F4A95E2F76FA391
S11316F0AC0101C0440F3A95EAF748A701C0880F2E
S11317002A95EAF789A791E09AA78BA780E090E051
S113171002C08DEF9FEFDF91CF9108951F93CF9378
S1131720DF93EC018FEA95E00E94761A68A16111BB
S11317300AC08091400591E0980F909340050E9463
S1131740510288A30DC08FEA95E00E94881A8FEA9F
S113175095E00E940C1B882319F08CEF9FEFA7C023
S113176088A1811109C08091400591E0980F909360
S113177040050E94510288A318A1112371F389A185
S11317808823C1F168A18FEA95E00E94881A89A193
S1131790823009F076C065E070E08FEA95E00E943F
S11317A0910260E270E08FEA95E00E9491028FEA74
S11317B095E00E940C1B68A18FEA95E00E94881AAC
S11317C060E08FEA95E00E94371A60E08FEA95E0C6
S11317D00E94371A8FEA95E00E940C1B68A18FEAD9
S11317E095E00E94881A69E070E08FEA95E00E9413
S11317F0910247C0612F8FEA95E00E94881A60E049
S11318008FEA95E00E94371A6FEF8FEA95E00E9405
S1131810371A8FEA95E00E940C1B612F8FEA95E03E
S11318200E94881A60E08FEA95E00E94371A8FEAD6
S113183095E00E940C1B612F70E041E050E08FEABC
S113184095E00E94091B8FEA95E00E94B0199C0163
S11318508F3F910529F091E0232B19F090E001C00E
S113186092E099A3992309F1913021F4CE010E94C9
S1131870240A03C0CE010E94F00A009709F482CF23
S113188016C060E08FEA95E00E94371A8FEA95E06F
S11318900E940C1B21E030E0811102C020E030E006
S11318A088279927821B930B02C08FEF9FEFDF914C
S11318B0CF911F9108954F925F926F927F928F9272
S11318C09F92AF92BF92CF92DF92EF92FF920F93CB
S11318D01F93CF93DF93CDB7DEB72C970FB6F89451
S11318E0DEBF0FBECDBF2EEAC22E23E0D22EEE24E1
S11318F0E39434E2B32E86E596E00E94731E892BAE
S1131900D1F10091AD0310E086E596E00E948D1EB2
S1131910F82EF801E255FC4F8083682F85E096E0AD
S11319200E94531D8091AD03853418F48F5F80931A
S1131930AD0384E2F81219C0D092AC03C092AB0399
S1131940E091AB03F091AC0383E0E43FF80740F48B
S1131950CF0101969093AC038093AB031082F0CF38
S1131960E092AD03B092AE03C6CFEAE2FE12C3CF5B
S113197081E08093AA038091AA03811102C010E040
S11319800DC11092AA0368E272E08EEA93E00E940D
S1131990952E009729F41092AC031092AB03EFCF6D
S11319A08C010A5F1F4F1093AC030093AB03C80173
S11319B00E945E2E2B013C0184E6C82ED12CE12C22
S11319C0F12CC301B201A70196010E94392C709336
S11319D0820360938103CA01B901A70196010E94A1
S11319E0392C7093800360937F0390E1892E97E2F2
S11319F0992EA12CB12CC301B201A50194010E941E
S1131A00392CCA01B9016F5F7F4F8F4F9F4F28E177
S1131A1030E040E050E00E94392C70937E036093E4
S1131A207D03B801CE0107960E94A12A6FE272E0FD
S1131A30CE0101960E94A12ABE016F5F7F4FCE01A5
S1131A4007960E94602B8C01CE0101960E94332AD6
S1131A500F3F1F4F09F485C08091AB039091AC03F5
S1131A600D960E945E2EA70196010E94392C290131
S1131A703A01AB01BC012AE0CE0101960E94162B6B
S1131A80BE016F5F7F4F86E993E00E94F32ACE0187
S1131A9001960E94332AC301B201A70196010E9454
S1131AA0392CAB01BC012AE0CE0101960E94162B11
S1131AB0BE016F5F7F4F8CE993E00E94F32ACE0151
S1131AC001960E94332A0091AB031091AC03F801F4
S1131AD0878980939503C80149960E945E2EA701C9
S1131AE096010E94392C7093A4036093A303CA0146
S1131AF0B901A70196010E94392C7093A603609343
S1131B00A503F80184A18093A203C801C2960E9490
S1131B105E2E2B013C01A70196010E94392C6053D3
S1131B20784F70935B0360935A03CA01B901A7010C
S1131B3096010E94392C70935D0360935C03C3018A
S1131B40B201A50194010E94392CCA01B901A7016F
S1131B5096010E94392C70935F0360935E0311E039
S1131B6001C010E08EEA93E09093AC038093AB0342
S1131B70E091AB03F091AC0383E0E43FF80740F459
S1131B80CF0101969093AC038093AB031082F0CF06
S1131B901092AD03CE0107960E94332A85E096E0A9
S1131BA00E94821D892B49F085E096E00E94921DD7
S1131BB0682F86E596E00E94DF1E88E0EDE7F3E0FB
S1131BC0ADE8B3E001900D928A95E1F780918D0321
S1131BD090918E03019790938E0380938D0388E0F8
S1131BE0EAE5F3E0AAE6B3E001900D928A95E1F705
S1131BF0812F2C960FB6F894DEBF0FBECDBFDF91B8
S1131C00CF911F910F91FF90EF90DF90CF90BF90F5
S1131C10AF909F908F907F906F905F904F900895BA
S1131C20CF92DF92EF92FF9226E040E855E260E027
S1131C3070E086E596E00E944D1F40E855E260E0C2
S1131C4070E085E096E00E94581E20E042E060E1EA
S1131C5084E195E00E94821684E195E00E941716C3
S1131C6084E195E00E941C1784E195E00E945916D6
S1131C7062E372E084E195E00E94A22041E060E02A
S1131C8084E195E00E945C1663E472E084E195E0EF
S1131C900E94A2200E94CA27683B7B4081059105CF
S1131CA0C8F384E195E00E94561660E088E00E9443
S1131CB09E2960E086E10E949E2961E080911401E2
S1131CC00E949E2961E0809116010E949E2960E095
S1131CD087E00E949E2980E090E0A0EAB1E480932E
S1131CE03C0490933D04A0933E04B0933F0461E010
S1131CF070E08CEF93E00E94B71364E670E08CEF21
S1131D0093E00E94231341E050E069EC71E084E029
S1131D100E946D260E94CA276093F8037093F9030A
S1131D208093FA039093FB030E94CA27603777419C
S1131D308105910558F540E060E084E195E00E945A
S1131D405C1661E572E084E195E00E94A2200E94A5
S1131D505B0C8823A1F084E195E00E9456166AE5A5
S1131D6072E084E195E00E94A22081E08093A903BF
S1131D700E94CA277093A8036093A70307C00E9418
S1131D80CA277093A8036093A703CECF8091A903B9
S1131D9081110AC084E195E00E94561668E672E05B
S1131DA084E195E00E94A22088E0EDE8F3E0A5E854
S1131DB0B3E001900D928A95E1F7C090A703D0900B
S1131DC0A80380E3C81A88EFD80A0D2C000CEE088B
S1131DD0FF080E94CA276C157D058E059F0568F3D0
S1131DE084E195E0FF90EF90DF90CF900C9456162D
S1131DF0CF92DF92EF92FF920F931F938091A903EA
S1131E00882309F4CAC1C090A703D090A80380EC2A
S1131E10C81A88E8D80A0D2C000CEE08FF080E94A6
S1131E20CA27C616D706E806F90608F4B6C188E03C
S1131E300E94092A019701F51092440410923C046F
S1131E4010923D0410923E0410923F0410924A04F2
S1131E5010924B0410924C0410924D0410924004C2
S1131E6010924104109242041092430460E070E026
S1131E70809116010E94C928809181039091820368
S1131E80892B79F480E090E0A0EAB1E480933C04EB
S1131E9090933D04A0933E04B0933F0481E080936B
S1131EA0440480914404882309F45DC00E94870699
S1131EB00E94CA276093F4037093F5038093F6039A
S1131EC09093F7030091F8031091F9032091FA031A
S1131ED03091FB036B017C01C01AD10AE20AF30AB8
S1131EE097018601C0900A01D0900B010D2C000CC3
S1131EF0EE08FF08C016D106E206F306A4F56093C7
S1131F00F8037093F9038093FA039093FB0320E0A2
S1131F1030E040E752E460914A0470914B048091B0
S1131F204C0490914D040E94E41C20E030E040EF0A
S1131F3054E40E94851B6093460470934704809385
S1131F404804909349048CEF93E00E94E610809338
S1131F504504882341F010924A0410924B041092D5
S1131F604C0410924D040E9413038091740388233F
S1131F7011F120917D0330917E038091750390913E
S1131F80760328173907B9F420917F033091800331
S1131F9080917703909178032817390761F4209191
S1131FA08103309182038091790390917A032817F9
S1131FB0390709F4FDC00E942701909355038093CB
S1131FC054032091720330917303232BC1F0892BA6
S1131FD049F084E195E00E94171610927303109261
S1131FE072030DC08091810380FF05C084E195E0F8
S1131FF00E940F1604C084E195E00E941716E09138
S11320005803F091590374E0EE0FFF1F7A95E1F73E
S1132010E457FD4F0284F385E02D309749F0809119
S11320205403909155030995909355038093540359
S1132030809154039091550383309105D9F134F480
S11320408130910579F0029719F109C08530910525
S113205009F465C00CF440C0069709F483C08FEFFF
S11320609FEF11C084E195E00E945616E091580359
S1132070F091590364E0EE0FFF1F6A95E1F7E4570E
S1132080FD4F8081918190935703809356037AC0CA
S113209084E195E00E945616E0915803F0915903AB
S11320A054E0EE0FFF1F5A95E1F7E457FD4F82818C
S11320B09381E9CF84E195E00E945616E09158039C
S11320C0F091590344E0EE0FFF1F4A95E1F7E457FE
S11320D0FD4F84819581D7CF84E195E00E94561607
S11320E0E0915803F091590334E0EE0FFF1F3A9545
S11320F0E1F7E457FD4F0484F585E02D309709F0AE
S11321000995E0915803F091590324E0EE0FFF1F65
S11321102A95E1F7E457FD4F86819781B4CF84E196
S113212095E00E945616E0915803F091590394E00B
S1132130EE0FFF1F9A95E1F7E457FD4F0684F785EC
S1132140E02D309709F00995E0915803F091590377
S113215084E0EE0FFF1F8A95E1F7E457FD4F808579
S1132160918591CF84E195E00E94561684E195E033
S11321700E941C1784E195E00E94231710925703D4
S113218010925603809156039091570397FD17C000
S1132190909359038093580312C00E945B0C809360
S11321A0A9030E94CA277093A8036093A7033FCE94
S11321B081E090E09093730380937203FCCE1F91AF
S11321C00F91FF90EF90DF90CF9008952F923F9260
S11321D04F925F926F927F928F929F92AF92BF9233
S11321E0CF92DF92EF92FF920F931F93CF93DF93DF
S11321F0CDB7DEB760970FB6F894DEBF0FBECDBF84
S1132200DC01DA96BC91B983B11102C019822BC1E9
S1132210988B8F870E94CA276E837F8388879987CC
S1132220EF85F88982A193A1A4A1B5A14E815F8114
S113223068857985481B590B6A0B7B0B86A597A586
S1132240A0A9B1A9481759076A077B07F8F2048CBB
S1132250F58DE02D80819181A281B3818A839B8356
S1132260AC83BD83AF85B8899096ED91FC9191972D
S11322702A813B814C815D8160817181828193815E
S11322800E94131B4B015C01EF85F88922A533A53D
S113229044A555A56A817B818C819D810E94131B75
S11322A06B017C01AF85B88950962D913D914D917C
S11322B05C915397C501B4010E94E41CEF85F88931
S11322C026A137A140A551A50E94141B2B013C0156
S11322D0AF85B88996966D937D938D939C939997CA
S11322E0DB96BC91BA87B11118C0EF85F8892485B3
S11322F0358546855785C701B6010E94E41C9B01BC
S1132300AC01C301B2010E94131BAF85B889969634
S11323106D937D938D939C939997EF85F88946A04F
S113232057A060A471A416A907A930AC21AC212F31
S1132330302F432D522DC301B2010E94DF1C181609
S11323402CF4812F902FA32DB22D18C0AF85B889FE
S1132350D2968D919D910D90BC91A02D8B879C87D9
S1132360AD87BE879C01AD01C301B2010E94801BF1
S113237087FF0AC08B859C85AD85BE85EF85F8896E
S113238086A397A3A0A7B1A7FA85FF2379F0AF8509
S1132390B8891C962D913D914D915C911F97C50173
S11323A0B4010E94E41C4B015C0103C0812C912CFC
S11323B05401EF85F8892489358946895789C701ED
S11323C0B6010E94E41C9B01AC01AF85B8899696C6
S11323D06D917D918D919C9199970E94131BA501FC
S11323E094010E94141B6B017C019B01AC01612FC1
S11323F0702F832D922D0E94801B87FD14C0EF85C2
S1132400F88912A903A934A825A8212F302F432D18
S1132410522DB601C7010E94801B87FD04C01C2DEC
S11324200D2D3E2C2F2CAF85B8895E96ED91FC9135
S11324305F97812F902FA32DB22D80839183A28348
S1132440B3838A819B81AC81BD81EF85F88982A7A2
S113245093A7A4A7B5A78E819F81A885B98582A3D8
S113246093A3A4A3B5A3898160960FB6F894DEBFA5
S11324700FBECDBFDF91CF911F910F91FF90EF90D1
S1132480DF90CF90BF90AF909F908F907F906F9090
S11324905F904F903F902F9008954F925F926F926C
S11324A07F928F929F92AF92BF92CF92DF92EF92E0
S11324B0FF920F931F93CF93DF9300D000D000D0EF
S11324C0CDB7DEB79E838D8349835A836B837C8328
S11324D02801390120E030E0A90169817A818B81EA
S11324E09C810E94801B87FD97C020E030E0A901F9
S11324F0C301B2010E94801B87FD8EC020E030E042
S1132500A901C701B6010E94801B87FD85C0AD816A
S1132510BE815B96BC92AE925A9781E0AA94AB2896
S113252009F080E0ED81FE8183AF89819A81AB81DE
S1132530BC8180839183A283B38344825582668263
S11325407782C086D186E286F38666A577A580A9C0
S113255091A90E942D1C20E030E04AE754E40E9437
S1132560851B4B015C0189819A81AB81BC81ED8122
S1132570FE8184879587A687B787A5019401C30147
S1132580B2010E94E41C2B013C01AD81BE81509636
S11325906D937D938D939C935397A5019401C701EB
S11325A0B6010E94851B6B017C01ED81FE81648B69
S11325B0758B868B978B808D918D019769F5298119
S11325C03A814B815C8160E070E0CB010E94131B77
S11325D0AD81BE811C966D937D938D939C931F97C3
S11325E0A301920160E070E0CB010E94131BED8116
S11325F0FE81608B718B828B938BA701960160E0C7
S113260070E0CB010E94131BAD81BE8154966D9383
S11326107D938D939C93579726960FB6F894DEBFBF
S11326200FBECDBFDF91CF911F910F91FF90EF901F
S1132630DF90CF90BF90AF909F908F907F906F90DE
S11326405F904F9008958F929F92AF92BF92CF92D6
S1132650DF92EF92FF92CF93DF9316161706B4F52D
S11326606B01EC010D2C000CEE08FF08C701B6014C
S11326700E942F1C4B015C016EA57FA588A999A916
S11326800E942D1C9B01AC01C501B4010E94851B55
S11326904B015C019B01AC01688979898A899B891A
S11326A00E94E41C688B798B8A8B9B8BA501940117
S11326B06C897D898E899F890E94851B6C8B7D8B9B
S11326C08E8B9F8BCEA6DFA6E8AAF9AADF91CF91C5
S11326D0FF90EF90DF90CF90BF90AF909F908F903E
S11326E008958F929F92AF92BF92CF92DF92EF9212
S11326F0FF92CF93DF93EC01EE8DFF8DC080D180EC
S1132700E280F380CEA2DFA2E8A6F9A6EC8DFD8DCF
S113271080819181A281B3818AA79BA7ACA7BDA721
S11327208EA89FA8A8ACB9ACA5019401C701B601B5
S11327300E94DF1C181664F08AA89BA8ACA8BDA848
S1132740A5019401C701B6010E94801B87FF04C044
S11327508EA29FA2A8A6B9A6DF91CF91FF90EF9079
S1132760DF90CF90BF90AF909F908F9008951F936C
S1132770CF93DF93EC0111E06130710509F010E0B3
S11327806130710531F48AAD811103C0CE010E941C
S113279071131AAFDF91CF911F9108950F931F9377
S11327A0CF93DF93EC018B018AAD882361F1888D8F
S11327B0998D8617970739F12C853D854E855F8560
S11327C060E070E0CB010E94131B6C877D878E87CD
S11327D09F87288939894A895B8960E070E0CB0149
S11327E00E94131B688B798B8A8B9B8B2C893D8968
S11327F04E895F8960E070E0CB010E94131B6C8BF3
S11328007D8B8E8B9F8B198F088FDF91CF911F91BA
S11328100F9108954F925F926F927F928F929F9241
S1132820AF92BF92CF92DF92EF92FF920F931F93DA
S1132830CF93DF9300D000D0CDB7DEB74C01270192
S11328403801A982BA82CB82DC82FC01578F468F81
S1132850758F648F31A320A312AE12AA13AA14AAEF
S113286015AA80E090E0AFE7B3E486AB97ABA0AFE6
S1132870B1AF84E690E0A0E0B0E086A797A7A0AB54
S1132880B1AB6D8D7E8DC4010E94CE13AB8CBC8C1C
S1132890CF88D88CE98CFA8C09811A812B813C81F0
S11328A0B301A201C4010E944D120E94CA27F4017F
S11328B046A457A460A871A8DC01CB01841995092A
S11328C0A609B70982A393A3A4A3B5A30F900F905D
S11328D00F900F90DF91CF911F910F91FF90EF9088
S11328E0DF90CF90BF90AF909F908F907F906F902C
S11328F05F904F9008958F929F92AF92BF92CF9224
S1132900DF92EF92FF920F931F93CF93DF93CDB794
S1132910DEB7EF85F889A989BA899B888C888F925C
S11329209F921F92992493949F92BF93AF93FF9386
S1132930EF930E940A140FB6F894DEBF0FBECDBF0A
S1132940DF91CF911F910F91FF90EF90DF90CF9087
S1132950BF90AF909F908F9008952F923F924F9287
S11329605F926F927F928F929F92AF92BF92CF921B
S1132970DF92EF92FF920F931F93CF93DF93EC01BB
S1132980F62E042FE22E862F90E0FC01E857FE4F2E
S11329901491FC01E955FE4FE491F0E0EE0FFF1FA6
S11329A0EA53FE4FC590D49061E08F2D0E949E297A
S11329B060E08F2D0E94DA29093038F0602F70E032
S11329C080E090E00E94FB270AC088EE93E09C011F
S11329D0029FC001039F900D11240E94372860E0DC
S11329E08F2D0E949E2980E293E0D6012C91212311
S11329F021F00197D1F78DEF5FC080E991E0F601F6
S1132A002081212321F40197D1F78CEF55C080E96F
S1132A1091E0D6012C91212321F00197D1F78BEF7E
S1132A204BC058E280E991E020E030E0E0E9F1E0D9
S1132A3000E060E0312C40E8252E2E1870E9872E46
S1132A4099249394A12CB12CD6017C91712361F526
S1132A50002351F1251698F48E179F0708F4FC0102
S1132A60240135014E1A5F0A6108710882E07594E9
S1132A706794579447948A95D1F7920107C07F01D0
S1132A80E21AF30AE816F90608F0642B469549F4AD
S1132A90CE01830D911DDC0118966C93339460E094
S1132AA040E8515080E991E0019729F0072F511136
S1132AB0CBCF80E001C08EEFDF91CF911F910F91BA
S1132AC0FF90EF90DF90CF90BF90AF909F908F904A
S1132AD07F906F905F904F903F902F900895CF928A
S1132AE0DF92EF92FF920F931F93CF93DF93EC014A
S1132AF08D85882309F0F89426E041E0CE010E94F8
S1132B00AD14E82E8D85882309F078940885037028
S1132B1008871A85812F8378F82E8A87C984602FC5
S1132B2070E0762F66276C0D711D072E000C880B44
S1132B30990B0E942F1C2DEC3CEC4CEC5DE30E94A5
S1132B40E41C688379838A839B83DB841370612FFD
S1132B5070E0762F66276D0D711D072E000C880B13
S1132B60990B0E942F1C2DEC3CEC4CEC5DE30E9475
S1132B70E41CF7FC05C06C837D838E839F8307C0B0
S1132B80DC01CB01B0588C839D83AE83BF83DC0C06
S1132B900D0DF00E8C85F81202C08E2D01C08FEF42
S1132BA0DF91CF911F910F91FF90EF90DF90CF9025
S1132BB0089580E090E008958DEF9FEF08958DEFE4
S1132BC09FEF0895CF93DF93EC011B821A8280EF6D
S1132BD092E0998388831F82188680ED97E0A0E0B5
S1132BE0B0E0888B998BAA8BBB8B86E290E0A0E047
S1132BF0B0E08C8B9D8BAE8BBF8B1C861D861E8696
S1132C001F861B860E94D627688F798F8A8F9B8F99
S1132C101C8E1D8E1E8E1F8EDF91CF910895DC01B8
S1132C20ED91FC910684F785E02D6FEF0994DC01AA
S1132C30ED91FC910684F785E02D60E009948F9274
S1132C409F92AF92BF92EF92FF921F93CF93DF9325
S1132C50EC01162FE881F9810484F585E02D462FD7
S1132C6060E009957C011150123038F419861A86F7
S1132C7088889988AA88BB8804C08C889D88AE8877
S1132C80BF880E94D627688F798F8A8F9B8F8C8EFE
S1132C909D8EAE8EBF8EC701DF91CF911F91FF90A5
S1132CA0EF90BF90AF909F908F90089561E00C9447
S1132CB01F1662E00C941F16FC018085481710F063
S1132CC04FEF480F9385992359F09781691730F096
S1132CD0691B4F5F4817D0F340E0F8CF6187428704
S1132CE0DF01A40FB11D1C968C91680F6068CF01A1
S1132CF00C941F16FC016581262F246025836C60CB
S1132D000C941F160F931F93CF93DF93EC01022FA4
S1132D10142F453008F014E08C85811109C08D858D
S1132D20811106C08E85811103C08F85882329F007
S1132D308F81882359F0861749F01C8680E48D879B
S1132D406E87862F90E0805C9F4F8F8718876F83F4
S1132D5064E670E080E090E00E94FB271C82E8813A
S1132D60F9810084F185E02DCE010995009709F0E1
S1132D705EC08885823018F08C8188608C83002343
S1132D8029F0113019F48C8184608C83E881F981F5
S1132D900484F585E02D40E362E0CE01099565E009
S1132DA070E080E090E00E94FB27E881F9810484D0
S1132DB0F585E02D40E362E0CE01099561E070E025
S1132DC080E090E00E94FB27E881F9810484F58586
S1132DD0E02D40E362E0CE01099561E070E080E01F
S1132DE090E00E94FB278C8184FD09C0E881F98171
S1132DF00484F585E02D40E262E0CE0109956C8102
S1132E006062CE010E941F1684E08D83CE010E9471
S1132E107A16CE010E94561682E08E8366E0CE01B9
S1132E200E941F168C01CE010E940F16C801DF916B
S1132E30CF911F910F910895FC0165816D7F65838A
S1132E4068600C941F16FC0165816E7F6583686061
S1132E500C941F16CF92DF92EF92FF920F931F9361
S1132E60CF93DF93EC01462FE881F9810484F58543
S1132E70E02D61E009958C01CC88DD88EE88FF881F
S1132E800E94D627688F798F8A8F9B8FCC8EDD8E98
S1132E90EE8EFF8E81E090E0012B11F080E090E057
S1132EA0DF91CF911F910F91FF90EF90DF90CF9022
S1132EB008950F931F93CF93DF93EC010E942A1779
S1132EC08C018B85882399F089858F5F89879F8101
S1132ED0891768F019868A858F5F8A87988589178C
S1132EE008F01A864A8560E0CE010E945C16C8018B
S1132EF0DF91CF911F910F9108951092AE0581E05B
S1132F008093AC051092AB0561E082E00E94DA295F
S1132F1061E083E00E94DA29E9EBF0E080818E7FB2
S1132F20808380818D7F808388E48093B80085E4EA
S1132F308093BC000895413208F043C09091AE05DF
S1132F409111FCCF91E09093AE052093AC052FEF47
S1132F502093410510928605240F209385059093B4
S1132F60AD059091AD05880F892B8093AD058091B7
S1132F70AB05813061F41092AB058091AD0580936F
S1132F80BB008091BC0083FDF8CF85EC01C085EEC9
S1132F908093BC008091AE058130E1F38091860579
S1132FA0841710F440918605A7E8B5E0962FFB013D
S1132FB08E2F891B841718F48D918193F9CF842F58
S1132FC0089580E008950F93413208F04AC090912B
S1132FD0AE059111FCCF32E03093AE050093AC0501
S1132FE03FEF309341051092860540938505562F97
S1132FF0A7E8B5E0FB013E2F351B341718F43191D7
S11330003D93F9CF1092AD053091AD05880F832B18
S11330108093AD058091AB05813061F41092AB05CE
S11330208091AD058093BB008091BC0083FDF8CFF7
S113303085EC01C085EE8093BC00222321F08091B1
S1133040AE058230D1F3809141058F3F79F08091B4
S11330504105803241F080914105803331F094E0A4
S113306005C091E003C092E001C093E0892F0F9165
S1133070089540916305262F30E0240F311D21323D
S11330803105DCF42091AE052430C9F4FC0180E064
S113309090E0861758F4309163052191DC01AB5917
S11330A0BA4FA30FB11D2C930196F3CF8091630502
S11330B0680F6093630580E0089581E0089582E0DD
S11330C008959093A8058093A70508959093AA0561
S11330D08093A905089585ED8093BC008091BC0080
S11330E084FDFCCF1092AE05089585EC8093BC005E
S11330F01092AE0508951F920F920FB60F921124ED
S11331002F933F934F935F936F937F938F939F93EB
S1133110AF93BF93EF93FF938091B900887F80367C
S113312009F49EC078F5883209F45DC090F48031CA
S113313009F456C038F4882309F4F5C0883009F43A
S11331404FC0F5C0883109F44EC0803209F45FC025
S1133150EEC0803409F46AC058F4803309F457C0CF
S1133160883309F0E4C0809341050E947518DFC0DC
S1133170803509F44FC0883509F45DC0883409F0FE
S1133180D6C0D3C0883909F4C4C0A8F4883709F478
S113319067C038F4883609F463C0803709F460C026
S11331A0C6C0883809F4B5C0803909F45FC08038D6
S11331B009F0BDC05BC0803B09F483C038F4803A99
S11331C009F466C0883A09F47CC0B1C0803C09F4B3
S11331D0A4C0883C09F4A1C0883B09F487C0A7C0F7
S11331E08091AD0510C09091860580918505981752
S11331F070F5E091860581E08E0F80938605F0E0FE
S1133200E957FA4F80818093BB0085EC83C080939B
S113321041058BC0E091860581E08E0F8093860581
S11332208091BB00F0E0E957FA4F808390918605C6
S1133230809185056BC0E091860581E08E0F8093B7
S113324086058091BB00F0E0E957FA4F80838091B6
S1133250AC0581116AC081E08093AB0584EA5EC04D
S113326083E08093AE0510924205CFCF8091420552
S1133270803208F04EC0E091420581E08E0F8093C9
S113328042058091BB00F0E0ED5BFA4F8083BDCF37
S11332900E94751880914205803230F4E091420515
S11332A0F0E0ED5BFA4F10826091420570E0E0912E
S11332B0A705F091A80583E495E0099510924205CD
S11332C036C084E08093AE051092640510926305C5
S11332D0E091A905F091AA050995809163058111F2
S11332E005C081E08093630510926505E091640553
S11332F081E08E0F80936405F0E0EB59FA4F8081F2
S11333008093BB009091640580916305981708F43D
S11333107CCF85E88093BC000AC085EC8093BC0018
S11333201092AE0504C0109241050E946B18FF91E3
S1133330EF91BF91AF919F918F917F916F915F9129
S11333404F913F912F910F900FBE0F901F901895A2
S11333508091E30590E02091E405821B9109089592
S11333609091E4058091E305981750F4E92FF0E07B
S1133370EB51FA4F208130E09F5F9093E40502C047
S11333802FEF3FEFC9010895E091E4058091E30533
S1133390E81730F4F0E0EB51FA4F808190E00895A3
S11333A08FEF9FEF08950895CF93DF93EC01E091A1
S11333B0BB05F091BC053097F1F09091E405809144
S11333C0E3059817C0F090E0292F30E0261737075F
S11333D054F4DE01A20FB31F4C91D901AB51BA4F83
S11333E04C939F5FF1CF1092E4056093E305CB010A
S11333F0DF91CF910994DF91CF910895E091BD05BC
S1133400F091BE05309729F01092C1051092C005C5
S113341009940895CF92DF92EF92FF920F931F9336
S1133420CF93DF937C01CB018A012091BF05222336
S113343089F0EB016B01C40ED51ECC15DD0569F0D6
S11334406991D701ED91FC910190F081E02DC701C4
S11334500995F3CF642F0E943918C801DF91CF91E9
S11334601F910F91FF90EF90DF90CF900895CF932D
S1133470DF931F92CDB7DEB769832091BF05222366
S1133480D1F02091C005203240F021E030E0FC0171
S11334903383228380E090E015C08091C105E82F3A
S11334A0F0E0EE53FA4F998190838F5F8093C105CA
S11334B08093C00505C061E0CE0101960E943918D1
S11334C081E090E00F90DF91CF910895FC01138289
S11334D0128288EE93E0A0E0B0E084839583A68313
S11334E0B78386E093E09183808308951092E40586
S11334F01092E3051092C1051092C0050E947D1739
S11335008EEF99E10E94661884ED99E10C9461189C
S113351081E08093BF056093E2051092C10510928B
S1133520C00508950F93062F21E04091C00562EC79
S113353075E08091E2050E94E3171092C105109294
S1133540C0051092BF050F9108954F925F926F923C
S11335507F92AF92BF92CF92EF92FF920F931F93FD
S1133560CF93DF935C01F62ED42F28013901EE208E
S113357021F10E94881ACE2DC43008F0C3E0C15056
S1133580C0F028E0C29FC0011124A301920104C02D
S113359056954795379527958A95D2F7CA01B9016B
S11335A0D501ED91FC910190F081E02DC5010995C3
S11335B0E6CF60E0C5010E94921A4D2FD13208F087
S11335C040E22C2D65EE75E08F2D0E949B17109222
S11335D0E4058093E305DF91CF911F910F91FF9054
S11335E0EF90CF90BF90AF907F906F905F904F908F
S11335F00895CF92EF920F931F93C22EE12C00E017
S113360010E098010E94A51A1F910F91EF90CF909E
S1133610089521E00C94F91A61E00C94921A8FEA4F
S113362095E00C94661A5058BB27AA270E942B1BBE
S11336300C94A51C0E94971C38F00E949E1C20F03C
S113364039F49F3F19F426F40C94941C0EF4E0957D
S1133650E7FB0C948E1CE92F0E94B61C58F3BA1792
S1133660620773078407950720F079F4A6F50C9494
S1133670D81C0EF4E0950B2EBA2FA02D0B01B90126
S113368090010C01CA01A0011124FF27591B99F0D4
S1133690593F50F4503E68F11A16F040A22F232FE0
S11336A0342F4427585FF3CF469537952795A79530
S11336B0F0405395C9F77EF41F16BA0B620B730BD7
S11336C0840BBAF09150A1F0FF0FBB1F661F771F48
S11336D0881FC2F70EC0BA0F621F731F841F48F4FD
S11336E0879577956795B795F7959E3F08F0B0CF86
S11336F09395880F08F09927EE0F9795879508956D
S11337000E946A1C08F481E008950E94991B0C949D
S1133710A51C0E949E1C58F00E94971C40F029F49E
S11337205F3F29F00C948E1C51110C94D91C0C94FD
S1133730941C0E94B61C68F39923B1F3552391F3AA
S1133740951B550BBB27AA2762177307840738F00C
S11337509F5F5F4F220F331F441FAA1FA9F335D069
S11337600E2E3AF0E0E832D091505040E695001C1D
S1133770CAF72BD0FE2F29D0660F771F881FBB1FD7
S1133780261737074807AB07B0E809F0BB0B802DB5
S1133790BF01FF2793585F4F3AF09E3F510578F0E1
S11337A00C948E1C0C94D91C5F3FE4F3983ED4F324
S11337B0869577956795B795F7959F5FC9F7880FB5
S11337C0911D9695879597F90895E1E0660F771F07
S11337D0881FBB1F621773078407BA0720F0621B98
S11337E0730B840BBA0BEE1F88F7E09508950E94C3
S11337F0FE1B6894B1110C94D91C08950E94BE1C40
S113380088F09F5798F0B92F9927B751B0F0E1F09D
S1133810660F771F881F991F1AF0BA95C9F714C04D
S1133820B13091F00E94D81CB1E008950C94D81CDA
S1133830672F782F8827B85F39F0B93FCCF3869586
S113384077956795B395D9F73EF4909580957095E3
S113385061957F4F8F4F9F4F0895E89409C097FB60
S11338603EF490958095709561957F4F8F4F9F4F53
S11338709923A9F0F92F96E9BB279395F695879597
S113388077956795B795F111F8CFFAF4BB0F11F45A
S113389060FF1BC06F5F7F4F8F4F9F4F16C0882301
S11338A011F096E911C0772321F09EE8872F762F37
S11338B005C0662371F096E8862F70E060E02AF078
S11338C09A95660F771F881FDAF7880F9695879564
S11338D097F90895990F0008550FAA0BE0E8FEEF39
S11338E016161706E807F907C0F012161306E407C0
S11338F0F50798F0621B730B840B950B39F40A26B9
S113390061F0232B242B252B21F408950A2609F496
S1133910A140A6958FEF811D811D089597F99F679A
S113392080E870E060E008959FEF80EC0895002443
S11339300A941616170618060906089500240A9410
S113394012161306140605060895092E0394000C96
S113395011F4882352F0BB0F40F4BF2B11F460FF25
S113396004C06F5F7F4F8F4F9F4F089557FD90584E
S1133970440F551F59F05F3F71F04795880F97FB2F
S1133980991F61F09F3F79F08795089512161306E9
S11339901406551FF2CF4695F1DF08C01616170618
S11339A01806991FF1CF869571056105089408954D
S11339B0E894BB2766277727CB0197F908950E94DF
S11339C06A1C08F48FEF08950E94F71C0C94A51C40
S11339D00E94971C38F00E949E1C20F0952311F041
S11339E00C948E1C0C94941C11240C94D91C0E94CD
S11339F0B61C70F3959FC1F3950F50E0551F629F5D
S1133A00F001729FBB27F00DB11D639FAA27F00D33
S1133A10B11DAA1F649F6627B00DA11D661F829F5A
S1133A202227B00DA11D621F739FB00DA11D621F3F
S1133A30839FA00D611D221F749F3327A00D611D5C
S1133A40231F849F600D211D822F762F6A2F11243E
S1133A509F5750409AF0F1F088234AF0EE0FFF1F71
S1133A60BB1F661F771F881F91505040A9F79E3FC8
S1133A70510580F00C948E1C0C94D91C5F3FE4F328
S1133A80983ED4F3869577956795B795F795E7951E
S1133A909F5FC1F7FE2B880F911D9695879597F927
S1133AA008950E94592ECF93DF931F92CDB7DEB7AE
S1133AB06983DC01ED91FC910280F381E02D41E00A
S1133AC050E0BE016F5F7F4F09950F90DF91CF915A
S1133AD00895CF93DF93EC018C859D8597FF05C0F6
S1133AE082E00E9439239D878C878C859D85DF9198
S1133AF0CF91089583E00E94502390E0089583E0DD
S1133B000C94CE25FC018485958597FD06C082E042
S1133B100E94E42290E00196089582E00E94E4224B
S1133B2090E00895FC018485958597FD05C02FEFED
S1133B303FEF35872487089582E00C943923CF938F
S1133B40DF93EC0180912301882331F083E00E940C
S1133B506A231816190634F081E090E09B838A8367
S1133B6080E090E0DF91CF910895EEEFFFE725919B
S1133B70349181E02B3F3C4D09F080E00895FC0135
S1133B8090819E5F908342E450E068EE70E080E8AC
S1133B900C941A24FC0181819081913A59F4813268
S1133BA009F065C047E050E06CE171E080E00E94FC
S1133BB01A245BC0913209F05AC0833269F48281BD
S1133BC09381A0E0B0E08093180190931901A09331
S1133BD01A01B0931B0149C0803239F467E070E0E8
S1133BE08CE191E00E94412440C0823209F03DC042
S1133BF08281809323010E94B51D882319F0EEEF82
S1133C00FAE002C0E0E0F8E080911C0190911D010F
S1133C10A0911E01B0911F01803B9440A105B10504
S1133C2041F58091230180FD24C0EE3F8AE0F8072E
S1133C3051F080819181873727E7920721F0909393
S1133C40FF0A8093FE0A87E797E791838083809138
S1133C506000809355069BE088E10FB6F894A89520
S1133C60809360000FBE9093600081E0089580E02F
S1133C7008958081918187379747B9F7A8958091F6
S1133C806000886180936000809155068093600095
S1133C90EE3F8AE0F80739F08091FE0A9091FF0A1E
S1133CA091838083E2CF1092FF0A1092FE0ADDCF47
S1133CB02FEF3FEFFC01358724870895E5E0F6E018
S1133CC01382128288EE93E0A0E0B0E084839583AF
S1133CD0A683B78388E193E0918380838FEF9FEF7E
S1133CE0958784870895FC01918D228D892F90E01A
S1133CF0805C9F4F821B91098F7399270895FC0163
S1133D00918D828D981731F0828DE80FF11D858D8C
S1133D1090E008958FEF9FEF0895FC01918D828DBF
S1133D20981761F0828DDF01A80FB11D5D968C910B
S1133D30928D9F5F9F73928F90E008958FEF9FEF16
S1133D400895FC01538D448D252F30E0842F90E09D
S1133D50821B930B541710F0CF9608950197089582
S1133D608AE090E2892B49F080E090E0892B29F0E9
S1133D700E940A2081110C9400000895FC01848D96
S1133D80DF01A80FB11DA35ABF4F2C91848D90E081
S1133D9001968F739927848FA689B7892C93A0895C
S1133DA0B1898C9182748C93938D848D981306C001
S1133DB00288F389E02D80818F7D80830895EF92BE
S1133DC0FF920F931F93CF93DF93EC0181E0888FD1
S1133DD09B8D8C8D981305C0E889F989808185FDB8
S1133DE026C0F62E0B8D10E00F5F1F4F0F731127A7
S1133DF0E02E8C8DE8120CC00FB607FCFACFE889D0
S1133E00F989808185FFF5CFCE010E94BE1EF1CFD6
S1133E108B8DFE01E80FF11DE35AFF4FF0829FB72F
S1133E20F8940B8FEA89FB898081806209C09FB76F
S1133E30F894EE89FF896083E889F9898081827426
S1133E4080839FBF81E090E0DF91CF911F910F911C
S1133E50FF90EF900895CF93DF93EC01888D882332
S1133E60C9F0EA89FB89808185FD05C0A889B989E3
S1133E708C9186FD0FC00FB607FCF5CF808185FFBE
S1133E80F2CFA889B9898C9185FFEDCFCE010E942C
S1133E90BE1EE7CFDF91CF910895CF92DF92EF92CC
S1133EA0FF921F93CF93DF93EC016A017B01122FE2
S1133EB0E889F98982E080834115514E61057105D5
S1133EC0B1F060E079E08DE390E0A70196010E94F3
S1133ED0172CDA01C9010197A109B109B695A79573
S1133EE0979587959C01211580E13807A8F0E8890A
S1133EF0F989108260E874E88EE190E0A7019601E8
S1133F000E94172CDA01C9010197A109B109B695DC
S1133F10A795979587959C01EC85FD853083EE8563
S1133F20FF852083188EEC89FD891083EA89FB893B
S1133F30808180618083EA89FB89808188608083B5
S1133F40EA89FB89808180688083EA89FB89808192
S1133F508F7D8083DF91CF911F91FF90EF90DF9051
S1133F60CF9008951F920F920FB60F9211242F93A2
S1133F708F939F93EF93FF93E0916606F09167060A
S1133F808081E0916C06F0916D0682FD12C09081F3
S1133F9080916F068F5F8F7320917006821751F0A6
S1133FA0E0916F06F0E0EA5AF94F958F80936F061F
S1133FB001C08081FF91EF919F918F912F910F907C
S1133FC00FBE0F901F9018951F920F920FB60F926D
S1133FD011242F933F934F935F936F937F938F930A
S1133FE09F93AF93BF93EF93FF9386E596E00E9470
S1133FF0BE1EFF91EF91BF91AF919F918F917F91E1
S11340006F915F914F913F912F910F900FBE0F9041
S11340101F90189586E596E00E94731E21E0892B77
S113402009F420E0822F0895E6E5F6E01382128277
S113403088EE93E0A0E0B0E084839583A683B78301
S11340408AE293E0918380838DEC90E09587848766
S11340508CEC90E09787868788EC90E0918B808B3E
S113406089EC90E0938B828B8AEC90E0958B848B27
S11340708EEC90E0978B868B118E128E138E148E9D
S1134080089508950E9442280E94412083EF96E0FB
S11340900E9459260E94100EC0EBDEE10E94F80E29
S11340A02097E1F30E94B01EF9CFCF92DF92EF92F6
S11340B0FF920F931F93CF93DF936C017A018B01CF
S11340C0C0E0D0E0CE15DF0581F0D8016D918D01FF
S11340D0D601ED91FC910190F081E02DC601099586
S11340E0892B11F02196EECF7E01C701DF91CF918C
S11340F01F910F91FF90EF90DF90CF90089561157D
S1134100710579F0FB0101900020E9F73197AF01C7
S1134110461B570BDC01ED91FC910280F381E02DED
S1134120099480E090E00895DB0114964D915C9130
S113413015976D917C91DC01ED91FC910280F381E6
S1134140E02D09940C947F20DC01ED91FC91019009
S1134150F081E02D09948F929F92AF92BF92EF92DB
S1134160FF920F931F93CF93DF93CDB7DEB7A19741
S11341700FB6F894DEBF0FBECDBF7C01FA01CB01B0
S113418019A2223008F42AE08E010F5D1F4F822EFF
S1134190912CA12CB12CBF01A50194010E94172CD4
S11341A0F901CA01015011096A3010F4605D01C0BF
S11341B0695CD8016C93232B242B252B61F7B80160
S11341C0C7010E947F20A1960FB6F894DEBF0FBEF0
S11341D0CDBFDF91CF911F910F91FF90EF90BF90D2
S11341E0AF909F908F9008952115310541F4DC0123
S11341F0ED91FC910190F081E02D642F09940C94D1
S1134200AB209A01AB0160E070E00C94F420CF92F3
S1134210DF92EF92FF920F931F93CF93DF932115B9
S1134220310581F4DC01ED91FC910190F081E02DE8
S1134230642FDF91CF911F910F91FF90EF90DF904A
S1134240CF9009942A30310501F577FF1DC06A012A
S11342507B01EC016DE20E94A4208C0144275527C8
S1134260BA014C195D096E097F092AE0CE010E944A
S1134270AB20800F911FDF91CF911F910F91FF9081
S1134280EF90DF90CF9008952AE0DF91CF911F91B6
S11342900F91FF90EF90DF90CF900C94AB209A0198
S11342A0AB01770F660B770B0C9407217F928F92EB
S11342B09F92AF92BF92CF92DF92EF92FF920F93B1
S11342C01F93CF93DF938C016A017B01722E9A01B5
S11342D0AB01C701B6010E94FE2B882319F06BE3E2
S11342E073E027C046015701E894B7F82FEF3FEF7A
S11342F04FE75FE7C501B4010E94FE2B81110DC099
S11343002FEF3FEF4FE75FE7C501B4010E94801B29
S113431018161CF46FE373E00CC02FEF3FEF4FE768
S11343205FE4C701B6010E94DF1C181694F463E42D
S113433073E0C801DF91CF911F910F91FF90EF902F
S1134340DF90CF90BF90AF909F908F907F900C9410
S11343507F202FEF3FEF4FE75FECC701B6010E94CC
S1134360801B87FDE4CF20E030E0A901C701B6013E
S11343700E94801B87FF0AC06DE2C8010E94A4202E
S1134380EC01F7FAF094F7F8F09402C0C0E0D0E042
S1134390B12C60E070E080E09FE37B1441F020E00A
S11343A030E040E251E40E94851BB394F6CFA701AC
S11343B096010E94141B6B017C010E94FE1B4B01A1
S11343C05C012AE0AB01BC01C8010E94AB20C80F0C
S11343D0D91F7720B9F1C501B4010E942D1C9B019E
S11343E0AC01C701B6010E94131B6B017C016EE294
S11343F0C8010E94A420C80FD91F20E030E040E289
S113440051E4C701B6010E94E41C4B015C010E9407
S1134410FE1B6B017C014AE050E0C8010E940121AF
S1134420C80FD91FB60180E090E00E942D1C9B01AB
S1134430AC01C501B4010E94131B6B017C017A9489
S11344407110DBCFCE01DF91CF911F910F91FF90BF
S1134450EF90DF90CF90BF90AF909F908F907F9020
S113446008950C945621615030F02091F100FC0124
S113447020830196F8CF289884E68093FB0608955C
S11344804091F6065091F7062091F4063091F50616
S113449042175307B4F49091E8009570E1F39091BA
S11344A0E80092FD19C08093F1008091F606909186
S11344B0F70601968F739927892B19F48EEF809351
S11344C0E8008091F6069091F70601969093F7061E
S11344D08093F60681E0089580E00895DF92EF92DC
S11344E0FF920F931F93CF93DF93D82EF92EE42ED0
S11344F0062F10E0C8010196880F0E94402283E035
S11345000E944022CD2DDF2D0C0F1D1FC017D10797
S113451089F0E7FE03C0FE01849101C088810E94F6
S11345204022F82E80E00E9440228F2121968111A2
S1134530EDCF01C081E0DF91CF911F910F91FF90EA
S1134540EF90DF9008958091D70081608093D70029
S113455080EA8093D80089B5806189BD89B582607D
S113456089BD09B400FEFDCF61E070E080E090E019
S11345700E94FB278091D8008F7C80618093D800B3
S11345808091E000807F8093E0000895CF93DF93D3
S11345901F92CDB7DEB71982CE0101960E94BF1DCE
S11345A00E94EA2BBE016F5F7F4F0E94652B8981B9
S11345B00F90DF91CF9108952FB7FC012083F894D9
S11345C067706093E9000895CF93DF931F92CDB78E
S11345D0DEB7682FCE0101960E94DC228091F200A2
S11345E099819FBF0F90DF91CF910895EF92FF9231
S11345F00F931F93CF93DF931F92CDB7DEB79091A4
S1134600FA06992311F057FF03C08FEF9FEF29C0DB
S11346108A017B01682FCE0101960E94DC22209141
S1134620F20030E0021713070CF49801822FF7010F
S113463094E6815038F028989093FB064091F1005D
S11346404193F7CF2115310521F08091F2008823A1
S113465021F089818FBFC90104C08BE68093E800F3
S1134660F8CF0F90DF91CF911F910F91FF90EF90B2
S11346700895CF93DF931F92CDB7DEB741E050E0AA
S1134680BE016F5F7F4F0E94F622019719F4898162
S113469090E002C08FEF9FEF0F90DF91CF910895CC
S11346A0CF93DF931F92CDB7DEB7682FCE0101966B
S11346B00E94DC229091E800892F807295FF04C04B
S11346C09091F20080E4891B99819FBF0F90DF9144
S11346D0CF9108955F926F927F928F929F92AF9243
S11346E0BF92CF92DF92EF92FF920F931F93CF93DB
S11346F0DF931F92CDB7DEB7982E6B01B42E052F32
S11347008091FA06811103C08FEF9FEF77C08091EB
S1134710F80680FF05C08091E00082608093E0008D
S1134720EB2CF02EA12C8AEF882E892D8072682E16
S1134730892D8074582E9AE3792EE114F10419F42A
S1134740AA2009F455C0892D0E945023182F8111E5
S11347500AC08A948820C1F261E070E080E090E0B1
S11347600E94FB27EACF90E0E816F9060CF41E2D10
S1134770692DCE0101960E94DC228091E80085FF1C
S113478034C0812F90E0E81AF90A662029F011500C
S1134790A0F01092F100FBCFF60197FE0AC0115071
S11347A050F024912093F1003196F9CF2191209378
S11347B0F1001150D8F7C80ED91EAA2019F0709232
S11347C0E8000BC08091E80085FD09C07092E80004
S11347D0AA24A394E114F10441F0A12C06C0E1142D
S11347E0F10419F451107092E80089818FBFA5CFAC
S11347F05D9884E68093FC068B2D902F0F90DF91BB
S1134800CF911F910F91FF90EF90DF90CF90BF90C9
S1134810AF909F908F907F906F905F9008951092CB
S1134820E9001092F7061092F6069093F50680932D
S1134830F4060895DF92EF92FF920F931F93CF93A4
S1134840DF93D82E8A017B01E40EF51EEB01CE1511
S1134850DF0571F0D7FE03C0FE01849101C0888199
S11348600E94402221968111F2CF8FEF9FEF01C069
S1134870C801DF91CF911F910F91FF90EF90DF90CE
S11348800895AF92BF92DF92EF92FF920F931F931E
S1134890CF93DF935C018B01EB019BEFD92E209723
S11348A0C1F07E01C134D1051CF080E4E82EF12C66
S11348B08091E80082FFFCCFC8018C1B9D0B6E2DFC
S11348C08A0D9B1D0E943322D092E800CE19DF0985
S11348D0E6CFC801DF91CF911F910F91FF90EF9028
S11348E0DF90BF90AF9008951F920F920FB60F9272
S11348F01124CF92DF92EF92FF920F931F932F9385
S11349003F934F935F936F937F938F939F93AF9353
S1134910BF93EF93FF93CF93DF93CDB7DEB76C973D
S1134920DEBFCDBF1092E9008091E80083FF17C17C
S113493068E0CE0145960E94332282EF8093E8001E
S11349408D8987FF05C09091E80090FFFCCF03C0DC
S11349509EEF9093E800982F907609F0D8C09E8936
S11349604F89588D2F89188D91110CC0803829F4E6
S11349708091F9068093F10002C01092F100109228
S1134980F100E6C0913051F48111E2C0413051058B
S113499009F0DEC08091F9068D7F0BC0933061F47D
S11349A08111D6C04130510509F0D2C08091F90679
S11349B082608093F906CCC0953049F48091E80078
S11349C080FFFCCF822F80688093E300C1C09630C3
S11349D009F070C0EB8CFC8C123069F580E090E03B
S11349E00E940F240E94C62299E09E012F5F3F4F30
S11349F06901F901292F11922A95E9F799831A83FC
S1134A0091E09E8390EA98879AEF99872091F60621
S1134A103091F706275F3F4F3C832B838D83C7017B
S1134A200E940F2449E050E0B60180E00E941A245D
S1134A300E94C6228DC0C7010E940F240E94EA2B47
S1134A40BE016B5E7F4F0E948E2B009719F00CF015
S1134A507FC082C0113009F470C0133009F07CC0EB
S1134A608F89882309F46CC0823029F440E860E11E
S1134A7088E491E006C0813039F440E86BE08CE3CF
S1134A8091E00E946E2256C0833009F065C00E94F6
S1134A90EA2B8E010F5F1F4FB8010E94AD2BF80166
S1134AA001900020E9F73197BF01601B710B40E0D2
S1134AB0C801E7CF973009F44FC0983021F481E062
S1134AC08093F10045C0993009F042C0837009F029
S1134AD043C0E5E2F1E081E031E096E32081211179
S1134AE009C08EE78093EA001092EA008F898093D0
S1134AF0FA062EC08093E9003093EB0021912093B5
S1134B00EC009093ED008F5F873041F7EACF8B8DF7
S1134B109C8D0E940F24898D811105C0CE0145967C
S1134B200E94CA1D07C00E94EA2BBE016B5E7F4F24
S1134B300E94CC2B882381F00BC06AE271E002C092
S1134B4069E571E0FB01449150E080E80E941A2479
S1134B508EEF8093E80003C081E28093EB006C96B3
S1134B600FB6F894DEBF0FBECDBFDF91CF91FF919A
S1134B70EF91BF91AF919F918F917F916F915F91D1
S1134B804F913F912F911F910F91FF90EF90DF90E4
S1134B90CF900F900FBE0F901F9018958093E9004F
S1134BA08091F200882319F08AE38093E800089545
S1134BB01F920F920FB60F9211242F933F934F938E
S1134BC05F936F937F938F939F93AF93BF93CF9391
S1134BD0EF93FF93C091E1008091E100837F809384
S1134BE0E100C3FF0FC01092E90081E08093EB0065
S1134BF01092EC0082E38093ED001092FA0688E0B4
S1134C008093F000C2FF19C083E00E94CE258091FA
S1134C10FC06882339F08091FC0681508093FC06C1
S1134C20882389F18091FB06882339F08091FB0663
S1134C3081508093FB06882341F1C4FF10C080910A
S1134C40E2008E7E81608093E2008091E1008F7E9D
S1134C508093E1008091F8068E7E806111C0C0FFD0
S1134C6016C08091E2008E7E80618093E200809184
S1134C70E1008E7E8093E1008091F8068E7E816053
S1134C808093F80604C05D9ACDCF289AD6CFFF91C1
S1134C90EF91CF91BF91AF919F918F917F916F9140
S1134CA05F914F913F912F910F900FBE0F901F90E6
S1134CB018951092FA061092F9061092F8060E94BE
S1134CC0A322E1EEF0E080818E7E80838DE08093EC
S1134CD0E200559A209A08950895853008F04CC052
S1134CE0E82FF0E0EE0FFF1FE55DFE4F7183608358
S1134CF08230E1F018F4813069F004C0833019F196
S1134D00843071F1809169008C7F482B4093690055
S1134D10E89A089580916900837F440F551F440FDA
S1134D20551F482B40936900E99A089580916900C2
S1134D308F7C34E0440F551F3A95E1F7482B40939C
S1134D406900EA9A0895809169008F7326E0440F00
S1134D50551F2A95E1F7482B40936900EB9A089573
S1134D6080916A008F7C94E0440F551F9A95E1F777
S1134D70482B40936A00EE9A08951F920F920FB643
S1134D800F9211242F933F934F935F936F937F93CD
S1134D908F939F93AF93BF93EF93FF93E0912B0176
S1134DA0F0912C010995FF91EF91BF91AF919F91E3
S1134DB08F917F916F915F914F913F912F910F90C0
S1134DC00FBE0F901F9018951F920F920FB60F925F
S1134DD011242F933F934F935F936F937F938F93FC
S1134DE09F93AF93BF93EF93FF93E0912D01F091C5
S1134DF02E010995FF91EF91BF91AF919F918F91F2
S1134E007F916F915F914F913F912F910F900FBEC2
S1134E100F901F9018951F920F920FB60F921124A6
S1134E202F933F934F935F936F937F938F939F93AE
S1134E30AF93BF93EF93FF93E0912F01F091300173
S1134E400995FF91EF91BF91AF919F918F917F91C0
S1134E506F915F914F913F912F910F900FBE0F90E3
S1134E601F9018951F920F920FB60F9211242F9333
S1134E703F934F935F936F937F938F939F93AF93DE
S1134E80BF93EF93FF93E0913101F09132010995C3
S1134E90FF91EF91BF91AF919F918F917F916F910E
S1134EA05F914F913F912F910F900FBE0F901F90E4
S1134EB018951F920F920FB60F9211242F933F93C0
S1134EC04F935F936F937F938F939F93AF93BF930E
S1134ED0EF93FF93E0913301F09134010995FF9131
S1134EE0EF91BF91AF919F918F917F916F915F915E
S1134EF04F913F912F910F900FBE0F901F901895D7
S1134F001F920F920FB60F9211242F933F938F93FA
S1134F109F93AF93BF938091FE069091FF06A0915B
S1134F200007B09101073091FD0623E0230F2D37D0
S1134F3020F40196A11DB11D05C026E8230F029699
S1134F40A11DB11D2093FD068093FE069093FF06DC
S1134F50A0930007B0930107809102079091030783
S1134F60A0910407B09105070196A11DB11D80937E
S1134F70020790930307A0930407B0930507BF911A
S1134F80AF919F918F913F912F910F900FBE0F90F2
S1134F901F9018952FB7F8946091FE067091FF0644
S1134FA080910007909101072FBF08953FB7F894AF
S1134FB08091020790910307A0910407B09105071F
S1134FC026B5A89B05C02F3F19F00196A11DB11D60
S1134FD03FBFBA2FA92F982F8827820F911DA11D9B
S1134FE0B11DBC01CD0142E0660F771F881F991FD8
S1134FF04A95D1F708958F929F92AF92BF92CF9224
S1135000DF92EF92FF926B017C010E94D6274B0145
S11350105C01C114D104E104F10401F10E94642B88
S11350200E94D627DC01CB0188199909AA09BB097A
S1135030883E9340A105B10560F321E0C21AD1086E
S1135040E108F10888EE880E83E0981EA11CB11CCB
S1135050C114D104E104F10419F7DBCFFF90EF9000
S1135060DF90CF90BF90AF909F908F900895823043
S1135070910538F0880F991F880F991F059701979C
S1135080F1F70895789484B5826084BD84B5816015
S113509084BD85B5826085BD85B5816085BDEEE63C
S11350A0F0E0808181608083E1E8F0E0108280811B
S11350B082608083808181608083E0E8F0E0808189
S11350C081608083E1E9F0E0808182608083808177
S11350D081608083E0E9F0E0808181608083E1EC9D
S11350E0F0E080818460808380818260808380811D
S11350F081608083E3ECF0E0808181608083E0EC78
S1135100F0E0808182608083E2ECF0E08081816065
S11351108083EAE7F0E0808184608083808182601C
S1135120808380818160808380818068808308950A
S1135130823108F08251E82FF0E0E35AFE4FE49107
S113514080917B00E3FB222720F930E095E0220FD9
S1135150331F9A95E1F78F7D282B20937B00809154
S1135160350120E4829FC0011124E770E82BE0930D
S11351707C0080917A00806480937A0080917A0028
S113518086FDFCCF809178002091790090E0922BED
S113519008951F93CF93DF93182FEB0161E00E94D2
S11351A09E29209711F460E004C0CF3FD10539F463
S11351B061E0812FDF91CF911F910C94DA29E12FC7
S11351C0F0E0E759FE4FE4918E2F90E0FC01319717
S11351D0EF30F10508F06CC0EA5AFF4F0C94582CDC
S11351E084B5806884BDC7BD68C084B5806284BD51
S11351F0C8BD63C080918000806880938000D09394
S11352008900C093880059C0809180008062809397
S11352108000D0938B00C0938A004FC0809180009F
S1135220886080938000D0938D00C0938C0045C02B
S113523080919000806880939000D0939900C093EF
S113524098003BC080919000806280939000D0933E
S11352509B00C0939A0031C0809190008860809335
S11352609000D0939D00C0939C0027C08091C00003
S113527080688093C0008091C0008F7B8093C000C1
S1135280C093CF001AC08091C00080628093C00098
S1135290C093D00012C08091C20088608093C20085
S11352A08091C2008B7F8093C200C093D20005C05E
S11352B0C038D1050CF07CCF76CFDF91CF911F9110
S11352C0089590E0FC013197EF30F105B0F5EB590A
S11352D0FF4F0C94582C809180008F7703C08091ED
S11352E080008F7D80938000089580918000877F67
S11352F0F9CF84B58F7702C084B58F7D84BD0895BE
S1135300809190008F7707C0809190008F7D03C0BB
S113531080919000877F8093900008958091C000D1
S11353208F7703C08091C0008F7D8093C000089563
S11353308091C200877F8093C2000895CF93DF934A
S113534090E0FC01E857FE4F2491FC01E955FE4F23
S11353508491882361F190E0880F991FFC01EE513C
S1135360FE4FC591D491FC01EC52FE4FA591B4912E
S1135370611109C09FB7F89488812095822388839E
S1135380EC912E230BC0623061F49FB7F8948881AE
S1135390322F309583238883EC912E2B2C939FBF3F
S11353A006C08FB7F894E8812E2B28838FBFDF9136
S11353B0CF9108951F93CF93DF93282F30E0F90105
S11353C0E759FE4F8491F901E857FE4FD491F90152
S11353D0E955FE4FC491CC23C1F0162F81110E94D0
S11353E06129EC2FF0E0EE0FFF1FEC52FE4FA59168
S11353F0B4919FB7F894111104C08C91D095D8231F
S113540002C0EC91DE2BDC939FBFDF91CF911F9103
S11354100895CF93DF93282F30E0F901E759FE4F29
S11354208491F901E857FE4FD491F901E955FE4FF3
S1135430C491CC2391F081110E946129EC2FF0E0FA
S1135440EE0FFF1FEA53FE4FA591B491EC91ED23AB
S113545081E090E021F480E002C080E090E0DF9100
S1135460CF9108950895FC01808191810C940A2DB7
S1135470CF93DF93EC0188819981009711F00E940A
S11354800A2D198218821D821C821B821A82DF91C6
S1135490CF9108950F931F93CF93DF93EC018B016A
S11354A06F5F7F4F888199810E94932D009731F01F
S11354B0998388831B830A8381E001C080E0DF91A4
S11354C0CF911F910F910895CF93DF93EC018881C1
S11354D09981892B29F08A819B818617970760F42B
S11354E0CE010E944A2A882341F08C819D81892B18
S11354F019F4E881F981108281E0DF91CF91089558
S1135500EF92FF920F931F93CF93DF93EC017B01F4
S11355108A01BA010E94642A811104C0CE010E944A
S1135520382A07C01D830C83B701888199810E94A2
S11355308E2ECE01DF91CF911F910F91FF90EF90AE
S11355400895FC0111821082138212821582148242
S11355506115710551F0FB0101900020E9F73197C5
S1135560AF01461B570B0C94802A08950F931F9389
S1135570CF93DF938C01EB01FC0180819181009733
S1135580D1F0688179816115710599F022E33AE2DD
S1135590232B79F0428153812C813D81421753079B
S11355A040F00E948E2E8C819D81F8019583848326
S11355B013C00E940A2D88819981F8019183808308
S11355C08A819B81938382838C819D81958384834B
S11355D0198218821B821A821D821C82DF91CF914C
S11355E01F910F910895CF93DF93EC01681779070A
S11355F011F00E94B62ACE01DF91CF910895CF9386
S1135600DF93EC016115710559F0FB010190002055
S1135610E9F73197AF01461B570B0E94802A02C05D
S11356200E94382ACE01DF91CF9108950F931F93E2
S1135630CF93DF93CDB7DEB7A2970FB6F894DEBF52
S11356400FBECDBF8C01CB01BA01F80111821082CB
S1135650138212821582148230E0AE014F5F5F4FD5
S11356600E94AF2EBE016F5F7F4FC8010E94FF2AC8
S1135670A2960FB6F894DEBF0FBECDBFDF91CF91D7
S11356801F910F910895CF93DF93FC0124813581FD
S11356904217530780F4FB01DC01CD91DC9160815A
S11356A07181CE01840F951F0E94952E009719F0E9
S11356B08C1B9D0B02C08FEF9FEFDF91CF9108955C
S11356C040E050E00C94432B0895EF92FF920F9327
S11356D01F93CF93DF937B01FC01C281D38100E050
S11356E010E0209781F0E881F9810280F381E02DB8
S11356F0B701CE01099597FD08C0080F191F08844A
S1135700D985C02DEECFC80102C08FEF9FEFDF9186
S1135710CF911F910F91FF90EF9008950F931F93D6
S1135720CF93DF938B01FC01C281D381209771F069
S1135730E881F9810480F581E02DB801CE01099555
S1135740009731F40884D985C02DF0CF80E090E033
S1135750DF91CF911F910F9108950F931F93CF93D2
S1135760DF938B01FC01C281D381209771F0E88122
S1135770F9810680F781E02DB801CE010995080F63
S1135780111D0884D985C02DF0CFF8011082DF9156
S1135790CF911F910F9108950F931F93CF93DF9390
S11357A08B01FC01C281D381209771F0E881F981DA
S11357B00190F081E02DB801CE010995811105C059
S11357C00884D985C02DF0CF80E0DF91CF911F915F
S11357D00F91089580910A0781110DC082E0809392
S11357E0060784E0809307071092090710920807C0
S11357F081E080930A0786E097E008950E946A1C7E
S1135800880B990B089597FB072E16F4009407D084
S113581077FD09D00E945E2C07FC05D03EF49095DC
S113582081959F4F0895709561957F4F0895A1E2EA
S11358301A2EAA1BBB1BFD010DC0AA1FBB1FEE1F06
S1135840FF1FA217B307E407F50720F0A21BB30B51
S1135850E40BF50B661F771F881F991F1A9469F7CD
S113586060957095809590959B01AC01BD01CF0129
S11358700895052E97FB1EF400940E94502C57FDAA
S113588007D00E94172C07FC03D04EF40C94502C24
S113589050954095309521953F4F4F4F5F4F089558
S11358A090958095709561957F4F8F4F9F4F089588
S11358B0EE0FFF1F0590F491E02D0994AA1BBB1B6A
S11358C051E107C0AA1FBB1FA617B70710F0A61BFC
S11358D0B70B881F991F5A95A9F780959095BC011D
S11358E0CD0108950F931F93CF93DF9382309105D9
S11358F010F482E090E0E0911407F091150720E0A5
S113590030E0A0E0B0E0309719F14081518102818C
S1135910138148175907C8F08417950769F410973D
S113592031F012960C93129713961C9327C0009390
S113593014071093150722C02115310519F04217D9
S1135940530718F49A01BD01EF01DF01F801DBCF21
S113595021153105F9F0281B390B2430310580F469
S11359608A819B816115710521F0FB0193838283F8
S113597004C09093150780931407FE01329644C027
S1135980FE01E20FF31F8193919322503109398371
S113599028833AC02091120730911307232B41F436
S11359A020910201309103013093130720931207D1
S11359B020910001309101012115310541F42DB7E9
S11359C03EB74091040150910501241B350BE09131
S11359D01207F0911307E217F307A0F42E1B3F0BF5
S11359E02817390778F0AC014E5F5F4F241735074D
S11359F048F04E0F5F1F5093130740931207819393
S1135A00919302C0E0E0F0E0CF01DF91CF911F91CC
S1135A100F910895CF93DF93009709F481C0FC019F
S1135A20329713821282A0911407B0911507109730
S1135A3081F420813181820F931F209112073091CC
S1135A4013072817390751F5F0931307E09312074A
S1135A5067C0ED0120E030E0CE17DF0740F44A8153
S1135A605B819E0141155105F1F0EA01F5CFD38325
S1135A70C28340815181840F951FC817D90759F4F7
S1135A8088819981840F951F0296918380838A81EE
S1135A909B81938382832115310529F4F0931507A3
S1135AA0E09314073DC0E901FB83EA8349915991CE
S1135AB0C40FD51FEC17FD0761F480819181840F19
S1135AC0951F0296E90199838883828193819B8340
S1135AD08A83E0E0F0E012968D919C9113970097F1
S1135AE019F0FD01DC01F7CF8D919C9111979D0177
S1135AF02E5F3F4F820F931F20911207309113079F
S1135B002817390769F4309729F410921507109271
S1135B10140702C013821282B0931307A0931207D2
S1135B20DF91CF910895A0E0B0E0E9E9FDE20C94A3
S1135B30142FEC01009721F4CB010E94722CB4C005
S1135B40FC01E60FF71F9C0122503109E217F3070D
S1135B5008F4A8C0D9010D911C91119706171707D5
S1135B60B0F00530110508F49BC0C80104978617EE
S1135B70970708F495C002501109061B170B0193EF
S1135B8011936D937C93CF010E940A2D89C05B0110
S1135B90A01AB10A4C01800E911EA0911407B09175
S1135BA01507612C712CE12CF12C109709F446C0D7
S1135BB08D919C911197A815B905B1F56C0142E03E
S1135BC0C40ED11CCA14DB0478F14C018A189B085A
S1135BD0640142E0C40ED11C1296BC901297139635
S1135BE0AC91B5E0CB16D10440F0B282A38391828C
S1135BF08082D9016D937C9309C00E5F1F4F800F83
S1135C00911FF90191838083EB2DFA2FE114F104A4
S1135C1031F0D7011396FC93EE93129741C0F093A1
S1135C201507E09314073CC06816790608F43C0194
S1135C307D0112960D90BC91A02DB7CF80911207D3
S1135C409091130788169906E1F466167706C8F44E
S1135C508091000190910101009741F48DB79EB7A6
S1135C604091040150910501841B950BE817F90735
S1135C70C8F4F0931307E0931207F901718360836A
S1135C800FC0CB010E94722C7C01009759F0A8012F
S1135C90BE010E94852ECE010E940A2DC70104C0B8
S1135CA0CE0102C080E090E0CDB7DEB7EEE00C9408
S1135CB0302F81E090E0F8940C94472F1F93FC015F
S1135CC099278827BC01E89411911032E9F319301F
S1135CD010F01E30C8F31B3251F01D3249F46894A1
