:100000000C94DF000C9407010C9407010C94070179
:100010000C9407010C9407010C9407010C94070140
:100020000C9407010C9407010C94E40F0C94800EBF
:100030000C9407010C9407010C9407010C94070120
:100040000C9407010C9407010C9407010C94070110
:100050000C9407010C9407010C9407010C94781080
:100060000C9407010C9407010C9407010C940701F0
:100070000C9407010C9407010C9407010C940701E0
:100080000C9407010C9407010C9407010C940701D0
:100090000C94B1080C9407010C9407010C9407010F
:1000A0000C9407010C9407010C9407019111941111
:1000B000831187118D11B511B511B51198119C11CE
:1000C000A011A611AA11B511B01112010002EF0280
:1000D0000140412336800001010203014172647531
:1000E000696E6F204C4C430041726475696E6F20DD
:1000F0004C656F6E6172646F0004030904000000B8
:100100000200090F0000030401000C0000000000C1
:1001100000000000000000000000000004080201D0
:100120001040804010204080408008020401804040
:100130002010020110801020404020040404040418
:10014000030405020202020403020202020606067A
:100150000606060404020202040400000000250052
:1001600028002B002E003100000000002400270092
:100170002A002D003000080B0002020201000904D1
:100180000000010202000005240010010524010105
:10019000010424020605240600010705810310005E
:1001A0004009040100020A000000070502024000A5
:1001B0000007058302400000A801450B2613112407
:1001C0001FBECFEFDAE0DEBFCDBF11E0A0E0B1E0AF
:1001D000E8E0F8E202C005900D92AC37B107D9F71C
:1001E00022E0ACE7B1E001C01D92AF3DB207E1F7FC
:1001F00010E0CFEDD0E004C02197FE010E94F7137C
:10020000CC3DD107C9F70E944C0B0C9402140C94FE
:10021000000080E090E0089508958DEF9FEF08952D
:100220000F931F93CF93DF93182FD0E0C0E26C2F72
:1002300089E192E00E94BE0A89E192E00E94420BAD
:10024000082F61E070E080E090E00E94E71001116B
:1002500003C01D17F9F0DF5FCF5FC83241F7C8E375
:100260006C2F89E192E00E94BE0A89E192E00E942F
:10027000420B082F61E070E080E090E00E94E71000
:10028000011103C01D1731F0DF5FCF5FC03441F7AC
:1002900080E001C08C2FDF91CF911F910F910895C5
:1002A000DC01ED91FC910190F081E02D099420E0BA
:1002B00042E060E18EE791E00E948B06009729F012
:1002C0009195819591090E94A3078EE791E00E9484
:1002D00079068EE791E00E94830663E171E08EE784
:1002E00091E00E949E0B10927D0110927C01089576
:1002F00068EE73E080E090E00E94E7108EE791E006
:100300000E94510661E271E08EE791E00E949E0B2F
:1003100060917C0170917D014AE050E08EE791E0B0
:100320000E94380C42E060E08EE791E00E945406A3
:1003300068E271E08EE791E00E949E0B80917C0163
:1003400090917D01019690937D0180937C010895A9
:100350008EE791E00E94DD05EEE7F1E08FE291E0AB
:100360009183808310A211A20895CF93DF93FC01A3
:1003700081A5882371F192A5662319F0913029F4A3
:1003800002C0911102C083A701C013A6EF0160A1B2
:1003900089E192E00E94BE0A89A1823031F469E0CD
:1003A00070E089E192E00E9450016BA589E192E042
:1003B0000E946D0A89E192E00E94420B21E030E048
:1003C000811102C020E030E088279927821B930B1F
:1003D00002C08DEF9FEFDF91CF910895CF93FC0185
:1003E000C3A560FF02C085A1C82B61FF02C086A122
:1003F000C82B62FF02C087A1C82B63FF02C080A583
:10040000C82B413011F482A1C82B64A16C2B70E081
:1004100089E192E00E9450016C2F89E192E0CF9136
:100420000C946D0A8F929F92AF92BF92CF92DF92FF
:10043000EF92FF920F931F93CF93DF93EC0188A16C
:10044000882309F450C089A1882309F44CC0142FD3
:10045000062F8C8C9D8CAE8CBF8CC88CD98CEA8C72
:10046000FB8C8DE2C81AD108E108F1080E94C21085
:10047000DC01CB018C199D09AE09BF0988159905CE
:10048000AA05BB0598F368A189E192E00E94BE0A23
:1004900089A1823031F469E070E089E192E00E9444
:1004A0005001612F70E084E0759567958A95E1F7BA
:1004B000402FCE010E94EE01023031F0612F6F70AB
:1004C000402FCE010E94EE0189E192E00E94420B92
:1004D00021E030E0811102C020E030E08827992738
:1004E000821B930B02C08CEF9FEFDF91CF911F9186
:1004F0000F91FF90EF90DF90CF90BF90AF909F90C3
:100500008F9008958F929F92AF92BF92CF92DF9279
:10051000EF92FF920F931F93CF93DF93EC011BA5F4
:1005200088A1882309F4F6C089A1882309F4F2C0C0
:10053000823009F4F1C08BA1882309F4EDC0062FA5
:100540008C8C9D8CAE8CBF8CC88CD98CEA8CFB8C2F
:100550008DE2C81AD108E108F1080E94C210DC013E
:10056000CB018C199D09AE09BF0988159905AA050B
:10057000BB0598F38DA1182B8EA1182B8FA1182BDA
:1005800088A5182B013011F48AA1182B8BA1182BE8
:1005900068A189E192E00E94BE0A612F89E192E0A0
:1005A0000E946D0A89E192E00E94420B882319F0B3
:1005B0000FEF1FEF9DC068A189E192E00E94BE0A83
:1005C0006CA1612B70E089E192E00E94500189E109
:1005D00092E00E94420B8111EBCF68A170E041E0F4
:1005E00050E089E192E00E943F0B89E192E00E9495
:1005F000E6097C0197FDDCCF68A189E192E00E94C9
:10060000BE0A612F89E192E00E946D0A89E192E0C1
:100610000E94420B8111CCCF8DA190E08E219F21B1
:10062000892B11F400E001C000E18EA190E08E2141
:100630009F21892B09F000628FA190E08E219F21DC
:10064000892B09F0006488A590E0E822F922EF28C0
:1006500009F0006868A189E192E00E94BE0A6CA1DD
:10066000612B70E089E192E00E94500189E192E003
:100670000E94420B81119CCF68A170E041E050E0E4
:1006800089E192E00E943F0B89E192E00E94E60935
:100690007C0197FD8DCF68A189E192E00E94BE0A9E
:1006A000612F89E192E00E946D0A89E192E00E9447
:1006B000420B81117DCF8DA190E08E219F21892B4E
:1006C00009F001608EA190E08E219F21892B09F015
:1006D00002608FA190E08E219F21892B09F0046098
:1006E00088A590E0E822F922EF2809F0086010E0E0
:1006F00068A189E192E00E94BE0A6BA589E192E0BF
:100700000E946D0A89E192E00E94420B882339F031
:100710008FEF03C08CEF01C08DEF9FEF01C0C801C8
:10072000DF91CF911F910F91FF90EF90DF90CF90CD
:10073000BF90AF909F908F9008950F931F93CF938A
:10074000DF93EC0168A189E192E00E94BE0A6FEF9D
:1007500089E192E00E946D0A89E192E00E94420BD9
:1007600068A170E041E050E089E192E00E943F0B17
:1007700089E192E00E94E6098C0168A189E192E09A
:100780000E94BE0A6BEF89E192E00E946D0A89E146
:1007900092E00E94420B68A170E041E050E089E1E4
:1007A00092E00E943F0B89E192E00E94E6099801E5
:1007B0002770332727303105B1F4807F9927803F98
:1007C000910589F483E0169507958A95E1F781E014
:1007D0000827017043E057E066E075E0E4E022E0BE
:1007E000F1E030E034C0C801807799278037910567
:1007F00009F068C068A189E192E00E94BE0A6FEE2C
:1008000089E192E00E946D0A89E192E00E94420B28
:1008100068A170E041E050E089E192E00E943F0B66
:1008200089E192E00E94E6098F7099270F9719F0ED
:1008300026E034E002C024E036E00095001F0027E7
:10084000001F47E053E062E071E0E0E0F5E081E0A6
:1008500090E0DC0101C0AA0F3A95EAF7AAA3DC01F7
:1008600001C0AA0FFA95EAF7ABA3DC0102C0AA0FF8
:10087000BB1F2A95E2F7ACA39C0101C0220FEA95A9
:10088000EAF72DA39C0101C0220F7A95EAF72EA367
:100890009C0101C0220F6A95EAF72FA39C0101C0B9
:1008A000220F5A95EAF728A701C0880F4A95EAF760
:1008B00089A70AA7013011F48BA701C01BA680E00D
:1008C00090E002C08DEF9FEFDF91CF911F910F91CC
:1008D0000895CF93DF93EC0168A189E192E00E9433
:1008E000BE0A60E089E192E00E946D0A6FEF70E05D
:1008F00089E192E00E94500189E192E00E94420B5E
:1009000068A189E192E00E94BE0A66E070E089E198
:1009100092E00E9450016FEF70E089E192E00E9446
:10092000500189E192E00E94420B68A189E192E0C6
:100930000E94BE0A69E070E089E192E00E945001E5
:1009400089E192E00E94420B68A170E041E050E032
:1009500089E192E00E943F0B89E192E00E94E60962
:100960008F3761F086FF12C081FD4CC021E032E07C
:1009700043E054E065E076E0E7E00FC027E036E0D2
:1009800045E054E063E072E0E1E007C026E033E0D8
:1009900042E051E060E077E0E4E081E090E0DC01FB
:1009A00002C0AA0FBB1FEA95E2F7AAA31BA2FC0193
:1009B00001C0EE0F7A95EAF7ECA3FC0102C0EE0F3E
:1009C000FF1F6A95E2F7EDA3BC0101C0660F5A95BF
:1009D000EAF76EA3BC0102C0660F771F4A95E2F7E3
:1009E0006FA3AC0101C0440F3A95EAF748A701C0D4
:1009F000880F2A95EAF789A791E09AA78BA780E04C
:100A000090E002C08DEF9FEFDF91CF9108951F938B
:100A1000CF93DF93EC0189E192E00E94AC0A68A1D8
:100A200061110AC08091AA0191E0980F9093AA01E8
:100A30000E94100188A30DC089E192E00E94BE0AC5
:100A400089E192E00E94420B882319F08CEF9FEF1E
:100A5000A7C088A1811109C08091AA0191E0980FD7
:100A60009093AA010E94100188A318A1112371F389
:100A700089A18823C1F168A189E192E00E94BE0AA0
:100A800089A1823009F076C065E070E089E192E0EA
:100A90000E94500160E270E089E192E00E94500102
:100AA00089E192E00E94420B68A189E192E00E94F4
:100AB000BE0A60E089E192E00E946D0A60E089E18F
:100AC00092E00E946D0A89E192E00E94420B68A1C7
:100AD00089E192E00E94BE0A69E070E089E192E05B
:100AE0000E94500147C0612F89E192E00E94BE0A36
:100AF00060E089E192E00E946D0A6FEF89E192E087
:100B00000E946D0A89E192E00E94420B612F89E107
:100B100092E00E94BE0A60E089E192E00E946D0AC4
:100B200089E192E00E94420B612F70E041E050E0C9
:100B300089E192E00E943F0B89E192E00E94E60980
:100B40009C018F3F910529F091E0232B19F090E053
:100B500001C092E099A3992309F1913021F4CE01CB
:100B60000E949D0303C0CE010E946904009709F40E
:100B700082CF16C060E089E192E00E946D0A89E1AF
:100B800092E00E94420B21E030E0811102C020E09F
:100B900030E088279927821B930B02C08FEF9FEFCD
:100BA000DF91CF911F91089580E090E008958DEF3F
:100BB0009FEF08958DEF9FEF0895CF93DF93EC01A2
:100BC0001B821A8285E491E0998388831F821886AC
:100BD00080ED97E0A0E0B0E0888B998BAA8BBB8B6F
:100BE00086E290E0A0E0B0E08C8B9D8BAE8BBF8B5B
:100BF0001C861D861E861F861B860E94C210688F5B
:100C0000798F8A8F9B8F1C8E1D8E1E8E1F8EDF917B
:100C1000CF910895DC01ED91FC910684F785E02DDC
:100C20006FEF0994DC01ED91FC910684F785E02DCE
:100C300060E009948F929F92AF92BF92EF92FF92E1
:100C40001F93CF93DF93EC01162FE881F981048481
:100C5000F585E02D462F60E009957C01115012309A
:100C600038F419861A8688889988AA88BB8804C0AF
:100C70008C889D88AE88BF880E94C210688F798F4B
:100C80008A8F9B8F8C8E9D8EAE8EBF8EC701DF911B
:100C9000CF911F91FF90EF90BF90AF909F908F905A
:100CA000089561E00C941A06FC018085481710F045
:100CB0004FEF480F9385992359F09781691730F0CA
:100CC000691B4F5F4817D0F340E0F8CF6187428738
:100CD000DF01A40FB11D1C968C91680F6068CF01D5
:100CE0000C941A06FC0165816B7F658368600C9427
:100CF0001A06CF93DF93EC010E941206CE01DF911A
:100D0000CF910C947206FC016581262F2460258307
:100D10006C600C941A060F931F93CF93DF93EC0132
:100D2000022F142F453008F014E08C85811109C082
:100D30008D85811106C08E85811103C08F85882322
:100D400029F08F81882359F0861749F01C8680E4AA
:100D50008D876E87862F90E0805C9F4F8F871887E6
:100D60006F8364E670E080E090E00E94E7101C82F0
:100D7000E881F9810084F185E02DCE010995009785
:100D800009F05EC08885823018F08C8188608C8381
:100D9000002329F0113019F48C8184608C83E88160
:100DA000F9810484F585E02D40E362E0CE010995E8
:100DB00065E070E080E090E00E94E710E881F98152
:100DC0000484F585E02D40E362E0CE01099561E001
:100DD00070E080E090E00E94E710E881F9810484EF
:100DE000F585E02D40E362E0CE01099561E070E019
:100DF00080E090E00E94E7108C8184FD09C0E881CA
:100E0000F9810484F585E02D40E262E0CE01099588
:100E10006C816062CE010E941A0684E08D83CE014F
:100E20000E948306CE010E94510682E08E8366E016
:100E3000CE010E941A068C01CE010E940A06C8014A
:100E4000DF91CF911F910F910895CF92DF92EF9292
:100E5000FF920F931F93CF93DF93EC01462FE8810E
:100E6000F9810484F585E02D61E009958C01CC8839
:100E7000DD88EE88FF880E94C210688F798F8A8F84
:100E80009B8FCC8EDD8EEE8EFF8E81E090E0012B6D
:100E900011F080E090E0DF91CF911F910F91FF90D2
:100EA000EF90DF90CF9008950F931F93CF93DF9330
:100EB000EC010E9425078C018B85882399F0898598
:100EC0008F5F89879F81891768F019868A858F5F70
:100ED0008A879885891708F01A864A8560E0CE01CE
:100EE0000E945406C801DF91CF911F910F91089580
:100EF0000F931F93CF93DF938C0161E08DE00E94ED
:100F0000B611C0E0D0E0C017D107B4F461E08DE0C5
:100F10000E94F21164E670E080E090E00E94E71029
:100F200060E08DE00E94F2116AEF70E080E090E0F6
:100F30000E94E7102196E7CF80E090E0DF91CF910B
:100F40001F910F910895EC0197FF03C0D195C195B2
:100F5000D109CE010E9478076CED75E080E090E049
:100F60000E94E710F6CF1092180281E080931602DB
:100F70001092150261E082E00E94F21161E083E0CC
:100F80000E94F211E9EBF0E080818E7F8083808106
:100F90008D7F808388E48093B80085E48093BC00D3
:100FA0000895413208F043C0909118029111FCCF8E
:100FB00091E090931802209316022FEF2093AB013B
:100FC0001092F001240F2093EF019093170290915B
:100FD0001702880F892B80931702809115028130A8
:100FE00061F410921502809117028093BB008091EA
:100FF000BC0083FDF8CF85EC01C085EE8093BC007A
:10100000809118028130E1F38091F001841710F48F
:101010004091F001A1EFB1E0962FFB018E2F891BCB
:10102000841718F48D918193F9CF842F089580E06F
:1010300008950F93413208F04AC09091180291111F
:10104000FCCF32E030931802009316023FEF30934A
:10105000AB011092F0014093EF01562FA1EFB1E0E8
:10106000FB013E2F351B341718F431913D93F9CF16
:101070001092170230911702880F832B809317026A
:1010800080911502813061F410921502809117024F
:101090008093BB008091BC0083FDF8CF85EC01C03C
:1010A00085EE8093BC00222321F0809118028230CB
:1010B000D1F38091AB018F3F79F08091AB01803209
:1010C00041F08091AB01803331F094E005C091E0B4
:1010D00003C092E001C093E0892F0F9108954091E1
:1010E000CD01262F30E0240F311D21323105DCF4F3
:1010F000209118022430C9F4FC0180E090E08617AA
:1011000058F43091CD012191DC01A153BE4FA30FC2
:10111000B11D2C930196F3CF8091CD01680F6093A0
:10112000CD0180E0089581E0089582E008959093D4
:101130001202809311020895909314028093130277
:10114000089585ED8093BC008091BC0084FDFCCFA8
:1011500010921802089585EC8093BC00109218023A
:1011600008951F920F920FB60F9211242F933F9361
:101170004F935F936F937F938F939F93AF93BF939F
:10118000EF93FF938091B900887F803609F49EC069
:1011900078F5883209F45DC090F4803109F456C0C6
:1011A00038F4882309F4F5C0883009F44FC0F5C03D
:1011B000883109F44EC0803209F45FC0EEC080343B
:1011C00009F46AC058F4803309F457C0883309F031
:1011D000E4C08093AB010E94AB08DFC0803509F406
:1011E0004FC0883509F45DC0883409F0D6C0D3C03B
:1011F000883909F4C4C0A8F4883709F467C038F402
:10120000883609F463C0803709F460C0C6C08838E6
:1012100009F4B5C0803909F45FC0803809F0BDC059
:101220005BC0803B09F483C038F4803A09F466C09F
:10123000883A09F47CC0B1C0803C09F4A4C0883C61
:1012400009F4A1C0883B09F487C0A7C080911702A8
:1012500010C09091F0018091EF01981770F5E09126
:10126000F00181E08E0F8093F001F0E0EF50FE4F2F
:1012700080818093BB0085EC83C08093AB018BC0E1
:10128000E091F00181E08E0F8093F0018091BB002E
:10129000F0E0EF50FE4F80839091F0018091EF01DC
:1012A0006BC0E091F00181E08E0F8093F00180919E
:1012B000BB00F0E0EF50FE4F808380911602811159
:1012C0006AC081E08093150284EA5EC083E0809367
:1012D00018021092AC01CFCF8091AC01803208F09F
:1012E0004EC0E091AC0181E08E0F8093AC01809103
:1012F000BB00F0E0E355FE4F8083BDCF0E94AB08FA
:101300008091AC01803230F4E091AC01F0E0E35523
:10131000FE4F10826091AC0170E0E0911102F091FB
:1013200012028DEA91E009951092AC0136C084E07A
:10133000809318021092CE011092CD01E091130219
:10134000F091140209958091CD01811105C081E0D1
:101350008093CD011092CF01E091CE0181E08E0FFC
:101360008093CE01F0E0E153FE4F80818093BB007B
:101370009091CE018091CD01981708F47CCF85E83B
:101380008093BC000AC085EC8093BC0010921802C8
:1013900004C01092AB010E94A108FF91EF91BF9190
:1013A000AF919F918F917F916F915F914F913F91FD
:1013B0002F910F900FBE0F901F90189580914D02A6
:1013C00090E020914E02821B9109089590914E0267
:1013D00080914D02981750F4E92FF0E0E15BFD4F4A
:1013E000208130E09F5F90934E0202C02FEF3FEFCD
:1013F000C9010895E0914E0280914D02E81730F442
:10140000F0E0E15BFD4F808190E008958FEF9FEF6A
:1014100008950895CF93DF93EC01E0912502F091B8
:1014200026023097F1F090914E0280914D0298176C
:10143000C0F090E0292F30E02617370754F4DE0182
:10144000A20FB31F4C91D901A15BBD4F4C939F5F7D
:10145000F1CF10924E0260934D02CB01DF91CF91FC
:101460000994DF91CF910895E0912702F09128022D
:10147000309729F010922B0210922A0209940895B5
:10148000CF92DF92EF92FF920F931F93CF93DF9350
:101490007C01CB018A0120912902222389F0EB01F2
:1014A0006B01C40ED51ECC15DD0569F06991D7011D
:1014B000ED91FC910190F081E02DC7010995F3CFEA
:1014C000642F0E946F08C801DF91CF911F910F9187
:1014D000FF90EF90DF90CF900895CF93DF931F920E
:1014E000CDB7DEB76983209129022223D1F0209164
:1014F0002A02203240F021E030E0FC0133832283D5
:1015000080E090E015C080912B02E82FF0E0E45DD0
:10151000FD4F998190838F5F80932B0280932A02E5
:1015200005C061E0CE0101960E946F0881E090E065
:101530000F90DF91CF910895FC011382128288EE03
:1015400093E0A0E0B0E084839583A683B7838BE526
:1015500091E091838083089510924E0210924D0283
:1015600010922B0210922A020E94B30784E39AE0A1
:101570000E949C088AE09AE00C94970881E080938E
:10158000290260934C0210922B0210922A020895B5
:101590000F93062F21E040912A026CE272E08091C5
:1015A0004C020E94190810922B0210922A021092EB
:1015B00029020F9108954F925F926F927F92AF929E
:1015C000BF92CF92EF92FF920F931F93CF93DF932F
:1015D0005C01F62ED42F28013901EE2021F10E9462
:1015E000BE0ACE2DC43008F0C3E0C150C0F028E0E0
:1015F000C29FC0011124A301920104C056954795D2
:10160000379527958A95D2F7CA01B901D501ED9191
:10161000FC910190F081E02DC5010995E6CF60E0D5
:10162000C5010E94C80A4D2FD13208F040E22C2D8E
:101630006FE472E08F2D0E94D10710924E028093CA
:101640004D02DF91CF911F910F91FF90EF90CF90BE
:10165000BF90AF907F906F905F904F900895CF9222
:10166000EF920F931F93C22EE12C00E010E098013F
:101670000E94DB0A1F910F91EF90CF90089521E017
:101680000C942F0B61E00C94C80A89E192E00C9451
:101690009C0A0E94FD1308950E9423110E944B0B87
:1016A0008FE692E00E9465100E945701C0E0D0E0F2
:1016B0000E9478012097E1F30E940000F9CFCF92B9
:1016C000DF92EF92FF920F931F93CF93DF936C0102
:1016D0007A018B01C0E0D0E0CE15DF0581F0D801A2
:1016E0006D918D01D601ED91FC910190F081E02D7D
:1016F000C6010995892B11F02196EECF7E01C70115
:10170000DF91CF911F910F91FF90EF90DF90CF90DD
:1017100008956115710579F0FB0101900020E9F74A
:101720003197AF01461B570BDC01ED91FC91028014
:10173000F381E02D099480E090E008950C94890BEA
:10174000DC01ED91FC910190F081E02D09948F92E4
:101750009F92AF92BF92EF92FF920F931F93CF93FE
:10176000DF93CDB7DEB7A1970FB6F894DEBF0FBEFB
:10177000CDBF7C01FA01CB0119A2223008F42AE086
:101780008E010F5D1F4F822E912CA12CB12CBF0119
:10179000A50194010E94D513F901CA010150110954
:1017A0006A3010F4605D01C0695CD8016C93232B32
:1017B000242B252B61F7B801C7010E94890BA19644
:1017C0000FB6F894DEBF0FBECDBFDF91CF911F9152
:1017D0000F91FF90EF90BF90AF909F908F900895E2
:1017E000CF92DF92EF92FF920F931F93CF93DF93ED
:1017F0002115310581F4DC01ED91FC910190F0811E
:10180000E02D642FDF91CF911F910F91FF90EF900A
:10181000DF90CF9009942A30310501F577FF1DC084
:101820006A017B01EC016DE20E94A00B8C01442750
:101830005527BA014C195D096E097F092AE0CE01CE
:101840000E94A70B800F911FDF91CF911F910F91E5
:10185000FF90EF90DF90CF9008952AE0DF91CF9135
:101860001F910F91FF90EF90DF90CF900C94A70BFA
:101870009A01AB01770F660B770B0C94F00B61505C
:1018800030F02091F100FC0120830196F8CF2898D8
:1018900084E680937702089540917202509173021A
:1018A000209170023091710242175307B4F4909165
:1018B000E8009570E1F39091E80092FD19C08093E3
:1018C000F100809172029091730201968F739927B3
:1018D000892B19F48EEF8093E80080917202909129
:1018E00073020196909373028093720281E00895CF
:1018F00080E00895DF92EF92FF920F931F93CF93B2
:10190000DF93D82EF92EE42E062F10E0C8010196A1
:10191000880F0E944C0C83E00E944C0CCD2DDF2DD3
:101920000C0F1D1FC017D10789F0E7FE03C0FE0191
:10193000849101C088810E944C0CF82E80E00E94A6
:101940004C0C8F2121968111EDCF01C081E0DF91F8
:10195000CF911F910F91FF90EF90DF9008958091AC
:10196000D70081608093D70080EA8093D80089B542
:10197000806189BD89B5826089BD09B400FEFDCF53
:1019800061E070E080E090E00E94E7108091D80074
:101990008F7C80618093D8008091E000807F80936D
:1019A000E0000895CF93DF931F92CDB7DEB7198281
:1019B000CE0101960E948D120E94C113BE016F5F7D
:1019C0007F4F0E943C1389810F90DF91CF91089542
:1019D0002FB7FC012083F89467706093E9000895A5
:1019E000CF93DF931F92CDB7DEB7682FCE0101965C
:1019F0000E94E80C8091F20099819FBF0F90DF91C7
:101A0000CF910895EF92FF920F931F93CF93DF939F
:101A10001F92CDB7DEB790917602992311F057FF50
:101A200003C08FEF9FEF29C08A017B01682FCE0191
:101A300001960E94E80C2091F20030E00217130793
:101A40000CF49801822FF70194E6815038F0289821
:101A5000909377024091F1004193F7CF2115310522
:101A600021F08091F200882321F089818FBFC90184
:101A700004C08BE68093E800F8CF0F90DF91CF9100
:101A80001F910F91FF90EF900895CF93DF931F92D6
:101A9000CDB7DEB741E050E0BE016F5F7F4F0E94DF
:101AA000020D019719F4898190E002C08FEF9FEF3A
:101AB0000F90DF91CF910895CF93DF931F92CDB711
:101AC000DEB7682FCE0101960E94E80C9091E800E5
:101AD000892F807295FF04C09091F20080E4891BE9
:101AE00099819FBF0F90DF91CF9108955F926F9280
:101AF0007F928F929F92AF92BF92CF92DF92EF929E
:101B0000FF920F931F93CF93DF931F92CDB7DEB752
:101B1000982E6B01B42E052F80917602811103C09F
:101B20008FEF9FEF77C08091740280FF05C0809196
:101B3000E00082608093E000EB2CF02EA12C8AEF75
:101B4000882E892D8072682E892D8074582E9AE3F4
:101B5000792EE114F10419F4AA2009F455C0892D55
:101B60000E945C0D182F81110AC08A948820C1F24E
:101B700061E070E080E090E00E94E710EACF90E042
:101B8000E816F9060CF41E2D692DCE0101960E946F
:101B9000E80C8091E80085FF34C0812F90E0E81ABE
:101BA000F90A662029F01150A0F01092F100FBCF45
:101BB000F60197FE0AC0115050F024912093F100D5
:101BC0003196F9CF21912093F1001150D8F7C80E2A
:101BD000D91EAA2019F07092E8000BC08091E8008D
:101BE00085FD09C07092E800AA24A394E114F104D1
:101BF00041F0A12C06C0E114F10419F451107092C7
:101C0000E80089818FBFA5CF5D9884E68093780234
:101C10008B2D902F0F90DF91CF911F910F91FF90FF
:101C2000EF90DF90CF90BF90AF909F908F907F907C
:101C30006F905F9008951092E900109273021092D5
:101C4000720290937102809370020895DF92EF9276
:101C5000FF920F931F93CF93DF93D82E8A017B01BE
:101C6000E40EF51EEB01CE15DF0571F0D7FE03C0C3
:101C7000FE01849101C088810E944C0C2196811143
:101C8000F2CF8FEF9FEF01C0C801DF91CF911F917D
:101C90000F91FF90EF90DF900895AF92BF92DF9287
:101CA000EF92FF920F931F93CF93DF935C018B0111
:101CB000EB019BEFD92E2097C1F07E01C134D105F5
:101CC0001CF080E4E82EF12C8091E80082FFFCCF2C
:101CD000C8018C1B9D0B6E2D8A0D9B1D0E943F0C15
:101CE000D092E800CE19DF09E6CFC801DF91CF918D
:101CF0001F910F91FF90EF90DF90BF90AF900895EC
:101D00001F920F920FB60F921124CF92DF92EF9293
:101D1000FF920F931F932F933F934F935F936F9374
:101D20007F938F939F93AF93BF93EF93FF93CF9343
:101D3000DF93CDB7DEB76C97DEBFCDBF1092E90061
:101D40008091E80083FF17C168E0CE0145960E94AC
:101D50003F0C82EF8093E8008D8987FF05C090914A
:101D6000E80090FFFCCF03C09EEF9093E800982F0F
:101D7000907609F0D8C09E894F89588D2F89188D8B
:101D800091110CC0803829F4809175028093F10084
:101D900002C01092F1001092F100E6C0913051F4AF
:101DA0008111E2C04130510509F0DEC08091750219
:101DB0008D7F0BC0933061F48111D6C04130510545
:101DC00009F0D2C080917502826080937502CCC008
:101DD000953049F48091E80080FFFCCF822F806825
:101DE0008093E300C1C0963009F070C0EB8CFC8C8E
:101DF000123069F580E090E00E941B0E0E94D20C28
:101E000099E09E012F5F3F4F6901F901292F11923F
:101E10002A95E9F799831A8391E09E8390EA98873F
:101E20009AEF99872091720230917302275F3F4F9A
:101E30003C832B838D83C7010E941B0E49E050E039
:101E4000B60180E00E94260E0E94D20C8DC0C70110
:101E50000E941B0E0E94C113BE016B5E7F4F0E9449
:101E60006513009719F00CF07FC082C0113009F49F
:101E700070C0133009F07CC08F89882309F46CC0CE
:101E8000823029F440E860E188EE90E006C08130BD
:101E900039F440E86BE08CED90E00E947A0C56C07B
:101EA000833009F065C00E94C1138E010F5F1F4F80
:101EB000B8010E948413F80101900020E9F73197DE
:101EC000BF01601B710B40E0C801E7CF973009F4F8
:101ED0004FC0983021F481E08093F10045C09930E3
:101EE00009F042C0837009F043C0E1E0F1E081E015
:101EF00031E096E32081211109C08EE78093EA004A
:101F00001092EA008F89809376022EC08093E900B8
:101F10003093EB0021912093EC009093ED008F5FC4
:101F2000873041F7EACF8B8D9C8D0E941B0E898DE7
:101F3000811105C0CE0145960E94981207C00E94EB
:101F4000C113BE016B5E7F4F0E94A313882381F0F3
:101F50000BC06AEC70E002C069EF70E0FB014491D5
:101F600050E080E80E94260E8EEF8093E80003C0C8
:101F700081E28093EB006C960FB6F894DEBF0FBE43
:101F8000CDBFDF91CF91FF91EF91BF91AF919F9125
:101F90008F917F916F915F914F913F912F911F9101
:101FA0000F91FF90EF90DF90CF900F900FBE0F90AA
:101FB0001F9018958093E9008091F200882319F012
:101FC0008AE38093E80008951F920F920FB60F9254
:101FD00011242F933F934F935F936F937F938F932E
:101FE0009F93AF93BF93CF93EF93FF93C091E10083
:101FF0008091E100837F8093E100C3FF0FC01092C6
:10200000E90081E08093EB001092EC0082E3809382
:10201000ED001092760288E08093F000C2FF19C0B4
:1020200083E00E94DA0F80917802882339F0809152
:102030007802815080937802882389F18091770219
:10204000882339F08091770281508093770288232A
:1020500041F1C4FF10C08091E2008E7E81608093C8
:10206000E2008091E1008F7E8093E1008091740214
:102070008E7E806111C0C0FF16C08091E2008E7E0E
:1020800080618093E2008091E1008E7E8093E10088
:10209000809174028E7E81608093740204C05D9A88
:1020A000CDCF289AD6CFFF91EF91CF91BF91AF912D
:1020B0009F918F917F916F915F914F913F912F9160
:1020C0000F900FBE0F901F901895109276021092ED
:1020D0007502109274020E94AF0CE1EEF0E0808174
:1020E0008E7E80838DE08093E200559A209A089539
:1020F0001F920F920FB60F9211242F933F938F933D
:102100009F93AF93BF9380917A0290917B02A091AD
:102110007C02B0917D023091790223E0230F2D37AC
:1021200020F40196A11DB11D05C026E8230F0296DB
:10213000A11DB11D2093790280937A0290937B02B6
:10214000A0937C02B0937D0280917E0290917F02E9
:10215000A0918002B09181020196A11DB11D8093D2
:102160007E0290937F02A0938002B0938102BF9180
:10217000AF919F918F913F912F910F900FBE0F9034
:102180001F9018953FB7F89480917E0290917F023E
:10219000A0918002B091810226B5A89B05C02F3F77
:1021A00019F00196A11DB11D3FBFBA2FA92F982F7D
:1021B0008827820F911DA11DB11DBC01CD0142E0F8
:1021C000660F771F881F991F4A95D1F708958F9240
:1021D0009F92AF92BF92CF92DF92EF92FF926B01EC
:1021E0007C010E94C2104B015C01C114D104E104C6
:1021F000F10401F10E943B130E94C210DC01CB01EB
:1022000088199909AA09BB09883E9340A105B1051F
:1022100060F321E0C21AD108E108F10888EE880EC7
:1022200083E0981EA11CB11CC114D104E104F10487
:1022300019F7DBCFFF90EF90DF90CF90BF90AF907A
:102240009F908F900895789484B5826084BD84B502
:10225000816084BD85B5826085BD85B5816085BDA1
:10226000EEE6F0E0808181608083E1E8F0E01082BA
:10227000808182608083808181608083E0E8F0E0FB
:10228000808181608083E1E9F0E0808182608083E9
:10229000808181608083E0E9F0E0808181608083DB
:1022A000E1ECF0E0808184608083808182608083C3
:1022B000808181608083E3ECF0E0808181608083B5
:1022C000E0ECF0E0808182608083E2ECF0E08081ED
:1022D00081608083EAE7F0E0808184608083808190
:1022E0008260808380818160808380818068808338
:1022F000089590E0FC013197EF30F105B0F5EA5A0E
:10230000FF4F0C94F713809180008F7703C080916A
:1023100080008F7D80938000089580918000877F6A
:10232000F9CF84B58F7702C084B58F7D84BD0895C1
:10233000809190008F7707C0809190008F7D03C0BF
:1023400080919000877F8093900008958091C000D5
:102350008F7703C08091C0008F7D8093C000089567
:102360008091C200877F8093C2000895CF93DF934E
:1023700090E0FC01E45EFE4F2491FC01E55CFE4F21
:102380008491882361F190E0880F991FFC01E8593E
:10239000FE4FC591D491FC01E65AFE4FA591B49130
:1023A000611109C09FB7F8948881209582238883A2
:1023B000EC912E230BC0623061F49FB7F8948881B2
:1023C000322F309583238883EC912E2B2C939FBF43
:1023D00006C08FB7F894E8812E2B28838FBFDF913A
:1023E000CF9108951F93CF93DF93282F30E0F90109
:1023F000E350FF4F8491F901E45EFE4FD491F9015F
:10240000E55CFE4FC491CC23C1F0162F81110E94D0
:102410007911EC2FF0E0EE0FFF1FE65AFE4FA59169
:10242000B4919FB7F894111104C08C91D095D82322
:1024300002C0EC91DE2BDC939FBFDF91CF911F9107
:102440000895CF93DF931F92CDB7DEB76983DC0188
:10245000ED91FC910280F381E02D41E050E0BE015E
:102460006F5F7F4F09950F90DF91CF910895CF93C4
:10247000DF93EC018C859D8597FF05C082E00E946B
:10248000450D9D878C878C859D85DF91CF91089523
:1024900083E00E945C0D90E0089583E00C94DA0FD5
:1024A000FC018485958597FD06C082E00E94F00CB2
:1024B00090E00196089582E00E94F00C90E008956B
:1024C000FC018485958597FD05C02FEF3FEF35878B
:1024D0002487089582E00C94450DCF93DF93EC019F
:1024E00080911201882331F083E00E94760D181646
:1024F000190634F081E090E09B838A8380E090E0CD
:10250000DF91CF910895EEEFFFE72591349181E0BF
:102510002B3F3C4D09F080E00895FC0190819E5FC7
:10252000908342E450E066E771E080E80C94260E68
:10253000FC0181819081913A59F4813209F065C0A2
:1025400047E050E06BE071E080E00E94260E5BC047
:10255000913209F05AC0833269F482819381A0E0FC
:10256000B0E08093070190930801A0930901B09314
:102570000A0149C0803239F467E070E08BE091E0F5
:102580000E944D0E40C0823209F03DC0828180938E
:1025900012010E948312882319F0EEEFFAE002C0C4
:1025A000E0E0F8E080910B0190910C01A0910D0109
:1025B000B0910E01803B9440A105B10541F5809199
:1025C000120180FD24C0EE3F8AE0F80751F08081BF
:1025D0009181873727E7920721F09093FF0A809334
:1025E000FE0A87E797E7918380838091600080935C
:1025F000D2029BE088E10FB6F894A8958093600022
:102600000FBE9093600081E0089580E0089580817E
:10261000918187379747B9F7A895809160008861C5
:10262000809360008091D20280936000EE3F8AE048
:10263000F80739F08091FE0A9091FF0A9183808318
:10264000E2CF1092FF0A1092FE0ADDCFE2E8F2E03C
:102650001382128288EE93E0A0E0B0E08483958339
:10266000A683B7838DE691E0918380838FEF9FEF00
:102670009587848708950895EF92FF920F931F9393
:10268000CF93DF937B01FC01C281D38100E010E096
:10269000209781F0E881F9810280F381E02DB70174
:1026A000CE01099597FD08C0080F191F0884D98528
:1026B000C02DEECFC80102C08FEF9FEFDF91CF9109
:1026C0001F910F91FF90EF9008950F931F93CF9359
:1026D000DF938B01FC01C281D381209771F0E881E7
:1026E000F9810480F581E02DB801CE0109950097AC
:1026F00031F40884D985C02DF0CF80E090E0DF91DF
:10270000CF911F910F9108950F931F93CF93DF9354
:102710008B01FC01C281D381209771F0E881F9819E
:102720000680F781E02DB801CE010995080F111D33
:102730000884D985C02DF0CFF8011082DF91CF91A8
:102740001F910F9108950F931F93CF93DF938B01E8
:10275000FC01C281D381209771F0E881F981019059
:10276000F081E02DB801CE010995811105C00884E2
:10277000D985C02DF0CF80E0DF91CF911F910F91CF
:1027800008958091D70281110DC082E08093D30219
:1027900084E08093D4021092D6021092D50281E098
:1027A0008093D70283ED92E00895A1E21A2EAA1B2E
:1027B000BB1BFD010DC0AA1FBB1FEE1FFF1FA217F1
:1027C000B307E407F50720F0A21BB30BE40BF50BEE
:1027D000661F771F881F991F1A9469F76095709577
:1027E000809590959B01AC01BD01CF010895EE0F3E
:1027F000FF1F0590F491E02D099481E090E0F8949A
:082800000C940214F894FFCFC0
:1028080000C18081000000FFFFFFFF00E100000021
:1028180000000048656C6C6F2C20576F726C642147
:102828000054696D653A20004141000000000054E1
:10283800075F0B09010C01070582021202B5010DA1
:10284800010000000054075F0B09010C01D405D7F3
:1028580005490BDA050D01000000006D0A400A0960
:1028680001090ADE09E609FA090000000021126DD3
:0C2878001248124D12501260123712006C
:00000001FF
