:100000000C94E4000C940C010C940C010C940C0165
:100010000C940C010C940C010C940C010C940C012C
:100020000C940C010C940C010C941D020C948F0286
:100030000C940C010C940C010C940C010C940C010C
:100040000C940C010C940C010C940C010C940C01FC
:100050000C940C010C940C010C940C010C94F708FA
:100060000C940C010C940C010C940C010C940C01DC
:100070000C940C010C940C010C940C010C940C01CC
:100080000C940C010C940C010C940C010C940C01BC
:100090000C9441090C940C010C940C010C940C016F
:1000A0000C940C010C940C010C940C01AE07B107DC
:1000B000A007A407AA07D207D207D207B507B90736
:1000C000BD07C307C707D207CD07080B000202020E
:1000D00001000904000001020200000524001001D3
:1000E0000524010101042402060524060001070578
:1000F000810310004009040100020A000000070506
:1001000002024000000705830240000004030904C6
:1001100012010002EF02014041233680000101027A
:10012000030141726475696E6F204C4C430041724B
:100130006475696E6F204C656F6E6172646F00004C
:100140000000002300260029002C002F00000000E2
:100150000200090F0000030401000C000000000071
:10016000000000000000000000000000000000008F
:10017000250028002B002E00310000000000240084
:1001800027002A002D0030000404040404030405A1
:100190000202020204030202020206060606060624
:1001A000040402020204040408020110408040100A
:1001B000204080408008020401804020100201108D
:1001C0008010204040204A0E11241FBECFEFDAE0FD
:1001D000DEBFCDBF11E0A0E0B1E0E6E5FDE102C089
:1001E00005900D92AA36B107D9F722E0AAE6B1E050
:1001F00001C01D92A33CB207E1F710E0C4EED0E0CD
:1002000004C02197FE010E949E0EC33ED107C9F78C
:100210000E94110D0C94A90E0C940000FC01848521
:10022000958597FD0BC09FB7F89482E08093E90015
:100230008091F2009FBF90E0019608959FB7F894D7
:1002400082E08093E9008091F2009FBF90E00895E2
:1002500040916C0150916D0120916A0130916B01C8
:1002600042175307B4F49091E8009570E1F3909130
:10027000E80092FD19C08093F10080916C0190918B
:100280006D0101968F739927892B19F48EEF809356
:10029000E80080916C0190916D01019690936D0141
:1002A00080936C0181E0089580E00895DF92EF92E1
:1002B000FF920F931F93CF93DF93D82EF92EE42E46
:1002C000062F10E0C8010196880F0E94280183E0E4
:1002D0000E942801CD2DDF2D0C0F1D1FC017D10747
:1002E00089F0E7FE03C0FE01849101C088810E946D
:1002F0002801F82E80E00E9428018F21219681118B
:10030000EDCF01C081E0DF91CF911F910F91FF9060
:10031000EF90DF900895DF92EF92FF920F931F937B
:10032000CF93DF93D82E8A017B01E40EF51EEB01FB
:10033000CE15DF0571F0D7FE03C0FE01849101C028
:1003400088810E94280121968111F2CF8FEF9FEFC3
:1003500001C0C801DF91CF911F910F91FF90EF90E5
:10036000DF900895615030F02091F100FC0120836E
:100370000196F8CF289884E68093C2010895CF9221
:10038000DF92EF92FF920F931F93CF93DF936C0155
:100390007A018B01C0E0D0E0CE15DF0581F0D801F5
:1003A0006D918D01D601ED91FC910190F081E02DD0
:1003B000C6010995892B11F02196EECF7E01C70168
:1003C000DF91CF911F910F91FF90EF90DF90CF9031
:1003D00008950F931F93CF93DF931F92CDB7DEB78E
:1003E00082E0898342E450E06AEC70E080E80E9499
:1003F0008B010E94FD0CDC0112960D911C9113974C
:100400000115110589F0D801ED91FC910280F3816D
:10041000E02DBE016F5F7F4FC801099597FD04C0B5
:10042000F80100851185ECCF89810F90DF91CF9184
:100430001F910F9108950E94A40E1F920F920FB664
:100440000F9211248F939F938091E1009091E1008E
:10045000937F9093E10083FF0FC01092E90091E039
:100460009093EB001092EC0092E39093ED001092C9
:10047000C30198E09093F00082FF20C093E0909336
:10048000E9009091F200992319F09AE39093E80023
:100490009091C001992339F09091C00191509093AF
:1004A000C001992389F19091C201992339F090916B
:1004B000C20191509093C201992341F184FF10C071
:1004C0008091E2008E7E81608093E2008091E10065
:1004D0008F7E8093E1008091C1018E7E806111C08A
:1004E00080FF16C08091E2008E7E80618093E200E2
:1004F0008091E1008E7E8093E1008091C1018E7E2B
:1005000081608093C10104C05D9ACDCF289AD6CF77
:100510009F918F910F900FBE0F901F9018951F9273
:100520000F920FB60F921124CF92DF92EF92FF92AB
:100530000F931F932F933F934F935F936F937F93EB
:100540008F939F93AF93BF93EF93FF93CF93DF93DB
:10055000CDB7DEB76C97DEBFCDBF1092E9008091BA
:10056000E80083FFFBC168E0CE0145960E94B2011E
:1005700082EF8093E8008D8987FF05C09091E800A5
:1005800090FFFCCF03C09EEF9093E800982F9076E9
:1005900009F0C6C09E894F89588D2F89F88C91111A
:1005A0000CC0803829F480916F018093F10002C063
:1005B0001092F1001092F10045C1913051F4811177
:1005C00041C14130510509F03DC180916F018D7FDE
:1005D0000BC0933061F4811135C14130510509F0F0
:1005E00031C180916F01826080936F012BC1953082
:1005F00049F48091E80080FFFCCF822F80688093CF
:10060000E30020C1963009F05EC00B8D1C8D22E006
:100610001092E90010926D0110926C01F21232C03A
:1006200010926B0110926A010E94E90199E0BE01EB
:100630006F5F7F4FDB01E92F1D92EA95E9F7998300
:10064000FA8291E09E8390EA98879AEF99872091A9
:100650006C0130916D01275F3F4F3C832B838D836D
:100660001092E90010926D0110926C0110936B01D1
:1006700000936A0149E050E080E00E948B010E94F3
:10068000E901E0C010936B0100936A010E94FD0C28
:10069000DC0112960D911C9113970115110509F4B7
:1006A000BBC0D801ED91FC910480F581E02DBE0125
:1006B0006B5E7F4FC8010995009709F0C7C0F8012C
:1006C00000851185EACF973009F445C1983021F4AF
:1006D00081E08093F100B6C0993009F0B3C0837017
:1006E00009F039C1EDE0F1E081E031E096E32081ED
:1006F000211109C08EE78093EA001092EA008F89E9
:100700008093C3019FC08093E9003093EB00219157
:100710002093EC009093ED008F5F873041F7EACF94
:100720008B8D9C8D1092E90010926D0110926C01DE
:1007300090936B0180936A01898D811153C08E89DA
:100740009D89913A49F4813209F005C147E050E0B2
:1007500064E071E080E0BBC0913209F0FCC08332FC
:1007600069F48F89988DA0E0B0E0809300019093A8
:100770000101A0930201B093030164C0803269F4C7
:100780008091E80082FFFCCF67E084E091E00E9466
:10079000B2018BEF8093E80055C0823209F052C05D
:1007A0008F8980930B01EEEFFFE7859194918B3F4A
:1007B0009C4D19F0E0E0F8E002C0EEEFFAE0809125
:1007C000040190910501A0910601B0910701803BC1
:1007D0009440A105B10509F09EC080910B0180FFF6
:1007E00079C099C00E94FD0CFC01028113810115A2
:1007F000110509F4B0C0D801ED91FC910190F08190
:10080000E02DBE016B5E7F4FC801099581111AC0B2
:10081000F80100851185EBCFF1E0FF1609F44EC019
:10082000F3E0FF1298C08F89882309F44AC0823010
:1008300089F440E860E18EE291E00E94560188234D
:1008400009F489C08EEF8093E80088C01816190655
:10085000CCF381C0813029F440E86BE082E291E082
:10086000ECCF833009F077C00E94FD0CDC011296BA
:10087000ED90FC9013978E010F5F1F4F6801E114FC
:10088000F10479F0D701ED91FC910680F781E02D1C
:10089000B801C7010995080F111DF701E084F18423
:1008A000EECFD8011C92F60101900020E9F73197B4
:1008B000BF016C197D0940E0C601BFCF60E171E066
:1008C00002C06CE071E0FB01449150E080E80E94BE
:1008D0008B01B8CFEE3F2AE0F20751F08081918181
:1008E0008737A7E79A0721F09093FF0A8093FE0AC3
:1008F00087E797E7918380838091600080936E0102
:100900009BE088E10FB6F894A895809360000FBE35
:100910009093600097CF808191818737974709F046
:1009200091CFA8958091600088618093600080914C
:100930006E0180936000EE3FBAE0FB0739F08091D2
:10094000FE0A9091FF0A918380837CCF1092FF0A68
:100950001092FE0A77CF81E28093EB006C960FB67F
:10096000F894DEBF0FBECDBFDF91CF91FF91EF9125
:10097000BF91AF919F918F917F916F915F914F91B7
:100980003F912F911F910F91FF90EF90DF90CF90AB
:100990000F900FBE0F901F90189580E090E0089583
:1009A00085ED8093BC008091BC0084FDFCCF10924B
:1009B0000C02089540919201262F30E0240F311D42
:1009C00021323105DCF420910C022430C9F4FC0101
:1009D00080E090E0861758F4309192012191DC017B
:1009E000A059BE4FA30FB11D2C930196F3CF809158
:1009F0009201680F6093920180E0089581E008956C
:100A000082E00895089508950895E091C5018091C8
:100A1000C401E81730F4F0E0EA53FE4F808190E023
:100A200008958FEF9FEF08959091C5018091C401C3
:100A3000981750F4E92FF0E0EA53FE4F208130E0A0
:100A40009F5F9093C50102C02FEF3FEFC90108954A
:100A50008091C40190E02091C501821B9109089505
:100A6000CF92DF92EF92FF920F931F93CF93DF937A
:100A70007C01CB018A0120910D02222389F0EB0138
:100A80006B01C40ED51ECC15DD0569F06991D70147
:100A9000ED91FC910190F081E02DC7010995F3CF14
:100AA000642F0E94DA04C801DF91CF911F910F914A
:100AB000FF90EF90DF90CF900895CF93DF931F9238
:100AC000CDB7DEB7698320910D022223D1F02091AA
:100AD0002F02203240F021E030E0FC0133832283FA
:100AE00080E090E015C080910E02E82FF0E0E15F19
:100AF000FD4F998190838F5F80930E0280932F0228
:100B000005C061E0CE0101960E94DA0481E090E028
:100B10000F90DF91CF910895089508951F93CF937B
:100B2000DF93182FD0E0C0E28C2F0E94F70B0E94B9
:100B30009B0B811103C01D17A1F0DF5FCF5FC8328F
:100B400099F7C8E38C2F0E94F70B0E949B0B811131
:100B500003C01D1731F0DF5FCF5FC03499F78FEF0F
:100B600001C08C2FDF91CF911F910895CF93DF9318
:100B7000FC0186A1882301F197A1662319F0913029
:100B800029F402C0911102C080A701C010A6EF0194
:100B9000858D0E94F70B8E8D9F8D029721F489E041
:100BA00090E00E94010C68A580E392E00E945D0540
:100BB000DF91CF910C949B0BDF91CF9108950F9310
:100BC0001F93CF93DF93EC011092C5011092C401E3
:100BD00010920E0210922F0210920C0281E080936C
:100BE0000B021092E60182E00E94D70C83E00E9483
:100BF000D70C8091B9008E7F8093B9008091B900A5
:100C00008D7F8093B90088E48093B80085E4809359
:100C1000BC0082E095E0909391018093900183E085
:100C200095E090939501809394018D8D803140F0F3
:100C30008F3F49F480913C0291E0980F90933C02E1
:100C40000E948E058D8F1D8D1F3F09F468C18E8D0A
:100C50009F8D892B09F033C1812F0E94F70B60E033
:100C600080E392E00E945D056FEF80E392E00E94D6
:100C70005D050E949B0B812F0E94F70B60E080E3D3
:100C800092E00E945D050E949B0B812F90E00E94E4
:100C9000900C80E392E00E9414058F3F910541F093
:100CA00031E020E0892B09F030E0832F922F02C041
:100CB00082E090E09F8F8E8F009709F430C10197FA
:100CC00009F083C08D8D0E94F70B6FEF80E392E0F7
:100CD0000E945D050E949B0B8D8D90E00E94900C00
:100CE00080E392E00E9414058C0187709927079792
:100CF00081F483E0169507958A95E1F761E0062770
:100D0000017043E057E066E075E0E4E022E030E0A7
:100D10002AC0C801807799278037910509F0FFC064
:100D20008D8D0E94F70B6FEE80E392E00E945D05CF
:100D30000E949B0B8D8D90E00E94900C80E392E0CE
:100D40000E94140580278F7019F426E034E002C059
:100D500024E036E00095001F0027001F47E053E025
:100D600062E071E0E0E081E090E0DC0101C0AA0F08
:100D70003A95EAF7A8A3DC0102C0AA0FBB1F2A9587
:100D8000E2F7A9A39C0101C0220FEA95EAF72AA382
:100D90009C0101C0220F7A95EAF72BA39C0101C0A8
:100DA000220F6A95EAF72CA39C0101C0220F5A95E5
:100DB000EAF72DA301C0880F4A95EAF78EA30FA387
:100DC000013009F47BC018A67AC08D8D0E94F70B04
:100DD00060E080E392E00E945D058FEF90E00E946A
:100DE000010C0E949B0B8D8D0E94F70B86E090E01A
:100DF0000E94010C8FEF90E00E94010C0E949B0B5F
:100E00008D8D0E94F70B89E090E00E94010C0E94FA
:100E10009B0B8D8D90E00E94900C80E392E00E94ED
:100E200014058F3761F086FF12C081FD78C021E084
:100E300032E043E054E065E076E0E7E00FC027E011
:100E400036E045E054E063E072E0E1E007C026E010
:100E500033E042E051E060E077E0E4E081E090E000
:100E6000DC0102C0AA0FBB1FEA95E2F7A8A3FC01B0
:100E700001C0EE0F7A95EAF7E9A3FC0102C0EE0F7C
:100E8000FF1F6A95E2F7EAA3BC0101C0660F5A95FD
:100E9000EAF76BA3BC0102C0660F771F4A95E2F721
:100EA0006CA3AC0101C0440F3A95EAF74DA301C011
:100EB000880F2A95EAF78EA391E09FA388A78D8DCE
:100EC0000E94F70B8E8D9F8D029701F585E090E0D3
:100ED0000E94010C80E290E00E94010C0E949B0B9A
:100EE0008D8D0E94F70B60E080E392E00E945D052B
:100EF00060E080E392E00E945D050E949B0B8D8D77
:100F00000E94F70B89E090E00E94010C60E080E312
:100F100092E00E945D050E949B0B90E002C08FEF63
:100F20009FEFDF91CF911F910F91089590E0FC0109
:100F30003197EF30F105B0F5EA5AFF4F0C949E0E51
:100F4000809180008F7703C0809180008F7D809397
:100F50008000089580918000877FF9CF84B58F77D6
:100F600002C084B58F7D84BD0895809190008F77F5
:100F700007C0809190008F7D03C080919000877F93
:100F80008093900008958091C0008F7703C0809176
:100F9000C0008F7D8093C00008958091C200877F3C
:100FA0008093C2000895CF93DF93282F30E0F9019A
:100FB000E35BFE4F8491F901E955FE4FD491F901AD
:100FC000E857FE4FC491CC2391F081110E949607FF
:100FD000EC2FF0E0EE0FFF1FE15CFE4FA591B49106
:100FE000EC91ED2381E090E021F480E002C080E00C
:100FF00090E0DF91CF9108953FB7F8948091BC01C4
:101000009091BD01A091BE01B091BF0126B5A89BF2
:1010100005C02F3F19F00196A11DB11D3FBFBA2F8A
:10102000A92F982F8827820F911DA11DB11DBC01EA
:10103000CD0142E0660F771F881F991F4A95D1F7AF
:1010400008958F929F92AF92BF92CF92DF92EF92CC
:10105000FF926B017C010E94FC074B015C01C114F3
:10106000D104E104F104F1F00E94FC07DC01CB01A2
:1010700088199909AA09BB09883E9340A105B105C1
:1010800070F321E0C21AD108E108F10888EE880E59
:1010900083E0981EA11CB11CC114D104E104F10429
:1010A00019F7DDCFFF90EF90DF90CF90BF90AF901A
:1010B0009F908F900895CF92DF92EF92FF920F93BF
:1010C0001F93CF93DF936D30F9F06A30E9F0EC01B4
:1010D000E881F9810284F385E02D41E050E0099533
:1010E00001E010E0892B09F000E0C988DA88EB887C
:1010F000FC880E94FC076D8B7E8B8F8B988FC98E2E
:10110000DA8EEB8EFC8E02C001E010E0C801DF91A8
:10111000CF911F910F91FF90EF90DF90CF900895A6
:101120004F925F926F927F928F929F92AF92BF92F7
:10113000EF92FF921F93CF93DF93EC018D8D8F3F42
:1011400009F445C08E8D9F8D892B09F440C07A012A
:10115000162F498C5A8C6B8C7C8C8D889E88AF881E
:10116000B88C8DE2881A9108A108B1080E94FC078A
:10117000DC01CB0188199909AA09BB0984159505D9
:10118000A605B70598F38D8D0E94F70B8E8D9F8D68
:10119000029721F489E090E00E94010C612F70E039
:1011A00084E0759567958A95E1F7A701CE010E94C5
:1011B0006D0C82E0E816F10431F0612F6F70A70129
:1011C000CE010E946D0C0E949B0B90E002C08FEF3D
:1011D0009FEFDF91CF911F91FF90EF90BF90AF9065
:1011E0009F908F907F906F905F904F9008951F9287
:1011F0000F920FB60F9211242F933F938F939F93CB
:10120000AF93BF938091B8019091B901A091BA01B9
:10121000B091BB013091B70123E0230F2D3720F4AB
:101220000196A11DB11D05C026E8230F0296A11D40
:10123000B11D2093B7018093B8019093B901A09399
:10124000BA01B093BB018091BC019091BD01A09106
:10125000BE01B091BF010196A11DB11D8093BC01DB
:101260009093BD01A093BE01B093BF01BF91AF9118
:101270009F918F913F912F910F900FBE0F901F90D4
:1012800018951F920F920FB60F9211242F933F9330
:101290004F935F936F937F938F939F93AF93BF937E
:1012A000EF93FF938091B900887F803609F49CC04A
:1012B00068F5883209F45BC090F4803109F454C0B9
:1012C00038F4882309F4F6C0883009F44DC0F6C01C
:1012D000883109F44CC0803209F45DC0EFC080341D
:1012E00009F468C048F4803309F455C0883309F024
:1012F000E5C080930A02D8C0803509F44FC0883514
:1013000009F45DC0883409F0D9C0D6C0883909F421
:10131000C7C0A8F4883709F467C038F4883609F4E0
:1013200063C0803709F460C0C9C0883809F4B8C008
:10133000803909F45FC0803809F0C0C05BC0803BD1
:1013400009F486C038F4803A09F466C0883A09F492
:101350007FC0B4C0803C09F4A7C0883C09F4A4C095
:10136000883B09F48AC0AAC08091E70110C090911F
:10137000090280910802981770F5E091090281E056
:101380008E0F80930902F0E0E851FE4F8081809338
:10139000BB0085EC86C080930A028EC0E0910902F2
:1013A00081E08E0F809309028091BB00F0E0E8514C
:1013B000FE4F808390910902809108026EC0E091F7
:1013C000090281E08E0F809309028091BB00F0E05A
:1013D000E851FE4F808380910B0281116DC081E046
:1013E0008093E60184EA61C083E080930C0210924E
:1013F000B601CFCF8091B601803208F051C0E091A4
:10140000B60181E08E0F8093B6018091BB00F0E0C1
:10141000EA56FE4F8083BDCF85EC8093BC001092CE
:101420000C028091B601803230F4E091B601F0E018
:10143000EA56FE4F10826091B60170E0E09194018F
:10144000F091950186E991E009951092B60136C0B8
:1014500084E080930C021092930110929201E0912B
:101460009001F0919101099580919201811105C03F
:1014700081E08093920110927001E091930181E0EC
:101480008E0F80939301F0E0E059FE4F80818093AE
:10149000BB009091930180919201981708F479CF45
:1014A00085E88093BC000AC085EC8093BC00109254
:1014B0000C0204C010920A020E94D004FF91EF9126
:1014C000BF91AF919F918F917F916F915F914F915C
:1014D0003F912F910F900FBE0F901F901895209164
:1014E000C301211103C08FEF9FEF08955FB7F894F8
:1014F00022E02093E9002091F20030E0121613065A
:1015000014F421E030E0422FFC0184E6415038F031
:1015100028988093C2019091F1009193F7CF211503
:10152000310521F08091F200882319F05FBFC901D5
:1015300008958BE68093E800F9CF2FB7F89483E005
:101540008093E9009091E800892F807295FF04C094
:101550009091F20080E4891B2FBF0895CF93DF9311
:101560001F92CDB7DEB76983DC01ED91FC9102805B
:10157000F381E02D41E050E0BE016F5F7F4F0995A0
:101580000F90DF91CF91089583E08093E9008091DF
:10159000F200882319F08AE38093E80008950E94FE
:1015A0009D0A90E00895CF93DF931F92CDB7DEB7E9
:1015B000FC018485958597FD05C02FEF3FEF3587AA
:1015C00024870BC0CE0101960E946F0A019719F47F
:1015D000898190E002C08FEF9FEF0F90DF91CF9154
:1015E00008950F931F93CF93DF931F92CDB7DEB76C
:1015F0008C01FC018485958597FF0EC0CE01019674
:101600000E946F0A019719F4898190E002C08FEF60
:101610009FEFF80195878487F801848595850F9061
:10162000DF91CF911F910F9108958F929F92AF926A
:10163000BF92CF92DF92EF92FF920F931F93CF93BF
:10164000DF936C017B018A0180910B01882309F4EF
:101650005CC08091C301882309F457C08091C10107
:1016600080FF05C08091E00082608093E000E80187
:10167000B12C8AEFA82E93E0892E2AE3922E209790
:1016800011F4BB20D9F10E949D0A81110AC0AA94CD
:10169000AA20D9F161E070E080E090E00E9421088A
:1016A000EECF282F30E0C217D3070CF48C2F9FB752
:1016B000F8948092E9002091E80025FF1DC0282FB2
:1016C00030E0C21BD30BF701815020F041914093D1
:1016D000F100FACFE20EF31EBB2019F09092E80061
:1016E0000AC08091E80085FD07C09092E800BB2405
:1016F000B394209709F0B12C9FBFC1CF5D9884E6C9
:101700008093C0011016110644F081E090E0F601CC
:101710009383828380E090E001C0C801DF91CF9184
:101720001F910F91FF90EF90DF90CF90BF90AF90FF
:101730009F908F90089530912F02313208F04BC066
:1017400080910C028111FCCF9091720222E02093D3
:101750000C0221E020930B022FEF20930A0210923B
:10176000090230930802EFE0F2E0A8EEB1E020E0D9
:10177000321721F041914D932F5FFACF1092E7017C
:101780002091E701990F922B9093E7019091E60148
:10179000913061F41092E6019091E7019093BB00C3
:1017A0009091BC0093FDF8CF95EC01C095EE90931D
:1017B000BC0090910C029230E1F390910A029F3F9D
:1017C00079F080910A02803241F080910A028033E0
:1017D00031F084E005C081E003C082E001C083E015
:1017E00010920E0210922F0210920D02089591E0B5
:1017F00090930D028093720210920E0210922F02AB
:101800000895682F80E392E00C945D05CF93DF93F9
:1018100090E0FC01E955FE4F2491FC01E857FE4F92
:1018200084918823C1F090E0880F991FFC01E6584D
:10183000FE4FC591D491FC01E459FE4FA591B4919E
:101840009FB7F8948881E22FE0958E2388838C914E
:10185000E823EC939FBFDF91CF910895CF92DF9261
:10186000EF92FF920F931F93CF93C82F40E050E069
:10187000682F8DE392E00E9490088C01C150C23025
:1018800048F4C0904A02D0904B02E0904C02F09095
:101890004D0208C0C0904E02D0904F02E09050021E
:1018A000F09051020E94FC07609352027093530221
:1018B0008093540290935502C0925602D0925702E0
:1018C000E0925802F0925902C801CF911F910F91F6
:1018D000FF90EF90DF90CF900895CF93FC01C0A5CB
:1018E00060FF02C082A1C82B61FF02C083A1C82B88
:1018F00062FF02C084A1C82B63FF02C085A1C82B70
:101900004130510511F480A1C82B81A18C2B90E0AE
:101910000E94010C6C2F80E392E0CF910C945D0546
:1019200090910C029111FCCF91E090930C02909356
:101930000B022FEF20930A02109209021092080264
:101940009093E7019091E701880F892B8093E7013D
:101950008091E601813061F41092E6018091E70107
:101960008093BB008091BC0083FDF8CF85EC01C063
:1019700085EE8093BC0080910C028130E1F3809170
:101980000902811103C09091090201C091E0E8EEC3
:10199000F1E0A6ECB1E080E0891721F021912D93D0
:1019A0008F5FFACF1092C5018093C4010895CF9341
:1019B000DF93282F30E0F901E35BFE4F8491F901BA
:1019C000E955FE4FD491F901E857FE4FC491CC235D
:1019D00089F081110E949607EC2FF0E0EE0FFF1FB7
:1019E000E459FE4FA591B4918FB7F894EC91ED2B8B
:1019F000EC938FBFDF91CF91089580916A0281119E
:101A00000DC082E08093660284E0809367021092AA
:101A100069021092680281E080936A0286E692E091
:101A20000895789484B5826084BD84B5816084BD56
:101A300085B5826085BD85B5816085BD80916E006C
:101A4000816080936E00109281008091810082609D
:101A500080938100809181008160809381008091DA
:101A600080008160809380008091910082608093EB
:101A7000910080919100816080939100809190000D
:101A80008160809390008091C10084608093C10048
:101A90008091C10082608093C1008091C10081600B
:101AA0008093C1008091C30081608093C3008091C6
:101AB000C00082608093C0008091C20081608093EA
:101AC000C20080917A00846080937A0080917A00CD
:101AD000826080937A0080917A00816080937A009E
:101AE00080917A00806880937A001092C3011092EE
:101AF0006F011092C1018091D70081608093D7005F
:101B000080EA8093D80089B5806189BD89B58260FB
:101B100089BD09B400FEFDCF61E070E080E090E097
:101B20000E9421088091D8008F7C80618093D8002A
:101B30008091E000807F8093E0008091E1008E7EC4
:101B40008093E1008DE08093E200559A209A80E135
:101B50008093440292E0909345021092460290E4F2
:101B6000909347028093480280E58093490264E69F
:101B700070E080E090E00E942108109241028DE325
:101B800092E00E94DF05892B09F054C08091450244
:101B9000823028F08091410288608093410242E0C7
:101BA00050E060E38DE392E00E94900865E070E011
:101BB00080E090E00E94210842E050E060E38DE385
:101BC00092E00E94900861E070E080E090E00E9466
:101BD000210842E050E060E38DE392E00E9490082B
:101BE00061E070E080E090E00E9421088091410275
:101BF00084FD07C042E050E060E28DE392E00E9485
:101C000090088091410280620E942E0C84E08093B3
:101C100042028CE00E942E0C81E00E942E0C82E099
:101C20008093430286E00E942E0C6FEF8DE392E0DA
:101C30000E94B60580E00E94060C83E00E94060C1C
:101C4000C0E0D0E081E00E942E0C60E08DE392E0E5
:101C50000E94B60580E00E94D30783E00E94D3076C
:101C6000892B29F044E050E06FE571E004C045E0C5
:101C700050E064E671E08DE392E00E94BF0168EEFF
:101C800073E080E090E00E9421082097D9F20E9442
:101C90000000D8CFCF93DF93E3E7F2E01382128204
:101CA00088EE93E0A0E0B0E084839583A683B783B9
:101CB00027E131E0318320832FEF3FEF3587248701
:101CC000E0E3F2E01382128284839583A683B783D4
:101CD00089E291E091838083CDE3D2E01B821A8276
:101CE0008BE391E09983888380ED97E0A0E0B0E0FA
:101CF0008D879E87AF87B88B85E290E0A0E0B0E04B
:101D0000898B9A8BAB8BBC8B0E94FC076D8B7E8B77
:101D10008F8B988F198E1A8E1B8E1C8E8FE491E0FC
:101D20009983888380913C0291E0980F90933C02C4
:101D30008D8F1F8E1E8EDF91CF910895EE0FFF1FA6
:101D40000590F491E02D099481E090E0F8940C94D2
:061D5000A90EF894FFCF7C
:101D5600FFFFFFFF00E100000000000000C18081DE
:101D660000000000000000AE0A150BCF0AC40A0EE0
:101D760001D30AF10A000000005D053005CD040418
:101D860005280514050505000000005B08BF01CD08
:101D9600048D05CD041B028C058C05000000005B3C
:101DA60008BF01CD048D05DF059008B6058C0554E6
:0A1DB6007275650046616C736500EC
:00000001FF
